{
  "contractName": "PawningShop",
  "abi": [
    {
      "inputs": [],
      "stateMutability": "nonpayable",
      "type": "constructor"
    },
    {
      "anonymous": false,
      "inputs": [
        {
          "indexed": false,
          "internalType": "uint256",
          "name": "pawnId",
          "type": "uint256"
        },
        {
          "indexed": false,
          "internalType": "uint256",
          "name": "bidId",
          "type": "uint256"
        }
      ],
      "name": "BidAccepted",
      "type": "event"
    },
    {
      "anonymous": false,
      "inputs": [
        {
          "indexed": false,
          "internalType": "address",
          "name": "creator",
          "type": "address"
        },
        {
          "indexed": false,
          "internalType": "uint256",
          "name": "pawnId",
          "type": "uint256"
        },
        {
          "indexed": false,
          "internalType": "uint256",
          "name": "bidId",
          "type": "uint256"
        }
      ],
      "name": "BidCancelled",
      "type": "event"
    },
    {
      "anonymous": false,
      "inputs": [
        {
          "indexed": false,
          "internalType": "address",
          "name": "creator",
          "type": "address"
        },
        {
          "indexed": false,
          "internalType": "uint256",
          "name": "pawnId",
          "type": "uint256"
        },
        {
          "indexed": false,
          "internalType": "uint256",
          "name": "bidId",
          "type": "uint256"
        }
      ],
      "name": "BidCreated",
      "type": "event"
    },
    {
      "anonymous": false,
      "inputs": [
        {
          "indexed": false,
          "internalType": "address",
          "name": "pawner",
          "type": "address"
        },
        {
          "indexed": false,
          "internalType": "uint256",
          "name": "pawnId",
          "type": "uint256"
        }
      ],
      "name": "PawnCancelled",
      "type": "event"
    },
    {
      "anonymous": false,
      "inputs": [
        {
          "indexed": false,
          "internalType": "address",
          "name": "pawner",
          "type": "address"
        },
        {
          "indexed": false,
          "internalType": "uint256",
          "name": "pawnId",
          "type": "uint256"
        }
      ],
      "name": "PawnCreated",
      "type": "event"
    },
    {
      "anonymous": false,
      "inputs": [
        {
          "indexed": false,
          "internalType": "address",
          "name": "pawner",
          "type": "address"
        },
        {
          "indexed": false,
          "internalType": "address",
          "name": "lender",
          "type": "address"
        },
        {
          "indexed": false,
          "internalType": "uint256",
          "name": "pawnId",
          "type": "uint256"
        }
      ],
      "name": "PawnDeal",
      "type": "event"
    },
    {
      "anonymous": false,
      "inputs": [
        {
          "indexed": false,
          "internalType": "address",
          "name": "pawner",
          "type": "address"
        },
        {
          "indexed": false,
          "internalType": "address",
          "name": "lender",
          "type": "address"
        },
        {
          "indexed": false,
          "internalType": "uint256",
          "name": "pawnId",
          "type": "uint256"
        }
      ],
      "name": "PawnLiquidated",
      "type": "event"
    },
    {
      "anonymous": false,
      "inputs": [
        {
          "indexed": false,
          "internalType": "address",
          "name": "pawner",
          "type": "address"
        },
        {
          "indexed": false,
          "internalType": "address",
          "name": "lender",
          "type": "address"
        },
        {
          "indexed": false,
          "internalType": "uint256",
          "name": "pawnId",
          "type": "uint256"
        }
      ],
      "name": "PawnRepaid",
      "type": "event"
    },
    {
      "anonymous": false,
      "inputs": [
        {
          "indexed": false,
          "internalType": "address",
          "name": "smartContract",
          "type": "address"
        }
      ],
      "name": "WhiteListAdded",
      "type": "event"
    },
    {
      "anonymous": false,
      "inputs": [
        {
          "indexed": false,
          "internalType": "address",
          "name": "smartContract",
          "type": "address"
        }
      ],
      "name": "WhiteListRemoved",
      "type": "event"
    },
    {
      "inputs": [
        {
          "internalType": "uint256",
          "name": "",
          "type": "uint256"
        }
      ],
      "name": "_bidToPawn",
      "outputs": [
        {
          "internalType": "uint256",
          "name": "",
          "type": "uint256"
        }
      ],
      "stateMutability": "view",
      "type": "function",
      "constant": true
    },
    {
      "inputs": [
        {
          "internalType": "uint256",
          "name": "",
          "type": "uint256"
        }
      ],
      "name": "_bids",
      "outputs": [
        {
          "internalType": "address",
          "name": "creator",
          "type": "address"
        },
        {
          "internalType": "uint256",
          "name": "loanAmount",
          "type": "uint256"
        },
        {
          "internalType": "uint256",
          "name": "interest",
          "type": "uint256"
        },
        {
          "internalType": "uint256",
          "name": "loanStartTime",
          "type": "uint256"
        },
        {
          "internalType": "uint256",
          "name": "loanDuration",
          "type": "uint256"
        },
        {
          "internalType": "bool",
          "name": "isInterestProRated",
          "type": "bool"
        }
      ],
      "stateMutability": "view",
      "type": "function",
      "constant": true
    },
    {
      "inputs": [],
      "name": "_feeRate",
      "outputs": [
        {
          "internalType": "uint256",
          "name": "",
          "type": "uint256"
        }
      ],
      "stateMutability": "view",
      "type": "function",
      "constant": true
    },
    {
      "inputs": [
        {
          "internalType": "uint256",
          "name": "",
          "type": "uint256"
        }
      ],
      "name": "_pawnToBid",
      "outputs": [
        {
          "internalType": "uint256",
          "name": "",
          "type": "uint256"
        }
      ],
      "stateMutability": "view",
      "type": "function",
      "constant": true
    },
    {
      "inputs": [
        {
          "internalType": "uint256",
          "name": "",
          "type": "uint256"
        }
      ],
      "name": "_pawns",
      "outputs": [
        {
          "internalType": "address",
          "name": "creator",
          "type": "address"
        },
        {
          "internalType": "address",
          "name": "contractAddress",
          "type": "address"
        },
        {
          "internalType": "uint256",
          "name": "tokenId",
          "type": "uint256"
        },
        {
          "internalType": "enum PawningShop.PawnStatus",
          "name": "status",
          "type": "uint8"
        }
      ],
      "stateMutability": "view",
      "type": "function",
      "constant": true
    },
    {
      "inputs": [],
      "name": "_totalNumberOfBid",
      "outputs": [
        {
          "internalType": "uint256",
          "name": "",
          "type": "uint256"
        }
      ],
      "stateMutability": "view",
      "type": "function",
      "constant": true
    },
    {
      "inputs": [],
      "name": "_totalNumberOfPawn",
      "outputs": [
        {
          "internalType": "uint256",
          "name": "",
          "type": "uint256"
        }
      ],
      "stateMutability": "view",
      "type": "function",
      "constant": true
    },
    {
      "inputs": [
        {
          "internalType": "uint256",
          "name": "",
          "type": "uint256"
        }
      ],
      "name": "_whiteListNFT",
      "outputs": [
        {
          "internalType": "address",
          "name": "",
          "type": "address"
        }
      ],
      "stateMutability": "view",
      "type": "function",
      "constant": true
    },
    {
      "inputs": [],
      "name": "owner",
      "outputs": [
        {
          "internalType": "address",
          "name": "",
          "type": "address"
        }
      ],
      "stateMutability": "view",
      "type": "function",
      "constant": true
    },
    {
      "inputs": [
        {
          "internalType": "uint256",
          "name": "id",
          "type": "uint256"
        }
      ],
      "name": "getPawnById",
      "outputs": [
        {
          "components": [
            {
              "internalType": "address",
              "name": "creator",
              "type": "address"
            },
            {
              "internalType": "address",
              "name": "contractAddress",
              "type": "address"
            },
            {
              "internalType": "uint256",
              "name": "tokenId",
              "type": "uint256"
            },
            {
              "internalType": "enum PawningShop.PawnStatus",
              "name": "status",
              "type": "uint8"
            }
          ],
          "internalType": "struct PawningShop.Pawn",
          "name": "",
          "type": "tuple"
        }
      ],
      "stateMutability": "view",
      "type": "function",
      "constant": true
    },
    {
      "inputs": [
        {
          "internalType": "address",
          "name": "tokenAddress",
          "type": "address"
        },
        {
          "internalType": "uint256",
          "name": "tokenId",
          "type": "uint256"
        }
      ],
      "name": "createPawn",
      "outputs": [],
      "stateMutability": "nonpayable",
      "type": "function"
    },
    {
      "inputs": [
        {
          "internalType": "uint256",
          "name": "pawnId",
          "type": "uint256"
        }
      ],
      "name": "cancelPawn",
      "outputs": [],
      "stateMutability": "nonpayable",
      "type": "function"
    },
    {
      "inputs": [
        {
          "internalType": "uint8",
          "name": "rate",
          "type": "uint8"
        },
        {
          "internalType": "uint256",
          "name": "duration",
          "type": "uint256"
        },
        {
          "internalType": "bool",
          "name": "isInterestProRated",
          "type": "bool"
        },
        {
          "internalType": "uint256",
          "name": "pawnId",
          "type": "uint256"
        }
      ],
      "name": "createBid",
      "outputs": [],
      "stateMutability": "payable",
      "type": "function",
      "payable": true
    },
    {
      "inputs": [
        {
          "internalType": "uint256",
          "name": "bidId",
          "type": "uint256"
        }
      ],
      "name": "cancelBid",
      "outputs": [],
      "stateMutability": "nonpayable",
      "type": "function"
    },
    {
      "inputs": [
        {
          "internalType": "uint256",
          "name": "bidId",
          "type": "uint256"
        }
      ],
      "name": "acceptBid",
      "outputs": [],
      "stateMutability": "nonpayable",
      "type": "function"
    },
    {
      "inputs": [
        {
          "internalType": "uint256",
          "name": "pawnId",
          "type": "uint256"
        }
      ],
      "name": "repaid",
      "outputs": [],
      "stateMutability": "payable",
      "type": "function",
      "payable": true
    },
    {
      "inputs": [
        {
          "internalType": "uint256",
          "name": "loanStartTime",
          "type": "uint256"
        },
        {
          "internalType": "uint256",
          "name": "loanDuration",
          "type": "uint256"
        }
      ],
      "name": "_calculateRepayDeadline",
      "outputs": [
        {
          "internalType": "uint256",
          "name": "",
          "type": "uint256"
        }
      ],
      "stateMutability": "pure",
      "type": "function",
      "constant": true
    },
    {
      "inputs": [
        {
          "internalType": "uint256",
          "name": "original",
          "type": "uint256"
        },
        {
          "internalType": "uint256",
          "name": "interest",
          "type": "uint256"
        },
        {
          "internalType": "uint256",
          "name": "loanStartTime",
          "type": "uint256"
        },
        {
          "internalType": "uint256",
          "name": "duration",
          "type": "uint256"
        },
        {
          "internalType": "bool",
          "name": "isInterestProRated",
          "type": "bool"
        }
      ],
      "name": "_calculateRepaidAmount",
      "outputs": [
        {
          "internalType": "uint256",
          "name": "",
          "type": "uint256"
        }
      ],
      "stateMutability": "view",
      "type": "function",
      "constant": true
    },
    {
      "inputs": [
        {
          "internalType": "uint256",
          "name": "pawnId",
          "type": "uint256"
        }
      ],
      "name": "getRepaidAmount",
      "outputs": [
        {
          "internalType": "uint256",
          "name": "",
          "type": "uint256"
        }
      ],
      "stateMutability": "view",
      "type": "function",
      "constant": true
    },
    {
      "inputs": [
        {
          "internalType": "uint256",
          "name": "bidId",
          "type": "uint256"
        }
      ],
      "name": "liquidate",
      "outputs": [],
      "stateMutability": "nonpayable",
      "type": "function"
    },
    {
      "inputs": [
        {
          "internalType": "address",
          "name": "smartContract",
          "type": "address"
        }
      ],
      "name": "addToWhiteList",
      "outputs": [],
      "stateMutability": "nonpayable",
      "type": "function"
    },
    {
      "inputs": [
        {
          "internalType": "address",
          "name": "smartContract",
          "type": "address"
        }
      ],
      "name": "removeFromWhiteList",
      "outputs": [],
      "stateMutability": "nonpayable",
      "type": "function"
    },
    {
      "inputs": [],
      "name": "getWhiteList",
      "outputs": [
        {
          "internalType": "address[]",
          "name": "",
          "type": "address[]"
        }
      ],
      "stateMutability": "view",
      "type": "function",
      "constant": true
    }
  ],
  "bytecode": "0x60806040526000600355600060045534801561001a57600080fd5b50336000806101000a81548173ffffffffffffffffffffffffffffffffffffffff021916908373ffffffffffffffffffffffffffffffffffffffff160217905550613fcd8061006a6000396000f3fe6080604052600436106101405760003560e01c80635f93893b116100b65780639703ef351161006f5780639703ef3514610490578063aff109a4146104b9578063b2131f7d146104f6578063b53c370114610521578063c398f41f1461054a578063d98dbf211461057557610140565b80635f93893b146103525780636707927d1461036e5780638228c579146103ab57806386271db4146103e85780638bfaf684146104255780638da5cb5b1461046557610140565b80632b1fd58a116101085780632b1fd58a146102555780633ce11def1461027e578063415f1240146102a757806347ee0394146102d05780635b093b05146102f95780635e7c71dc1461033657610140565b806301bf66481461014557806309a9d76c1461016e57806326d8600b146101995780632712b2e5146101d657806327706ae514610218575b600080fd5b34801561015157600080fd5b5061016c600480360381019061016791906127f1565b6105a0565b005b34801561017a57600080fd5b50610183610790565b6040516101909190613070565b60405180910390f35b3480156101a557600080fd5b506101c060048036038101906101bb91906128a8565b61081e565b6040516101cd9190612eb8565b60405180910390f35b3480156101e257600080fd5b506101fd60048036038101906101f891906128a8565b61085d565b60405161020f9695949392919061300f565b60405180910390f35b34801561022457600080fd5b5061023f600480360381019061023a91906128a8565b6108c6565b60405161024c91906133ed565b60405180910390f35b34801561026157600080fd5b5061027c600480360381019061027791906128a8565b6109b3565b005b34801561028a57600080fd5b506102a560048036038101906102a091906128a8565b610bf6565b005b3480156102b357600080fd5b506102ce60048036038101906102c991906128a8565b610f06565b005b3480156102dc57600080fd5b506102f760048036038101906102f291906127f1565b611190565b005b34801561030557600080fd5b50610320600480360381019061031b91906128d1565b6113ee565b60405161032d91906133ed565b60405180910390f35b610350600480360381019061034b9190612984565b61142b565b005b61036c600480360381019061036791906128a8565b611874565b005b34801561037a57600080fd5b50610395600480360381019061039091906128a8565b611c24565b6040516103a291906133d2565b60405180910390f35b3480156103b757600080fd5b506103d260048036038101906103cd91906128a8565b611d8e565b6040516103df91906133ed565b60405180910390f35b3480156103f457600080fd5b5061040f600480360381019061040a91906128a8565b611da6565b60405161041c91906133ed565b60405180910390f35b34801561043157600080fd5b5061044c600480360381019061044791906128a8565b611dbe565b60405161045c9493929190612f6a565b60405180910390f35b34801561047157600080fd5b5061047a611e3b565b6040516104879190612eb8565b60405180910390f35b34801561049c57600080fd5b506104b760048036038101906104b291906128a8565b611e5f565b005b3480156104c557600080fd5b506104e060048036038101906104db919061290d565b61211d565b6040516104ed91906133ed565b60405180910390f35b34801561050257600080fd5b5061050b6121a0565b60405161051891906133ed565b60405180910390f35b34801561052d57600080fd5b5061054860048036038101906105439190612843565b6121a6565b005b34801561055657600080fd5b5061055f612644565b60405161056c91906133ed565b60405180910390f35b34801561058157600080fd5b5061058a61264a565b60405161059791906133ed565b60405180910390f35b60008054906101000a900473ffffffffffffffffffffffffffffffffffffffff1673ffffffffffffffffffffffffffffffffffffffff163373ffffffffffffffffffffffffffffffffffffffff161461062e576040517f08c379a000000000000000000000000000000000000000000000000000000000815260040161062590613352565b60405180910390fd5b60005b6001805490508110156106ee578173ffffffffffffffffffffffffffffffffffffffff166001828154811061068f577f4e487b7100000000000000000000000000000000000000000000000000000000600052603260045260246000fd5b9060005260206000200160009054906101000a900473ffffffffffffffffffffffffffffffffffffffff1673ffffffffffffffffffffffffffffffffffffffff1614156106db576106ee565b80806106e690613640565b915050610631565b60018181548110610728577f4e487b7100000000000000000000000000000000000000000000000000000000600052603260045260246000fd5b9060005260206000200160006101000a81549073ffffffffffffffffffffffffffffffffffffffff02191690557fdb0d54f6e7ff4a52bdc49b4c8d9ff245f409fee25c2c0a0a72ece14e2ddf4cfc826040516107849190612eb8565b60405180910390a15050565b6060600180548060200260200160405190810160405280929190818152602001828054801561081457602002820191906000526020600020905b8160009054906101000a900473ffffffffffffffffffffffffffffffffffffffff1673ffffffffffffffffffffffffffffffffffffffff16815260200190600101908083116107ca575b5050505050905090565b6001818154811061082e57600080fd5b906000526020600020016000915054906101000a900473ffffffffffffffffffffffffffffffffffffffff1681565b60066020528060005260406000206000915090508060000160009054906101000a900473ffffffffffffffffffffffffffffffffffffffff16908060010154908060020154908060030154908060040154908060050160009054906101000a900460ff16905086565b600080821161090a576040517f08c379a000000000000000000000000000000000000000000000000000000000815260040161090190613232565b60405180910390fd5b60006008600084815260200190815260200160002054905060008111610965576040517f08c379a000000000000000000000000000000000000000000000000000000000815260040161095c906133b2565b60405180910390fd5b60006006600083815260200190815260200160002090506109aa81600101548260020154836003015484600401548560050160009054906101000a900460ff1661211d565b92505050919050565b600060066000838152602001908152602001600020905060006007600084815260200190815260200160002054905060008111610a25576040517f08c379a0000000000000000000000000000000000000000000000000000000008152600401610a1c906131d2565b60405180910390fd5b60006005600083815260200190815260200160002090503373ffffffffffffffffffffffffffffffffffffffff168160000160009054906101000a900473ffffffffffffffffffffffffffffffffffffffff1673ffffffffffffffffffffffffffffffffffffffff1614610ace576040517f08c379a0000000000000000000000000000000000000000000000000000000008152600401610ac5906131f2565b60405180910390fd5b60008160000160009054906101000a900473ffffffffffffffffffffffffffffffffffffffff1690508073ffffffffffffffffffffffffffffffffffffffff166108fc85600101549081150290604051600060405180830381858888f19350505050158015610b41573d6000803e3d6000fd5b5060028260030160006101000a81548160ff02191690836004811115610b90577f4e487b7100000000000000000000000000000000000000000000000000000000600052602160045260246000fd5b02179055508460086000858152602001908152602001600020819055504284600301819055507feeb046b305fcff3538cfdefcb3ce223663ef84836df9830a1de00bc00817631e8386604051610be7929190613408565b60405180910390a15050505050565b600060056000838152602001908152602001600020905060008160000160009054906101000a900473ffffffffffffffffffffffffffffffffffffffff16905060006004811115610c70577f4e487b7100000000000000000000000000000000000000000000000000000000600052602160045260246000fd5b8260030160009054906101000a900460ff166004811115610cba577f4e487b7100000000000000000000000000000000000000000000000000000000600052602160045260246000fd5b14610cfa576040517f08c379a0000000000000000000000000000000000000000000000000000000008152600401610cf1906132d2565b60405180910390fd5b8073ffffffffffffffffffffffffffffffffffffffff163373ffffffffffffffffffffffffffffffffffffffff1614610d68576040517f08c379a0000000000000000000000000000000000000000000000000000000008152600401610d5f906130f2565b60405180910390fd5b6000600860008581526020019081526020016000205414610dbe576040517f08c379a0000000000000000000000000000000000000000000000000000000008152600401610db590613212565b60405180910390fd5b60018260030160006101000a81548160ff02191690836004811115610e0c577f4e487b7100000000000000000000000000000000000000000000000000000000600052602160045260246000fd5b02179055508160010160009054906101000a900473ffffffffffffffffffffffffffffffffffffffff1673ffffffffffffffffffffffffffffffffffffffff166323b872dd308385600201546040518463ffffffff1660e01b8152600401610e7693929190612f33565b600060405180830381600087803b158015610e9057600080fd5b505af1158015610ea4573d6000803e3d6000fd5b505050507f6d2c0a066258c4b768dc98e6e9ce603e177a49c3b5ed4521b992fcddd16ccec460008054906101000a900473ffffffffffffffffffffffffffffffffffffffff1684604051610ef9929190612faf565b60405180910390a1505050565b600060066000838152602001908152602001600020905060008160000160009054906101000a900473ffffffffffffffffffffffffffffffffffffffff1690503373ffffffffffffffffffffffffffffffffffffffff168173ffffffffffffffffffffffffffffffffffffffff1614610fb4576040517f08c379a0000000000000000000000000000000000000000000000000000000008152600401610fab906132b2565b60405180910390fd5b81600101548260030154610fc8919061347b565b4211611009576040517f08c379a000000000000000000000000000000000000000000000000000000000815260040161100090613312565b60405180910390fd5b60006007600085815260200190815260200160002054905083600860008381526020019081526020016000205414611076576040517f08c379a000000000000000000000000000000000000000000000000000000000815260040161106d90613192565b60405180910390fd5b600060056000838152602001908152602001600020905060008160000160009054906101000a900473ffffffffffffffffffffffffffffffffffffffff1690508160010160009054906101000a900473ffffffffffffffffffffffffffffffffffffffff1673ffffffffffffffffffffffffffffffffffffffff166323b872dd308685600201546040518463ffffffff1660e01b815260040161111b93929190612f33565b600060405180830381600087803b15801561113557600080fd5b505af1158015611149573d6000803e3d6000fd5b505050507f3f04bdfbb29083e787b72e4ad2d2b43ea0d6a571e532274d9a560234498315cc81858560405161118093929190612f33565b60405180910390a1505050505050565b60008054906101000a900473ffffffffffffffffffffffffffffffffffffffff1673ffffffffffffffffffffffffffffffffffffffff163373ffffffffffffffffffffffffffffffffffffffff161461121e576040517f08c379a000000000000000000000000000000000000000000000000000000000815260040161121590613292565b60405180910390fd5b600073ffffffffffffffffffffffffffffffffffffffff168173ffffffffffffffffffffffffffffffffffffffff16141561128e576040517f08c379a000000000000000000000000000000000000000000000000000000000815260040161128590613132565b60405180910390fd5b60005b60018054905081101561134f578173ffffffffffffffffffffffffffffffffffffffff16600182815481106112ef577f4e487b7100000000000000000000000000000000000000000000000000000000600052603260045260246000fd5b9060005260206000200160009054906101000a900473ffffffffffffffffffffffffffffffffffffffff1673ffffffffffffffffffffffffffffffffffffffff16141561133c57506113eb565b808061134790613640565b915050611291565b6001829080600181540180825580915050600190039060005260206000200160009091909190916101000a81548173ffffffffffffffffffffffffffffffffffffffff021916908373ffffffffffffffffffffffffffffffffffffffff1602179055507fbf309892cce19064e6d63ba3339f893b199c8cb5041fc6731702cb18e805d291826040516113e19190612eb8565b60405180910390a1505b50565b600080611407620151808461265090919063ffffffff16565b9050600061141e828661266690919063ffffffff16565b9050809250505092915050565b60016004600082825461143e919061347b565b92505081905550600033905060003490506000600560008581526020019081526020016000209050600084116114a9576040517f08c379a00000000000000000000000000000000000000000000000000000000081526004016114a0906132f2565b60405180910390fd5b600073ffffffffffffffffffffffffffffffffffffffff168160000160009054906101000a900473ffffffffffffffffffffffffffffffffffffffff1673ffffffffffffffffffffffffffffffffffffffff1614158061155a5750600073ffffffffffffffffffffffffffffffffffffffff168160010160009054906101000a900473ffffffffffffffffffffffffffffffffffffffff1673ffffffffffffffffffffffffffffffffffffffff1614155b611599576040517f08c379a0000000000000000000000000000000000000000000000000000000008152600401611590906130d2565b60405180910390fd5b8273ffffffffffffffffffffffffffffffffffffffff168160000160009054906101000a900473ffffffffffffffffffffffffffffffffffffffff1673ffffffffffffffffffffffffffffffffffffffff16141561162c576040517f08c379a000000000000000000000000000000000000000000000000000000000815260040161162390613332565b60405180910390fd5b60006004811115611666577f4e487b7100000000000000000000000000000000000000000000000000000000600052602160045260246000fd5b8160030160009054906101000a900460ff1660048111156116b0577f4e487b7100000000000000000000000000000000000000000000000000000000600052602160045260246000fd5b146116f0576040517f08c379a00000000000000000000000000000000000000000000000000000000081526004016116e790613112565b60405180910390fd5b60008211611733576040517f08c379a000000000000000000000000000000000000000000000000000000000815260040161172a90613372565b60405180910390fd5b8260066000600454815260200190815260200160002060000160006101000a81548173ffffffffffffffffffffffffffffffffffffffff021916908373ffffffffffffffffffffffffffffffffffffffff16021790555081600660006004548152602001908152602001600020600101819055508660ff166006600060045481526020019081526020016000206002018190555085600660006004548152602001908152602001600020600401819055508460066000600454815260200190815260200160002060050160006101000a81548160ff02191690831515021790555083600760006004548152602001908152602001600020819055507fbc13236afe4f10fc8d44c86b16e9e6695b2758938a2bedf6ceef72157259447b838560045460405161186393929190612fd8565b60405180910390a150505050505050565b60006005600083815260200190815260200160002090503373ffffffffffffffffffffffffffffffffffffffff168160000160009054906101000a900473ffffffffffffffffffffffffffffffffffffffff1673ffffffffffffffffffffffffffffffffffffffff161461191d576040517f08c379a000000000000000000000000000000000000000000000000000000000815260040161191490613392565b60405180910390fd5b6000600860008481526020019081526020016000205490506000811415611979576040517f08c379a000000000000000000000000000000000000000000000000000000000815260040161197090613252565b60405180910390fd5b600060066000838152602001908152602001600020905060006119a4826003015483600401546113ee565b9050804211156119e9576040517f08c379a00000000000000000000000000000000000000000000000000000000081526004016119e090613152565b60405180910390fd5b60003490506000611a1e84600101548560020154866003015487600401548860050160009054906101000a900460ff1661211d565b9050808214611a62576040517f08c379a0000000000000000000000000000000000000000000000000000000008152600401611a59906131b2565b60405180910390fd5b8560010160009054906101000a900473ffffffffffffffffffffffffffffffffffffffff1673ffffffffffffffffffffffffffffffffffffffff166323b872dd308860000160009054906101000a900473ffffffffffffffffffffffffffffffffffffffff1689600201546040518463ffffffff1660e01b8152600401611aeb93929190612f33565b600060405180830381600087803b158015611b0557600080fd5b505af1158015611b19573d6000803e3d6000fd5b5050505060008460000160009054906101000a900473ffffffffffffffffffffffffffffffffffffffff1690508073ffffffffffffffffffffffffffffffffffffffff166108fc849081150290604051600060405180830381858888f19350505050158015611b8c573d6000803e3d6000fd5b50600860008981526020019081526020016000206000905560076000878152602001908152602001600020600090557f387b6c44a03a44af16fb6452ab8551059597dfe9a7287d1850fcfa5a81595c3d8760000160009054906101000a900473ffffffffffffffffffffffffffffffffffffffff16828a604051611c1293929190612efc565b60405180910390a15050505050505050565b611c2c6126e7565b600560008381526020019081526020016000206040518060800160405290816000820160009054906101000a900473ffffffffffffffffffffffffffffffffffffffff1673ffffffffffffffffffffffffffffffffffffffff1673ffffffffffffffffffffffffffffffffffffffff1681526020016001820160009054906101000a900473ffffffffffffffffffffffffffffffffffffffff1673ffffffffffffffffffffffffffffffffffffffff1673ffffffffffffffffffffffffffffffffffffffff168152602001600282015481526020016003820160009054906101000a900460ff166004811115611d4b577f4e487b7100000000000000000000000000000000000000000000000000000000600052602160045260246000fd5b6004811115611d83577f4e487b7100000000000000000000000000000000000000000000000000000000600052602160045260246000fd5b815250509050919050565b60076020528060005260406000206000915090505481565b60086020528060005260406000206000915090505481565b60056020528060005260406000206000915090508060000160009054906101000a900473ffffffffffffffffffffffffffffffffffffffff16908060010160009054906101000a900473ffffffffffffffffffffffffffffffffffffffff16908060020154908060030160009054906101000a900460ff16905084565b60008054906101000a900473ffffffffffffffffffffffffffffffffffffffff1681565b6000600660008381526020019081526020016000206040518060c00160405290816000820160009054906101000a900473ffffffffffffffffffffffffffffffffffffffff1673ffffffffffffffffffffffffffffffffffffffff1673ffffffffffffffffffffffffffffffffffffffff168152602001600182015481526020016002820154815260200160038201548152602001600482015481526020016005820160009054906101000a900460ff16151515158152505090506000339050816000015173ffffffffffffffffffffffffffffffffffffffff168173ffffffffffffffffffffffffffffffffffffffff1614611f91576040517f08c379a0000000000000000000000000000000000000000000000000000000008152600401611f88906130b2565b60405180910390fd5b6000600760008581526020019081526020016000205490508360086000838152602001908152602001600020541415611fff576040517f08c379a0000000000000000000000000000000000000000000000000000000008152600401611ff690613272565b60405180910390fd5b6000836000015190508073ffffffffffffffffffffffffffffffffffffffff166108fc85602001519081150290604051600060405180830381858888f19350505050158015612052573d6000803e3d6000fd5b5060066000868152602001908152602001600020600080820160006101000a81549073ffffffffffffffffffffffffffffffffffffffff021916905560018201600090556002820160009055600382016000905560048201600090556005820160006101000a81549060ff0219169055505060076000868152602001908152602001600020600090557f6ee61d45e149503ae29ac61f0d99b805266360d3b28490f047c7cc7b7ce9edcb83838760405161210e93929190612fd8565b60405180910390a15050505050565b600080859050821561218157600061213e858861267c90919063ffffffff16565b90506000612155874261269290919063ffffffff16565b9050600061216682620151806126a8565b905061217b838261265090919063ffffffff16565b93505050505b612194818861266690919063ffffffff16565b91505095945050505050565b60025481565b6001600360008282546121b9919061347b565b925050819055506000805b600180549050811015612281576001818154811061220b577f4e487b7100000000000000000000000000000000000000000000000000000000600052603260045260246000fd5b9060005260206000200160009054906101000a900473ffffffffffffffffffffffffffffffffffffffff1673ffffffffffffffffffffffffffffffffffffffff168473ffffffffffffffffffffffffffffffffffffffff16141561226e57600191505b808061227990613640565b9150506121c4565b50600033905060011515821515146122ce576040517f08c379a00000000000000000000000000000000000000000000000000000000081526004016122c590613172565b60405180910390fd5b60003073ffffffffffffffffffffffffffffffffffffffff168573ffffffffffffffffffffffffffffffffffffffff1663081812fc866040518263ffffffff1660e01b815260040161232091906133ed565b60206040518083038186803b15801561233857600080fd5b505afa15801561234c573d6000803e3d6000fd5b505050506040513d601f19601f82011682018060405250810190612370919061281a565b73ffffffffffffffffffffffffffffffffffffffff1614905060008573ffffffffffffffffffffffffffffffffffffffff1663e985e9c584306040518363ffffffff1660e01b81526004016123c6929190612ed3565b60206040518083038186803b1580156123de57600080fd5b505afa1580156123f2573d6000803e3d6000fd5b505050506040513d601f19601f82011682018060405250810190612416919061287f565b905081806124215750805b612460576040517f08c379a000000000000000000000000000000000000000000000000000000000815260040161245790613092565b60405180910390fd5b8573ffffffffffffffffffffffffffffffffffffffff166323b872dd3330886040518463ffffffff1660e01b815260040161249d93929190612f33565b600060405180830381600087803b1580156124b757600080fd5b505af11580156124cb573d6000803e3d6000fd5b505050508260056000600354815260200190815260200160002060000160006101000a81548173ffffffffffffffffffffffffffffffffffffffff021916908373ffffffffffffffffffffffffffffffffffffffff1602179055508560056000600354815260200190815260200160002060010160006101000a81548173ffffffffffffffffffffffffffffffffffffffff021916908373ffffffffffffffffffffffffffffffffffffffff1602179055508460056000600354815260200190815260200160002060020181905550600060056000600354815260200190815260200160002060030160006101000a81548160ff021916908360048111156125fc577f4e487b7100000000000000000000000000000000000000000000000000000000600052602160045260246000fd5b02179055507fd10594784457563b8564c078bb5c8bcc5e6b8e1b08b2d7ef7af261e84e366c1f83600354604051612634929190612faf565b60405180910390a1505050505050565b60045481565b60035481565b6000818361265e9190613502565b905092915050565b60008183612674919061347b565b905092915050565b6000818361268a91906134d1565b905092915050565b600081836126a0919061355c565b905092915050565b60008082846126b79190613689565b146126c35760016126c6565b60005b60ff1682846126d591906134d1565b6126df919061347b565b905092915050565b6040518060800160405280600073ffffffffffffffffffffffffffffffffffffffff168152602001600073ffffffffffffffffffffffffffffffffffffffff168152602001600081526020016000600481111561276d577f4e487b7100000000000000000000000000000000000000000000000000000000600052602160045260246000fd5b81525090565b60008135905061278281613f3b565b92915050565b60008151905061279781613f3b565b92915050565b6000813590506127ac81613f52565b92915050565b6000815190506127c181613f52565b92915050565b6000813590506127d681613f69565b92915050565b6000813590506127eb81613f80565b92915050565b60006020828403121561280357600080fd5b600061281184828501612773565b91505092915050565b60006020828403121561282c57600080fd5b600061283a84828501612788565b91505092915050565b6000806040838503121561285657600080fd5b600061286485828601612773565b9250506020612875858286016127c7565b9150509250929050565b60006020828403121561289157600080fd5b600061289f848285016127b2565b91505092915050565b6000602082840312156128ba57600080fd5b60006128c8848285016127c7565b91505092915050565b600080604083850312156128e457600080fd5b60006128f2858286016127c7565b9250506020612903858286016127c7565b9150509250929050565b600080600080600060a0868803121561292557600080fd5b6000612933888289016127c7565b9550506020612944888289016127c7565b9450506040612955888289016127c7565b9350506060612966888289016127c7565b92505060806129778882890161279d565b9150509295509295909350565b6000806000806080858703121561299a57600080fd5b60006129a8878288016127dc565b94505060206129b9878288016127c7565b93505060406129ca8782880161279d565b92505060606129db878288016127c7565b91505092959194509250565b60006129f38383612a0e565b60208301905092915050565b612a08816135f8565b82525050565b612a1781613590565b82525050565b612a2681613590565b82525050565b6000612a3782613441565b612a418185613459565b9350612a4c83613431565b8060005b83811015612a7d578151612a6488826129e7565b9750612a6f8361344c565b925050600181019050612a50565b5085935050505092915050565b612a93816135a2565b82525050565b612aa28161360a565b82525050565b612ab18161360a565b82525050565b6000612ac4602f8361346a565b9150612acf82613747565b604082019050919050565b6000612ae7602c8361346a565b9150612af282613796565b604082019050919050565b6000612b0a60208361346a565b9150612b15826137e5565b602082019050919050565b6000612b2d60318361346a565b9150612b388261380e565b604082019050919050565b6000612b5060218361346a565b9150612b5b8261385d565b604082019050919050565b6000612b73603c8361346a565b9150612b7e826138ac565b604082019050919050565b6000612b96601e8361346a565b9150612ba1826138fb565b602082019050919050565b6000612bb960308361346a565b9150612bc482613924565b604082019050919050565b6000612bdc60318361346a565b9150612be782613973565b604082019050919050565b6000612bff60268361346a565b9150612c0a826139c2565b604082019050919050565b6000612c2260248361346a565b9150612c2d82613a11565b604082019050919050565b6000612c4560308361346a565b9150612c5082613a60565b604082019050919050565b6000612c6860348361346a565b9150612c7382613aaf565b604082019050919050565b6000612c8b60238361346a565b9150612c9682613afe565b604082019050919050565b6000612cae60338361346a565b9150612cb982613b4d565b604082019050919050565b6000612cd160308361346a565b9150612cdc82613b9c565b604082019050919050565b6000612cf460358361346a565b9150612cff82613beb565b604082019050919050565b6000612d1760348361346a565b9150612d2282613c3a565b604082019050919050565b6000612d3a603a8361346a565b9150612d4582613c89565b604082019050919050565b6000612d5d60218361346a565b9150612d6882613cd8565b604082019050919050565b6000612d8060288361346a565b9150612d8b82613d27565b604082019050919050565b6000612da360328361346a565b9150612dae82613d76565b604082019050919050565b6000612dc6603a8361346a565b9150612dd182613dc5565b604082019050919050565b6000612de960328361346a565b9150612df482613e14565b604082019050919050565b6000612e0c602b8361346a565b9150612e1782613e63565b604082019050919050565b6000612e2f60418361346a565b9150612e3a82613eb2565b606082019050919050565b608082016000820151612e5b6000850182612a0e565b506020820151612e6e6020850182612a0e565b506040820151612e816040850182612e9a565b506060820151612e946060850182612a99565b50505050565b612ea3816135e1565b82525050565b612eb2816135e1565b82525050565b6000602082019050612ecd6000830184612a1d565b92915050565b6000604082019050612ee86000830185612a1d565b612ef56020830184612a1d565b9392505050565b6000606082019050612f116000830186612a1d565b612f1e60208301856129ff565b612f2b6040830184612ea9565b949350505050565b6000606082019050612f486000830186612a1d565b612f556020830185612a1d565b612f626040830184612ea9565b949350505050565b6000608082019050612f7f6000830187612a1d565b612f8c6020830186612a1d565b612f996040830185612ea9565b612fa66060830184612aa8565b95945050505050565b6000604082019050612fc46000830185612a1d565b612fd16020830184612ea9565b9392505050565b6000606082019050612fed6000830186612a1d565b612ffa6020830185612ea9565b6130076040830184612ea9565b949350505050565b600060c0820190506130246000830189612a1d565b6130316020830188612ea9565b61303e6040830187612ea9565b61304b6060830186612ea9565b6130586080830185612ea9565b61306560a0830184612a8a565b979650505050505050565b6000602082019050818103600083015261308a8184612a2c565b905092915050565b600060208201905081810360008301526130ab81612ab7565b9050919050565b600060208201905081810360008301526130cb81612ada565b9050919050565b600060208201905081810360008301526130eb81612afd565b9050919050565b6000602082019050818103600083015261310b81612b20565b9050919050565b6000602082019050818103600083015261312b81612b43565b9050919050565b6000602082019050818103600083015261314b81612b66565b9050919050565b6000602082019050818103600083015261316b81612b89565b9050919050565b6000602082019050818103600083015261318b81612bac565b9050919050565b600060208201905081810360008301526131ab81612bcf565b9050919050565b600060208201905081810360008301526131cb81612bf2565b9050919050565b600060208201905081810360008301526131eb81612c15565b9050919050565b6000602082019050818103600083015261320b81612c38565b9050919050565b6000602082019050818103600083015261322b81612c5b565b9050919050565b6000602082019050818103600083015261324b81612c7e565b9050919050565b6000602082019050818103600083015261326b81612ca1565b9050919050565b6000602082019050818103600083015261328b81612cc4565b9050919050565b600060208201905081810360008301526132ab81612ce7565b9050919050565b600060208201905081810360008301526132cb81612d0a565b9050919050565b600060208201905081810360008301526132eb81612d2d565b9050919050565b6000602082019050818103600083015261330b81612d50565b9050919050565b6000602082019050818103600083015261332b81612d73565b9050919050565b6000602082019050818103600083015261334b81612d96565b9050919050565b6000602082019050818103600083015261336b81612db9565b9050919050565b6000602082019050818103600083015261338b81612ddc565b9050919050565b600060208201905081810360008301526133ab81612dff565b9050919050565b600060208201905081810360008301526133cb81612e22565b9050919050565b60006080820190506133e76000830184612e45565b92915050565b60006020820190506134026000830184612ea9565b92915050565b600060408201905061341d6000830185612ea9565b61342a6020830184612ea9565b9392505050565b6000819050602082019050919050565b600081519050919050565b6000602082019050919050565b600082825260208201905092915050565b600082825260208201905092915050565b6000613486826135e1565b9150613491836135e1565b9250827fffffffffffffffffffffffffffffffffffffffffffffffffffffffffffffffff038211156134c6576134c56136ba565b5b828201905092915050565b60006134dc826135e1565b91506134e7836135e1565b9250826134f7576134f66136e9565b5b828204905092915050565b600061350d826135e1565b9150613518836135e1565b9250817fffffffffffffffffffffffffffffffffffffffffffffffffffffffffffffffff0483118215151615613551576135506136ba565b5b828202905092915050565b6000613567826135e1565b9150613572836135e1565b925082821015613585576135846136ba565b5b828203905092915050565b600061359b826135c1565b9050919050565b60008115159050919050565b60008190506135bc82613f27565b919050565b600073ffffffffffffffffffffffffffffffffffffffff82169050919050565b6000819050919050565b600060ff82169050919050565b60006136038261361c565b9050919050565b6000613615826135ae565b9050919050565b60006136278261362e565b9050919050565b6000613639826135c1565b9050919050565b600061364b826135e1565b91507fffffffffffffffffffffffffffffffffffffffffffffffffffffffffffffffff82141561367e5761367d6136ba565b5b600182019050919050565b6000613694826135e1565b915061369f836135e1565b9250826136af576136ae6136e9565b5b828206905092915050565b7f4e487b7100000000000000000000000000000000000000000000000000000000600052601160045260246000fd5b7f4e487b7100000000000000000000000000000000000000000000000000000000600052601260045260246000fd5b7f4e487b7100000000000000000000000000000000000000000000000000000000600052602160045260246000fd5b7f5061776e696e6753686f703a20686176656e277420676f74207065726d69737360008201527f696f6e20746f207472616e736665720000000000000000000000000000000000602082015250565b7f5061776e696e6753686f703a206f6e6c792063726561746f722063616e20636160008201527f6e63656c20746865206269640000000000000000000000000000000000000000602082015250565b7f5061776e696e6773686f703a207061776e206973206e6f742065786973746564600082015250565b7f5061776e696e6753686f703a204f6e6c79206f776e6572206f6620746865207060008201527f61776e2063616e2063616e63656c206974000000000000000000000000000000602082015250565b7f5061776e696e6753686f703a2063616e6e6f742062696420746869732070617760008201527f6e00000000000000000000000000000000000000000000000000000000000000602082015250565b7f5061776e696e6753686f703a20736d61727420636f6e7472616374206164647260008201527f657373206d75737420626520646966666572656e742077697468203000000000602082015250565b7f5061776e696e6753686f703a20746f206c61746520746f207265706169640000600082015250565b7f5061776e696e6753686f703a20736d61727420636f6e7472616374206973206e60008201527f6f7420696e207768697465206c69737400000000000000000000000000000000602082015250565b7f5061776e696e6753686f703a207468697320626964206973206e6f742061636360008201527f657074656420627920626f72726f776572000000000000000000000000000000602082015250565b7f5061776e696e6753686f703a207061792065786163746c79207265706169642060008201527f616d6f756e740000000000000000000000000000000000000000000000000000602082015250565b7f5061776e696e6753686f703a20546865207061776e206973206e6f742065786960008201527f7374656400000000000000000000000000000000000000000000000000000000602082015250565b7f5061776e696e6753686f703a206f6e6c792063726561746f72206f662070617760008201527f6e2063616e206163636570742062696400000000000000000000000000000000602082015250565b7f5061776e696e6753686f703a204f6e6c792063616e2063616e63656c2077686560008201527f6e206e6f20626964206973206163636570746564000000000000000000000000602082015250565b7f5061776e696e6753686f703a207061776e206964206973206e6f74206578697360008201527f7465640000000000000000000000000000000000000000000000000000000000602082015250565b7f5061776e696e6753686f703a2054686973207061776e20646f656e277420686160008201527f766520616e792061636365707465642062696400000000000000000000000000602082015250565b7f5061776e696e6753686f703a20796f757220626964206973206163636570746560008201527f642c2063616e6e6f742063616e63656c00000000000000000000000000000000602082015250565b7f5061776e696e6753686f703a204f6e6c79206f776e65722063616e206164642060008201527f6164647265737320746f207768697465206c6973740000000000000000000000602082015250565b7f5061776e696e6753686f703a206f6e6c792063726561746f72206f662062696460008201527f2063616e206c697175696461746520746f6b656e000000000000000000000000602082015250565b7f5061776e696e6753686f703a204f6e6c792063616e2063616e63656c2077686560008201527f6e2069742068617320737461747573206f662043524541544544000000000000602082015250565b7f5061776e696e6753686f703a207061776e206964206973206e6f742076616c6960008201527f6400000000000000000000000000000000000000000000000000000000000000602082015250565b7f5061776e696e6753686f703a204e6f742076616c69642074696d6520746f206c60008201527f6971756964617465000000000000000000000000000000000000000000000000602082015250565b7f5061776e696e6753686f703a2063726561746f72206f6620746865207061776e60008201527f2063616e6e6f74206d616b652061206269640000000000000000000000000000602082015250565b7f5061776e696e6753686f703a204f6e6c79206f776e65722063616e2072656d6f60008201527f766520616464726573732066726f6d207768697465206c697374000000000000602082015250565b7f5061776e696e6753686f703a20616d6f756e74206f66206d6f6e6579206d757360008201527f7420626520626967676572207468616e20300000000000000000000000000000602082015250565b7f5061776e696e6753686f703a204f6e6c792063726561746f72206f662070617760008201527f6e2063616e207265706179000000000000000000000000000000000000000000602082015250565b7f5061776e696e6753686f703a207061776e20646f65736e27742068617665206160008201527f20616363657074656420626964206f7220746865207061776e20697320646f6e60208201527f6500000000000000000000000000000000000000000000000000000000000000604082015250565b60058110613f3857613f37613718565b5b50565b613f4481613590565b8114613f4f57600080fd5b50565b613f5b816135a2565b8114613f6657600080fd5b50565b613f72816135e1565b8114613f7d57600080fd5b50565b613f89816135eb565b8114613f9457600080fd5b5056fea2646970667358221220c22178f5ddd760658e6dd116fc1249bf60a5b5342d2d0665707c3156d4f5078f64736f6c63430008040033",
  "immutableReferences": {},
  "source": "pragma solidity ^0.8.4;\r\n\r\n// import \"@openzeppelin/contracts/utils/math/SafeMath.sol\";\r\nlibrary SafeMath {\r\n    /**\r\n     * @dev Returns the addition of two unsigned integers, with an overflow flag.\r\n     *\r\n     * _Available since v3.4._\r\n     */\r\n    function tryAdd(uint256 a, uint256 b) internal pure returns (bool, uint256) {\r\n        unchecked {\r\n            uint256 c = a + b;\r\n            if (c < a) return (false, 0);\r\n            return (true, c);\r\n        }\r\n    }\r\n\r\n    /**\r\n     * @dev Returns the substraction of two unsigned integers, with an overflow flag.\r\n     *\r\n     * _Available since v3.4._\r\n     */\r\n    function trySub(uint256 a, uint256 b) internal pure returns (bool, uint256) {\r\n        unchecked {\r\n            if (b > a) return (false, 0);\r\n            return (true, a - b);\r\n        }\r\n    }\r\n\r\n    /**\r\n     * @dev Returns the multiplication of two unsigned integers, with an overflow flag.\r\n     *\r\n     * _Available since v3.4._\r\n     */\r\n    function tryMul(uint256 a, uint256 b) internal pure returns (bool, uint256) {\r\n        unchecked {\r\n            // Gas optimization: this is cheaper than requiring 'a' not being zero, but the\r\n            // benefit is lost if 'b' is also tested.\r\n            // See: https://github.com/OpenZeppelin/openzeppelin-contracts/pull/522\r\n            if (a == 0) return (true, 0);\r\n            uint256 c = a * b;\r\n            if (c / a != b) return (false, 0);\r\n            return (true, c);\r\n        }\r\n    }\r\n\r\n    /**\r\n     * @dev Returns the division of two unsigned integers, with a division by zero flag.\r\n     *\r\n     * _Available since v3.4._\r\n     */\r\n    function tryDiv(uint256 a, uint256 b) internal pure returns (bool, uint256) {\r\n        unchecked {\r\n            if (b == 0) return (false, 0);\r\n            return (true, a / b);\r\n        }\r\n    }\r\n\r\n    /**\r\n     * @dev Returns the remainder of dividing two unsigned integers, with a division by zero flag.\r\n     *\r\n     * _Available since v3.4._\r\n     */\r\n    function tryMod(uint256 a, uint256 b) internal pure returns (bool, uint256) {\r\n        unchecked {\r\n            if (b == 0) return (false, 0);\r\n            return (true, a % b);\r\n        }\r\n    }\r\n\r\n    /**\r\n     * @dev Returns the addition of two unsigned integers, reverting on\r\n     * overflow.\r\n     *\r\n     * Counterpart to Solidity's `+` operator.\r\n     *\r\n     * Requirements:\r\n     *\r\n     * - Addition cannot overflow.\r\n     */\r\n    function add(uint256 a, uint256 b) internal pure returns (uint256) {\r\n        return a + b;\r\n    }\r\n\r\n    /**\r\n     * @dev Returns the subtraction of two unsigned integers, reverting on\r\n     * overflow (when the result is negative).\r\n     *\r\n     * Counterpart to Solidity's `-` operator.\r\n     *\r\n     * Requirements:\r\n     *\r\n     * - Subtraction cannot overflow.\r\n     */\r\n    function sub(uint256 a, uint256 b) internal pure returns (uint256) {\r\n        return a - b;\r\n    }\r\n\r\n    /**\r\n     * @dev Returns the multiplication of two unsigned integers, reverting on\r\n     * overflow.\r\n     *\r\n     * Counterpart to Solidity's `*` operator.\r\n     *\r\n     * Requirements:\r\n     *\r\n     * - Multiplication cannot overflow.\r\n     */\r\n    function mul(uint256 a, uint256 b) internal pure returns (uint256) {\r\n        return a * b;\r\n    }\r\n\r\n    /**\r\n     * @dev Returns the integer division of two unsigned integers, reverting on\r\n     * division by zero. The result is rounded towards zero.\r\n     *\r\n     * Counterpart to Solidity's `/` operator.\r\n     *\r\n     * Requirements:\r\n     *\r\n     * - The divisor cannot be zero.\r\n     */\r\n    function div(uint256 a, uint256 b) internal pure returns (uint256) {\r\n        return a / b;\r\n    }\r\n\r\n    /**\r\n     * @dev Returns the remainder of dividing two unsigned integers. (unsigned integer modulo),\r\n     * reverting when dividing by zero.\r\n     *\r\n     * Counterpart to Solidity's `%` operator. This function uses a `revert`\r\n     * opcode (which leaves remaining gas untouched) while Solidity uses an\r\n     * invalid opcode to revert (consuming all remaining gas).\r\n     *\r\n     * Requirements:\r\n     *\r\n     * - The divisor cannot be zero.\r\n     */\r\n    function mod(uint256 a, uint256 b) internal pure returns (uint256) {\r\n        return a % b;\r\n    }\r\n\r\n    /**\r\n     * @dev Returns the subtraction of two unsigned integers, reverting with custom message on\r\n     * overflow (when the result is negative).\r\n     *\r\n     * CAUTION: This function is deprecated because it requires allocating memory for the error\r\n     * message unnecessarily. For custom revert reasons use {trySub}.\r\n     *\r\n     * Counterpart to Solidity's `-` operator.\r\n     *\r\n     * Requirements:\r\n     *\r\n     * - Subtraction cannot overflow.\r\n     */\r\n    function sub(\r\n        uint256 a,\r\n        uint256 b,\r\n        string memory errorMessage\r\n    ) internal pure returns (uint256) {\r\n        unchecked {\r\n            require(b <= a, errorMessage);\r\n            return a - b;\r\n        }\r\n    }\r\n\r\n    /**\r\n     * @dev Returns the integer division of two unsigned integers, reverting with custom message on\r\n     * division by zero. The result is rounded towards zero.\r\n     *\r\n     * Counterpart to Solidity's `/` operator. Note: this function uses a\r\n     * `revert` opcode (which leaves remaining gas untouched) while Solidity\r\n     * uses an invalid opcode to revert (consuming all remaining gas).\r\n     *\r\n     * Requirements:\r\n     *\r\n     * - The divisor cannot be zero.\r\n     */\r\n    function div(\r\n        uint256 a,\r\n        uint256 b,\r\n        string memory errorMessage\r\n    ) internal pure returns (uint256) {\r\n        unchecked {\r\n            require(b > 0, errorMessage);\r\n            return a / b;\r\n        }\r\n    }\r\n\r\n    /**\r\n     * @dev Returns the remainder of dividing two unsigned integers. (unsigned integer modulo),\r\n     * reverting with custom message when dividing by zero.\r\n     *\r\n     * CAUTION: This function is deprecated because it requires allocating memory for the error\r\n     * message unnecessarily. For custom revert reasons use {tryMod}.\r\n     *\r\n     * Counterpart to Solidity's `%` operator. This function uses a `revert`\r\n     * opcode (which leaves remaining gas untouched) while Solidity uses an\r\n     * invalid opcode to revert (consuming all remaining gas).\r\n     *\r\n     * Requirements:\r\n     *\r\n     * - The divisor cannot be zero.\r\n     */\r\n    function mod(\r\n        uint256 a,\r\n        uint256 b,\r\n        string memory errorMessage\r\n    ) internal pure returns (uint256) {\r\n        unchecked {\r\n            require(b > 0, errorMessage);\r\n            return a % b;\r\n        }\r\n    }\r\n}\r\n\r\n\r\ninterface IERC165 {\r\n    /**\r\n     * @dev Returns true if this contract implements the interface defined by\r\n     * `interfaceId`. See the corresponding\r\n     * https://eips.ethereum.org/EIPS/eip-165#how-interfaces-are-identified[EIP section]\r\n     * to learn more about how these ids are created.\r\n     *\r\n     * This function call must use less than 30 000 gas.\r\n     */\r\n    function supportsInterface(bytes4 interfaceId) external view returns (bool);\r\n}\r\n\r\n\r\ninterface IERC721 is IERC165 {\r\n    /**\r\n     * @dev Emitted when `tokenId` token is transferred from `from` to `to`.\r\n     */\r\n    event Transfer(address indexed from, address indexed to, uint256 indexed tokenId);\r\n\r\n    /**\r\n     * @dev Emitted when `owner` enables `approved` to manage the `tokenId` token.\r\n     */\r\n    event Approval(address indexed owner, address indexed approved, uint256 indexed tokenId);\r\n\r\n    /**\r\n     * @dev Emitted when `owner` enables or disables (`approved`) `operator` to manage all of its assets.\r\n     */\r\n    event ApprovalForAll(address indexed owner, address indexed operator, bool approved);\r\n\r\n    /**\r\n     * @dev Returns the number of tokens in ``owner``'s account.\r\n     */\r\n    function balanceOf(address owner) external view returns (uint256 balance);\r\n\r\n    /**\r\n     * @dev Returns the owner of the `tokenId` token.\r\n     *\r\n     * Requirements:\r\n     *\r\n     * - `tokenId` must exist.\r\n     */\r\n    function ownerOf(uint256 tokenId) external view returns (address owner);\r\n\r\n    /**\r\n     * @dev Safely transfers `tokenId` token from `from` to `to`, checking first that contract recipients\r\n     * are aware of the ERC721 protocol to prevent tokens from being forever locked.\r\n     *\r\n     * Requirements:\r\n     *\r\n     * - `from` cannot be the zero address.\r\n     * - `to` cannot be the zero address.\r\n     * - `tokenId` token must exist and be owned by `from`.\r\n     * - If the caller is not `from`, it must be have been allowed to move this token by either {approve} or {setApprovalForAll}.\r\n     * - If `to` refers to a smart contract, it must implement {IERC721Receiver-onERC721Received}, which is called upon a safe transfer.\r\n     *\r\n     * Emits a {Transfer} event.\r\n     */\r\n    function safeTransferFrom(\r\n        address from,\r\n        address to,\r\n        uint256 tokenId\r\n    ) external;\r\n\r\n    /**\r\n     * @dev Transfers `tokenId` token from `from` to `to`.\r\n     *\r\n     * WARNING: Usage of this method is discouraged, use {safeTransferFrom} whenever possible.\r\n     *\r\n     * Requirements:\r\n     *\r\n     * - `from` cannot be the zero address.\r\n     * - `to` cannot be the zero address.\r\n     * - `tokenId` token must be owned by `from`.\r\n     * - If the caller is not `from`, it must be approved to move this token by either {approve} or {setApprovalForAll}.\r\n     *\r\n     * Emits a {Transfer} event.\r\n     */\r\n    function transferFrom(\r\n        address from,\r\n        address to,\r\n        uint256 tokenId\r\n    ) external;\r\n\r\n    /**\r\n     * @dev Gives permission to `to` to transfer `tokenId` token to another account.\r\n     * The approval is cleared when the token is transferred.\r\n     *\r\n     * Only a single account can be approved at a time, so approving the zero address clears previous approvals.\r\n     *\r\n     * Requirements:\r\n     *\r\n     * - The caller must own the token or be an approved operator.\r\n     * - `tokenId` must exist.\r\n     *\r\n     * Emits an {Approval} event.\r\n     */\r\n    function approve(address to, uint256 tokenId) external;\r\n\r\n    /**\r\n     * @dev Returns the account approved for `tokenId` token.\r\n     *\r\n     * Requirements:\r\n     *\r\n     * - `tokenId` must exist.\r\n     */\r\n    function getApproved(uint256 tokenId) external view returns (address operator);\r\n\r\n    /**\r\n     * @dev Approve or remove `operator` as an operator for the caller.\r\n     * Operators can call {transferFrom} or {safeTransferFrom} for any token owned by the caller.\r\n     *\r\n     * Requirements:\r\n     *\r\n     * - The `operator` cannot be the caller.\r\n     *\r\n     * Emits an {ApprovalForAll} event.\r\n     */\r\n    function setApprovalForAll(address operator, bool _approved) external;\r\n\r\n    /**\r\n     * @dev Returns if the `operator` is allowed to manage all of the assets of `owner`.\r\n     *\r\n     * See {setApprovalForAll}\r\n     */\r\n    function isApprovedForAll(address owner, address operator) external view returns (bool);\r\n\r\n    /**\r\n     * @dev Safely transfers `tokenId` token from `from` to `to`.\r\n     *\r\n     * Requirements:\r\n     *\r\n     * - `from` cannot be the zero address.\r\n     * - `to` cannot be the zero address.\r\n     * - `tokenId` token must exist and be owned by `from`.\r\n     * - If the caller is not `from`, it must be approved to move this token by either {approve} or {setApprovalForAll}.\r\n     * - If `to` refers to a smart contract, it must implement {IERC721Receiver-onERC721Received}, which is called upon a safe transfer.\r\n     *\r\n     * Emits a {Transfer} event.\r\n     */\r\n    function safeTransferFrom(\r\n        address from,\r\n        address to,\r\n        uint256 tokenId,\r\n        bytes calldata data\r\n    ) external;\r\n}\r\n\r\ncontract PawningShop {\r\n\r\n    using SafeMath for uint256;\r\n    using SafeMath for uint8;\r\n\r\n    enum PawnStatus {\r\n        CREATED,\r\n        CANCELLED,\r\n        DEAL,\r\n        LIQUIDATED,\r\n        REPAID\r\n    }\r\n    struct Pawn {\r\n        // who borrows money\r\n        address creator;\r\n        address contractAddress;\r\n        uint256 tokenId;\r\n        PawnStatus status;\r\n    }\r\n    struct Bid {\r\n        address creator; // who create the bid\r\n        uint256 loanAmount;\r\n        // the amount of wei the lender lend to the borrower\r\n        uint256 interest; // the maximum interest that the borrower have to pay in wei\r\n        uint256 loanStartTime; // timestamp\r\n        uint256 loanDuration; // duration in days\r\n        bool isInterestProRated; // if the borrower pays sonner, then pays less interest\r\n    }\r\n    address public owner;\r\n    address[] public _whiteListNFT;\r\n    uint256 public _feeRate;\r\n    uint256 public _totalNumberOfPawn = 0;\r\n    uint256 public _totalNumberOfBid = 0;\r\n    // mapping nft address -> token id -> pawn\r\n    mapping(uint256 => Pawn) public _pawns;\r\n    // mapping bid id => bid\r\n    mapping(uint256 => Bid) public _bids;\r\n    // mapping bid id to pawn id\r\n    mapping(uint256 => uint256) public _bidToPawn;\r\n    mapping(uint256 => uint256) public _pawnToBid;\r\n\r\n    constructor() {\r\n        owner = msg.sender;\r\n    }\r\n\r\n    event PawnCreated(address pawner, uint256 pawnId);\r\n    event PawnCancelled(address pawner, uint256 pawnId);\r\n    event PawnDeal(address pawner, address lender, uint256 pawnId);\r\n    event PawnRepaid(address pawner, address lender, uint256 pawnId);\r\n    event PawnLiquidated(address pawner, address lender, uint256 pawnId);\r\n    event BidCreated(address creator, uint256 pawnId, uint256 bidId);\r\n    event BidAccepted(uint256 pawnId, uint256 bidId);\r\n    event BidCancelled(address creator, uint256 pawnId, uint256 bidId);\r\n    event WhiteListAdded(address smartContract);\r\n    event WhiteListRemoved(address smartContract);\r\n\r\n    function getPawnById(uint256 id) public view returns(Pawn memory) {\r\n        return _pawns[id];\r\n    }\r\n\r\n    function createPawn(address tokenAddress, uint256 tokenId) public {\r\n        _totalNumberOfPawn += 1;\r\n        bool isInWhiteList = false;\r\n        for (uint256 i = 0; i < _whiteListNFT.length; i++) {\r\n            if (tokenAddress == _whiteListNFT[i]) {\r\n                isInWhiteList = true;\r\n            }\r\n        }\r\n        address sender = msg.sender;\r\n        require(\r\n            isInWhiteList == true,\r\n            \"PawningShop: smart contract is not in white list\"\r\n        );\r\n        bool isApproved = IERC721(tokenAddress).getApproved(tokenId) ==\r\n            address(this);\r\n        bool isApprovedForAll = IERC721(tokenAddress).isApprovedForAll(\r\n            sender,\r\n            address(this)\r\n        );\r\n        require(\r\n            isApproved || isApprovedForAll,\r\n            \"PawningShop: haven't got permission to transfer\"\r\n        );\r\n\r\n        IERC721(tokenAddress).transferFrom(msg.sender, address(this), tokenId);\r\n\r\n        _pawns[_totalNumberOfPawn].creator = sender;\r\n        _pawns[_totalNumberOfPawn].contractAddress = tokenAddress;\r\n        _pawns[_totalNumberOfPawn].tokenId = tokenId;\r\n        _pawns[_totalNumberOfPawn].status = PawnStatus.CREATED;\r\n        emit PawnCreated(sender, _totalNumberOfPawn);\r\n    }\r\n\r\n    function cancelPawn(uint256 pawnId) public {\r\n        Pawn storage pawn = _pawns[pawnId];\r\n        address creator = pawn.creator;\r\n        require(\r\n            pawn.status == PawnStatus.CREATED,\r\n            \"PawningShop: Only can cancel when it has status of CREATED\"\r\n        );\r\n        require(\r\n            msg.sender == creator,\r\n            \"PawningShop: Only owner of the pawn can cancel it\"\r\n        );\r\n        require(\r\n            _pawnToBid[pawnId] == 0,\r\n            \"PawningShop: Only can cancel when no bid is accepted\"\r\n        );\r\n        pawn.status = PawnStatus.CANCELLED;\r\n        IERC721(pawn.contractAddress).transferFrom(address(this), creator, pawn.tokenId);\r\n        emit PawnCancelled(owner, pawnId);\r\n    }\r\n\r\n    function createBid(\r\n        uint8 rate,\r\n        uint256 duration,\r\n        bool isInterestProRated,\r\n        uint256 pawnId\r\n    ) public payable {\r\n        _totalNumberOfBid += 1;\r\n        address creator = msg.sender;\r\n        uint256 amount = msg.value;\r\n        Pawn storage pawn = _pawns[pawnId];\r\n        require(pawnId > 0, \"PawningShop: pawn id is not valid\");\r\n        require(\r\n            pawn.creator != address(0) || pawn.contractAddress != address(0), \r\n            \"Pawningshop: pawn is not existed\"\r\n        );\r\n        require(\r\n            pawn.creator != creator,\r\n            \"PawningShop: creator of the pawn cannot make a bid\"\r\n        );\r\n        require(\r\n            pawn.status == PawnStatus.CREATED,\r\n            \"PawningShop: cannot bid this pawn\"\r\n        );\r\n        require(\r\n            amount > 0,\r\n            \"PawningShop: amount of money must be bigger than 0\"\r\n        );\r\n\r\n        _bids[_totalNumberOfBid].creator = creator;\r\n        _bids[_totalNumberOfBid].loanAmount = amount;\r\n        _bids[_totalNumberOfBid].interest = rate;\r\n        _bids[_totalNumberOfBid].loanDuration = duration;\r\n        _bids[_totalNumberOfBid].isInterestProRated = isInterestProRated;\r\n        // _bids[_totalNumberOfBid].loanStartTime = loanStartTime;\r\n        // loanStartTime will be set when the borrower accepts bid\r\n\r\n        _bidToPawn[_totalNumberOfBid] = pawnId;\r\n        emit BidCreated(creator, pawnId, _totalNumberOfBid);\r\n    }\r\n\r\n    function cancelBid(uint256 bidId) public {\r\n        Bid memory currBid = _bids[bidId];\r\n        address sender = msg.sender;\r\n        require(\r\n            sender == currBid.creator,\r\n            \"PawningShop: only creator can cancel the bid\"\r\n        );\r\n        uint256 pawnId = _bidToPawn[bidId];\r\n        require(\r\n            _pawnToBid[pawnId] != bidId,\r\n            \"PawningShop: your bid is accepted, cannot cancel\"\r\n        );\r\n        address payable lender = payable(currBid.creator);\r\n        lender.transfer(currBid.loanAmount);\r\n        delete _bids[bidId];\r\n        delete _bidToPawn[bidId];\r\n        emit BidCancelled(sender, pawnId, bidId);\r\n    }\r\n\r\n    function acceptBid(uint256 bidId) public {\r\n        Bid storage currBid = _bids[bidId];\r\n        uint256 pawnId = _bidToPawn[bidId];\r\n        require(\r\n            pawnId > 0,\r\n            \"PawningShop: The pawn is not existed\"\r\n        );\r\n        Pawn storage pawn = _pawns[pawnId];\r\n        require(\r\n            pawn.creator == msg.sender,\r\n            \"PawningShop: only creator of pawn can accept bid\"\r\n        );\r\n        address payable borrower = payable(pawn.creator);\r\n        borrower.transfer(currBid.loanAmount);\r\n        pawn.status = PawnStatus.DEAL;\r\n        _pawnToBid[pawnId] = bidId;\r\n        currBid.loanStartTime = block.timestamp;\r\n        emit BidAccepted(pawnId, bidId);\r\n    }\r\n\r\n    function repaid(uint256 pawnId) public payable {\r\n        Pawn storage currPawn = _pawns[pawnId];\r\n        require(\r\n            currPawn.creator == msg.sender,\r\n            \"PawningShop: Only creator of pawn can repay\"\r\n        );\r\n        uint256 bidId = _pawnToBid[pawnId];\r\n        require(\r\n            bidId != 0,\r\n            \"PawningShop: This pawn doen't have any accepted bid\"\r\n        );\r\n        Bid storage currBid = _bids[bidId];\r\n        uint256 repayDeadline = _calculateRepayDeadline(currBid.loanStartTime, currBid.loanDuration);\r\n        require(\r\n            block.timestamp <= repayDeadline,\r\n            \"PawningShop: to late to repaid\"\r\n        );\r\n        uint256 value = msg.value;\r\n        uint256 repaidAmount = _calculateRepaidAmount(\r\n            currBid.loanAmount,\r\n            currBid.interest,\r\n            currBid.loanStartTime,\r\n            currBid.loanDuration,\r\n            currBid.isInterestProRated\r\n        );\r\n        require(\r\n            value == repaidAmount,\r\n            \"PawningShop: pay exactly repaid amount\"\r\n        );\r\n        // transfer token back to borrower\r\n        IERC721(currPawn.contractAddress).transferFrom(address(this), currPawn.creator, currPawn.tokenId);\r\n        // transfer money to lender\r\n        address payable lender = payable(currBid.creator);\r\n        lender.transfer(value);\r\n        delete _pawnToBid[pawnId];\r\n        delete _bidToPawn[bidId];\r\n        emit PawnRepaid(currPawn.creator, lender, pawnId);\r\n    }\r\n\r\n    function _calculateRepayDeadline(uint256 loanStartTime, uint256 loanDuration) public pure returns(uint256) {\r\n        uint256 loanDurationInSeconds = loanDuration.mul(1 days);\r\n        uint256 repayDeadline = loanStartTime.add(loanDurationInSeconds);\r\n        return repayDeadline;\r\n    }\r\n\r\n    function _calculateRepaidAmount(\r\n        uint256 original, uint256 interest, uint256 loanStartTime, uint256 duration, bool isInterestProRated\r\n    ) public view returns (uint256) {\r\n        uint256 interestDue = interest;\r\n        if (isInterestProRated) {\r\n            uint256 interestPerDay = interest.div(duration);\r\n            uint256 secondPassed = block.timestamp.sub(loanStartTime);\r\n            uint256 dayPassed = ceilDiv(secondPassed, 1 days);\r\n            interestDue = dayPassed.mul(interestPerDay);\r\n        }\r\n        return original.add(interestDue);\r\n    }\r\n\r\n    function getRepaidAmount(uint256 pawnId) public view returns(uint256) {\r\n        require(pawnId > 0, \"PawningShop: pawn id is not existed\");\r\n        uint256 bidId = _pawnToBid[pawnId];\r\n        require(bidId > 0, \"PawningShop: pawn doesn't have a accepted bid or the pawn is done\");\r\n        Bid storage bid = _bids[bidId];\r\n        return _calculateRepaidAmount(bid.loanAmount, bid.interest, bid.loanStartTime, bid.loanDuration, bid.isInterestProRated);\r\n    }\r\n    \r\n    // get this from openzeppelin\r\n    function ceilDiv(uint256 a, uint256 b) internal pure returns (uint256) {\r\n        // (a + b - 1) / b can overflow on addition, so we distribute.\r\n        return a / b + (a % b == 0 ? 0 : 1);\r\n    }\r\n\r\n    function liquidate(uint256 bidId) public {\r\n        Bid storage currBid = _bids[bidId];\r\n        address lender = currBid.creator;\r\n        require(lender == msg.sender, \"PawningShop: only creator of bid can liquidate token\");\r\n        require(block.timestamp > currBid.loanStartTime + currBid.loanAmount, \"PawningShop: Not valid time to liquidate\");\r\n        uint256 pawnId = _bidToPawn[bidId];\r\n        require(_pawnToBid[pawnId] == bidId, \"PawningShop: this bid is not accepted by borrower\");\r\n        Pawn storage currPawn = _pawns[pawnId];\r\n        address pawner = currPawn.creator;\r\n        IERC721(currPawn.contractAddress).transferFrom(address(this), lender, currPawn.tokenId);\r\n        emit PawnLiquidated(pawner, lender, pawnId);\r\n    }\r\n\r\n    function addToWhiteList(address smartContract) public {\r\n        require(msg.sender == owner, \"PawningShop: Only owner can add address to white list\");\r\n        require(smartContract != address(0), \"PawningShop: smart contract address must be different with 0\");\r\n        uint256 i = 0;\r\n        for (i = 0; i < _whiteListNFT.length; i++) {\r\n            if (_whiteListNFT[i] == smartContract) {\r\n                return;\r\n            }\r\n        }\r\n        _whiteListNFT.push(smartContract);\r\n        emit WhiteListAdded(smartContract);\r\n    }\r\n\r\n    function removeFromWhiteList(address smartContract) public {\r\n        require(msg.sender == owner, \"PawningShop: Only owner can remove address from white list\");\r\n        uint256 i;\r\n        for (i = 0; i < _whiteListNFT.length; i++) {\r\n            if (_whiteListNFT[i] == smartContract) {\r\n                break;\r\n            }\r\n        }\r\n        delete _whiteListNFT[i];\r\n        emit WhiteListRemoved(smartContract);\r\n    }\r\n\r\n    function getWhiteList() public view returns(address[] memory) {\r\n        return _whiteListNFT;\r\n    }\r\n}\r\n",
  "sourcePath": "E:/Documents/OneDrive/Documents/solidity/nft-pawning-shop/solidity/contracts/PawningShop.sol",
  "compiler": {
    "name": "solc",
    "version": "0.8.4+commit.c7e474f2.Emscripten.clang"
  },
  "schemaVersion": "3.4.1",
  "updatedAt": "2021-09-02T09:46:29.721Z",
  "networkType": "ethereum",
  "devdoc": {
    "kind": "dev",
    "methods": {},
    "version": 1
  },
  "userdoc": {
    "kind": "user",
    "methods": {},
    "version": 1
  }
}