{
  "contractName": "PawningShop",
  "abi": [
    {
      "inputs": [],
      "stateMutability": "nonpayable",
      "type": "constructor"
    },
    {
      "anonymous": false,
      "inputs": [
        {
          "indexed": false,
          "internalType": "uint256",
          "name": "pawnId",
          "type": "uint256"
        },
        {
          "indexed": false,
          "internalType": "uint256",
          "name": "bidId",
          "type": "uint256"
        }
      ],
      "name": "BidAccepted",
      "type": "event"
    },
    {
      "anonymous": false,
      "inputs": [
        {
          "indexed": false,
          "internalType": "address",
          "name": "creator",
          "type": "address"
        },
        {
          "indexed": false,
          "internalType": "uint256",
          "name": "pawnId",
          "type": "uint256"
        },
        {
          "indexed": false,
          "internalType": "uint256",
          "name": "bidId",
          "type": "uint256"
        }
      ],
      "name": "BidCancelled",
      "type": "event"
    },
    {
      "anonymous": false,
      "inputs": [
        {
          "indexed": false,
          "internalType": "address",
          "name": "creator",
          "type": "address"
        },
        {
          "indexed": false,
          "internalType": "uint256",
          "name": "pawnId",
          "type": "uint256"
        },
        {
          "indexed": false,
          "internalType": "uint256",
          "name": "bidId",
          "type": "uint256"
        }
      ],
      "name": "BidCreated",
      "type": "event"
    },
    {
      "anonymous": false,
      "inputs": [
        {
          "indexed": false,
          "internalType": "address",
          "name": "pawner",
          "type": "address"
        },
        {
          "indexed": false,
          "internalType": "uint256",
          "name": "pawnId",
          "type": "uint256"
        }
      ],
      "name": "PawnCancelled",
      "type": "event"
    },
    {
      "anonymous": false,
      "inputs": [
        {
          "indexed": false,
          "internalType": "address",
          "name": "pawner",
          "type": "address"
        },
        {
          "indexed": false,
          "internalType": "uint256",
          "name": "pawnId",
          "type": "uint256"
        }
      ],
      "name": "PawnCreated",
      "type": "event"
    },
    {
      "anonymous": false,
      "inputs": [
        {
          "indexed": false,
          "internalType": "address",
          "name": "pawner",
          "type": "address"
        },
        {
          "indexed": false,
          "internalType": "address",
          "name": "lender",
          "type": "address"
        },
        {
          "indexed": false,
          "internalType": "uint256",
          "name": "pawnId",
          "type": "uint256"
        }
      ],
      "name": "PawnDeal",
      "type": "event"
    },
    {
      "anonymous": false,
      "inputs": [
        {
          "indexed": false,
          "internalType": "address",
          "name": "pawner",
          "type": "address"
        },
        {
          "indexed": false,
          "internalType": "address",
          "name": "lender",
          "type": "address"
        },
        {
          "indexed": false,
          "internalType": "uint256",
          "name": "pawnId",
          "type": "uint256"
        }
      ],
      "name": "PawnLiquidated",
      "type": "event"
    },
    {
      "anonymous": false,
      "inputs": [
        {
          "indexed": false,
          "internalType": "address",
          "name": "pawner",
          "type": "address"
        },
        {
          "indexed": false,
          "internalType": "address",
          "name": "lender",
          "type": "address"
        },
        {
          "indexed": false,
          "internalType": "uint256",
          "name": "pawnId",
          "type": "uint256"
        }
      ],
      "name": "PawnRepaid",
      "type": "event"
    },
    {
      "anonymous": false,
      "inputs": [
        {
          "indexed": false,
          "internalType": "address",
          "name": "smartContract",
          "type": "address"
        }
      ],
      "name": "WhiteListAdded",
      "type": "event"
    },
    {
      "anonymous": false,
      "inputs": [
        {
          "indexed": false,
          "internalType": "address",
          "name": "smartContract",
          "type": "address"
        }
      ],
      "name": "WhiteListRemoved",
      "type": "event"
    },
    {
      "inputs": [
        {
          "internalType": "uint256",
          "name": "",
          "type": "uint256"
        }
      ],
      "name": "_bidToPawn",
      "outputs": [
        {
          "internalType": "uint256",
          "name": "",
          "type": "uint256"
        }
      ],
      "stateMutability": "view",
      "type": "function",
      "constant": true
    },
    {
      "inputs": [
        {
          "internalType": "uint256",
          "name": "",
          "type": "uint256"
        }
      ],
      "name": "_bids",
      "outputs": [
        {
          "internalType": "address",
          "name": "creator",
          "type": "address"
        },
        {
          "internalType": "uint256",
          "name": "loanAmount",
          "type": "uint256"
        },
        {
          "internalType": "uint256",
          "name": "interest",
          "type": "uint256"
        },
        {
          "internalType": "uint256",
          "name": "loanStartTime",
          "type": "uint256"
        },
        {
          "internalType": "uint256",
          "name": "loanDuration",
          "type": "uint256"
        },
        {
          "internalType": "bool",
          "name": "isInterestProRated",
          "type": "bool"
        }
      ],
      "stateMutability": "view",
      "type": "function",
      "constant": true
    },
    {
      "inputs": [],
      "name": "_feeRate",
      "outputs": [
        {
          "internalType": "uint256",
          "name": "",
          "type": "uint256"
        }
      ],
      "stateMutability": "view",
      "type": "function",
      "constant": true
    },
    {
      "inputs": [
        {
          "internalType": "uint256",
          "name": "",
          "type": "uint256"
        }
      ],
      "name": "_pawnToBid",
      "outputs": [
        {
          "internalType": "uint256",
          "name": "",
          "type": "uint256"
        }
      ],
      "stateMutability": "view",
      "type": "function",
      "constant": true
    },
    {
      "inputs": [
        {
          "internalType": "uint256",
          "name": "",
          "type": "uint256"
        }
      ],
      "name": "_pawns",
      "outputs": [
        {
          "internalType": "address",
          "name": "creator",
          "type": "address"
        },
        {
          "internalType": "address",
          "name": "contractAddress",
          "type": "address"
        },
        {
          "internalType": "uint256",
          "name": "tokenId",
          "type": "uint256"
        },
        {
          "internalType": "enum PawningShop.PawnStatus",
          "name": "status",
          "type": "uint8"
        }
      ],
      "stateMutability": "view",
      "type": "function",
      "constant": true
    },
    {
      "inputs": [],
      "name": "_totalNumberOfBid",
      "outputs": [
        {
          "internalType": "uint256",
          "name": "",
          "type": "uint256"
        }
      ],
      "stateMutability": "view",
      "type": "function",
      "constant": true
    },
    {
      "inputs": [],
      "name": "_totalNumberOfPawn",
      "outputs": [
        {
          "internalType": "uint256",
          "name": "",
          "type": "uint256"
        }
      ],
      "stateMutability": "view",
      "type": "function",
      "constant": true
    },
    {
      "inputs": [
        {
          "internalType": "uint256",
          "name": "",
          "type": "uint256"
        }
      ],
      "name": "_whiteListNFT",
      "outputs": [
        {
          "internalType": "address",
          "name": "",
          "type": "address"
        }
      ],
      "stateMutability": "view",
      "type": "function",
      "constant": true
    },
    {
      "inputs": [],
      "name": "owner",
      "outputs": [
        {
          "internalType": "address",
          "name": "",
          "type": "address"
        }
      ],
      "stateMutability": "view",
      "type": "function",
      "constant": true
    },
    {
      "inputs": [
        {
          "internalType": "uint256",
          "name": "id",
          "type": "uint256"
        }
      ],
      "name": "getPawnById",
      "outputs": [
        {
          "components": [
            {
              "internalType": "address",
              "name": "creator",
              "type": "address"
            },
            {
              "internalType": "address",
              "name": "contractAddress",
              "type": "address"
            },
            {
              "internalType": "uint256",
              "name": "tokenId",
              "type": "uint256"
            },
            {
              "internalType": "enum PawningShop.PawnStatus",
              "name": "status",
              "type": "uint8"
            }
          ],
          "internalType": "struct PawningShop.Pawn",
          "name": "",
          "type": "tuple"
        }
      ],
      "stateMutability": "view",
      "type": "function",
      "constant": true
    },
    {
      "inputs": [
        {
          "internalType": "address",
          "name": "tokenAddress",
          "type": "address"
        },
        {
          "internalType": "uint256",
          "name": "tokenId",
          "type": "uint256"
        }
      ],
      "name": "createPawn",
      "outputs": [],
      "stateMutability": "nonpayable",
      "type": "function"
    },
    {
      "inputs": [
        {
          "internalType": "uint256",
          "name": "pawnId",
          "type": "uint256"
        }
      ],
      "name": "cancelPawn",
      "outputs": [],
      "stateMutability": "nonpayable",
      "type": "function"
    },
    {
      "inputs": [
        {
          "internalType": "uint256",
          "name": "rate",
          "type": "uint256"
        },
        {
          "internalType": "uint256",
          "name": "duration",
          "type": "uint256"
        },
        {
          "internalType": "bool",
          "name": "isInterestProRated",
          "type": "bool"
        },
        {
          "internalType": "uint256",
          "name": "pawnId",
          "type": "uint256"
        }
      ],
      "name": "createBid",
      "outputs": [],
      "stateMutability": "payable",
      "type": "function",
      "payable": true
    },
    {
      "inputs": [
        {
          "internalType": "uint256",
          "name": "bidId",
          "type": "uint256"
        }
      ],
      "name": "cancelBid",
      "outputs": [],
      "stateMutability": "nonpayable",
      "type": "function"
    },
    {
      "inputs": [
        {
          "internalType": "uint256",
          "name": "bidId",
          "type": "uint256"
        }
      ],
      "name": "acceptBid",
      "outputs": [],
      "stateMutability": "nonpayable",
      "type": "function"
    },
    {
      "inputs": [
        {
          "internalType": "uint256",
          "name": "pawnId",
          "type": "uint256"
        }
      ],
      "name": "repaid",
      "outputs": [],
      "stateMutability": "payable",
      "type": "function",
      "payable": true
    },
    {
      "inputs": [
        {
          "internalType": "uint256",
          "name": "loanStartTime",
          "type": "uint256"
        },
        {
          "internalType": "uint256",
          "name": "loanDuration",
          "type": "uint256"
        }
      ],
      "name": "_calculateRepayDeadline",
      "outputs": [
        {
          "internalType": "uint256",
          "name": "",
          "type": "uint256"
        }
      ],
      "stateMutability": "pure",
      "type": "function",
      "constant": true
    },
    {
      "inputs": [
        {
          "internalType": "uint256",
          "name": "original",
          "type": "uint256"
        },
        {
          "internalType": "uint256",
          "name": "interest",
          "type": "uint256"
        },
        {
          "internalType": "uint256",
          "name": "loanStartTime",
          "type": "uint256"
        },
        {
          "internalType": "uint256",
          "name": "duration",
          "type": "uint256"
        },
        {
          "internalType": "bool",
          "name": "isInterestProRated",
          "type": "bool"
        }
      ],
      "name": "_calculateRepaidAmount",
      "outputs": [
        {
          "internalType": "uint256",
          "name": "",
          "type": "uint256"
        }
      ],
      "stateMutability": "view",
      "type": "function",
      "constant": true
    },
    {
      "inputs": [
        {
          "internalType": "uint256",
          "name": "pawnId",
          "type": "uint256"
        }
      ],
      "name": "getRepaidAmount",
      "outputs": [
        {
          "internalType": "uint256",
          "name": "",
          "type": "uint256"
        }
      ],
      "stateMutability": "view",
      "type": "function",
      "constant": true
    },
    {
      "inputs": [
        {
          "internalType": "uint256",
          "name": "bidId",
          "type": "uint256"
        }
      ],
      "name": "liquidate",
      "outputs": [],
      "stateMutability": "nonpayable",
      "type": "function"
    },
    {
      "inputs": [
        {
          "internalType": "address",
          "name": "smartContract",
          "type": "address"
        }
      ],
      "name": "addToWhiteList",
      "outputs": [],
      "stateMutability": "nonpayable",
      "type": "function"
    },
    {
      "inputs": [
        {
          "internalType": "address",
          "name": "smartContract",
          "type": "address"
        }
      ],
      "name": "removeFromWhiteList",
      "outputs": [],
      "stateMutability": "nonpayable",
      "type": "function"
    },
    {
      "inputs": [],
      "name": "getWhiteList",
      "outputs": [
        {
          "internalType": "address[]",
          "name": "",
          "type": "address[]"
        }
      ],
      "stateMutability": "view",
      "type": "function",
      "constant": true
    }
  ],
  "bytecode": "0x60806040526000600355600060045534801561001a57600080fd5b50336000806101000a81548173ffffffffffffffffffffffffffffffffffffffff021916908373ffffffffffffffffffffffffffffffffffffffff160217905550613f918061006a6000396000f3fe6080604052600436106101405760003560e01c80636707927d116100b65780639703ef351161006f5780639703ef3514610490578063aff109a4146104b9578063b2131f7d146104f6578063b53c370114610521578063c398f41f1461054a578063d98dbf211461057557610140565b80636707927d146103525780638228c5791461038f57806386271db4146103cc5780638bfaf684146104095780638da5cb5b14610449578063901d65311461047457610140565b80632b1fd58a116101085780632b1fd58a146102555780633ce11def1461027e578063415f1240146102a757806347ee0394146102d05780635b093b05146102f95780635f93893b1461033657610140565b806301bf66481461014557806309a9d76c1461016e57806326d8600b146101995780632712b2e5146101d657806327706ae514610218575b600080fd5b34801561015157600080fd5b5061016c600480360381019061016791906127d9565b6105a0565b005b34801561017a57600080fd5b50610183610790565b6040516101909190613058565b60405180910390f35b3480156101a557600080fd5b506101c060048036038101906101bb9190612890565b61081e565b6040516101cd9190612ea0565b60405180910390f35b3480156101e257600080fd5b506101fd60048036038101906101f89190612890565b61085d565b60405161020f96959493929190612ff7565b60405180910390f35b34801561022457600080fd5b5061023f600480360381019061023a9190612890565b6108c6565b60405161024c91906133d5565b60405180910390f35b34801561026157600080fd5b5061027c60048036038101906102779190612890565b6109b3565b005b34801561028a57600080fd5b506102a560048036038101906102a09190612890565b610bf6565b005b3480156102b357600080fd5b506102ce60048036038101906102c99190612890565b610f06565b005b3480156102dc57600080fd5b506102f760048036038101906102f291906127d9565b611190565b005b34801561030557600080fd5b50610320600480360381019061031b91906128b9565b6113ee565b60405161032d91906133d5565b60405180910390f35b610350600480360381019061034b9190612890565b61142b565b005b34801561035e57600080fd5b5061037960048036038101906103749190612890565b6117db565b60405161038691906133ba565b60405180910390f35b34801561039b57600080fd5b506103b660048036038101906103b19190612890565b611945565b6040516103c391906133d5565b60405180910390f35b3480156103d857600080fd5b506103f360048036038101906103ee9190612890565b61195d565b60405161040091906133d5565b60405180910390f35b34801561041557600080fd5b50610430600480360381019061042b9190612890565b611975565b6040516104409493929190612f52565b60405180910390f35b34801561045557600080fd5b5061045e6119f2565b60405161046b9190612ea0565b60405180910390f35b61048e600480360381019061048991906128f5565b611a16565b005b34801561049c57600080fd5b506104b760048036038101906104b29190612890565b611e5c565b005b3480156104c557600080fd5b506104e060048036038101906104db9190612958565b61211a565b6040516104ed91906133d5565b60405180910390f35b34801561050257600080fd5b5061050b61219d565b60405161051891906133d5565b60405180910390f35b34801561052d57600080fd5b506105486004803603810190610543919061282b565b6121a3565b005b34801561055657600080fd5b5061055f612641565b60405161056c91906133d5565b60405180910390f35b34801561058157600080fd5b5061058a612647565b60405161059791906133d5565b60405180910390f35b60008054906101000a900473ffffffffffffffffffffffffffffffffffffffff1673ffffffffffffffffffffffffffffffffffffffff163373ffffffffffffffffffffffffffffffffffffffff161461062e576040517f08c379a00000000000000000000000000000000000000000000000000000000081526004016106259061333a565b60405180910390fd5b60005b6001805490508110156106ee578173ffffffffffffffffffffffffffffffffffffffff166001828154811061068f577f4e487b7100000000000000000000000000000000000000000000000000000000600052603260045260246000fd5b9060005260206000200160009054906101000a900473ffffffffffffffffffffffffffffffffffffffff1673ffffffffffffffffffffffffffffffffffffffff1614156106db576106ee565b80806106e69061361b565b915050610631565b60018181548110610728577f4e487b7100000000000000000000000000000000000000000000000000000000600052603260045260246000fd5b9060005260206000200160006101000a81549073ffffffffffffffffffffffffffffffffffffffff02191690557fdb0d54f6e7ff4a52bdc49b4c8d9ff245f409fee25c2c0a0a72ece14e2ddf4cfc826040516107849190612ea0565b60405180910390a15050565b6060600180548060200260200160405190810160405280929190818152602001828054801561081457602002820191906000526020600020905b8160009054906101000a900473ffffffffffffffffffffffffffffffffffffffff1673ffffffffffffffffffffffffffffffffffffffff16815260200190600101908083116107ca575b5050505050905090565b6001818154811061082e57600080fd5b906000526020600020016000915054906101000a900473ffffffffffffffffffffffffffffffffffffffff1681565b60066020528060005260406000206000915090508060000160009054906101000a900473ffffffffffffffffffffffffffffffffffffffff16908060010154908060020154908060030154908060040154908060050160009054906101000a900460ff16905086565b600080821161090a576040517f08c379a00000000000000000000000000000000000000000000000000000000081526004016109019061321a565b60405180910390fd5b60006008600084815260200190815260200160002054905060008111610965576040517f08c379a000000000000000000000000000000000000000000000000000000000815260040161095c9061339a565b60405180910390fd5b60006006600083815260200190815260200160002090506109aa81600101548260020154836003015484600401548560050160009054906101000a900460ff1661211a565b92505050919050565b600060066000838152602001908152602001600020905060006007600084815260200190815260200160002054905060008111610a25576040517f08c379a0000000000000000000000000000000000000000000000000000000008152600401610a1c906131ba565b60405180910390fd5b60006005600083815260200190815260200160002090503373ffffffffffffffffffffffffffffffffffffffff168160000160009054906101000a900473ffffffffffffffffffffffffffffffffffffffff1673ffffffffffffffffffffffffffffffffffffffff1614610ace576040517f08c379a0000000000000000000000000000000000000000000000000000000008152600401610ac5906131da565b60405180910390fd5b60008160000160009054906101000a900473ffffffffffffffffffffffffffffffffffffffff1690508073ffffffffffffffffffffffffffffffffffffffff166108fc85600101549081150290604051600060405180830381858888f19350505050158015610b41573d6000803e3d6000fd5b5060028260030160006101000a81548160ff02191690836004811115610b90577f4e487b7100000000000000000000000000000000000000000000000000000000600052602160045260246000fd5b02179055508460086000858152602001908152602001600020819055504284600301819055507feeb046b305fcff3538cfdefcb3ce223663ef84836df9830a1de00bc00817631e8386604051610be79291906133f0565b60405180910390a15050505050565b600060056000838152602001908152602001600020905060008160000160009054906101000a900473ffffffffffffffffffffffffffffffffffffffff16905060006004811115610c70577f4e487b7100000000000000000000000000000000000000000000000000000000600052602160045260246000fd5b8260030160009054906101000a900460ff166004811115610cba577f4e487b7100000000000000000000000000000000000000000000000000000000600052602160045260246000fd5b14610cfa576040517f08c379a0000000000000000000000000000000000000000000000000000000008152600401610cf1906132ba565b60405180910390fd5b8073ffffffffffffffffffffffffffffffffffffffff163373ffffffffffffffffffffffffffffffffffffffff1614610d68576040517f08c379a0000000000000000000000000000000000000000000000000000000008152600401610d5f906130da565b60405180910390fd5b6000600860008581526020019081526020016000205414610dbe576040517f08c379a0000000000000000000000000000000000000000000000000000000008152600401610db5906131fa565b60405180910390fd5b60018260030160006101000a81548160ff02191690836004811115610e0c577f4e487b7100000000000000000000000000000000000000000000000000000000600052602160045260246000fd5b02179055508160010160009054906101000a900473ffffffffffffffffffffffffffffffffffffffff1673ffffffffffffffffffffffffffffffffffffffff166323b872dd308385600201546040518463ffffffff1660e01b8152600401610e7693929190612f1b565b600060405180830381600087803b158015610e9057600080fd5b505af1158015610ea4573d6000803e3d6000fd5b505050507f6d2c0a066258c4b768dc98e6e9ce603e177a49c3b5ed4521b992fcddd16ccec460008054906101000a900473ffffffffffffffffffffffffffffffffffffffff1684604051610ef9929190612f97565b60405180910390a1505050565b600060066000838152602001908152602001600020905060008160000160009054906101000a900473ffffffffffffffffffffffffffffffffffffffff1690503373ffffffffffffffffffffffffffffffffffffffff168173ffffffffffffffffffffffffffffffffffffffff1614610fb4576040517f08c379a0000000000000000000000000000000000000000000000000000000008152600401610fab9061329a565b60405180910390fd5b81600101548260030154610fc89190613463565b4211611009576040517f08c379a0000000000000000000000000000000000000000000000000000000008152600401611000906132fa565b60405180910390fd5b60006007600085815260200190815260200160002054905083600860008381526020019081526020016000205414611076576040517f08c379a000000000000000000000000000000000000000000000000000000000815260040161106d9061317a565b60405180910390fd5b600060056000838152602001908152602001600020905060008160000160009054906101000a900473ffffffffffffffffffffffffffffffffffffffff1690508160010160009054906101000a900473ffffffffffffffffffffffffffffffffffffffff1673ffffffffffffffffffffffffffffffffffffffff166323b872dd308685600201546040518463ffffffff1660e01b815260040161111b93929190612f1b565b600060405180830381600087803b15801561113557600080fd5b505af1158015611149573d6000803e3d6000fd5b505050507f3f04bdfbb29083e787b72e4ad2d2b43ea0d6a571e532274d9a560234498315cc81858560405161118093929190612f1b565b60405180910390a1505050505050565b60008054906101000a900473ffffffffffffffffffffffffffffffffffffffff1673ffffffffffffffffffffffffffffffffffffffff163373ffffffffffffffffffffffffffffffffffffffff161461121e576040517f08c379a00000000000000000000000000000000000000000000000000000000081526004016112159061327a565b60405180910390fd5b600073ffffffffffffffffffffffffffffffffffffffff168173ffffffffffffffffffffffffffffffffffffffff16141561128e576040517f08c379a00000000000000000000000000000000000000000000000000000000081526004016112859061311a565b60405180910390fd5b60005b60018054905081101561134f578173ffffffffffffffffffffffffffffffffffffffff16600182815481106112ef577f4e487b7100000000000000000000000000000000000000000000000000000000600052603260045260246000fd5b9060005260206000200160009054906101000a900473ffffffffffffffffffffffffffffffffffffffff1673ffffffffffffffffffffffffffffffffffffffff16141561133c57506113eb565b80806113479061361b565b915050611291565b6001829080600181540180825580915050600190039060005260206000200160009091909190916101000a81548173ffffffffffffffffffffffffffffffffffffffff021916908373ffffffffffffffffffffffffffffffffffffffff1602179055507fbf309892cce19064e6d63ba3339f893b199c8cb5041fc6731702cb18e805d291826040516113e19190612ea0565b60405180910390a1505b50565b600080611407620151808461264d90919063ffffffff16565b9050600061141e828661266390919063ffffffff16565b9050809250505092915050565b60006005600083815260200190815260200160002090503373ffffffffffffffffffffffffffffffffffffffff168160000160009054906101000a900473ffffffffffffffffffffffffffffffffffffffff1673ffffffffffffffffffffffffffffffffffffffff16146114d4576040517f08c379a00000000000000000000000000000000000000000000000000000000081526004016114cb9061337a565b60405180910390fd5b6000600860008481526020019081526020016000205490506000811415611530576040517f08c379a00000000000000000000000000000000000000000000000000000000081526004016115279061323a565b60405180910390fd5b6000600660008381526020019081526020016000209050600061155b826003015483600401546113ee565b9050804211156115a0576040517f08c379a00000000000000000000000000000000000000000000000000000000081526004016115979061313a565b60405180910390fd5b600034905060006115d584600101548560020154866003015487600401548860050160009054906101000a900460ff1661211a565b9050808214611619576040517f08c379a00000000000000000000000000000000000000000000000000000000081526004016116109061319a565b60405180910390fd5b8560010160009054906101000a900473ffffffffffffffffffffffffffffffffffffffff1673ffffffffffffffffffffffffffffffffffffffff166323b872dd308860000160009054906101000a900473ffffffffffffffffffffffffffffffffffffffff1689600201546040518463ffffffff1660e01b81526004016116a293929190612f1b565b600060405180830381600087803b1580156116bc57600080fd5b505af11580156116d0573d6000803e3d6000fd5b5050505060008460000160009054906101000a900473ffffffffffffffffffffffffffffffffffffffff1690508073ffffffffffffffffffffffffffffffffffffffff166108fc849081150290604051600060405180830381858888f19350505050158015611743573d6000803e3d6000fd5b50600860008981526020019081526020016000206000905560076000878152602001908152602001600020600090557f387b6c44a03a44af16fb6452ab8551059597dfe9a7287d1850fcfa5a81595c3d8760000160009054906101000a900473ffffffffffffffffffffffffffffffffffffffff16828a6040516117c993929190612ee4565b60405180910390a15050505050505050565b6117e36126e4565b600560008381526020019081526020016000206040518060800160405290816000820160009054906101000a900473ffffffffffffffffffffffffffffffffffffffff1673ffffffffffffffffffffffffffffffffffffffff1673ffffffffffffffffffffffffffffffffffffffff1681526020016001820160009054906101000a900473ffffffffffffffffffffffffffffffffffffffff1673ffffffffffffffffffffffffffffffffffffffff1673ffffffffffffffffffffffffffffffffffffffff168152602001600282015481526020016003820160009054906101000a900460ff166004811115611902577f4e487b7100000000000000000000000000000000000000000000000000000000600052602160045260246000fd5b600481111561193a577f4e487b7100000000000000000000000000000000000000000000000000000000600052602160045260246000fd5b815250509050919050565b60076020528060005260406000206000915090505481565b60086020528060005260406000206000915090505481565b60056020528060005260406000206000915090508060000160009054906101000a900473ffffffffffffffffffffffffffffffffffffffff16908060010160009054906101000a900473ffffffffffffffffffffffffffffffffffffffff16908060020154908060030160009054906101000a900460ff16905084565b60008054906101000a900473ffffffffffffffffffffffffffffffffffffffff1681565b600160046000828254611a299190613463565b9250508190555060003390506000349050600060056000858152602001908152602001600020905060008411611a94576040517f08c379a0000000000000000000000000000000000000000000000000000000008152600401611a8b906132da565b60405180910390fd5b600073ffffffffffffffffffffffffffffffffffffffff168160000160009054906101000a900473ffffffffffffffffffffffffffffffffffffffff1673ffffffffffffffffffffffffffffffffffffffff16141580611b455750600073ffffffffffffffffffffffffffffffffffffffff168160010160009054906101000a900473ffffffffffffffffffffffffffffffffffffffff1673ffffffffffffffffffffffffffffffffffffffff1614155b611b84576040517f08c379a0000000000000000000000000000000000000000000000000000000008152600401611b7b906130ba565b60405180910390fd5b8273ffffffffffffffffffffffffffffffffffffffff168160000160009054906101000a900473ffffffffffffffffffffffffffffffffffffffff1673ffffffffffffffffffffffffffffffffffffffff161415611c17576040517f08c379a0000000000000000000000000000000000000000000000000000000008152600401611c0e9061331a565b60405180910390fd5b60006004811115611c51577f4e487b7100000000000000000000000000000000000000000000000000000000600052602160045260246000fd5b8160030160009054906101000a900460ff166004811115611c9b577f4e487b7100000000000000000000000000000000000000000000000000000000600052602160045260246000fd5b14611cdb576040517f08c379a0000000000000000000000000000000000000000000000000000000008152600401611cd2906130fa565b60405180910390fd5b60008211611d1e576040517f08c379a0000000000000000000000000000000000000000000000000000000008152600401611d159061335a565b60405180910390fd5b8260066000600454815260200190815260200160002060000160006101000a81548173ffffffffffffffffffffffffffffffffffffffff021916908373ffffffffffffffffffffffffffffffffffffffff1602179055508160066000600454815260200190815260200160002060010181905550866006600060045481526020019081526020016000206002018190555085600660006004548152602001908152602001600020600401819055508460066000600454815260200190815260200160002060050160006101000a81548160ff02191690831515021790555083600760006004548152602001908152602001600020819055507fbc13236afe4f10fc8d44c86b16e9e6695b2758938a2bedf6ceef72157259447b8385600454604051611e4b93929190612fc0565b60405180910390a150505050505050565b6000600660008381526020019081526020016000206040518060c00160405290816000820160009054906101000a900473ffffffffffffffffffffffffffffffffffffffff1673ffffffffffffffffffffffffffffffffffffffff1673ffffffffffffffffffffffffffffffffffffffff168152602001600182015481526020016002820154815260200160038201548152602001600482015481526020016005820160009054906101000a900460ff16151515158152505090506000339050816000015173ffffffffffffffffffffffffffffffffffffffff168173ffffffffffffffffffffffffffffffffffffffff1614611f8e576040517f08c379a0000000000000000000000000000000000000000000000000000000008152600401611f859061309a565b60405180910390fd5b6000600760008581526020019081526020016000205490508360086000838152602001908152602001600020541415611ffc576040517f08c379a0000000000000000000000000000000000000000000000000000000008152600401611ff39061325a565b60405180910390fd5b6000836000015190508073ffffffffffffffffffffffffffffffffffffffff166108fc85602001519081150290604051600060405180830381858888f1935050505015801561204f573d6000803e3d6000fd5b5060066000868152602001908152602001600020600080820160006101000a81549073ffffffffffffffffffffffffffffffffffffffff021916905560018201600090556002820160009055600382016000905560048201600090556005820160006101000a81549060ff0219169055505060076000868152602001908152602001600020600090557f6ee61d45e149503ae29ac61f0d99b805266360d3b28490f047c7cc7b7ce9edcb83838760405161210b93929190612fc0565b60405180910390a15050505050565b600080859050821561217e57600061213b858861267990919063ffffffff16565b90506000612152874261268f90919063ffffffff16565b9050600061216382620151806126a5565b9050612178838261264d90919063ffffffff16565b93505050505b612191818861266390919063ffffffff16565b91505095945050505050565b60025481565b6001600360008282546121b69190613463565b925050819055506000805b60018054905081101561227e5760018181548110612208577f4e487b7100000000000000000000000000000000000000000000000000000000600052603260045260246000fd5b9060005260206000200160009054906101000a900473ffffffffffffffffffffffffffffffffffffffff1673ffffffffffffffffffffffffffffffffffffffff168473ffffffffffffffffffffffffffffffffffffffff16141561226b57600191505b80806122769061361b565b9150506121c1565b50600033905060011515821515146122cb576040517f08c379a00000000000000000000000000000000000000000000000000000000081526004016122c29061315a565b60405180910390fd5b60003073ffffffffffffffffffffffffffffffffffffffff168573ffffffffffffffffffffffffffffffffffffffff1663081812fc866040518263ffffffff1660e01b815260040161231d91906133d5565b60206040518083038186803b15801561233557600080fd5b505afa158015612349573d6000803e3d6000fd5b505050506040513d601f19601f8201168201806040525081019061236d9190612802565b73ffffffffffffffffffffffffffffffffffffffff1614905060008573ffffffffffffffffffffffffffffffffffffffff1663e985e9c584306040518363ffffffff1660e01b81526004016123c3929190612ebb565b60206040518083038186803b1580156123db57600080fd5b505afa1580156123ef573d6000803e3d6000fd5b505050506040513d601f19601f820116820180604052508101906124139190612867565b9050818061241e5750805b61245d576040517f08c379a00000000000000000000000000000000000000000000000000000000081526004016124549061307a565b60405180910390fd5b8573ffffffffffffffffffffffffffffffffffffffff166323b872dd3330886040518463ffffffff1660e01b815260040161249a93929190612f1b565b600060405180830381600087803b1580156124b457600080fd5b505af11580156124c8573d6000803e3d6000fd5b505050508260056000600354815260200190815260200160002060000160006101000a81548173ffffffffffffffffffffffffffffffffffffffff021916908373ffffffffffffffffffffffffffffffffffffffff1602179055508560056000600354815260200190815260200160002060010160006101000a81548173ffffffffffffffffffffffffffffffffffffffff021916908373ffffffffffffffffffffffffffffffffffffffff1602179055508460056000600354815260200190815260200160002060020181905550600060056000600354815260200190815260200160002060030160006101000a81548160ff021916908360048111156125f9577f4e487b7100000000000000000000000000000000000000000000000000000000600052602160045260246000fd5b02179055507fd10594784457563b8564c078bb5c8bcc5e6b8e1b08b2d7ef7af261e84e366c1f83600354604051612631929190612f97565b60405180910390a1505050505050565b60045481565b60035481565b6000818361265b91906134ea565b905092915050565b600081836126719190613463565b905092915050565b6000818361268791906134b9565b905092915050565b6000818361269d9190613544565b905092915050565b60008082846126b49190613664565b146126c05760016126c3565b60005b60ff1682846126d291906134b9565b6126dc9190613463565b905092915050565b6040518060800160405280600073ffffffffffffffffffffffffffffffffffffffff168152602001600073ffffffffffffffffffffffffffffffffffffffff168152602001600081526020016000600481111561276a577f4e487b7100000000000000000000000000000000000000000000000000000000600052602160045260246000fd5b81525090565b60008135905061277f81613f16565b92915050565b60008151905061279481613f16565b92915050565b6000813590506127a981613f2d565b92915050565b6000815190506127be81613f2d565b92915050565b6000813590506127d381613f44565b92915050565b6000602082840312156127eb57600080fd5b60006127f984828501612770565b91505092915050565b60006020828403121561281457600080fd5b600061282284828501612785565b91505092915050565b6000806040838503121561283e57600080fd5b600061284c85828601612770565b925050602061285d858286016127c4565b9150509250929050565b60006020828403121561287957600080fd5b6000612887848285016127af565b91505092915050565b6000602082840312156128a257600080fd5b60006128b0848285016127c4565b91505092915050565b600080604083850312156128cc57600080fd5b60006128da858286016127c4565b92505060206128eb858286016127c4565b9150509250929050565b6000806000806080858703121561290b57600080fd5b6000612919878288016127c4565b945050602061292a878288016127c4565b935050604061293b8782880161279a565b925050606061294c878288016127c4565b91505092959194509250565b600080600080600060a0868803121561297057600080fd5b600061297e888289016127c4565b955050602061298f888289016127c4565b94505060406129a0888289016127c4565b93505060606129b1888289016127c4565b92505060806129c28882890161279a565b9150509295509295909350565b60006129db83836129f6565b60208301905092915050565b6129f0816135d3565b82525050565b6129ff81613578565b82525050565b612a0e81613578565b82525050565b6000612a1f82613429565b612a298185613441565b9350612a3483613419565b8060005b83811015612a65578151612a4c88826129cf565b9750612a5783613434565b925050600181019050612a38565b5085935050505092915050565b612a7b8161358a565b82525050565b612a8a816135e5565b82525050565b612a99816135e5565b82525050565b6000612aac602f83613452565b9150612ab782613722565b604082019050919050565b6000612acf602c83613452565b9150612ada82613771565b604082019050919050565b6000612af2602083613452565b9150612afd826137c0565b602082019050919050565b6000612b15603183613452565b9150612b20826137e9565b604082019050919050565b6000612b38602183613452565b9150612b4382613838565b604082019050919050565b6000612b5b603c83613452565b9150612b6682613887565b604082019050919050565b6000612b7e601e83613452565b9150612b89826138d6565b602082019050919050565b6000612ba1603083613452565b9150612bac826138ff565b604082019050919050565b6000612bc4603183613452565b9150612bcf8261394e565b604082019050919050565b6000612be7602683613452565b9150612bf28261399d565b604082019050919050565b6000612c0a602483613452565b9150612c15826139ec565b604082019050919050565b6000612c2d603083613452565b9150612c3882613a3b565b604082019050919050565b6000612c50603483613452565b9150612c5b82613a8a565b604082019050919050565b6000612c73602383613452565b9150612c7e82613ad9565b604082019050919050565b6000612c96603383613452565b9150612ca182613b28565b604082019050919050565b6000612cb9603083613452565b9150612cc482613b77565b604082019050919050565b6000612cdc603583613452565b9150612ce782613bc6565b604082019050919050565b6000612cff603483613452565b9150612d0a82613c15565b604082019050919050565b6000612d22603a83613452565b9150612d2d82613c64565b604082019050919050565b6000612d45602183613452565b9150612d5082613cb3565b604082019050919050565b6000612d68602883613452565b9150612d7382613d02565b604082019050919050565b6000612d8b603283613452565b9150612d9682613d51565b604082019050919050565b6000612dae603a83613452565b9150612db982613da0565b604082019050919050565b6000612dd1603283613452565b9150612ddc82613def565b604082019050919050565b6000612df4602b83613452565b9150612dff82613e3e565b604082019050919050565b6000612e17604183613452565b9150612e2282613e8d565b606082019050919050565b608082016000820151612e4360008501826129f6565b506020820151612e5660208501826129f6565b506040820151612e696040850182612e82565b506060820151612e7c6060850182612a81565b50505050565b612e8b816135c9565b82525050565b612e9a816135c9565b82525050565b6000602082019050612eb56000830184612a05565b92915050565b6000604082019050612ed06000830185612a05565b612edd6020830184612a05565b9392505050565b6000606082019050612ef96000830186612a05565b612f0660208301856129e7565b612f136040830184612e91565b949350505050565b6000606082019050612f306000830186612a05565b612f3d6020830185612a05565b612f4a6040830184612e91565b949350505050565b6000608082019050612f676000830187612a05565b612f746020830186612a05565b612f816040830185612e91565b612f8e6060830184612a90565b95945050505050565b6000604082019050612fac6000830185612a05565b612fb96020830184612e91565b9392505050565b6000606082019050612fd56000830186612a05565b612fe26020830185612e91565b612fef6040830184612e91565b949350505050565b600060c08201905061300c6000830189612a05565b6130196020830188612e91565b6130266040830187612e91565b6130336060830186612e91565b6130406080830185612e91565b61304d60a0830184612a72565b979650505050505050565b600060208201905081810360008301526130728184612a14565b905092915050565b6000602082019050818103600083015261309381612a9f565b9050919050565b600060208201905081810360008301526130b381612ac2565b9050919050565b600060208201905081810360008301526130d381612ae5565b9050919050565b600060208201905081810360008301526130f381612b08565b9050919050565b6000602082019050818103600083015261311381612b2b565b9050919050565b6000602082019050818103600083015261313381612b4e565b9050919050565b6000602082019050818103600083015261315381612b71565b9050919050565b6000602082019050818103600083015261317381612b94565b9050919050565b6000602082019050818103600083015261319381612bb7565b9050919050565b600060208201905081810360008301526131b381612bda565b9050919050565b600060208201905081810360008301526131d381612bfd565b9050919050565b600060208201905081810360008301526131f381612c20565b9050919050565b6000602082019050818103600083015261321381612c43565b9050919050565b6000602082019050818103600083015261323381612c66565b9050919050565b6000602082019050818103600083015261325381612c89565b9050919050565b6000602082019050818103600083015261327381612cac565b9050919050565b6000602082019050818103600083015261329381612ccf565b9050919050565b600060208201905081810360008301526132b381612cf2565b9050919050565b600060208201905081810360008301526132d381612d15565b9050919050565b600060208201905081810360008301526132f381612d38565b9050919050565b6000602082019050818103600083015261331381612d5b565b9050919050565b6000602082019050818103600083015261333381612d7e565b9050919050565b6000602082019050818103600083015261335381612da1565b9050919050565b6000602082019050818103600083015261337381612dc4565b9050919050565b6000602082019050818103600083015261339381612de7565b9050919050565b600060208201905081810360008301526133b381612e0a565b9050919050565b60006080820190506133cf6000830184612e2d565b92915050565b60006020820190506133ea6000830184612e91565b92915050565b60006040820190506134056000830185612e91565b6134126020830184612e91565b9392505050565b6000819050602082019050919050565b600081519050919050565b6000602082019050919050565b600082825260208201905092915050565b600082825260208201905092915050565b600061346e826135c9565b9150613479836135c9565b9250827fffffffffffffffffffffffffffffffffffffffffffffffffffffffffffffffff038211156134ae576134ad613695565b5b828201905092915050565b60006134c4826135c9565b91506134cf836135c9565b9250826134df576134de6136c4565b5b828204905092915050565b60006134f5826135c9565b9150613500836135c9565b9250817fffffffffffffffffffffffffffffffffffffffffffffffffffffffffffffffff048311821515161561353957613538613695565b5b828202905092915050565b600061354f826135c9565b915061355a836135c9565b92508282101561356d5761356c613695565b5b828203905092915050565b6000613583826135a9565b9050919050565b60008115159050919050565b60008190506135a482613f02565b919050565b600073ffffffffffffffffffffffffffffffffffffffff82169050919050565b6000819050919050565b60006135de826135f7565b9050919050565b60006135f082613596565b9050919050565b600061360282613609565b9050919050565b6000613614826135a9565b9050919050565b6000613626826135c9565b91507fffffffffffffffffffffffffffffffffffffffffffffffffffffffffffffffff82141561365957613658613695565b5b600182019050919050565b600061366f826135c9565b915061367a836135c9565b92508261368a576136896136c4565b5b828206905092915050565b7f4e487b7100000000000000000000000000000000000000000000000000000000600052601160045260246000fd5b7f4e487b7100000000000000000000000000000000000000000000000000000000600052601260045260246000fd5b7f4e487b7100000000000000000000000000000000000000000000000000000000600052602160045260246000fd5b7f5061776e696e6753686f703a20686176656e277420676f74207065726d69737360008201527f696f6e20746f207472616e736665720000000000000000000000000000000000602082015250565b7f5061776e696e6753686f703a206f6e6c792063726561746f722063616e20636160008201527f6e63656c20746865206269640000000000000000000000000000000000000000602082015250565b7f5061776e696e6773686f703a207061776e206973206e6f742065786973746564600082015250565b7f5061776e696e6753686f703a204f6e6c79206f776e6572206f6620746865207060008201527f61776e2063616e2063616e63656c206974000000000000000000000000000000602082015250565b7f5061776e696e6753686f703a2063616e6e6f742062696420746869732070617760008201527f6e00000000000000000000000000000000000000000000000000000000000000602082015250565b7f5061776e696e6753686f703a20736d61727420636f6e7472616374206164647260008201527f657373206d75737420626520646966666572656e742077697468203000000000602082015250565b7f5061776e696e6753686f703a20746f206c61746520746f207265706169640000600082015250565b7f5061776e696e6753686f703a20736d61727420636f6e7472616374206973206e60008201527f6f7420696e207768697465206c69737400000000000000000000000000000000602082015250565b7f5061776e696e6753686f703a207468697320626964206973206e6f742061636360008201527f657074656420627920626f72726f776572000000000000000000000000000000602082015250565b7f5061776e696e6753686f703a207061792065786163746c79207265706169642060008201527f616d6f756e740000000000000000000000000000000000000000000000000000602082015250565b7f5061776e696e6753686f703a20546865207061776e206973206e6f742065786960008201527f7374656400000000000000000000000000000000000000000000000000000000602082015250565b7f5061776e696e6753686f703a206f6e6c792063726561746f72206f662070617760008201527f6e2063616e206163636570742062696400000000000000000000000000000000602082015250565b7f5061776e696e6753686f703a204f6e6c792063616e2063616e63656c2077686560008201527f6e206e6f20626964206973206163636570746564000000000000000000000000602082015250565b7f5061776e696e6753686f703a207061776e206964206973206e6f74206578697360008201527f7465640000000000000000000000000000000000000000000000000000000000602082015250565b7f5061776e696e6753686f703a2054686973207061776e20646f656e277420686160008201527f766520616e792061636365707465642062696400000000000000000000000000602082015250565b7f5061776e696e6753686f703a20796f757220626964206973206163636570746560008201527f642c2063616e6e6f742063616e63656c00000000000000000000000000000000602082015250565b7f5061776e696e6753686f703a204f6e6c79206f776e65722063616e206164642060008201527f6164647265737320746f207768697465206c6973740000000000000000000000602082015250565b7f5061776e696e6753686f703a206f6e6c792063726561746f72206f662062696460008201527f2063616e206c697175696461746520746f6b656e000000000000000000000000602082015250565b7f5061776e696e6753686f703a204f6e6c792063616e2063616e63656c2077686560008201527f6e2069742068617320737461747573206f662043524541544544000000000000602082015250565b7f5061776e696e6753686f703a207061776e206964206973206e6f742076616c6960008201527f6400000000000000000000000000000000000000000000000000000000000000602082015250565b7f5061776e696e6753686f703a204e6f742076616c69642074696d6520746f206c60008201527f6971756964617465000000000000000000000000000000000000000000000000602082015250565b7f5061776e696e6753686f703a2063726561746f72206f6620746865207061776e60008201527f2063616e6e6f74206d616b652061206269640000000000000000000000000000602082015250565b7f5061776e696e6753686f703a204f6e6c79206f776e65722063616e2072656d6f60008201527f766520616464726573732066726f6d207768697465206c697374000000000000602082015250565b7f5061776e696e6753686f703a20616d6f756e74206f66206d6f6e6579206d757360008201527f7420626520626967676572207468616e20300000000000000000000000000000602082015250565b7f5061776e696e6753686f703a204f6e6c792063726561746f72206f662070617760008201527f6e2063616e207265706179000000000000000000000000000000000000000000602082015250565b7f5061776e696e6753686f703a207061776e20646f65736e27742068617665206160008201527f20616363657074656420626964206f7220746865207061776e20697320646f6e60208201527f6500000000000000000000000000000000000000000000000000000000000000604082015250565b60058110613f1357613f126136f3565b5b50565b613f1f81613578565b8114613f2a57600080fd5b50565b613f368161358a565b8114613f4157600080fd5b50565b613f4d816135c9565b8114613f5857600080fd5b5056fea26469706673582212205ee2656f5226278d7e8954653364be9ba290a2544b9054489348d999b784c1f564736f6c63430008040033",
  "immutableReferences": {},
  "source": "pragma solidity ^0.8.4;\r\n\r\n// import \"@openzeppelin/contracts/utils/math/SafeMath.sol\";\r\nlibrary SafeMath {\r\n    /**\r\n     * @dev Returns the addition of two unsigned integers, with an overflow flag.\r\n     *\r\n     * _Available since v3.4._\r\n     */\r\n    function tryAdd(uint256 a, uint256 b) internal pure returns (bool, uint256) {\r\n        unchecked {\r\n            uint256 c = a + b;\r\n            if (c < a) return (false, 0);\r\n            return (true, c);\r\n        }\r\n    }\r\n\r\n    /**\r\n     * @dev Returns the substraction of two unsigned integers, with an overflow flag.\r\n     *\r\n     * _Available since v3.4._\r\n     */\r\n    function trySub(uint256 a, uint256 b) internal pure returns (bool, uint256) {\r\n        unchecked {\r\n            if (b > a) return (false, 0);\r\n            return (true, a - b);\r\n        }\r\n    }\r\n\r\n    /**\r\n     * @dev Returns the multiplication of two unsigned integers, with an overflow flag.\r\n     *\r\n     * _Available since v3.4._\r\n     */\r\n    function tryMul(uint256 a, uint256 b) internal pure returns (bool, uint256) {\r\n        unchecked {\r\n            // Gas optimization: this is cheaper than requiring 'a' not being zero, but the\r\n            // benefit is lost if 'b' is also tested.\r\n            // See: https://github.com/OpenZeppelin/openzeppelin-contracts/pull/522\r\n            if (a == 0) return (true, 0);\r\n            uint256 c = a * b;\r\n            if (c / a != b) return (false, 0);\r\n            return (true, c);\r\n        }\r\n    }\r\n\r\n    /**\r\n     * @dev Returns the division of two unsigned integers, with a division by zero flag.\r\n     *\r\n     * _Available since v3.4._\r\n     */\r\n    function tryDiv(uint256 a, uint256 b) internal pure returns (bool, uint256) {\r\n        unchecked {\r\n            if (b == 0) return (false, 0);\r\n            return (true, a / b);\r\n        }\r\n    }\r\n\r\n    /**\r\n     * @dev Returns the remainder of dividing two unsigned integers, with a division by zero flag.\r\n     *\r\n     * _Available since v3.4._\r\n     */\r\n    function tryMod(uint256 a, uint256 b) internal pure returns (bool, uint256) {\r\n        unchecked {\r\n            if (b == 0) return (false, 0);\r\n            return (true, a % b);\r\n        }\r\n    }\r\n\r\n    /**\r\n     * @dev Returns the addition of two unsigned integers, reverting on\r\n     * overflow.\r\n     *\r\n     * Counterpart to Solidity's `+` operator.\r\n     *\r\n     * Requirements:\r\n     *\r\n     * - Addition cannot overflow.\r\n     */\r\n    function add(uint256 a, uint256 b) internal pure returns (uint256) {\r\n        return a + b;\r\n    }\r\n\r\n    /**\r\n     * @dev Returns the subtraction of two unsigned integers, reverting on\r\n     * overflow (when the result is negative).\r\n     *\r\n     * Counterpart to Solidity's `-` operator.\r\n     *\r\n     * Requirements:\r\n     *\r\n     * - Subtraction cannot overflow.\r\n     */\r\n    function sub(uint256 a, uint256 b) internal pure returns (uint256) {\r\n        return a - b;\r\n    }\r\n\r\n    /**\r\n     * @dev Returns the multiplication of two unsigned integers, reverting on\r\n     * overflow.\r\n     *\r\n     * Counterpart to Solidity's `*` operator.\r\n     *\r\n     * Requirements:\r\n     *\r\n     * - Multiplication cannot overflow.\r\n     */\r\n    function mul(uint256 a, uint256 b) internal pure returns (uint256) {\r\n        return a * b;\r\n    }\r\n\r\n    /**\r\n     * @dev Returns the integer division of two unsigned integers, reverting on\r\n     * division by zero. The result is rounded towards zero.\r\n     *\r\n     * Counterpart to Solidity's `/` operator.\r\n     *\r\n     * Requirements:\r\n     *\r\n     * - The divisor cannot be zero.\r\n     */\r\n    function div(uint256 a, uint256 b) internal pure returns (uint256) {\r\n        return a / b;\r\n    }\r\n\r\n    /**\r\n     * @dev Returns the remainder of dividing two unsigned integers. (unsigned integer modulo),\r\n     * reverting when dividing by zero.\r\n     *\r\n     * Counterpart to Solidity's `%` operator. This function uses a `revert`\r\n     * opcode (which leaves remaining gas untouched) while Solidity uses an\r\n     * invalid opcode to revert (consuming all remaining gas).\r\n     *\r\n     * Requirements:\r\n     *\r\n     * - The divisor cannot be zero.\r\n     */\r\n    function mod(uint256 a, uint256 b) internal pure returns (uint256) {\r\n        return a % b;\r\n    }\r\n\r\n    /**\r\n     * @dev Returns the subtraction of two unsigned integers, reverting with custom message on\r\n     * overflow (when the result is negative).\r\n     *\r\n     * CAUTION: This function is deprecated because it requires allocating memory for the error\r\n     * message unnecessarily. For custom revert reasons use {trySub}.\r\n     *\r\n     * Counterpart to Solidity's `-` operator.\r\n     *\r\n     * Requirements:\r\n     *\r\n     * - Subtraction cannot overflow.\r\n     */\r\n    function sub(\r\n        uint256 a,\r\n        uint256 b,\r\n        string memory errorMessage\r\n    ) internal pure returns (uint256) {\r\n        unchecked {\r\n            require(b <= a, errorMessage);\r\n            return a - b;\r\n        }\r\n    }\r\n\r\n    /**\r\n     * @dev Returns the integer division of two unsigned integers, reverting with custom message on\r\n     * division by zero. The result is rounded towards zero.\r\n     *\r\n     * Counterpart to Solidity's `/` operator. Note: this function uses a\r\n     * `revert` opcode (which leaves remaining gas untouched) while Solidity\r\n     * uses an invalid opcode to revert (consuming all remaining gas).\r\n     *\r\n     * Requirements:\r\n     *\r\n     * - The divisor cannot be zero.\r\n     */\r\n    function div(\r\n        uint256 a,\r\n        uint256 b,\r\n        string memory errorMessage\r\n    ) internal pure returns (uint256) {\r\n        unchecked {\r\n            require(b > 0, errorMessage);\r\n            return a / b;\r\n        }\r\n    }\r\n\r\n    /**\r\n     * @dev Returns the remainder of dividing two unsigned integers. (unsigned integer modulo),\r\n     * reverting with custom message when dividing by zero.\r\n     *\r\n     * CAUTION: This function is deprecated because it requires allocating memory for the error\r\n     * message unnecessarily. For custom revert reasons use {tryMod}.\r\n     *\r\n     * Counterpart to Solidity's `%` operator. This function uses a `revert`\r\n     * opcode (which leaves remaining gas untouched) while Solidity uses an\r\n     * invalid opcode to revert (consuming all remaining gas).\r\n     *\r\n     * Requirements:\r\n     *\r\n     * - The divisor cannot be zero.\r\n     */\r\n    function mod(\r\n        uint256 a,\r\n        uint256 b,\r\n        string memory errorMessage\r\n    ) internal pure returns (uint256) {\r\n        unchecked {\r\n            require(b > 0, errorMessage);\r\n            return a % b;\r\n        }\r\n    }\r\n}\r\n\r\n\r\ninterface IERC165 {\r\n    /**\r\n     * @dev Returns true if this contract implements the interface defined by\r\n     * `interfaceId`. See the corresponding\r\n     * https://eips.ethereum.org/EIPS/eip-165#how-interfaces-are-identified[EIP section]\r\n     * to learn more about how these ids are created.\r\n     *\r\n     * This function call must use less than 30 000 gas.\r\n     */\r\n    function supportsInterface(bytes4 interfaceId) external view returns (bool);\r\n}\r\n\r\n\r\ninterface IERC721 is IERC165 {\r\n    /**\r\n     * @dev Emitted when `tokenId` token is transferred from `from` to `to`.\r\n     */\r\n    event Transfer(address indexed from, address indexed to, uint256 indexed tokenId);\r\n\r\n    /**\r\n     * @dev Emitted when `owner` enables `approved` to manage the `tokenId` token.\r\n     */\r\n    event Approval(address indexed owner, address indexed approved, uint256 indexed tokenId);\r\n\r\n    /**\r\n     * @dev Emitted when `owner` enables or disables (`approved`) `operator` to manage all of its assets.\r\n     */\r\n    event ApprovalForAll(address indexed owner, address indexed operator, bool approved);\r\n\r\n    /**\r\n     * @dev Returns the number of tokens in ``owner``'s account.\r\n     */\r\n    function balanceOf(address owner) external view returns (uint256 balance);\r\n\r\n    /**\r\n     * @dev Returns the owner of the `tokenId` token.\r\n     *\r\n     * Requirements:\r\n     *\r\n     * - `tokenId` must exist.\r\n     */\r\n    function ownerOf(uint256 tokenId) external view returns (address owner);\r\n\r\n    /**\r\n     * @dev Safely transfers `tokenId` token from `from` to `to`, checking first that contract recipients\r\n     * are aware of the ERC721 protocol to prevent tokens from being forever locked.\r\n     *\r\n     * Requirements:\r\n     *\r\n     * - `from` cannot be the zero address.\r\n     * - `to` cannot be the zero address.\r\n     * - `tokenId` token must exist and be owned by `from`.\r\n     * - If the caller is not `from`, it must be have been allowed to move this token by either {approve} or {setApprovalForAll}.\r\n     * - If `to` refers to a smart contract, it must implement {IERC721Receiver-onERC721Received}, which is called upon a safe transfer.\r\n     *\r\n     * Emits a {Transfer} event.\r\n     */\r\n    function safeTransferFrom(\r\n        address from,\r\n        address to,\r\n        uint256 tokenId\r\n    ) external;\r\n\r\n    /**\r\n     * @dev Transfers `tokenId` token from `from` to `to`.\r\n     *\r\n     * WARNING: Usage of this method is discouraged, use {safeTransferFrom} whenever possible.\r\n     *\r\n     * Requirements:\r\n     *\r\n     * - `from` cannot be the zero address.\r\n     * - `to` cannot be the zero address.\r\n     * - `tokenId` token must be owned by `from`.\r\n     * - If the caller is not `from`, it must be approved to move this token by either {approve} or {setApprovalForAll}.\r\n     *\r\n     * Emits a {Transfer} event.\r\n     */\r\n    function transferFrom(\r\n        address from,\r\n        address to,\r\n        uint256 tokenId\r\n    ) external;\r\n\r\n    /**\r\n     * @dev Gives permission to `to` to transfer `tokenId` token to another account.\r\n     * The approval is cleared when the token is transferred.\r\n     *\r\n     * Only a single account can be approved at a time, so approving the zero address clears previous approvals.\r\n     *\r\n     * Requirements:\r\n     *\r\n     * - The caller must own the token or be an approved operator.\r\n     * - `tokenId` must exist.\r\n     *\r\n     * Emits an {Approval} event.\r\n     */\r\n    function approve(address to, uint256 tokenId) external;\r\n\r\n    /**\r\n     * @dev Returns the account approved for `tokenId` token.\r\n     *\r\n     * Requirements:\r\n     *\r\n     * - `tokenId` must exist.\r\n     */\r\n    function getApproved(uint256 tokenId) external view returns (address operator);\r\n\r\n    /**\r\n     * @dev Approve or remove `operator` as an operator for the caller.\r\n     * Operators can call {transferFrom} or {safeTransferFrom} for any token owned by the caller.\r\n     *\r\n     * Requirements:\r\n     *\r\n     * - The `operator` cannot be the caller.\r\n     *\r\n     * Emits an {ApprovalForAll} event.\r\n     */\r\n    function setApprovalForAll(address operator, bool _approved) external;\r\n\r\n    /**\r\n     * @dev Returns if the `operator` is allowed to manage all of the assets of `owner`.\r\n     *\r\n     * See {setApprovalForAll}\r\n     */\r\n    function isApprovedForAll(address owner, address operator) external view returns (bool);\r\n\r\n    /**\r\n     * @dev Safely transfers `tokenId` token from `from` to `to`.\r\n     *\r\n     * Requirements:\r\n     *\r\n     * - `from` cannot be the zero address.\r\n     * - `to` cannot be the zero address.\r\n     * - `tokenId` token must exist and be owned by `from`.\r\n     * - If the caller is not `from`, it must be approved to move this token by either {approve} or {setApprovalForAll}.\r\n     * - If `to` refers to a smart contract, it must implement {IERC721Receiver-onERC721Received}, which is called upon a safe transfer.\r\n     *\r\n     * Emits a {Transfer} event.\r\n     */\r\n    function safeTransferFrom(\r\n        address from,\r\n        address to,\r\n        uint256 tokenId,\r\n        bytes calldata data\r\n    ) external;\r\n}\r\n\r\ncontract PawningShop {\r\n\r\n    using SafeMath for uint256;\r\n    using SafeMath for uint8;\r\n\r\n    enum PawnStatus {\r\n        CREATED,\r\n        CANCELLED,\r\n        DEAL,\r\n        LIQUIDATED,\r\n        REPAID\r\n    }\r\n    struct Pawn {\r\n        // who borrows money\r\n        address creator;\r\n        address contractAddress;\r\n        uint256 tokenId;\r\n        PawnStatus status;\r\n    }\r\n    struct Bid {\r\n        address creator; // who create the bid\r\n        uint256 loanAmount;\r\n        // the amount of wei the lender lend to the borrower\r\n        uint256 interest; // the maximum interest that the borrower have to pay in wei\r\n        uint256 loanStartTime; // timestamp\r\n        uint256 loanDuration; // duration in days\r\n        bool isInterestProRated; // if the borrower pays sonner, then pays less interest\r\n    }\r\n    address public owner;\r\n    address[] public _whiteListNFT;\r\n    uint256 public _feeRate;\r\n    uint256 public _totalNumberOfPawn = 0;\r\n    uint256 public _totalNumberOfBid = 0;\r\n    // mapping nft address -> token id -> pawn\r\n    mapping(uint256 => Pawn) public _pawns;\r\n    // mapping bid id => bid\r\n    mapping(uint256 => Bid) public _bids;\r\n    // mapping bid id to pawn id\r\n    mapping(uint256 => uint256) public _bidToPawn;\r\n    mapping(uint256 => uint256) public _pawnToBid;\r\n\r\n    constructor() {\r\n        owner = msg.sender;\r\n    }\r\n\r\n    event PawnCreated(address pawner, uint256 pawnId);\r\n    event PawnCancelled(address pawner, uint256 pawnId);\r\n    event PawnDeal(address pawner, address lender, uint256 pawnId);\r\n    event PawnRepaid(address pawner, address lender, uint256 pawnId);\r\n    event PawnLiquidated(address pawner, address lender, uint256 pawnId);\r\n    event BidCreated(address creator, uint256 pawnId, uint256 bidId);\r\n    event BidAccepted(uint256 pawnId, uint256 bidId);\r\n    event BidCancelled(address creator, uint256 pawnId, uint256 bidId);\r\n    event WhiteListAdded(address smartContract);\r\n    event WhiteListRemoved(address smartContract);\r\n\r\n    function getPawnById(uint256 id) public view returns(Pawn memory) {\r\n        return _pawns[id];\r\n    }\r\n\r\n    function createPawn(address tokenAddress, uint256 tokenId) public {\r\n        _totalNumberOfPawn += 1;\r\n        bool isInWhiteList = false;\r\n        for (uint256 i = 0; i < _whiteListNFT.length; i++) {\r\n            if (tokenAddress == _whiteListNFT[i]) {\r\n                isInWhiteList = true;\r\n            }\r\n        }\r\n        address sender = msg.sender;\r\n        require(\r\n            isInWhiteList == true,\r\n            \"PawningShop: smart contract is not in white list\"\r\n        );\r\n        bool isApproved = IERC721(tokenAddress).getApproved(tokenId) ==\r\n            address(this);\r\n        bool isApprovedForAll = IERC721(tokenAddress).isApprovedForAll(\r\n            sender,\r\n            address(this)\r\n        );\r\n        require(\r\n            isApproved || isApprovedForAll,\r\n            \"PawningShop: haven't got permission to transfer\"\r\n        );\r\n\r\n        IERC721(tokenAddress).transferFrom(msg.sender, address(this), tokenId);\r\n\r\n        _pawns[_totalNumberOfPawn].creator = sender;\r\n        _pawns[_totalNumberOfPawn].contractAddress = tokenAddress;\r\n        _pawns[_totalNumberOfPawn].tokenId = tokenId;\r\n        _pawns[_totalNumberOfPawn].status = PawnStatus.CREATED;\r\n        emit PawnCreated(sender, _totalNumberOfPawn);\r\n    }\r\n\r\n    function cancelPawn(uint256 pawnId) public {\r\n        Pawn storage pawn = _pawns[pawnId];\r\n        address creator = pawn.creator;\r\n        require(\r\n            pawn.status == PawnStatus.CREATED,\r\n            \"PawningShop: Only can cancel when it has status of CREATED\"\r\n        );\r\n        require(\r\n            msg.sender == creator,\r\n            \"PawningShop: Only owner of the pawn can cancel it\"\r\n        );\r\n        require(\r\n            _pawnToBid[pawnId] == 0,\r\n            \"PawningShop: Only can cancel when no bid is accepted\"\r\n        );\r\n        pawn.status = PawnStatus.CANCELLED;\r\n        IERC721(pawn.contractAddress).transferFrom(address(this), creator, pawn.tokenId);\r\n        emit PawnCancelled(owner, pawnId);\r\n    }\r\n\r\n    function createBid(\r\n        uint256 rate,\r\n        uint256 duration,\r\n        bool isInterestProRated,\r\n        uint256 pawnId\r\n    ) public payable {\r\n        _totalNumberOfBid += 1;\r\n        address creator = msg.sender;\r\n        uint256 amount = msg.value;\r\n        Pawn storage pawn = _pawns[pawnId];\r\n        require(pawnId > 0, \"PawningShop: pawn id is not valid\");\r\n        require(\r\n            pawn.creator != address(0) || pawn.contractAddress != address(0), \r\n            \"Pawningshop: pawn is not existed\"\r\n        );\r\n        require(\r\n            pawn.creator != creator,\r\n            \"PawningShop: creator of the pawn cannot make a bid\"\r\n        );\r\n        require(\r\n            pawn.status == PawnStatus.CREATED,\r\n            \"PawningShop: cannot bid this pawn\"\r\n        );\r\n        require(\r\n            amount > 0,\r\n            \"PawningShop: amount of money must be bigger than 0\"\r\n        );\r\n\r\n        _bids[_totalNumberOfBid].creator = creator;\r\n        _bids[_totalNumberOfBid].loanAmount = amount;\r\n        _bids[_totalNumberOfBid].interest = rate;\r\n        _bids[_totalNumberOfBid].loanDuration = duration;\r\n        _bids[_totalNumberOfBid].isInterestProRated = isInterestProRated;\r\n        // _bids[_totalNumberOfBid].loanStartTime = loanStartTime;\r\n        // loanStartTime will be set when the borrower accepts bid\r\n\r\n        _bidToPawn[_totalNumberOfBid] = pawnId;\r\n        emit BidCreated(creator, pawnId, _totalNumberOfBid);\r\n    }\r\n\r\n    function cancelBid(uint256 bidId) public {\r\n        Bid memory currBid = _bids[bidId];\r\n        address sender = msg.sender;\r\n        require(\r\n            sender == currBid.creator,\r\n            \"PawningShop: only creator can cancel the bid\"\r\n        );\r\n        uint256 pawnId = _bidToPawn[bidId];\r\n        require(\r\n            _pawnToBid[pawnId] != bidId,\r\n            \"PawningShop: your bid is accepted, cannot cancel\"\r\n        );\r\n        address payable lender = payable(currBid.creator);\r\n        lender.transfer(currBid.loanAmount);\r\n        delete _bids[bidId];\r\n        delete _bidToPawn[bidId];\r\n        emit BidCancelled(sender, pawnId, bidId);\r\n    }\r\n\r\n    function acceptBid(uint256 bidId) public {\r\n        Bid storage currBid = _bids[bidId];\r\n        uint256 pawnId = _bidToPawn[bidId];\r\n        require(\r\n            pawnId > 0,\r\n            \"PawningShop: The pawn is not existed\"\r\n        );\r\n        Pawn storage pawn = _pawns[pawnId];\r\n        require(\r\n            pawn.creator == msg.sender,\r\n            \"PawningShop: only creator of pawn can accept bid\"\r\n        );\r\n        address payable borrower = payable(pawn.creator);\r\n        borrower.transfer(currBid.loanAmount);\r\n        pawn.status = PawnStatus.DEAL;\r\n        _pawnToBid[pawnId] = bidId;\r\n        currBid.loanStartTime = block.timestamp;\r\n        emit BidAccepted(pawnId, bidId);\r\n    }\r\n\r\n    function repaid(uint256 pawnId) public payable {\r\n        Pawn storage currPawn = _pawns[pawnId];\r\n        require(\r\n            currPawn.creator == msg.sender,\r\n            \"PawningShop: Only creator of pawn can repay\"\r\n        );\r\n        uint256 bidId = _pawnToBid[pawnId];\r\n        require(\r\n            bidId != 0,\r\n            \"PawningShop: This pawn doen't have any accepted bid\"\r\n        );\r\n        Bid storage currBid = _bids[bidId];\r\n        uint256 repayDeadline = _calculateRepayDeadline(currBid.loanStartTime, currBid.loanDuration);\r\n        require(\r\n            block.timestamp <= repayDeadline,\r\n            \"PawningShop: to late to repaid\"\r\n        );\r\n        uint256 value = msg.value;\r\n        uint256 repaidAmount = _calculateRepaidAmount(\r\n            currBid.loanAmount,\r\n            currBid.interest,\r\n            currBid.loanStartTime,\r\n            currBid.loanDuration,\r\n            currBid.isInterestProRated\r\n        );\r\n        require(\r\n            value == repaidAmount,\r\n            \"PawningShop: pay exactly repaid amount\"\r\n        );\r\n        // transfer token back to borrower\r\n        IERC721(currPawn.contractAddress).transferFrom(address(this), currPawn.creator, currPawn.tokenId);\r\n        // transfer money to lender\r\n        address payable lender = payable(currBid.creator);\r\n        lender.transfer(value);\r\n        delete _pawnToBid[pawnId];\r\n        delete _bidToPawn[bidId];\r\n        emit PawnRepaid(currPawn.creator, lender, pawnId);\r\n    }\r\n\r\n    function _calculateRepayDeadline(uint256 loanStartTime, uint256 loanDuration) public pure returns(uint256) {\r\n        uint256 loanDurationInSeconds = loanDuration.mul(1 days);\r\n        uint256 repayDeadline = loanStartTime.add(loanDurationInSeconds);\r\n        return repayDeadline;\r\n    }\r\n\r\n    function _calculateRepaidAmount(\r\n        uint256 original, uint256 interest, uint256 loanStartTime, uint256 duration, bool isInterestProRated\r\n    ) public view returns (uint256) {\r\n        uint256 interestDue = interest;\r\n        if (isInterestProRated) {\r\n            uint256 interestPerDay = interest.div(duration);\r\n            uint256 secondPassed = block.timestamp.sub(loanStartTime);\r\n            uint256 dayPassed = ceilDiv(secondPassed, 1 days);\r\n            interestDue = dayPassed.mul(interestPerDay);\r\n        }\r\n        return original.add(interestDue);\r\n    }\r\n\r\n    function getRepaidAmount(uint256 pawnId) public view returns(uint256) {\r\n        require(pawnId > 0, \"PawningShop: pawn id is not existed\");\r\n        uint256 bidId = _pawnToBid[pawnId];\r\n        require(bidId > 0, \"PawningShop: pawn doesn't have a accepted bid or the pawn is done\");\r\n        Bid storage bid = _bids[bidId];\r\n        return _calculateRepaidAmount(bid.loanAmount, bid.interest, bid.loanStartTime, bid.loanDuration, bid.isInterestProRated);\r\n    }\r\n    \r\n    // get this from openzeppelin\r\n    function ceilDiv(uint256 a, uint256 b) internal pure returns (uint256) {\r\n        // (a + b - 1) / b can overflow on addition, so we distribute.\r\n        return a / b + (a % b == 0 ? 0 : 1);\r\n    }\r\n\r\n    function liquidate(uint256 bidId) public {\r\n        Bid storage currBid = _bids[bidId];\r\n        address lender = currBid.creator;\r\n        require(lender == msg.sender, \"PawningShop: only creator of bid can liquidate token\");\r\n        require(block.timestamp > currBid.loanStartTime + currBid.loanAmount, \"PawningShop: Not valid time to liquidate\");\r\n        uint256 pawnId = _bidToPawn[bidId];\r\n        require(_pawnToBid[pawnId] == bidId, \"PawningShop: this bid is not accepted by borrower\");\r\n        Pawn storage currPawn = _pawns[pawnId];\r\n        address pawner = currPawn.creator;\r\n        IERC721(currPawn.contractAddress).transferFrom(address(this), lender, currPawn.tokenId);\r\n        emit PawnLiquidated(pawner, lender, pawnId);\r\n    }\r\n\r\n    function addToWhiteList(address smartContract) public {\r\n        require(msg.sender == owner, \"PawningShop: Only owner can add address to white list\");\r\n        require(smartContract != address(0), \"PawningShop: smart contract address must be different with 0\");\r\n        uint256 i = 0;\r\n        for (i = 0; i < _whiteListNFT.length; i++) {\r\n            if (_whiteListNFT[i] == smartContract) {\r\n                return;\r\n            }\r\n        }\r\n        _whiteListNFT.push(smartContract);\r\n        emit WhiteListAdded(smartContract);\r\n    }\r\n\r\n    function removeFromWhiteList(address smartContract) public {\r\n        require(msg.sender == owner, \"PawningShop: Only owner can remove address from white list\");\r\n        uint256 i;\r\n        for (i = 0; i < _whiteListNFT.length; i++) {\r\n            if (_whiteListNFT[i] == smartContract) {\r\n                break;\r\n            }\r\n        }\r\n        delete _whiteListNFT[i];\r\n        emit WhiteListRemoved(smartContract);\r\n    }\r\n\r\n    function getWhiteList() public view returns(address[] memory) {\r\n        return _whiteListNFT;\r\n    }\r\n}\r\n",
  "sourcePath": "E:/Documents/OneDrive/Documents/solidity/nft-pawning-shop/solidity/contracts/PawningShop.sol",
  "compiler": {
    "name": "solc",
    "version": "0.8.4+commit.c7e474f2.Emscripten.clang"
  },
  "schemaVersion": "3.4.1",
  "updatedAt": "2021-09-02T10:25:54.648Z",
  "networkType": "ethereum",
  "devdoc": {
    "kind": "dev",
    "methods": {},
    "version": 1
  },
  "userdoc": {
    "kind": "user",
    "methods": {},
    "version": 1
  }
}