{
  "contractName": "PawningShop",
  "abi": [
    {
      "inputs": [],
      "stateMutability": "nonpayable",
      "type": "constructor"
    },
    {
      "anonymous": false,
      "inputs": [
        {
          "indexed": false,
          "internalType": "address",
          "name": "borrower",
          "type": "address"
        },
        {
          "indexed": false,
          "internalType": "address",
          "name": "lender",
          "type": "address"
        },
        {
          "indexed": false,
          "internalType": "uint256",
          "name": "pawnId",
          "type": "uint256"
        },
        {
          "indexed": true,
          "internalType": "uint256",
          "name": "bidId",
          "type": "uint256"
        }
      ],
      "name": "BidAccepted",
      "type": "event"
    },
    {
      "anonymous": false,
      "inputs": [
        {
          "indexed": false,
          "internalType": "address",
          "name": "borrower",
          "type": "address"
        },
        {
          "indexed": false,
          "internalType": "address",
          "name": "lender",
          "type": "address"
        },
        {
          "indexed": false,
          "internalType": "uint256",
          "name": "pawnId",
          "type": "uint256"
        },
        {
          "indexed": true,
          "internalType": "uint256",
          "name": "bidId",
          "type": "uint256"
        }
      ],
      "name": "BidCancelled",
      "type": "event"
    },
    {
      "anonymous": false,
      "inputs": [
        {
          "indexed": false,
          "internalType": "address",
          "name": "borrower",
          "type": "address"
        },
        {
          "indexed": false,
          "internalType": "address",
          "name": "lender",
          "type": "address"
        },
        {
          "indexed": false,
          "internalType": "uint256",
          "name": "pawnId",
          "type": "uint256"
        },
        {
          "indexed": true,
          "internalType": "uint256",
          "name": "bidId",
          "type": "uint256"
        }
      ],
      "name": "BidCreated",
      "type": "event"
    },
    {
      "anonymous": false,
      "inputs": [
        {
          "indexed": false,
          "internalType": "address",
          "name": "borrower",
          "type": "address"
        },
        {
          "indexed": true,
          "internalType": "uint256",
          "name": "pawnId",
          "type": "uint256"
        }
      ],
      "name": "PawnCancelled",
      "type": "event"
    },
    {
      "anonymous": false,
      "inputs": [
        {
          "indexed": false,
          "internalType": "address",
          "name": "borrower",
          "type": "address"
        },
        {
          "indexed": true,
          "internalType": "uint256",
          "name": "pawnId",
          "type": "uint256"
        }
      ],
      "name": "PawnCreated",
      "type": "event"
    },
    {
      "anonymous": false,
      "inputs": [
        {
          "indexed": false,
          "internalType": "address",
          "name": "borrower",
          "type": "address"
        },
        {
          "indexed": false,
          "internalType": "address",
          "name": "lender",
          "type": "address"
        },
        {
          "indexed": true,
          "internalType": "uint256",
          "name": "pawnId",
          "type": "uint256"
        },
        {
          "indexed": false,
          "internalType": "uint256",
          "name": "bidId",
          "type": "uint256"
        }
      ],
      "name": "PawnDeal",
      "type": "event"
    },
    {
      "anonymous": false,
      "inputs": [
        {
          "indexed": false,
          "internalType": "address",
          "name": "borrower",
          "type": "address"
        },
        {
          "indexed": false,
          "internalType": "address",
          "name": "lender",
          "type": "address"
        },
        {
          "indexed": true,
          "internalType": "uint256",
          "name": "pawnId",
          "type": "uint256"
        },
        {
          "indexed": false,
          "internalType": "uint256",
          "name": "bidId",
          "type": "uint256"
        }
      ],
      "name": "PawnLiquidated",
      "type": "event"
    },
    {
      "anonymous": false,
      "inputs": [
        {
          "indexed": false,
          "internalType": "address",
          "name": "borrower",
          "type": "address"
        },
        {
          "indexed": false,
          "internalType": "address",
          "name": "lender",
          "type": "address"
        },
        {
          "indexed": true,
          "internalType": "uint256",
          "name": "pawnId",
          "type": "uint256"
        },
        {
          "indexed": false,
          "internalType": "uint256",
          "name": "bidId",
          "type": "uint256"
        }
      ],
      "name": "PawnRepaid",
      "type": "event"
    },
    {
      "anonymous": false,
      "inputs": [
        {
          "indexed": false,
          "internalType": "address",
          "name": "smartContract",
          "type": "address"
        }
      ],
      "name": "WhiteListAdded",
      "type": "event"
    },
    {
      "anonymous": false,
      "inputs": [
        {
          "indexed": false,
          "internalType": "address",
          "name": "smartContract",
          "type": "address"
        }
      ],
      "name": "WhiteListRemoved",
      "type": "event"
    },
    {
      "inputs": [
        {
          "internalType": "uint256",
          "name": "",
          "type": "uint256"
        }
      ],
      "name": "_bidToPawn",
      "outputs": [
        {
          "internalType": "uint256",
          "name": "",
          "type": "uint256"
        }
      ],
      "stateMutability": "view",
      "type": "function",
      "constant": true
    },
    {
      "inputs": [
        {
          "internalType": "uint256",
          "name": "",
          "type": "uint256"
        }
      ],
      "name": "_bids",
      "outputs": [
        {
          "internalType": "address",
          "name": "creator",
          "type": "address"
        },
        {
          "internalType": "uint256",
          "name": "loanAmount",
          "type": "uint256"
        },
        {
          "internalType": "uint256",
          "name": "interest",
          "type": "uint256"
        },
        {
          "internalType": "uint256",
          "name": "loanStartTime",
          "type": "uint256"
        },
        {
          "internalType": "uint256",
          "name": "loanDuration",
          "type": "uint256"
        },
        {
          "internalType": "bool",
          "name": "isInterestProRated",
          "type": "bool"
        }
      ],
      "stateMutability": "view",
      "type": "function",
      "constant": true
    },
    {
      "inputs": [],
      "name": "_feeRate",
      "outputs": [
        {
          "internalType": "uint256",
          "name": "",
          "type": "uint256"
        }
      ],
      "stateMutability": "view",
      "type": "function",
      "constant": true
    },
    {
      "inputs": [
        {
          "internalType": "uint256",
          "name": "",
          "type": "uint256"
        }
      ],
      "name": "_pawnToBid",
      "outputs": [
        {
          "internalType": "uint256",
          "name": "",
          "type": "uint256"
        }
      ],
      "stateMutability": "view",
      "type": "function",
      "constant": true
    },
    {
      "inputs": [
        {
          "internalType": "uint256",
          "name": "",
          "type": "uint256"
        }
      ],
      "name": "_pawns",
      "outputs": [
        {
          "internalType": "address",
          "name": "creator",
          "type": "address"
        },
        {
          "internalType": "address",
          "name": "contractAddress",
          "type": "address"
        },
        {
          "internalType": "uint256",
          "name": "tokenId",
          "type": "uint256"
        },
        {
          "internalType": "enum PawningShop.PawnStatus",
          "name": "status",
          "type": "uint8"
        }
      ],
      "stateMutability": "view",
      "type": "function",
      "constant": true
    },
    {
      "inputs": [],
      "name": "_totalNumberOfBid",
      "outputs": [
        {
          "internalType": "uint256",
          "name": "",
          "type": "uint256"
        }
      ],
      "stateMutability": "view",
      "type": "function",
      "constant": true
    },
    {
      "inputs": [],
      "name": "_totalNumberOfPawn",
      "outputs": [
        {
          "internalType": "uint256",
          "name": "",
          "type": "uint256"
        }
      ],
      "stateMutability": "view",
      "type": "function",
      "constant": true
    },
    {
      "inputs": [
        {
          "internalType": "uint256",
          "name": "",
          "type": "uint256"
        }
      ],
      "name": "_whiteListNFT",
      "outputs": [
        {
          "internalType": "address",
          "name": "",
          "type": "address"
        }
      ],
      "stateMutability": "view",
      "type": "function",
      "constant": true
    },
    {
      "inputs": [],
      "name": "owner",
      "outputs": [
        {
          "internalType": "address",
          "name": "",
          "type": "address"
        }
      ],
      "stateMutability": "view",
      "type": "function",
      "constant": true
    },
    {
      "inputs": [
        {
          "internalType": "uint256",
          "name": "id",
          "type": "uint256"
        }
      ],
      "name": "getPawnById",
      "outputs": [
        {
          "components": [
            {
              "internalType": "address",
              "name": "creator",
              "type": "address"
            },
            {
              "internalType": "address",
              "name": "contractAddress",
              "type": "address"
            },
            {
              "internalType": "uint256",
              "name": "tokenId",
              "type": "uint256"
            },
            {
              "internalType": "enum PawningShop.PawnStatus",
              "name": "status",
              "type": "uint8"
            }
          ],
          "internalType": "struct PawningShop.Pawn",
          "name": "",
          "type": "tuple"
        }
      ],
      "stateMutability": "view",
      "type": "function",
      "constant": true
    },
    {
      "inputs": [
        {
          "internalType": "address",
          "name": "tokenAddress",
          "type": "address"
        },
        {
          "internalType": "uint256",
          "name": "tokenId",
          "type": "uint256"
        }
      ],
      "name": "createPawn",
      "outputs": [],
      "stateMutability": "nonpayable",
      "type": "function"
    },
    {
      "inputs": [
        {
          "internalType": "uint256",
          "name": "pawnId",
          "type": "uint256"
        }
      ],
      "name": "cancelPawn",
      "outputs": [],
      "stateMutability": "nonpayable",
      "type": "function"
    },
    {
      "inputs": [
        {
          "internalType": "uint256",
          "name": "rate",
          "type": "uint256"
        },
        {
          "internalType": "uint256",
          "name": "duration",
          "type": "uint256"
        },
        {
          "internalType": "bool",
          "name": "isInterestProRated",
          "type": "bool"
        },
        {
          "internalType": "uint256",
          "name": "pawnId",
          "type": "uint256"
        }
      ],
      "name": "createBid",
      "outputs": [],
      "stateMutability": "payable",
      "type": "function",
      "payable": true
    },
    {
      "inputs": [
        {
          "internalType": "uint256",
          "name": "bidId",
          "type": "uint256"
        }
      ],
      "name": "cancelBid",
      "outputs": [],
      "stateMutability": "nonpayable",
      "type": "function"
    },
    {
      "inputs": [
        {
          "internalType": "uint256",
          "name": "bidId",
          "type": "uint256"
        }
      ],
      "name": "acceptBid",
      "outputs": [],
      "stateMutability": "nonpayable",
      "type": "function"
    },
    {
      "inputs": [
        {
          "internalType": "uint256",
          "name": "pawnId",
          "type": "uint256"
        }
      ],
      "name": "repaid",
      "outputs": [],
      "stateMutability": "payable",
      "type": "function",
      "payable": true
    },
    {
      "inputs": [
        {
          "internalType": "uint256",
          "name": "loanStartTime",
          "type": "uint256"
        },
        {
          "internalType": "uint256",
          "name": "loanDuration",
          "type": "uint256"
        }
      ],
      "name": "_calculateRepayDeadline",
      "outputs": [
        {
          "internalType": "uint256",
          "name": "",
          "type": "uint256"
        }
      ],
      "stateMutability": "pure",
      "type": "function",
      "constant": true
    },
    {
      "inputs": [
        {
          "internalType": "uint256",
          "name": "original",
          "type": "uint256"
        },
        {
          "internalType": "uint256",
          "name": "interest",
          "type": "uint256"
        },
        {
          "internalType": "uint256",
          "name": "loanStartTime",
          "type": "uint256"
        },
        {
          "internalType": "uint256",
          "name": "duration",
          "type": "uint256"
        },
        {
          "internalType": "bool",
          "name": "isInterestProRated",
          "type": "bool"
        }
      ],
      "name": "_calculateRepaidAmount",
      "outputs": [
        {
          "internalType": "uint256",
          "name": "",
          "type": "uint256"
        }
      ],
      "stateMutability": "view",
      "type": "function",
      "constant": true
    },
    {
      "inputs": [
        {
          "internalType": "uint256",
          "name": "pawnId",
          "type": "uint256"
        }
      ],
      "name": "getRepaidAmount",
      "outputs": [
        {
          "internalType": "uint256",
          "name": "",
          "type": "uint256"
        }
      ],
      "stateMutability": "view",
      "type": "function",
      "constant": true
    },
    {
      "inputs": [
        {
          "internalType": "uint256",
          "name": "bidId",
          "type": "uint256"
        }
      ],
      "name": "liquidate",
      "outputs": [],
      "stateMutability": "nonpayable",
      "type": "function"
    },
    {
      "inputs": [
        {
          "internalType": "address",
          "name": "smartContract",
          "type": "address"
        }
      ],
      "name": "addToWhiteList",
      "outputs": [],
      "stateMutability": "nonpayable",
      "type": "function"
    },
    {
      "inputs": [
        {
          "internalType": "address",
          "name": "smartContract",
          "type": "address"
        }
      ],
      "name": "removeFromWhiteList",
      "outputs": [],
      "stateMutability": "nonpayable",
      "type": "function"
    },
    {
      "inputs": [],
      "name": "getWhiteList",
      "outputs": [
        {
          "internalType": "address[]",
          "name": "",
          "type": "address[]"
        }
      ],
      "stateMutability": "view",
      "type": "function",
      "constant": true
    }
  ],
  "bytecode": "0x60806040526000600355600060045534801561001a57600080fd5b50336000806101000a81548173ffffffffffffffffffffffffffffffffffffffff021916908373ffffffffffffffffffffffffffffffffffffffff160217905550613f468061006a6000396000f3fe6080604052600436106101405760003560e01c80636707927d116100b65780639703ef351161006f5780639703ef3514610490578063aff109a4146104b9578063b2131f7d146104f6578063b53c370114610521578063c398f41f1461054a578063d98dbf211461057557610140565b80636707927d146103525780638228c5791461038f57806386271db4146103cc5780638bfaf684146104095780638da5cb5b14610449578063901d65311461047457610140565b80632b1fd58a116101085780632b1fd58a146102555780633ce11def1461027e578063415f1240146102a757806347ee0394146102d05780635b093b05146102f95780635f93893b1461033657610140565b806301bf66481461014557806309a9d76c1461016e57806326d8600b146101995780632712b2e5146101d657806327706ae514610218575b600080fd5b34801561015157600080fd5b5061016c600480360381019061016791906127e0565b6105a0565b005b34801561017a57600080fd5b50610183610790565b6040516101909190613036565b60405180910390f35b3480156101a557600080fd5b506101c060048036038101906101bb9190612897565b61081e565b6040516101cd9190612ea7565b60405180910390f35b3480156101e257600080fd5b506101fd60048036038101906101f89190612897565b61085d565b60405161020f96959493929190612fd5565b60405180910390f35b34801561022457600080fd5b5061023f600480360381019061023a9190612897565b6108c6565b60405161024c91906133b3565b60405180910390f35b34801561026157600080fd5b5061027c60048036038101906102779190612897565b6109b3565b005b34801561028a57600080fd5b506102a560048036038101906102a09190612897565b610bff565b005b3480156102b357600080fd5b506102ce60048036038101906102c99190612897565b610f0e565b005b3480156102dc57600080fd5b506102f760048036038101906102f291906127e0565b611199565b005b34801561030557600080fd5b50610320600480360381019061031b91906128c0565b6113f7565b60405161032d91906133b3565b60405180910390f35b610350600480360381019061034b9190612897565b611434565b005b34801561035e57600080fd5b5061037960048036038101906103749190612897565b6117c7565b6040516103869190613398565b60405180910390f35b34801561039b57600080fd5b506103b660048036038101906103b19190612897565b611931565b6040516103c391906133b3565b60405180910390f35b3480156103d857600080fd5b506103f360048036038101906103ee9190612897565b611949565b60405161040091906133b3565b60405180910390f35b34801561041557600080fd5b50610430600480360381019061042b9190612897565b611961565b6040516104409493929190612f90565b60405180910390f35b34801561045557600080fd5b5061045e6119de565b60405161046b9190612ea7565b60405180910390f35b61048e600480360381019061048991906128fc565b611a02565b005b34801561049c57600080fd5b506104b760048036038101906104b29190612897565b611e2b565b005b3480156104c557600080fd5b506104e060048036038101906104db919061295f565b612122565b6040516104ed91906133b3565b60405180910390f35b34801561050257600080fd5b5061050b6121a5565b60405161051891906133b3565b60405180910390f35b34801561052d57600080fd5b5061054860048036038101906105439190612832565b6121ab565b005b34801561055657600080fd5b5061055f612648565b60405161056c91906133b3565b60405180910390f35b34801561058157600080fd5b5061058a61264e565b60405161059791906133b3565b60405180910390f35b60008054906101000a900473ffffffffffffffffffffffffffffffffffffffff1673ffffffffffffffffffffffffffffffffffffffff163373ffffffffffffffffffffffffffffffffffffffff161461062e576040517f08c379a000000000000000000000000000000000000000000000000000000000815260040161062590613318565b60405180910390fd5b60005b6001805490508110156106ee578173ffffffffffffffffffffffffffffffffffffffff166001828154811061068f577f4e487b7100000000000000000000000000000000000000000000000000000000600052603260045260246000fd5b9060005260206000200160009054906101000a900473ffffffffffffffffffffffffffffffffffffffff1673ffffffffffffffffffffffffffffffffffffffff1614156106db576106ee565b80806106e6906135d0565b915050610631565b60018181548110610728577f4e487b7100000000000000000000000000000000000000000000000000000000600052603260045260246000fd5b9060005260206000200160006101000a81549073ffffffffffffffffffffffffffffffffffffffff02191690557fdb0d54f6e7ff4a52bdc49b4c8d9ff245f409fee25c2c0a0a72ece14e2ddf4cfc826040516107849190612ea7565b60405180910390a15050565b6060600180548060200260200160405190810160405280929190818152602001828054801561081457602002820191906000526020600020905b8160009054906101000a900473ffffffffffffffffffffffffffffffffffffffff1673ffffffffffffffffffffffffffffffffffffffff16815260200190600101908083116107ca575b5050505050905090565b6001818154811061082e57600080fd5b906000526020600020016000915054906101000a900473ffffffffffffffffffffffffffffffffffffffff1681565b60066020528060005260406000206000915090508060000160009054906101000a900473ffffffffffffffffffffffffffffffffffffffff16908060010154908060020154908060030154908060040154908060050160009054906101000a900460ff16905086565b600080821161090a576040517f08c379a0000000000000000000000000000000000000000000000000000000008152600401610901906131f8565b60405180910390fd5b60006008600084815260200190815260200160002054905060008111610965576040517f08c379a000000000000000000000000000000000000000000000000000000000815260040161095c90613378565b60405180910390fd5b60006006600083815260200190815260200160002090506109aa81600101548260020154836003015484600401548560050160009054906101000a900460ff16612122565b92505050919050565b600060066000838152602001908152602001600020905060008160000160009054906101000a900473ffffffffffffffffffffffffffffffffffffffff16905060006007600085815260200190815260200160002054905060008111610a4e576040517f08c379a0000000000000000000000000000000000000000000000000000000008152600401610a4590613198565b60405180910390fd5b600060056000838152602001908152602001600020905060008160000160009054906101000a900473ffffffffffffffffffffffffffffffffffffffff1690503373ffffffffffffffffffffffffffffffffffffffff168173ffffffffffffffffffffffffffffffffffffffff1614610afc576040517f08c379a0000000000000000000000000000000000000000000000000000000008152600401610af3906131b8565b60405180910390fd5b8073ffffffffffffffffffffffffffffffffffffffff166108fc86600101549081150290604051600060405180830381858888f19350505050158015610b46573d6000803e3d6000fd5b5060028260030160006101000a81548160ff02191690836004811115610b95577f4e487b7100000000000000000000000000000000000000000000000000000000600052602160045260246000fd5b0217905550856008600085815260200190815260200160002081905550428560030181905550857fc94b51939529c736abed465cef9c3c3cacd78ac7ee0855a967ef32f07935abec828686604051610bef93929190612ec2565b60405180910390a2505050505050565b600060056000838152602001908152602001600020905060008160000160009054906101000a900473ffffffffffffffffffffffffffffffffffffffff16905060006004811115610c79577f4e487b7100000000000000000000000000000000000000000000000000000000600052602160045260246000fd5b8260030160009054906101000a900460ff166004811115610cc3577f4e487b7100000000000000000000000000000000000000000000000000000000600052602160045260246000fd5b14610d03576040517f08c379a0000000000000000000000000000000000000000000000000000000008152600401610cfa90613298565b60405180910390fd5b8073ffffffffffffffffffffffffffffffffffffffff163373ffffffffffffffffffffffffffffffffffffffff1614610d71576040517f08c379a0000000000000000000000000000000000000000000000000000000008152600401610d68906130b8565b60405180910390fd5b6000600860008581526020019081526020016000205414610dc7576040517f08c379a0000000000000000000000000000000000000000000000000000000008152600401610dbe906131d8565b60405180910390fd5b60018260030160006101000a81548160ff02191690836004811115610e15577f4e487b7100000000000000000000000000000000000000000000000000000000600052602160045260246000fd5b02179055508160010160009054906101000a900473ffffffffffffffffffffffffffffffffffffffff1673ffffffffffffffffffffffffffffffffffffffff166323b872dd308385600201546040518463ffffffff1660e01b8152600401610e7f93929190612f59565b600060405180830381600087803b158015610e9957600080fd5b505af1158015610ead573d6000803e3d6000fd5b50505050827f6d2c0a066258c4b768dc98e6e9ce603e177a49c3b5ed4521b992fcddd16ccec460008054906101000a900473ffffffffffffffffffffffffffffffffffffffff16604051610f019190612ea7565b60405180910390a2505050565b600060066000838152602001908152602001600020905060008160000160009054906101000a900473ffffffffffffffffffffffffffffffffffffffff1690503373ffffffffffffffffffffffffffffffffffffffff168173ffffffffffffffffffffffffffffffffffffffff1614610fbc576040517f08c379a0000000000000000000000000000000000000000000000000000000008152600401610fb390613278565b60405180910390fd5b81600101548260030154610fd09190613418565b4211611011576040517f08c379a0000000000000000000000000000000000000000000000000000000008152600401611008906132d8565b60405180910390fd5b6000600760008581526020019081526020016000205490508360086000838152602001908152602001600020541461107e576040517f08c379a000000000000000000000000000000000000000000000000000000000815260040161107590613158565b60405180910390fd5b600060056000838152602001908152602001600020905060008160000160009054906101000a900473ffffffffffffffffffffffffffffffffffffffff1690508160010160009054906101000a900473ffffffffffffffffffffffffffffffffffffffff1673ffffffffffffffffffffffffffffffffffffffff166323b872dd308685600201546040518463ffffffff1660e01b815260040161112393929190612f59565b600060405180830381600087803b15801561113d57600080fd5b505af1158015611151573d6000803e3d6000fd5b50505050827f2bf4e95ec2b38d4f7dcd98fb46d610f1b4171ca40bb51d3fb758c73b5b0a70d882868960405161118993929190612f59565b60405180910390a2505050505050565b60008054906101000a900473ffffffffffffffffffffffffffffffffffffffff1673ffffffffffffffffffffffffffffffffffffffff163373ffffffffffffffffffffffffffffffffffffffff1614611227576040517f08c379a000000000000000000000000000000000000000000000000000000000815260040161121e90613258565b60405180910390fd5b600073ffffffffffffffffffffffffffffffffffffffff168173ffffffffffffffffffffffffffffffffffffffff161415611297576040517f08c379a000000000000000000000000000000000000000000000000000000000815260040161128e906130f8565b60405180910390fd5b60005b600180549050811015611358578173ffffffffffffffffffffffffffffffffffffffff16600182815481106112f8577f4e487b7100000000000000000000000000000000000000000000000000000000600052603260045260246000fd5b9060005260206000200160009054906101000a900473ffffffffffffffffffffffffffffffffffffffff1673ffffffffffffffffffffffffffffffffffffffff16141561134557506113f4565b8080611350906135d0565b91505061129a565b6001829080600181540180825580915050600190039060005260206000200160009091909190916101000a81548173ffffffffffffffffffffffffffffffffffffffff021916908373ffffffffffffffffffffffffffffffffffffffff1602179055507fbf309892cce19064e6d63ba3339f893b199c8cb5041fc6731702cb18e805d291826040516113ea9190612ea7565b60405180910390a1505b50565b600080611410620151808461265490919063ffffffff16565b90506000611427828661266a90919063ffffffff16565b9050809250505092915050565b600060056000838152602001908152602001600020905060008160000160009054906101000a900473ffffffffffffffffffffffffffffffffffffffff1690503373ffffffffffffffffffffffffffffffffffffffff168173ffffffffffffffffffffffffffffffffffffffff16146114e2576040517f08c379a00000000000000000000000000000000000000000000000000000000081526004016114d990613358565b60405180910390fd5b600060086000858152602001908152602001600020549050600081141561153e576040517f08c379a000000000000000000000000000000000000000000000000000000000815260040161153590613218565b60405180910390fd5b60006006600083815260200190815260200160002090506000611569826003015483600401546113f7565b9050804211156115ae576040517f08c379a00000000000000000000000000000000000000000000000000000000081526004016115a590613118565b60405180910390fd5b600034905060006115e384600101548560020154866003015487600401548860050160009054906101000a900460ff16612122565b9050808214611627576040517f08c379a000000000000000000000000000000000000000000000000000000000815260040161161e90613178565b60405180910390fd5b8660010160009054906101000a900473ffffffffffffffffffffffffffffffffffffffff1673ffffffffffffffffffffffffffffffffffffffff166323b872dd308960000160009054906101000a900473ffffffffffffffffffffffffffffffffffffffff168a600201546040518463ffffffff1660e01b81526004016116b093929190612f59565b600060405180830381600087803b1580156116ca57600080fd5b505af11580156116de573d6000803e3d6000fd5b5050505060008460000160009054906101000a900473ffffffffffffffffffffffffffffffffffffffff1690508073ffffffffffffffffffffffffffffffffffffffff166108fc849081150290604051600060405180830381858888f19350505050158015611751573d6000803e3d6000fd5b50600860008a8152602001908152602001600020600090556007600087815260200190815260200160002060009055887f94cf9761720b3cb3b37c7dc2a067a535dd41ba9d6f504ab387f36d2912304ed68883896040516117b493929190612f22565b60405180910390a2505050505050505050565b6117cf6126eb565b600560008381526020019081526020016000206040518060800160405290816000820160009054906101000a900473ffffffffffffffffffffffffffffffffffffffff1673ffffffffffffffffffffffffffffffffffffffff1673ffffffffffffffffffffffffffffffffffffffff1681526020016001820160009054906101000a900473ffffffffffffffffffffffffffffffffffffffff1673ffffffffffffffffffffffffffffffffffffffff1673ffffffffffffffffffffffffffffffffffffffff168152602001600282015481526020016003820160009054906101000a900460ff1660048111156118ee577f4e487b7100000000000000000000000000000000000000000000000000000000600052602160045260246000fd5b6004811115611926577f4e487b7100000000000000000000000000000000000000000000000000000000600052602160045260246000fd5b815250509050919050565b60076020528060005260406000206000915090505481565b60086020528060005260406000206000915090505481565b60056020528060005260406000206000915090508060000160009054906101000a900473ffffffffffffffffffffffffffffffffffffffff16908060010160009054906101000a900473ffffffffffffffffffffffffffffffffffffffff16908060020154908060030160009054906101000a900460ff16905084565b60008054906101000a900473ffffffffffffffffffffffffffffffffffffffff1681565b600160046000828254611a159190613418565b9250508190555060003390506000349050600060056000858152602001908152602001600020905060008160000160009054906101000a900473ffffffffffffffffffffffffffffffffffffffff16905060008511611aa9576040517f08c379a0000000000000000000000000000000000000000000000000000000008152600401611aa0906132b8565b60405180910390fd5b600073ffffffffffffffffffffffffffffffffffffffff168173ffffffffffffffffffffffffffffffffffffffff16141580611b365750600073ffffffffffffffffffffffffffffffffffffffff168260010160009054906101000a900473ffffffffffffffffffffffffffffffffffffffff1673ffffffffffffffffffffffffffffffffffffffff1614155b611b75576040517f08c379a0000000000000000000000000000000000000000000000000000000008152600401611b6c90613098565b60405180910390fd5b8373ffffffffffffffffffffffffffffffffffffffff168173ffffffffffffffffffffffffffffffffffffffff161415611be4576040517f08c379a0000000000000000000000000000000000000000000000000000000008152600401611bdb906132f8565b60405180910390fd5b60006004811115611c1e577f4e487b7100000000000000000000000000000000000000000000000000000000600052602160045260246000fd5b8260030160009054906101000a900460ff166004811115611c68577f4e487b7100000000000000000000000000000000000000000000000000000000600052602160045260246000fd5b14611ca8576040517f08c379a0000000000000000000000000000000000000000000000000000000008152600401611c9f906130d8565b60405180910390fd5b60008311611ceb576040517f08c379a0000000000000000000000000000000000000000000000000000000008152600401611ce290613338565b60405180910390fd5b8360066000600454815260200190815260200160002060000160006101000a81548173ffffffffffffffffffffffffffffffffffffffff021916908373ffffffffffffffffffffffffffffffffffffffff1602179055508260066000600454815260200190815260200160002060010181905550876006600060045481526020019081526020016000206002018190555086600660006004548152602001908152602001600020600401819055508560066000600454815260200190815260200160002060050160006101000a81548160ff02191690831515021790555084600760006004548152602001908152602001600020819055506004547ff844ec9dabd7bd88d75bc0f6668731f14e03c7263851488fc7884a3bf27899a6828688604051611e1993929190612f59565b60405180910390a25050505050505050565b6000600660008381526020019081526020016000206040518060c00160405290816000820160009054906101000a900473ffffffffffffffffffffffffffffffffffffffff1673ffffffffffffffffffffffffffffffffffffffff1673ffffffffffffffffffffffffffffffffffffffff168152602001600182015481526020016002820154815260200160038201548152602001600482015481526020016005820160009054906101000a900460ff161515151581525050905060008160000151905060003390508173ffffffffffffffffffffffffffffffffffffffff168173ffffffffffffffffffffffffffffffffffffffff1614611f62576040517f08c379a0000000000000000000000000000000000000000000000000000000008152600401611f5990613078565b60405180910390fd5b60006007600086815260200190815260200160002054905060006005600083815260200190815260200160002060000160009054906101000a900473ffffffffffffffffffffffffffffffffffffffff169050856008600084815260200190815260200160002054141561200b576040517f08c379a000000000000000000000000000000000000000000000000000000000815260040161200290613238565b60405180910390fd5b8373ffffffffffffffffffffffffffffffffffffffff166108fc86602001519081150290604051600060405180830381858888f19350505050158015612055573d6000803e3d6000fd5b5060066000878152602001908152602001600020600080820160006101000a81549073ffffffffffffffffffffffffffffffffffffffff021916905560018201600090556002820160009055600382016000905560048201600090556005820160006101000a81549060ff021916905550506007600087815260200190815260200160002060009055857fca8f09216f6e7531ea442beda758df0ada53d3664eddd67413876bf21517041082868560405161211293929190612f22565b60405180910390a2505050505050565b6000808590508215612186576000612143858861268090919063ffffffff16565b9050600061215a874261269690919063ffffffff16565b9050600061216b82620151806126ac565b9050612180838261265490919063ffffffff16565b93505050505b612199818861266a90919063ffffffff16565b91505095945050505050565b60025481565b6001600360008282546121be9190613418565b925050819055506000805b6001805490508110156122865760018181548110612210577f4e487b7100000000000000000000000000000000000000000000000000000000600052603260045260246000fd5b9060005260206000200160009054906101000a900473ffffffffffffffffffffffffffffffffffffffff1673ffffffffffffffffffffffffffffffffffffffff168473ffffffffffffffffffffffffffffffffffffffff16141561227357600191505b808061227e906135d0565b9150506121c9565b50600033905060011515821515146122d3576040517f08c379a00000000000000000000000000000000000000000000000000000000081526004016122ca90613138565b60405180910390fd5b60003073ffffffffffffffffffffffffffffffffffffffff168573ffffffffffffffffffffffffffffffffffffffff1663081812fc866040518263ffffffff1660e01b815260040161232591906133b3565b60206040518083038186803b15801561233d57600080fd5b505afa158015612351573d6000803e3d6000fd5b505050506040513d601f19601f820116820180604052508101906123759190612809565b73ffffffffffffffffffffffffffffffffffffffff1614905060008573ffffffffffffffffffffffffffffffffffffffff1663e985e9c584306040518363ffffffff1660e01b81526004016123cb929190612ef9565b60206040518083038186803b1580156123e357600080fd5b505afa1580156123f7573d6000803e3d6000fd5b505050506040513d601f19601f8201168201806040525081019061241b919061286e565b905081806124265750805b612465576040517f08c379a000000000000000000000000000000000000000000000000000000000815260040161245c90613058565b60405180910390fd5b8573ffffffffffffffffffffffffffffffffffffffff166323b872dd3330886040518463ffffffff1660e01b81526004016124a293929190612f59565b600060405180830381600087803b1580156124bc57600080fd5b505af11580156124d0573d6000803e3d6000fd5b505050508260056000600354815260200190815260200160002060000160006101000a81548173ffffffffffffffffffffffffffffffffffffffff021916908373ffffffffffffffffffffffffffffffffffffffff1602179055508560056000600354815260200190815260200160002060010160006101000a81548173ffffffffffffffffffffffffffffffffffffffff021916908373ffffffffffffffffffffffffffffffffffffffff1602179055508460056000600354815260200190815260200160002060020181905550600060056000600354815260200190815260200160002060030160006101000a81548160ff02191690836004811115612601577f4e487b7100000000000000000000000000000000000000000000000000000000600052602160045260246000fd5b02179055506003547fd10594784457563b8564c078bb5c8bcc5e6b8e1b08b2d7ef7af261e84e366c1f846040516126389190612ea7565b60405180910390a2505050505050565b60045481565b60035481565b60008183612662919061349f565b905092915050565b600081836126789190613418565b905092915050565b6000818361268e919061346e565b905092915050565b600081836126a491906134f9565b905092915050565b60008082846126bb9190613619565b146126c75760016126ca565b60005b60ff1682846126d9919061346e565b6126e39190613418565b905092915050565b6040518060800160405280600073ffffffffffffffffffffffffffffffffffffffff168152602001600073ffffffffffffffffffffffffffffffffffffffff1681526020016000815260200160006004811115612771577f4e487b7100000000000000000000000000000000000000000000000000000000600052602160045260246000fd5b81525090565b60008135905061278681613ecb565b92915050565b60008151905061279b81613ecb565b92915050565b6000813590506127b081613ee2565b92915050565b6000815190506127c581613ee2565b92915050565b6000813590506127da81613ef9565b92915050565b6000602082840312156127f257600080fd5b600061280084828501612777565b91505092915050565b60006020828403121561281b57600080fd5b60006128298482850161278c565b91505092915050565b6000806040838503121561284557600080fd5b600061285385828601612777565b9250506020612864858286016127cb565b9150509250929050565b60006020828403121561288057600080fd5b600061288e848285016127b6565b91505092915050565b6000602082840312156128a957600080fd5b60006128b7848285016127cb565b91505092915050565b600080604083850312156128d357600080fd5b60006128e1858286016127cb565b92505060206128f2858286016127cb565b9150509250929050565b6000806000806080858703121561291257600080fd5b6000612920878288016127cb565b9450506020612931878288016127cb565b9350506040612942878288016127a1565b9250506060612953878288016127cb565b91505092959194509250565b600080600080600060a0868803121561297757600080fd5b6000612985888289016127cb565b9550506020612996888289016127cb565b94505060406129a7888289016127cb565b93505060606129b8888289016127cb565b92505060806129c9888289016127a1565b9150509295509295909350565b60006129e283836129fd565b60208301905092915050565b6129f781613588565b82525050565b612a068161352d565b82525050565b612a158161352d565b82525050565b6000612a26826133de565b612a3081856133f6565b9350612a3b836133ce565b8060005b83811015612a6c578151612a5388826129d6565b9750612a5e836133e9565b925050600181019050612a3f565b5085935050505092915050565b612a828161353f565b82525050565b612a918161359a565b82525050565b612aa08161359a565b82525050565b6000612ab3602f83613407565b9150612abe826136d7565b604082019050919050565b6000612ad6602c83613407565b9150612ae182613726565b604082019050919050565b6000612af9602083613407565b9150612b0482613775565b602082019050919050565b6000612b1c603183613407565b9150612b278261379e565b604082019050919050565b6000612b3f602183613407565b9150612b4a826137ed565b604082019050919050565b6000612b62603c83613407565b9150612b6d8261383c565b604082019050919050565b6000612b85601e83613407565b9150612b908261388b565b602082019050919050565b6000612ba8603083613407565b9150612bb3826138b4565b604082019050919050565b6000612bcb603183613407565b9150612bd682613903565b604082019050919050565b6000612bee602683613407565b9150612bf982613952565b604082019050919050565b6000612c11602483613407565b9150612c1c826139a1565b604082019050919050565b6000612c34603083613407565b9150612c3f826139f0565b604082019050919050565b6000612c57603483613407565b9150612c6282613a3f565b604082019050919050565b6000612c7a602383613407565b9150612c8582613a8e565b604082019050919050565b6000612c9d603383613407565b9150612ca882613add565b604082019050919050565b6000612cc0603083613407565b9150612ccb82613b2c565b604082019050919050565b6000612ce3603583613407565b9150612cee82613b7b565b604082019050919050565b6000612d06603483613407565b9150612d1182613bca565b604082019050919050565b6000612d29603a83613407565b9150612d3482613c19565b604082019050919050565b6000612d4c602183613407565b9150612d5782613c68565b604082019050919050565b6000612d6f602883613407565b9150612d7a82613cb7565b604082019050919050565b6000612d92603283613407565b9150612d9d82613d06565b604082019050919050565b6000612db5603a83613407565b9150612dc082613d55565b604082019050919050565b6000612dd8603283613407565b9150612de382613da4565b604082019050919050565b6000612dfb602b83613407565b9150612e0682613df3565b604082019050919050565b6000612e1e604183613407565b9150612e2982613e42565b606082019050919050565b608082016000820151612e4a60008501826129fd565b506020820151612e5d60208501826129fd565b506040820151612e706040850182612e89565b506060820151612e836060850182612a88565b50505050565b612e928161357e565b82525050565b612ea18161357e565b82525050565b6000602082019050612ebc6000830184612a0c565b92915050565b6000606082019050612ed760008301866129ee565b612ee46020830185612a0c565b612ef16040830184612e98565b949350505050565b6000604082019050612f0e6000830185612a0c565b612f1b6020830184612a0c565b9392505050565b6000606082019050612f376000830186612a0c565b612f4460208301856129ee565b612f516040830184612e98565b949350505050565b6000606082019050612f6e6000830186612a0c565b612f7b6020830185612a0c565b612f886040830184612e98565b949350505050565b6000608082019050612fa56000830187612a0c565b612fb26020830186612a0c565b612fbf6040830185612e98565b612fcc6060830184612a97565b95945050505050565b600060c082019050612fea6000830189612a0c565b612ff76020830188612e98565b6130046040830187612e98565b6130116060830186612e98565b61301e6080830185612e98565b61302b60a0830184612a79565b979650505050505050565b600060208201905081810360008301526130508184612a1b565b905092915050565b6000602082019050818103600083015261307181612aa6565b9050919050565b6000602082019050818103600083015261309181612ac9565b9050919050565b600060208201905081810360008301526130b181612aec565b9050919050565b600060208201905081810360008301526130d181612b0f565b9050919050565b600060208201905081810360008301526130f181612b32565b9050919050565b6000602082019050818103600083015261311181612b55565b9050919050565b6000602082019050818103600083015261313181612b78565b9050919050565b6000602082019050818103600083015261315181612b9b565b9050919050565b6000602082019050818103600083015261317181612bbe565b9050919050565b6000602082019050818103600083015261319181612be1565b9050919050565b600060208201905081810360008301526131b181612c04565b9050919050565b600060208201905081810360008301526131d181612c27565b9050919050565b600060208201905081810360008301526131f181612c4a565b9050919050565b6000602082019050818103600083015261321181612c6d565b9050919050565b6000602082019050818103600083015261323181612c90565b9050919050565b6000602082019050818103600083015261325181612cb3565b9050919050565b6000602082019050818103600083015261327181612cd6565b9050919050565b6000602082019050818103600083015261329181612cf9565b9050919050565b600060208201905081810360008301526132b181612d1c565b9050919050565b600060208201905081810360008301526132d181612d3f565b9050919050565b600060208201905081810360008301526132f181612d62565b9050919050565b6000602082019050818103600083015261331181612d85565b9050919050565b6000602082019050818103600083015261333181612da8565b9050919050565b6000602082019050818103600083015261335181612dcb565b9050919050565b6000602082019050818103600083015261337181612dee565b9050919050565b6000602082019050818103600083015261339181612e11565b9050919050565b60006080820190506133ad6000830184612e34565b92915050565b60006020820190506133c86000830184612e98565b92915050565b6000819050602082019050919050565b600081519050919050565b6000602082019050919050565b600082825260208201905092915050565b600082825260208201905092915050565b60006134238261357e565b915061342e8361357e565b9250827fffffffffffffffffffffffffffffffffffffffffffffffffffffffffffffffff038211156134635761346261364a565b5b828201905092915050565b60006134798261357e565b91506134848361357e565b92508261349457613493613679565b5b828204905092915050565b60006134aa8261357e565b91506134b58361357e565b9250817fffffffffffffffffffffffffffffffffffffffffffffffffffffffffffffffff04831182151516156134ee576134ed61364a565b5b828202905092915050565b60006135048261357e565b915061350f8361357e565b9250828210156135225761352161364a565b5b828203905092915050565b60006135388261355e565b9050919050565b60008115159050919050565b600081905061355982613eb7565b919050565b600073ffffffffffffffffffffffffffffffffffffffff82169050919050565b6000819050919050565b6000613593826135ac565b9050919050565b60006135a58261354b565b9050919050565b60006135b7826135be565b9050919050565b60006135c98261355e565b9050919050565b60006135db8261357e565b91507fffffffffffffffffffffffffffffffffffffffffffffffffffffffffffffffff82141561360e5761360d61364a565b5b600182019050919050565b60006136248261357e565b915061362f8361357e565b92508261363f5761363e613679565b5b828206905092915050565b7f4e487b7100000000000000000000000000000000000000000000000000000000600052601160045260246000fd5b7f4e487b7100000000000000000000000000000000000000000000000000000000600052601260045260246000fd5b7f4e487b7100000000000000000000000000000000000000000000000000000000600052602160045260246000fd5b7f5061776e696e6753686f703a20686176656e277420676f74207065726d69737360008201527f696f6e20746f207472616e736665720000000000000000000000000000000000602082015250565b7f5061776e696e6753686f703a206f6e6c792063726561746f722063616e20636160008201527f6e63656c20746865206269640000000000000000000000000000000000000000602082015250565b7f5061776e696e6773686f703a207061776e206973206e6f742065786973746564600082015250565b7f5061776e696e6753686f703a204f6e6c79206f776e6572206f6620746865207060008201527f61776e2063616e2063616e63656c206974000000000000000000000000000000602082015250565b7f5061776e696e6753686f703a2063616e6e6f742062696420746869732070617760008201527f6e00000000000000000000000000000000000000000000000000000000000000602082015250565b7f5061776e696e6753686f703a20736d61727420636f6e7472616374206164647260008201527f657373206d75737420626520646966666572656e742077697468203000000000602082015250565b7f5061776e696e6753686f703a20746f206c61746520746f207265706169640000600082015250565b7f5061776e696e6753686f703a20736d61727420636f6e7472616374206973206e60008201527f6f7420696e207768697465206c69737400000000000000000000000000000000602082015250565b7f5061776e696e6753686f703a207468697320626964206973206e6f742061636360008201527f657074656420627920626f72726f776572000000000000000000000000000000602082015250565b7f5061776e696e6753686f703a207061792065786163746c79207265706169642060008201527f616d6f756e740000000000000000000000000000000000000000000000000000602082015250565b7f5061776e696e6753686f703a20546865207061776e206973206e6f742065786960008201527f7374656400000000000000000000000000000000000000000000000000000000602082015250565b7f5061776e696e6753686f703a206f6e6c792063726561746f72206f662070617760008201527f6e2063616e206163636570742062696400000000000000000000000000000000602082015250565b7f5061776e696e6753686f703a204f6e6c792063616e2063616e63656c2077686560008201527f6e206e6f20626964206973206163636570746564000000000000000000000000602082015250565b7f5061776e696e6753686f703a207061776e206964206973206e6f74206578697360008201527f7465640000000000000000000000000000000000000000000000000000000000602082015250565b7f5061776e696e6753686f703a2054686973207061776e20646f656e277420686160008201527f766520616e792061636365707465642062696400000000000000000000000000602082015250565b7f5061776e696e6753686f703a20796f757220626964206973206163636570746560008201527f642c2063616e6e6f742063616e63656c00000000000000000000000000000000602082015250565b7f5061776e696e6753686f703a204f6e6c79206f776e65722063616e206164642060008201527f6164647265737320746f207768697465206c6973740000000000000000000000602082015250565b7f5061776e696e6753686f703a206f6e6c792063726561746f72206f662062696460008201527f2063616e206c697175696461746520746f6b656e000000000000000000000000602082015250565b7f5061776e696e6753686f703a204f6e6c792063616e2063616e63656c2077686560008201527f6e2069742068617320737461747573206f662043524541544544000000000000602082015250565b7f5061776e696e6753686f703a207061776e206964206973206e6f742076616c6960008201527f6400000000000000000000000000000000000000000000000000000000000000602082015250565b7f5061776e696e6753686f703a204e6f742076616c69642074696d6520746f206c60008201527f6971756964617465000000000000000000000000000000000000000000000000602082015250565b7f5061776e696e6753686f703a2063726561746f72206f6620746865207061776e60008201527f2063616e6e6f74206d616b652061206269640000000000000000000000000000602082015250565b7f5061776e696e6753686f703a204f6e6c79206f776e65722063616e2072656d6f60008201527f766520616464726573732066726f6d207768697465206c697374000000000000602082015250565b7f5061776e696e6753686f703a20616d6f756e74206f66206d6f6e6579206d757360008201527f7420626520626967676572207468616e20300000000000000000000000000000602082015250565b7f5061776e696e6753686f703a204f6e6c792063726561746f72206f662070617760008201527f6e2063616e207265706179000000000000000000000000000000000000000000602082015250565b7f5061776e696e6753686f703a207061776e20646f65736e27742068617665206160008201527f20616363657074656420626964206f7220746865207061776e20697320646f6e60208201527f6500000000000000000000000000000000000000000000000000000000000000604082015250565b60058110613ec857613ec76136a8565b5b50565b613ed48161352d565b8114613edf57600080fd5b50565b613eeb8161353f565b8114613ef657600080fd5b50565b613f028161357e565b8114613f0d57600080fd5b5056fea2646970667358221220a85908fd5d586a7cb9348dfccb6114632af097d6f865d20a28b280cca259d88664736f6c63430008040033",
  "immutableReferences": {},
  "source": "pragma solidity ^0.8.4;\n\n// import \"@openzeppelin/contracts/utils/math/SafeMath.sol\";\nlibrary SafeMath {\n    /**\n     * @dev Returns the addition of two unsigned integers, with an overflow flag.\n     *\n     * _Available since v3.4._\n     */\n    function tryAdd(uint256 a, uint256 b) internal pure returns (bool, uint256) {\n        unchecked {\n            uint256 c = a + b;\n            if (c < a) return (false, 0);\n            return (true, c);\n        }\n    }\n\n    /**\n     * @dev Returns the substraction of two unsigned integers, with an overflow flag.\n     *\n     * _Available since v3.4._\n     */\n    function trySub(uint256 a, uint256 b) internal pure returns (bool, uint256) {\n        unchecked {\n            if (b > a) return (false, 0);\n            return (true, a - b);\n        }\n    }\n\n    /**\n     * @dev Returns the multiplication of two unsigned integers, with an overflow flag.\n     *\n     * _Available since v3.4._\n     */\n    function tryMul(uint256 a, uint256 b) internal pure returns (bool, uint256) {\n        unchecked {\n            // Gas optimization: this is cheaper than requiring 'a' not being zero, but the\n            // benefit is lost if 'b' is also tested.\n            // See: https://github.com/OpenZeppelin/openzeppelin-contracts/pull/522\n            if (a == 0) return (true, 0);\n            uint256 c = a * b;\n            if (c / a != b) return (false, 0);\n            return (true, c);\n        }\n    }\n\n    /**\n     * @dev Returns the division of two unsigned integers, with a division by zero flag.\n     *\n     * _Available since v3.4._\n     */\n    function tryDiv(uint256 a, uint256 b) internal pure returns (bool, uint256) {\n        unchecked {\n            if (b == 0) return (false, 0);\n            return (true, a / b);\n        }\n    }\n\n    /**\n     * @dev Returns the remainder of dividing two unsigned integers, with a division by zero flag.\n     *\n     * _Available since v3.4._\n     */\n    function tryMod(uint256 a, uint256 b) internal pure returns (bool, uint256) {\n        unchecked {\n            if (b == 0) return (false, 0);\n            return (true, a % b);\n        }\n    }\n\n    /**\n     * @dev Returns the addition of two unsigned integers, reverting on\n     * overflow.\n     *\n     * Counterpart to Solidity's `+` operator.\n     *\n     * Requirements:\n     *\n     * - Addition cannot overflow.\n     */\n    function add(uint256 a, uint256 b) internal pure returns (uint256) {\n        return a + b;\n    }\n\n    /**\n     * @dev Returns the subtraction of two unsigned integers, reverting on\n     * overflow (when the result is negative).\n     *\n     * Counterpart to Solidity's `-` operator.\n     *\n     * Requirements:\n     *\n     * - Subtraction cannot overflow.\n     */\n    function sub(uint256 a, uint256 b) internal pure returns (uint256) {\n        return a - b;\n    }\n\n    /**\n     * @dev Returns the multiplication of two unsigned integers, reverting on\n     * overflow.\n     *\n     * Counterpart to Solidity's `*` operator.\n     *\n     * Requirements:\n     *\n     * - Multiplication cannot overflow.\n     */\n    function mul(uint256 a, uint256 b) internal pure returns (uint256) {\n        return a * b;\n    }\n\n    /**\n     * @dev Returns the integer division of two unsigned integers, reverting on\n     * division by zero. The result is rounded towards zero.\n     *\n     * Counterpart to Solidity's `/` operator.\n     *\n     * Requirements:\n     *\n     * - The divisor cannot be zero.\n     */\n    function div(uint256 a, uint256 b) internal pure returns (uint256) {\n        return a / b;\n    }\n\n    /**\n     * @dev Returns the remainder of dividing two unsigned integers. (unsigned integer modulo),\n     * reverting when dividing by zero.\n     *\n     * Counterpart to Solidity's `%` operator. This function uses a `revert`\n     * opcode (which leaves remaining gas untouched) while Solidity uses an\n     * invalid opcode to revert (consuming all remaining gas).\n     *\n     * Requirements:\n     *\n     * - The divisor cannot be zero.\n     */\n    function mod(uint256 a, uint256 b) internal pure returns (uint256) {\n        return a % b;\n    }\n\n    /**\n     * @dev Returns the subtraction of two unsigned integers, reverting with custom message on\n     * overflow (when the result is negative).\n     *\n     * CAUTION: This function is deprecated because it requires allocating memory for the error\n     * message unnecessarily. For custom revert reasons use {trySub}.\n     *\n     * Counterpart to Solidity's `-` operator.\n     *\n     * Requirements:\n     *\n     * - Subtraction cannot overflow.\n     */\n    function sub(\n        uint256 a,\n        uint256 b,\n        string memory errorMessage\n    ) internal pure returns (uint256) {\n        unchecked {\n            require(b <= a, errorMessage);\n            return a - b;\n        }\n    }\n\n    /**\n     * @dev Returns the integer division of two unsigned integers, reverting with custom message on\n     * division by zero. The result is rounded towards zero.\n     *\n     * Counterpart to Solidity's `/` operator. Note: this function uses a\n     * `revert` opcode (which leaves remaining gas untouched) while Solidity\n     * uses an invalid opcode to revert (consuming all remaining gas).\n     *\n     * Requirements:\n     *\n     * - The divisor cannot be zero.\n     */\n    function div(\n        uint256 a,\n        uint256 b,\n        string memory errorMessage\n    ) internal pure returns (uint256) {\n        unchecked {\n            require(b > 0, errorMessage);\n            return a / b;\n        }\n    }\n\n    /**\n     * @dev Returns the remainder of dividing two unsigned integers. (unsigned integer modulo),\n     * reverting with custom message when dividing by zero.\n     *\n     * CAUTION: This function is deprecated because it requires allocating memory for the error\n     * message unnecessarily. For custom revert reasons use {tryMod}.\n     *\n     * Counterpart to Solidity's `%` operator. This function uses a `revert`\n     * opcode (which leaves remaining gas untouched) while Solidity uses an\n     * invalid opcode to revert (consuming all remaining gas).\n     *\n     * Requirements:\n     *\n     * - The divisor cannot be zero.\n     */\n    function mod(\n        uint256 a,\n        uint256 b,\n        string memory errorMessage\n    ) internal pure returns (uint256) {\n        unchecked {\n            require(b > 0, errorMessage);\n            return a % b;\n        }\n    }\n}\n\n\ninterface IERC165 {\n    /**\n     * @dev Returns true if this contract implements the interface defined by\n     * `interfaceId`. See the corresponding\n     * https://eips.ethereum.org/EIPS/eip-165#how-interfaces-are-identified[EIP section]\n     * to learn more about how these ids are created.\n     *\n     * This function call must use less than 30 000 gas.\n     */\n    function supportsInterface(bytes4 interfaceId) external view returns (bool);\n}\n\n\ninterface IERC721 is IERC165 {\n    /**\n     * @dev Emitted when `tokenId` token is transferred from `from` to `to`.\n     */\n    event Transfer(address indexed from, address indexed to, uint256 indexed tokenId);\n\n    /**\n     * @dev Emitted when `owner` enables `approved` to manage the `tokenId` token.\n     */\n    event Approval(address indexed owner, address indexed approved, uint256 indexed tokenId);\n\n    /**\n     * @dev Emitted when `owner` enables or disables (`approved`) `operator` to manage all of its assets.\n     */\n    event ApprovalForAll(address indexed owner, address indexed operator, bool approved);\n\n    /**\n     * @dev Returns the number of tokens in ``owner``'s account.\n     */\n    function balanceOf(address owner) external view returns (uint256 balance);\n\n    /**\n     * @dev Returns the owner of the `tokenId` token.\n     *\n     * Requirements:\n     *\n     * - `tokenId` must exist.\n     */\n    function ownerOf(uint256 tokenId) external view returns (address owner);\n\n    /**\n     * @dev Safely transfers `tokenId` token from `from` to `to`, checking first that contract recipients\n     * are aware of the ERC721 protocol to prevent tokens from being forever locked.\n     *\n     * Requirements:\n     *\n     * - `from` cannot be the zero address.\n     * - `to` cannot be the zero address.\n     * - `tokenId` token must exist and be owned by `from`.\n     * - If the caller is not `from`, it must be have been allowed to move this token by either {approve} or {setApprovalForAll}.\n     * - If `to` refers to a smart contract, it must implement {IERC721Receiver-onERC721Received}, which is called upon a safe transfer.\n     *\n     * Emits a {Transfer} event.\n     */\n    function safeTransferFrom(\n        address from,\n        address to,\n        uint256 tokenId\n    ) external;\n\n    /**\n     * @dev Transfers `tokenId` token from `from` to `to`.\n     *\n     * WARNING: Usage of this method is discouraged, use {safeTransferFrom} whenever possible.\n     *\n     * Requirements:\n     *\n     * - `from` cannot be the zero address.\n     * - `to` cannot be the zero address.\n     * - `tokenId` token must be owned by `from`.\n     * - If the caller is not `from`, it must be approved to move this token by either {approve} or {setApprovalForAll}.\n     *\n     * Emits a {Transfer} event.\n     */\n    function transferFrom(\n        address from,\n        address to,\n        uint256 tokenId\n    ) external;\n\n    /**\n     * @dev Gives permission to `to` to transfer `tokenId` token to another account.\n     * The approval is cleared when the token is transferred.\n     *\n     * Only a single account can be approved at a time, so approving the zero address clears previous approvals.\n     *\n     * Requirements:\n     *\n     * - The caller must own the token or be an approved operator.\n     * - `tokenId` must exist.\n     *\n     * Emits an {Approval} event.\n     */\n    function approve(address to, uint256 tokenId) external;\n\n    /**\n     * @dev Returns the account approved for `tokenId` token.\n     *\n     * Requirements:\n     *\n     * - `tokenId` must exist.\n     */\n    function getApproved(uint256 tokenId) external view returns (address operator);\n\n    /**\n     * @dev Approve or remove `operator` as an operator for the caller.\n     * Operators can call {transferFrom} or {safeTransferFrom} for any token owned by the caller.\n     *\n     * Requirements:\n     *\n     * - The `operator` cannot be the caller.\n     *\n     * Emits an {ApprovalForAll} event.\n     */\n    function setApprovalForAll(address operator, bool _approved) external;\n\n    /**\n     * @dev Returns if the `operator` is allowed to manage all of the assets of `owner`.\n     *\n     * See {setApprovalForAll}\n     */\n    function isApprovedForAll(address owner, address operator) external view returns (bool);\n\n    /**\n     * @dev Safely transfers `tokenId` token from `from` to `to`.\n     *\n     * Requirements:\n     *\n     * - `from` cannot be the zero address.\n     * - `to` cannot be the zero address.\n     * - `tokenId` token must exist and be owned by `from`.\n     * - If the caller is not `from`, it must be approved to move this token by either {approve} or {setApprovalForAll}.\n     * - If `to` refers to a smart contract, it must implement {IERC721Receiver-onERC721Received}, which is called upon a safe transfer.\n     *\n     * Emits a {Transfer} event.\n     */\n    function safeTransferFrom(\n        address from,\n        address to,\n        uint256 tokenId,\n        bytes calldata data\n    ) external;\n}\n\ncontract PawningShop {\n\n    using SafeMath for uint256;\n    using SafeMath for uint8;\n\n    enum PawnStatus {\n        CREATED,\n        CANCELLED,\n        DEAL,\n        LIQUIDATED,\n        REPAID\n    }\n    struct Pawn {\n        // who borrows money\n        address creator;\n        address contractAddress;\n        uint256 tokenId;\n        PawnStatus status;\n    }\n    struct Bid {\n        address creator; // who create the bid\n        uint256 loanAmount;\n        // the amount of wei the lender lend to the borrower\n        uint256 interest; // the maximum interest that the borrower have to pay in wei\n        uint256 loanStartTime; // timestamp\n        uint256 loanDuration; // duration in days\n        bool isInterestProRated; // if the borrower pays sonner, then pays less interest\n    }\n    address public owner;\n    address[] public _whiteListNFT;\n    uint256 public _feeRate;\n    uint256 public _totalNumberOfPawn = 0;\n    uint256 public _totalNumberOfBid = 0;\n    // mapping nft address -> token id -> pawn\n    mapping(uint256 => Pawn) public _pawns;\n    // mapping bid id => bid\n    mapping(uint256 => Bid) public _bids;\n    // mapping bid id to pawn id\n    mapping(uint256 => uint256) public _bidToPawn;\n    mapping(uint256 => uint256) public _pawnToBid;\n\n    constructor() {\n        owner = msg.sender;\n    }\n\n    event PawnCreated(address borrower, uint256 indexed pawnId);\n    event PawnCancelled(address borrower, uint256 indexed pawnId);\n    event PawnDeal(address borrower, address lender, uint256 indexed pawnId, uint256 bidId);\n    event PawnRepaid(address borrower, address lender, uint256 indexed pawnId, uint256 bidId);\n    event PawnLiquidated(address borrower, address lender, uint256 indexed pawnId, uint256 bidId);\n    event BidCreated(address borrower, address lender, uint256 pawnId, uint256 indexed bidId);\n    event BidAccepted(address borrower, address lender, uint256 pawnId, uint256 indexed bidId);\n    event BidCancelled(address borrower, address lender, uint256 pawnId, uint256 indexed bidId);\n    event WhiteListAdded(address smartContract);\n    event WhiteListRemoved(address smartContract);\n\n    function getPawnById(uint256 id) public view returns(Pawn memory) {\n        return _pawns[id];\n    }\n\n    function createPawn(address tokenAddress, uint256 tokenId) public {\n        _totalNumberOfPawn += 1;\n        bool isInWhiteList = false;\n        for (uint256 i = 0; i < _whiteListNFT.length; i++) {\n            if (tokenAddress == _whiteListNFT[i]) {\n                isInWhiteList = true;\n            }\n        }\n        address sender = msg.sender;\n        require(\n            isInWhiteList == true,\n            \"PawningShop: smart contract is not in white list\"\n        );\n        bool isApproved = IERC721(tokenAddress).getApproved(tokenId) ==\n            address(this);\n        bool isApprovedForAll = IERC721(tokenAddress).isApprovedForAll(\n            sender,\n            address(this)\n        );\n        require(\n            isApproved || isApprovedForAll,\n            \"PawningShop: haven't got permission to transfer\"\n        );\n\n        IERC721(tokenAddress).transferFrom(msg.sender, address(this), tokenId);\n\n        _pawns[_totalNumberOfPawn].creator = sender;\n        _pawns[_totalNumberOfPawn].contractAddress = tokenAddress;\n        _pawns[_totalNumberOfPawn].tokenId = tokenId;\n        _pawns[_totalNumberOfPawn].status = PawnStatus.CREATED;\n        emit PawnCreated(sender, _totalNumberOfPawn);\n    }\n\n    function cancelPawn(uint256 pawnId) public {\n        Pawn storage pawn = _pawns[pawnId];\n        address creator = pawn.creator;\n        require(\n            pawn.status == PawnStatus.CREATED,\n            \"PawningShop: Only can cancel when it has status of CREATED\"\n        );\n        require(\n            msg.sender == creator,\n            \"PawningShop: Only owner of the pawn can cancel it\"\n        );\n        require(\n            _pawnToBid[pawnId] == 0,\n            \"PawningShop: Only can cancel when no bid is accepted\"\n        );\n        pawn.status = PawnStatus.CANCELLED;\n        IERC721(pawn.contractAddress).transferFrom(address(this), creator, pawn.tokenId);\n        emit PawnCancelled(owner, pawnId);\n    }\n\n    function createBid(\n        uint256 rate,\n        uint256 duration,\n        bool isInterestProRated,\n        uint256 pawnId\n    ) public payable {\n        _totalNumberOfBid += 1;\n        address lender = msg.sender;\n        uint256 amount = msg.value;\n        Pawn storage pawn = _pawns[pawnId];\n        address borrower = pawn.creator;\n        require(pawnId > 0, \"PawningShop: pawn id is not valid\");\n        require(\n            borrower != address(0) || pawn.contractAddress != address(0), \n            \"Pawningshop: pawn is not existed\"\n        );\n        require(\n            borrower != lender,\n            \"PawningShop: creator of the pawn cannot make a bid\"\n        );\n        require(\n            pawn.status == PawnStatus.CREATED,\n            \"PawningShop: cannot bid this pawn\"\n        );\n        require(\n            amount > 0,\n            \"PawningShop: amount of money must be bigger than 0\"\n        );\n\n        _bids[_totalNumberOfBid].creator = lender;\n        _bids[_totalNumberOfBid].loanAmount = amount;\n        _bids[_totalNumberOfBid].interest = rate;\n        _bids[_totalNumberOfBid].loanDuration = duration;\n        _bids[_totalNumberOfBid].isInterestProRated = isInterestProRated;\n        // _bids[_totalNumberOfBid].loanStartTime = loanStartTime;\n        // loanStartTime will be set when the borrower accepts bid\n\n        _bidToPawn[_totalNumberOfBid] = pawnId;\n        emit BidCreated(borrower, lender, pawnId, _totalNumberOfBid);\n    }\n\n    function cancelBid(uint256 bidId) public {\n        Bid memory currBid = _bids[bidId];\n        address payable lender = payable(currBid.creator);\n        address sender = msg.sender;\n        require(\n            sender == lender,\n            \"PawningShop: only creator can cancel the bid\"\n        );\n        uint256 pawnId = _bidToPawn[bidId];\n        address borrower = _pawns[pawnId].creator;\n        require(\n            _pawnToBid[pawnId] != bidId,\n            \"PawningShop: your bid is accepted, cannot cancel\"\n        );\n        lender.transfer(currBid.loanAmount);\n        delete _bids[bidId];\n        delete _bidToPawn[bidId];\n        emit BidCancelled(borrower, lender, pawnId, bidId);\n    }\n\n    function acceptBid(uint256 bidId) public {\n        Bid storage currBid = _bids[bidId];\n        address lender = currBid.creator;\n        uint256 pawnId = _bidToPawn[bidId];\n        require(\n            pawnId > 0,\n            \"PawningShop: The pawn is not existed\"\n        );\n        Pawn storage pawn = _pawns[pawnId];\n        address payable borrower = payable(pawn.creator);\n        require(\n            borrower == msg.sender,\n            \"PawningShop: only creator of pawn can accept bid\"\n        );\n        borrower.transfer(currBid.loanAmount);\n        pawn.status = PawnStatus.DEAL;\n        _pawnToBid[pawnId] = bidId;\n        currBid.loanStartTime = block.timestamp;\n        emit BidAccepted(borrower, lender, pawnId, bidId);\n    }\n\n    function repaid(uint256 pawnId) public payable {\n        Pawn storage currPawn = _pawns[pawnId];\n        address borrower = currPawn.creator;\n        require(\n            borrower == msg.sender,\n            \"PawningShop: Only creator of pawn can repay\"\n        );\n        uint256 bidId = _pawnToBid[pawnId];\n        require(\n            bidId != 0,\n            \"PawningShop: This pawn doen't have any accepted bid\"\n        );\n        Bid storage currBid = _bids[bidId];\n        uint256 repayDeadline = _calculateRepayDeadline(currBid.loanStartTime, currBid.loanDuration);\n        require(\n            block.timestamp <= repayDeadline,\n            \"PawningShop: to late to repaid\"\n        );\n        uint256 value = msg.value;\n        uint256 repaidAmount = _calculateRepaidAmount(\n            currBid.loanAmount,\n            currBid.interest,\n            currBid.loanStartTime,\n            currBid.loanDuration,\n            currBid.isInterestProRated\n        );\n        require(\n            value == repaidAmount,\n            \"PawningShop: pay exactly repaid amount\"\n        );\n        // transfer token back to borrower\n        IERC721(currPawn.contractAddress).transferFrom(address(this), currPawn.creator, currPawn.tokenId);\n        // transfer money to lender\n        address payable lender = payable(currBid.creator);\n        lender.transfer(value);\n        delete _pawnToBid[pawnId];\n        delete _bidToPawn[bidId];\n        emit PawnRepaid(borrower, lender, pawnId, bidId);\n    }\n\n    function _calculateRepayDeadline(uint256 loanStartTime, uint256 loanDuration) public pure returns(uint256) {\n        uint256 loanDurationInSeconds = loanDuration.mul(1 days);\n        uint256 repayDeadline = loanStartTime.add(loanDurationInSeconds);\n        return repayDeadline;\n    }\n\n    function _calculateRepaidAmount(\n        uint256 original, uint256 interest, uint256 loanStartTime, uint256 duration, bool isInterestProRated\n    ) public view returns (uint256) {\n        uint256 interestDue = interest;\n        if (isInterestProRated) {\n            uint256 interestPerDay = interest.div(duration);\n            uint256 secondPassed = block.timestamp.sub(loanStartTime);\n            uint256 dayPassed = ceilDiv(secondPassed, 1 days);\n            interestDue = dayPassed.mul(interestPerDay);\n        }\n        return original.add(interestDue);\n    }\n\n    function getRepaidAmount(uint256 pawnId) public view returns(uint256) {\n        require(pawnId > 0, \"PawningShop: pawn id is not existed\");\n        uint256 bidId = _pawnToBid[pawnId];\n        require(bidId > 0, \"PawningShop: pawn doesn't have a accepted bid or the pawn is done\");\n        Bid storage bid = _bids[bidId];\n        return _calculateRepaidAmount(bid.loanAmount, bid.interest, bid.loanStartTime, bid.loanDuration, bid.isInterestProRated);\n    }\n    \n    // get this from openzeppelin\n    function ceilDiv(uint256 a, uint256 b) internal pure returns (uint256) {\n        // (a + b - 1) / b can overflow on addition, so we distribute.\n        return a / b + (a % b == 0 ? 0 : 1);\n    }\n\n    function liquidate(uint256 bidId) public {\n        Bid storage currBid = _bids[bidId];\n        address lender = currBid.creator;\n        require(lender == msg.sender, \"PawningShop: only creator of bid can liquidate token\");\n        require(block.timestamp > currBid.loanStartTime + currBid.loanAmount, \"PawningShop: Not valid time to liquidate\");\n        uint256 pawnId = _bidToPawn[bidId];\n        require(_pawnToBid[pawnId] == bidId, \"PawningShop: this bid is not accepted by borrower\");\n        Pawn storage currPawn = _pawns[pawnId];\n        address pawner = currPawn.creator;\n        IERC721(currPawn.contractAddress).transferFrom(address(this), lender, currPawn.tokenId);\n        emit PawnLiquidated(pawner, lender, pawnId, bidId);\n    }\n\n    function addToWhiteList(address smartContract) public {\n        require(msg.sender == owner, \"PawningShop: Only owner can add address to white list\");\n        require(smartContract != address(0), \"PawningShop: smart contract address must be different with 0\");\n        uint256 i = 0;\n        for (i = 0; i < _whiteListNFT.length; i++) {\n            if (_whiteListNFT[i] == smartContract) {\n                return;\n            }\n        }\n        _whiteListNFT.push(smartContract);\n        emit WhiteListAdded(smartContract);\n    }\n\n    function removeFromWhiteList(address smartContract) public {\n        require(msg.sender == owner, \"PawningShop: Only owner can remove address from white list\");\n        uint256 i;\n        for (i = 0; i < _whiteListNFT.length; i++) {\n            if (_whiteListNFT[i] == smartContract) {\n                break;\n            }\n        }\n        delete _whiteListNFT[i];\n        emit WhiteListRemoved(smartContract);\n    }\n\n    function getWhiteList() public view returns(address[] memory) {\n        return _whiteListNFT;\n    }\n}\n",
  "sourcePath": "/home/khanh/Documents/solidity/NFTPawnShopSmartContract/solidity/contracts/PawningShop.sol",
  "compiler": {
    "name": "solc",
    "version": "0.8.4+commit.c7e474f2.Emscripten.clang"
  },
  "schemaVersion": "3.4.3",
  "updatedAt": "2021-10-04T14:49:09.896Z",
  "networkType": "ethereum",
  "devdoc": {
    "kind": "dev",
    "methods": {},
    "version": 1
  },
  "userdoc": {
    "kind": "user",
    "methods": {},
    "version": 1
  }
}