{
  "contractName": "PawningShop",
  "abi": [
    {
      "inputs": [],
      "stateMutability": "nonpayable",
      "type": "constructor"
    },
    {
      "anonymous": false,
      "inputs": [
        {
          "indexed": false,
          "internalType": "address",
          "name": "creator",
          "type": "address"
        },
        {
          "indexed": false,
          "internalType": "uint256",
          "name": "pawnId",
          "type": "uint256"
        }
      ],
      "name": "BidCancelled",
      "type": "event"
    },
    {
      "anonymous": false,
      "inputs": [
        {
          "indexed": false,
          "internalType": "address",
          "name": "creator",
          "type": "address"
        },
        {
          "indexed": false,
          "internalType": "uint256",
          "name": "pawnId",
          "type": "uint256"
        }
      ],
      "name": "BidCreated",
      "type": "event"
    },
    {
      "anonymous": false,
      "inputs": [
        {
          "indexed": false,
          "internalType": "address",
          "name": "pawner",
          "type": "address"
        },
        {
          "indexed": false,
          "internalType": "uint256",
          "name": "pawnId",
          "type": "uint256"
        }
      ],
      "name": "PawnCancelled",
      "type": "event"
    },
    {
      "anonymous": false,
      "inputs": [
        {
          "indexed": false,
          "internalType": "address",
          "name": "pawner",
          "type": "address"
        },
        {
          "indexed": false,
          "internalType": "uint256",
          "name": "pawnId",
          "type": "uint256"
        }
      ],
      "name": "PawnCreated",
      "type": "event"
    },
    {
      "anonymous": false,
      "inputs": [
        {
          "indexed": false,
          "internalType": "address",
          "name": "pawner",
          "type": "address"
        },
        {
          "indexed": false,
          "internalType": "address",
          "name": "lender",
          "type": "address"
        },
        {
          "indexed": false,
          "internalType": "uint256",
          "name": "id",
          "type": "uint256"
        }
      ],
      "name": "PawnDeal",
      "type": "event"
    },
    {
      "anonymous": false,
      "inputs": [
        {
          "indexed": false,
          "internalType": "address",
          "name": "pawner",
          "type": "address"
        },
        {
          "indexed": false,
          "internalType": "address",
          "name": "lender",
          "type": "address"
        },
        {
          "indexed": false,
          "internalType": "uint256",
          "name": "id",
          "type": "uint256"
        }
      ],
      "name": "PawnLiquidated",
      "type": "event"
    },
    {
      "anonymous": false,
      "inputs": [
        {
          "indexed": false,
          "internalType": "address",
          "name": "pawner",
          "type": "address"
        },
        {
          "indexed": false,
          "internalType": "address",
          "name": "lender",
          "type": "address"
        },
        {
          "indexed": false,
          "internalType": "uint256",
          "name": "id",
          "type": "uint256"
        }
      ],
      "name": "PawnRepaid",
      "type": "event"
    },
    {
      "inputs": [
        {
          "internalType": "uint256",
          "name": "",
          "type": "uint256"
        }
      ],
      "name": "_bidToPawn",
      "outputs": [
        {
          "internalType": "uint256",
          "name": "",
          "type": "uint256"
        }
      ],
      "stateMutability": "view",
      "type": "function",
      "constant": true
    },
    {
      "inputs": [],
      "name": "_feeRate",
      "outputs": [
        {
          "internalType": "uint256",
          "name": "",
          "type": "uint256"
        }
      ],
      "stateMutability": "view",
      "type": "function",
      "constant": true
    },
    {
      "inputs": [
        {
          "internalType": "uint256",
          "name": "",
          "type": "uint256"
        }
      ],
      "name": "_pawnToBid",
      "outputs": [
        {
          "internalType": "uint256",
          "name": "",
          "type": "uint256"
        }
      ],
      "stateMutability": "view",
      "type": "function",
      "constant": true
    },
    {
      "inputs": [],
      "name": "_totalNumberOfBid",
      "outputs": [
        {
          "internalType": "uint256",
          "name": "",
          "type": "uint256"
        }
      ],
      "stateMutability": "view",
      "type": "function",
      "constant": true
    },
    {
      "inputs": [],
      "name": "_totalNumberOfPawn",
      "outputs": [
        {
          "internalType": "uint256",
          "name": "",
          "type": "uint256"
        }
      ],
      "stateMutability": "view",
      "type": "function",
      "constant": true
    },
    {
      "inputs": [
        {
          "internalType": "uint256",
          "name": "",
          "type": "uint256"
        }
      ],
      "name": "_whiteListNFT",
      "outputs": [
        {
          "internalType": "address",
          "name": "",
          "type": "address"
        }
      ],
      "stateMutability": "view",
      "type": "function",
      "constant": true
    },
    {
      "inputs": [],
      "name": "owner",
      "outputs": [
        {
          "internalType": "address",
          "name": "",
          "type": "address"
        }
      ],
      "stateMutability": "view",
      "type": "function",
      "constant": true
    },
    {
      "inputs": [
        {
          "internalType": "address",
          "name": "tokenAddress",
          "type": "address"
        },
        {
          "internalType": "uint256",
          "name": "tokenId",
          "type": "uint256"
        }
      ],
      "name": "createPawn",
      "outputs": [],
      "stateMutability": "nonpayable",
      "type": "function"
    },
    {
      "inputs": [
        {
          "internalType": "uint256",
          "name": "pawnId",
          "type": "uint256"
        }
      ],
      "name": "cancelPawn",
      "outputs": [],
      "stateMutability": "nonpayable",
      "type": "function"
    },
    {
      "inputs": [
        {
          "internalType": "uint8",
          "name": "rate",
          "type": "uint8"
        },
        {
          "internalType": "uint256",
          "name": "duration",
          "type": "uint256"
        },
        {
          "internalType": "bool",
          "name": "isInterestProRated",
          "type": "bool"
        },
        {
          "internalType": "uint256",
          "name": "loanStartTime",
          "type": "uint256"
        },
        {
          "internalType": "uint256",
          "name": "pawnId",
          "type": "uint256"
        }
      ],
      "name": "bid",
      "outputs": [],
      "stateMutability": "payable",
      "type": "function",
      "payable": true
    },
    {
      "inputs": [
        {
          "internalType": "uint256",
          "name": "bidId",
          "type": "uint256"
        }
      ],
      "name": "cancelBid",
      "outputs": [],
      "stateMutability": "nonpayable",
      "type": "function"
    },
    {
      "inputs": [
        {
          "internalType": "uint256",
          "name": "bidId",
          "type": "uint256"
        }
      ],
      "name": "acceptBid",
      "outputs": [],
      "stateMutability": "nonpayable",
      "type": "function"
    },
    {
      "inputs": [
        {
          "internalType": "uint256",
          "name": "pawnId",
          "type": "uint256"
        }
      ],
      "name": "repaid",
      "outputs": [],
      "stateMutability": "payable",
      "type": "function",
      "payable": true
    },
    {
      "inputs": [
        {
          "internalType": "uint256",
          "name": "bidId",
          "type": "uint256"
        }
      ],
      "name": "liquidate",
      "outputs": [],
      "stateMutability": "nonpayable",
      "type": "function"
    },
    {
      "inputs": [
        {
          "internalType": "address",
          "name": "smartContract",
          "type": "address"
        }
      ],
      "name": "addToWhiteList",
      "outputs": [],
      "stateMutability": "nonpayable",
      "type": "function"
    },
    {
      "inputs": [
        {
          "internalType": "address",
          "name": "smartContract",
          "type": "address"
        }
      ],
      "name": "removeFromWhiteList",
      "outputs": [],
      "stateMutability": "nonpayable",
      "type": "function"
    },
    {
      "inputs": [],
      "name": "getWhiteList",
      "outputs": [
        {
          "internalType": "address[]",
          "name": "",
          "type": "address[]"
        }
      ],
      "stateMutability": "view",
      "type": "function",
      "constant": true
    }
  ],
  "bytecode": "0x60806040526000600355600060045534801561001a57600080fd5b50336000806101000a81548173ffffffffffffffffffffffffffffffffffffffff021916908373ffffffffffffffffffffffffffffffffffffffff16021790555060006040518060800160405280600073ffffffffffffffffffffffffffffffffffffffff168152602001600073ffffffffffffffffffffffffffffffffffffffff16815260200160008152602001600160048111156100e3577f4e487b7100000000000000000000000000000000000000000000000000000000600052602160045260246000fd5b8152509050806005600080815260200190815260200160002060008201518160000160006101000a81548173ffffffffffffffffffffffffffffffffffffffff021916908373ffffffffffffffffffffffffffffffffffffffff16021790555060208201518160010160006101000a81548173ffffffffffffffffffffffffffffffffffffffff021916908373ffffffffffffffffffffffffffffffffffffffff1602179055506040820151816002015560608201518160030160006101000a81548160ff021916908360048111156101e5577f4e487b7100000000000000000000000000000000000000000000000000000000600052602160045260246000fd5b021790555090505060006040518060c00160405280600073ffffffffffffffffffffffffffffffffffffffff16815260200160008152602001600081526020016000815260200160008152602001600015158152509050806006600080815260200190815260200160002060008201518160000160006101000a81548173ffffffffffffffffffffffffffffffffffffffff021916908373ffffffffffffffffffffffffffffffffffffffff1602179055506020820151816001015560408201518160020155606082015181600301556080820151816004015560a08201518160050160006101000a81548160ff0219169083151502179055509050505050613055806102f36000396000f3fe6080604052600436106100fe5760003560e01c80638228c579116100955780639703ef35116100645780639703ef3514610315578063b2131f7d1461033e578063b53c370114610369578063c398f41f14610392578063d98dbf21146103bd576100fe565b80638228c5791461025457806386271db4146102915780638da5cb5b146102ce5780638e47fe51146102f9576100fe565b80633ce11def116100d15780633ce11def146101bd578063415f1240146101e657806347ee03941461020f5780635f93893b14610238576100fe565b806301bf66481461010357806309a9d76c1461012c57806326d8600b146101575780632b1fd58a14610194575b600080fd5b34801561010f57600080fd5b5061012a60048036038101906101259190611eb9565b6103e8565b005b34801561013857600080fd5b506101416105a1565b60405161014e9190612436565b60405180910390f35b34801561016357600080fd5b5061017e60048036038101906101799190611f70565b61062f565b60405161018b9190612392565b60405180910390f35b3480156101a057600080fd5b506101bb60048036038101906101b69190611f70565b61066e565b005b3480156101c957600080fd5b506101e460048036038101906101df9190611f70565b610986565b005b3480156101f257600080fd5b5061020d60048036038101906102089190611f70565b610bff565b005b34801561021b57600080fd5b5061023660048036038101906102319190611eb9565b610e42565b005b610252600480360381019061024d9190611f70565b610ff9565b005b34801561026057600080fd5b5061027b60048036038101906102769190611f70565b611357565b60405161028891906126f8565b60405180910390f35b34801561029d57600080fd5b506102b860048036038101906102b39190611f70565b61136f565b6040516102c591906126f8565b60405180910390f35b3480156102da57600080fd5b506102e3611387565b6040516102f09190612392565b60405180910390f35b610313600480360381019061030e9190611f99565b6113ab565b005b34801561032157600080fd5b5061033c60048036038101906103379190611f70565b611682565b005b34801561034a57600080fd5b50610353611905565b60405161036091906126f8565b60405180910390f35b34801561037557600080fd5b50610390600480360381019061038b9190611f0b565b61190b565b005b34801561039e57600080fd5b506103a7611d9a565b6040516103b491906126f8565b60405180910390f35b3480156103c957600080fd5b506103d2611da0565b6040516103df91906126f8565b60405180910390f35b60008054906101000a900473ffffffffffffffffffffffffffffffffffffffff1673ffffffffffffffffffffffffffffffffffffffff163373ffffffffffffffffffffffffffffffffffffffff1614610476576040517f08c379a000000000000000000000000000000000000000000000000000000000815260040161046d90612698565b60405180910390fd5b60005b600180549050811015610536578173ffffffffffffffffffffffffffffffffffffffff16600182815481106104d7577f4e487b7100000000000000000000000000000000000000000000000000000000600052603260045260246000fd5b9060005260206000200160009054906101000a900473ffffffffffffffffffffffffffffffffffffffff1673ffffffffffffffffffffffffffffffffffffffff16141561052357610536565b808061052e906128c7565b915050610479565b60018181548110610570577f4e487b7100000000000000000000000000000000000000000000000000000000600052603260045260246000fd5b9060005260206000200160006101000a81549073ffffffffffffffffffffffffffffffffffffffff02191690555050565b6060600180548060200260200160405190810160405280929190818152602001828054801561062557602002820191906000526020600020905b8160009054906101000a900473ffffffffffffffffffffffffffffffffffffffff1673ffffffffffffffffffffffffffffffffffffffff16815260200190600101908083116105db575b5050505050905090565b6001818154811061063f57600080fd5b906000526020600020016000915054906101000a900473ffffffffffffffffffffffffffffffffffffffff1681565b6000600660008381526020019081526020016000209050600060076000848152602001908152602001600020549050600081116106e0576040517f08c379a00000000000000000000000000000000000000000000000000000000081526004016106d790612558565b60405180910390fd5b60006005600083815260200190815260200160002090503373ffffffffffffffffffffffffffffffffffffffff168160000160009054906101000a900473ffffffffffffffffffffffffffffffffffffffff1673ffffffffffffffffffffffffffffffffffffffff1614610789576040517f08c379a000000000000000000000000000000000000000000000000000000000815260040161078090612578565b60405180910390fd5b8060010160009054906101000a900473ffffffffffffffffffffffffffffffffffffffff1673ffffffffffffffffffffffffffffffffffffffff166323b872dd8260000160009054906101000a900473ffffffffffffffffffffffffffffffffffffffff163084600201546040518463ffffffff1660e01b8152600401610812939291906123d6565b600060405180830381600087803b15801561082c57600080fd5b505af1158015610840573d6000803e3d6000fd5b5050505060008160000160009054906101000a900473ffffffffffffffffffffffffffffffffffffffff1690508073ffffffffffffffffffffffffffffffffffffffff166108fc85600101549081150290604051600060405180830381858888f193505050501580156108b7573d6000803e3d6000fd5b5060028260030160006101000a81548160ff02191690836004811115610906577f4e487b7100000000000000000000000000000000000000000000000000000000600052602160045260246000fd5b021790555084600860008581526020019081526020016000208190555060028260030160006101000a81548160ff02191690836004811115610971577f4e487b7100000000000000000000000000000000000000000000000000000000600052602160045260246000fd5b02179055504284600301819055505050505050565b600060056000838152602001908152602001600020905060008160000160009054906101000a900473ffffffffffffffffffffffffffffffffffffffff16905060006004811115610a00577f4e487b7100000000000000000000000000000000000000000000000000000000600052602160045260246000fd5b8260030160009054906101000a900460ff166004811115610a4a577f4e487b7100000000000000000000000000000000000000000000000000000000600052602160045260246000fd5b14610a8a576040517f08c379a0000000000000000000000000000000000000000000000000000000008152600401610a8190612638565b60405180910390fd5b8073ffffffffffffffffffffffffffffffffffffffff163373ffffffffffffffffffffffffffffffffffffffff1614610af8576040517f08c379a0000000000000000000000000000000000000000000000000000000008152600401610aef90612498565b60405180910390fd5b6000600860008581526020019081526020016000205414610b4e576040517f08c379a0000000000000000000000000000000000000000000000000000000008152600401610b4590612598565b60405180910390fd5b60018260030160006101000a81548160ff02191690836004811115610b9c577f4e487b7100000000000000000000000000000000000000000000000000000000600052602160045260246000fd5b02179055507f6d2c0a066258c4b768dc98e6e9ce603e177a49c3b5ed4521b992fcddd16ccec460008054906101000a900473ffffffffffffffffffffffffffffffffffffffff1684604051610bf292919061240d565b60405180910390a1505050565b60006006600083815260200190815260200160002090503373ffffffffffffffffffffffffffffffffffffffff168160000160009054906101000a900473ffffffffffffffffffffffffffffffffffffffff1673ffffffffffffffffffffffffffffffffffffffff1614610ca8576040517f08c379a0000000000000000000000000000000000000000000000000000000008152600401610c9f90612618565b60405180910390fd5b80600101548160030154610cbc919061275d565b4211610cfd576040517f08c379a0000000000000000000000000000000000000000000000000000000008152600401610cf490612678565b60405180910390fd5b60006007600084815260200190815260200160002054905082600860008381526020019081526020016000205414610d6a576040517f08c379a0000000000000000000000000000000000000000000000000000000008152600401610d6190612518565b60405180910390fd5b60006005600083815260200190815260200160002090508060010160009054906101000a900473ffffffffffffffffffffffffffffffffffffffff1673ffffffffffffffffffffffffffffffffffffffff166323b872dd308560000160009054906101000a900473ffffffffffffffffffffffffffffffffffffffff1684600201546040518463ffffffff1660e01b8152600401610e0a939291906123d6565b600060405180830381600087803b158015610e2457600080fd5b505af1158015610e38573d6000803e3d6000fd5b5050505050505050565b60008054906101000a900473ffffffffffffffffffffffffffffffffffffffff1673ffffffffffffffffffffffffffffffffffffffff163373ffffffffffffffffffffffffffffffffffffffff1614610ed0576040517f08c379a0000000000000000000000000000000000000000000000000000000008152600401610ec7906125f8565b60405180910390fd5b60005b600180549050811015610f91578173ffffffffffffffffffffffffffffffffffffffff1660018281548110610f31577f4e487b7100000000000000000000000000000000000000000000000000000000600052603260045260246000fd5b9060005260206000200160009054906101000a900473ffffffffffffffffffffffffffffffffffffffff1673ffffffffffffffffffffffffffffffffffffffff161415610f7e5750610ff6565b8080610f89906128c7565b915050610ed3565b6001829080600181540180825580915050600190039060005260206000200160009091909190916101000a81548173ffffffffffffffffffffffffffffffffffffffff021916908373ffffffffffffffffffffffffffffffffffffffff160217905550505b50565b60006005600083815260200190815260200160002090503373ffffffffffffffffffffffffffffffffffffffff168160000160009054906101000a900473ffffffffffffffffffffffffffffffffffffffff1673ffffffffffffffffffffffffffffffffffffffff16146110a2576040517f08c379a0000000000000000000000000000000000000000000000000000000008152600401611099906126d8565b60405180910390fd5b60006008600084815260200190815260200160002054905060008114156110fe576040517f08c379a00000000000000000000000000000000000000000000000000000000081526004016110f5906125b8565b60405180910390fd5b600060066000838152602001908152602001600020905080600401548160030154611129919061275d565b42111561116b576040517f08c379a0000000000000000000000000000000000000000000000000000000008152600401611162906124d8565b60405180910390fd5b60003490506000826003015442611182919061283e565b905060006111b0846001015485600201548660040154858860050160009054906101000a900460ff16611da6565b90508083146111f4576040517f08c379a00000000000000000000000000000000000000000000000000000000081526004016111eb90612538565b60405180910390fd5b8560010160009054906101000a900473ffffffffffffffffffffffffffffffffffffffff1673ffffffffffffffffffffffffffffffffffffffff166323b872dd308860000160009054906101000a900473ffffffffffffffffffffffffffffffffffffffff1689600201546040518463ffffffff1660e01b815260040161127d939291906123d6565b600060405180830381600087803b15801561129757600080fd5b505af11580156112ab573d6000803e3d6000fd5b5050505060008460000160009054906101000a900473ffffffffffffffffffffffffffffffffffffffff1690508073ffffffffffffffffffffffffffffffffffffffff166108fc859081150290604051600060405180830381858888f1935050505015801561131e573d6000803e3d6000fd5b50600860008981526020019081526020016000206000905560076000878152602001908152602001600020600090555050505050505050565b60076020528060005260406000206000915090505481565b60086020528060005260406000206000915090505481565b60008054906101000a900473ffffffffffffffffffffffffffffffffffffffff1681565b6001600460008282546113be919061275d565b9250508190555060003390506000349050600060056000858152602001908152602001600020905060008411611429576040517f08c379a000000000000000000000000000000000000000000000000000000000815260040161142090612658565b60405180910390fd5b60006004811115611463577f4e487b7100000000000000000000000000000000000000000000000000000000600052602160045260246000fd5b8160030160009054906101000a900460ff1660048111156114ad577f4e487b7100000000000000000000000000000000000000000000000000000000600052602160045260246000fd5b146114ed576040517f08c379a00000000000000000000000000000000000000000000000000000000081526004016114e4906124b8565b60405180910390fd5b60008211611530576040517f08c379a0000000000000000000000000000000000000000000000000000000008152600401611527906126b8565b60405180910390fd5b60006040518060c001604052808573ffffffffffffffffffffffffffffffffffffffff1681526020018481526020018a60ff16815260200187815260200189815260200188151581525090508060066000600454815260200190815260200160002060008201518160000160006101000a81548173ffffffffffffffffffffffffffffffffffffffff021916908373ffffffffffffffffffffffffffffffffffffffff1602179055506020820151816001015560408201518160020155606082015181600301556080820151816004015560a08201518160050160006101000a81548160ff02191690831515021790555090505084600760006004548152602001908152602001600020819055507fff2d32ce56b0b5d23a2d2e0fa74261ef152c762e716daa7e6eb1cc0fafa0a4e8848660405161166f92919061240d565b60405180910390a1505050505050505050565b6000600660008381526020019081526020016000206040518060c00160405290816000820160009054906101000a900473ffffffffffffffffffffffffffffffffffffffff1673ffffffffffffffffffffffffffffffffffffffff1673ffffffffffffffffffffffffffffffffffffffff168152602001600182015481526020016002820154815260200160038201548152602001600482015481526020016005820160009054906101000a900460ff16151515158152505090506000339050816000015173ffffffffffffffffffffffffffffffffffffffff168173ffffffffffffffffffffffffffffffffffffffff16146117b4576040517f08c379a00000000000000000000000000000000000000000000000000000000081526004016117ab90612478565b60405180910390fd5b6000600760008581526020019081526020016000205490508360086000838152602001908152602001600020541415611822576040517f08c379a0000000000000000000000000000000000000000000000000000000008152600401611819906125d8565b60405180910390fd5b6000836000015190508073ffffffffffffffffffffffffffffffffffffffff166108fc85602001519081150290604051600060405180830381858888f19350505050158015611875573d6000803e3d6000fd5b5060066000868152602001908152602001600020600080820160006101000a81549073ffffffffffffffffffffffffffffffffffffffff021916905560018201600090556002820160009055600382016000905560048201600090556005820160006101000a81549060ff0219169055505060076000868152602001908152602001600020600090555050505050565b60025481565b60016003600082825461191e919061275d565b925050819055506000805b6001805490508110156119e65760018181548110611970577f4e487b7100000000000000000000000000000000000000000000000000000000600052603260045260246000fd5b9060005260206000200160009054906101000a900473ffffffffffffffffffffffffffffffffffffffff1673ffffffffffffffffffffffffffffffffffffffff168473ffffffffffffffffffffffffffffffffffffffff1614156119d357600191505b80806119de906128c7565b915050611929565b5060003390506001151582151514611a33576040517f08c379a0000000000000000000000000000000000000000000000000000000008152600401611a2a906124f8565b60405180910390fd5b60003073ffffffffffffffffffffffffffffffffffffffff168573ffffffffffffffffffffffffffffffffffffffff1663081812fc866040518263ffffffff1660e01b8152600401611a8591906126f8565b60206040518083038186803b158015611a9d57600080fd5b505afa158015611ab1573d6000803e3d6000fd5b505050506040513d601f19601f82011682018060405250810190611ad59190611ee2565b73ffffffffffffffffffffffffffffffffffffffff1614905060008573ffffffffffffffffffffffffffffffffffffffff1663e985e9c584306040518363ffffffff1660e01b8152600401611b2b9291906123ad565b60206040518083038186803b158015611b4357600080fd5b505afa158015611b57573d6000803e3d6000fd5b505050506040513d601f19601f82011682018060405250810190611b7b9190611f47565b90508180611b865750805b611bc5576040517f08c379a0000000000000000000000000000000000000000000000000000000008152600401611bbc90612458565b60405180910390fd5b600060405180608001604052808573ffffffffffffffffffffffffffffffffffffffff1681526020018873ffffffffffffffffffffffffffffffffffffffff16815260200187815260200160006004811115611c4a577f4e487b7100000000000000000000000000000000000000000000000000000000600052602160045260246000fd5b81525090508060056000600354815260200190815260200160002060008201518160000160006101000a81548173ffffffffffffffffffffffffffffffffffffffff021916908373ffffffffffffffffffffffffffffffffffffffff16021790555060208201518160010160006101000a81548173ffffffffffffffffffffffffffffffffffffffff021916908373ffffffffffffffffffffffffffffffffffffffff1602179055506040820151816002015560608201518160030160006101000a81548160ff02191690836004811115611d4e577f4e487b7100000000000000000000000000000000000000000000000000000000600052602160045260246000fd5b02179055509050507fd10594784457563b8564c078bb5c8bcc5e6b8e1b08b2d7ef7af261e84e366c1f84600354604051611d8992919061240d565b60405180910390a150505050505050565b60045481565b60035481565b6000808590508215611dda57611dd784611dc98789611df990919063ffffffff16565b611e0f90919063ffffffff16565b90505b611ded8688611e2590919063ffffffff16565b91505095945050505050565b60008183611e0791906127b3565b905092915050565b60008183611e1d91906127e4565b905092915050565b60008183611e33919061275d565b905092915050565b600081359050611e4a81612fc3565b92915050565b600081519050611e5f81612fc3565b92915050565b600081359050611e7481612fda565b92915050565b600081519050611e8981612fda565b92915050565b600081359050611e9e81612ff1565b92915050565b600081359050611eb381613008565b92915050565b600060208284031215611ecb57600080fd5b6000611ed984828501611e3b565b91505092915050565b600060208284031215611ef457600080fd5b6000611f0284828501611e50565b91505092915050565b60008060408385031215611f1e57600080fd5b6000611f2c85828601611e3b565b9250506020611f3d85828601611e8f565b9150509250929050565b600060208284031215611f5957600080fd5b6000611f6784828501611e7a565b91505092915050565b600060208284031215611f8257600080fd5b6000611f9084828501611e8f565b91505092915050565b600080600080600060a08688031215611fb157600080fd5b6000611fbf88828901611ea4565b9550506020611fd088828901611e8f565b9450506040611fe188828901611e65565b9350506060611ff288828901611e8f565b925050608061200388828901611e8f565b9150509295509295909350565b600061201c8383612028565b60208301905092915050565b61203181612872565b82525050565b61204081612872565b82525050565b600061205182612723565b61205b818561273b565b935061206683612713565b8060005b8381101561209757815161207e8882612010565b97506120898361272e565b92505060018101905061206a565b5085935050505092915050565b60006120b1602f8361274c565b91506120bc8261296e565b604082019050919050565b60006120d4602c8361274c565b91506120df826129bd565b604082019050919050565b60006120f760318361274c565b915061210282612a0c565b604082019050919050565b600061211a60218361274c565b915061212582612a5b565b604082019050919050565b600061213d601e8361274c565b915061214882612aaa565b602082019050919050565b600061216060308361274c565b915061216b82612ad3565b604082019050919050565b600061218360318361274c565b915061218e82612b22565b604082019050919050565b60006121a660268361274c565b91506121b182612b71565b604082019050919050565b60006121c960248361274c565b91506121d482612bc0565b604082019050919050565b60006121ec60308361274c565b91506121f782612c0f565b604082019050919050565b600061220f60348361274c565b915061221a82612c5e565b604082019050919050565b600061223260338361274c565b915061223d82612cad565b604082019050919050565b600061225560308361274c565b915061226082612cfc565b604082019050919050565b600061227860358361274c565b915061228382612d4b565b604082019050919050565b600061229b60348361274c565b91506122a682612d9a565b604082019050919050565b60006122be603a8361274c565b91506122c982612de9565b604082019050919050565b60006122e160218361274c565b91506122ec82612e38565b604082019050919050565b600061230460288361274c565b915061230f82612e87565b604082019050919050565b6000612327603a8361274c565b915061233282612ed6565b604082019050919050565b600061234a60328361274c565b915061235582612f25565b604082019050919050565b600061236d602b8361274c565b915061237882612f74565b604082019050919050565b61238c816128b0565b82525050565b60006020820190506123a76000830184612037565b92915050565b60006040820190506123c26000830185612037565b6123cf6020830184612037565b9392505050565b60006060820190506123eb6000830186612037565b6123f86020830185612037565b6124056040830184612383565b949350505050565b60006040820190506124226000830185612037565b61242f6020830184612383565b9392505050565b600060208201905081810360008301526124508184612046565b905092915050565b60006020820190508181036000830152612471816120a4565b9050919050565b60006020820190508181036000830152612491816120c7565b9050919050565b600060208201905081810360008301526124b1816120ea565b9050919050565b600060208201905081810360008301526124d18161210d565b9050919050565b600060208201905081810360008301526124f181612130565b9050919050565b6000602082019050818103600083015261251181612153565b9050919050565b6000602082019050818103600083015261253181612176565b9050919050565b6000602082019050818103600083015261255181612199565b9050919050565b60006020820190508181036000830152612571816121bc565b9050919050565b60006020820190508181036000830152612591816121df565b9050919050565b600060208201905081810360008301526125b181612202565b9050919050565b600060208201905081810360008301526125d181612225565b9050919050565b600060208201905081810360008301526125f181612248565b9050919050565b600060208201905081810360008301526126118161226b565b9050919050565b600060208201905081810360008301526126318161228e565b9050919050565b60006020820190508181036000830152612651816122b1565b9050919050565b60006020820190508181036000830152612671816122d4565b9050919050565b60006020820190508181036000830152612691816122f7565b9050919050565b600060208201905081810360008301526126b18161231a565b9050919050565b600060208201905081810360008301526126d18161233d565b9050919050565b600060208201905081810360008301526126f181612360565b9050919050565b600060208201905061270d6000830184612383565b92915050565b6000819050602082019050919050565b600081519050919050565b6000602082019050919050565b600082825260208201905092915050565b600082825260208201905092915050565b6000612768826128b0565b9150612773836128b0565b9250827fffffffffffffffffffffffffffffffffffffffffffffffffffffffffffffffff038211156127a8576127a7612910565b5b828201905092915050565b60006127be826128b0565b91506127c9836128b0565b9250826127d9576127d861293f565b5b828204905092915050565b60006127ef826128b0565b91506127fa836128b0565b9250817fffffffffffffffffffffffffffffffffffffffffffffffffffffffffffffffff048311821515161561283357612832612910565b5b828202905092915050565b6000612849826128b0565b9150612854836128b0565b92508282101561286757612866612910565b5b828203905092915050565b600061287d82612890565b9050919050565b60008115159050919050565b600073ffffffffffffffffffffffffffffffffffffffff82169050919050565b6000819050919050565b600060ff82169050919050565b60006128d2826128b0565b91507fffffffffffffffffffffffffffffffffffffffffffffffffffffffffffffffff82141561290557612904612910565b5b600182019050919050565b7f4e487b7100000000000000000000000000000000000000000000000000000000600052601160045260246000fd5b7f4e487b7100000000000000000000000000000000000000000000000000000000600052601260045260246000fd5b7f5061776e696e6753686f703a20686176656e277420676f74207065726d69737360008201527f696f6e20746f207472616e736665720000000000000000000000000000000000602082015250565b7f5061776e696e6753686f703a206f6e6c792063726561746f722063616e20636160008201527f6e63656c20746865206269640000000000000000000000000000000000000000602082015250565b7f5061776e696e6753686f703a204f6e6c79206f776e6572206f6620746865207060008201527f61776e2063616e2063616e63656c206974000000000000000000000000000000602082015250565b7f5061776e696e6753686f703a2063616e6e6f742062696420746869732070617760008201527f6e00000000000000000000000000000000000000000000000000000000000000602082015250565b7f5061776e696e6753686f703a20746f206c61746520746f207265706169640000600082015250565b7f5061776e696e6753686f703a20736d61727420636f6e7472616374206973206e60008201527f6f7420696e207768697465206c69737400000000000000000000000000000000602082015250565b7f5061776e696e6753686f703a207468697320626964206973206e6f742061636360008201527f657074656420627920626f72726f776572000000000000000000000000000000602082015250565b7f5061776e696e6753686f703a207061792065786163746c79207265706169642060008201527f616d6f756e740000000000000000000000000000000000000000000000000000602082015250565b7f5061776e696e6753686f703a20546865207061776e206973206e6f742065786960008201527f7374656400000000000000000000000000000000000000000000000000000000602082015250565b7f5061776e696e6753686f703a206f6e6c792063726561746f72206f662070617760008201527f6e2063616e206163636570742062696400000000000000000000000000000000602082015250565b7f5061776e696e6753686f703a204f6e6c792063616e2063616e63656c2077686560008201527f6e206e6f20626964206973206163636570746564000000000000000000000000602082015250565b7f5061776e696e6753686f703a2054686973207061776e20646f656e277420686160008201527f766520616e792061636365707465642062696400000000000000000000000000602082015250565b7f5061776e696e6753686f703a20796f757220626964206973206163636570746560008201527f642c2063616e6e6f742063616e63656c00000000000000000000000000000000602082015250565b7f5061776e696e6753686f703a204f6e6c79206f776e65722063616e206164642060008201527f6164647265737320746f207768697465206c6973740000000000000000000000602082015250565b7f5061776e696e6753686f703a206f6e6c792063726561746f72206f662062696460008201527f2063616e206c697175696461746520746f6b656e000000000000000000000000602082015250565b7f5061776e696e6753686f703a204f6e6c792063616e2063616e63656c2077686560008201527f6e2069742068617320737461747573206f662043524541544544000000000000602082015250565b7f5061776e696e6753686f703a207061776e206964206973206e6f742076616c6960008201527f6400000000000000000000000000000000000000000000000000000000000000602082015250565b7f5061776e696e6753686f703a204e6f742076616c69642074696d6520746f206c60008201527f6971756964617465000000000000000000000000000000000000000000000000602082015250565b7f5061776e696e6753686f703a204f6e6c79206f776e65722063616e2072656d6f60008201527f766520616464726573732066726f6d207768697465206c697374000000000000602082015250565b7f5061776e696e6753686f703a20616d6f756e74206f66206d6f6e6579206d757360008201527f7420626520626967676572207468616e20300000000000000000000000000000602082015250565b7f5061776e696e6753686f703a204f6e6c792063726561746f72206f662070617760008201527f6e2063616e207265706179000000000000000000000000000000000000000000602082015250565b612fcc81612872565b8114612fd757600080fd5b50565b612fe381612884565b8114612fee57600080fd5b50565b612ffa816128b0565b811461300557600080fd5b50565b613011816128ba565b811461301c57600080fd5b5056fea2646970667358221220049c1624bf07b597e44008523be1773206c2b5203e9edb791e3ce364e6b5c50664736f6c63430008040033",
  "immutableReferences": {},
  "source": "pragma solidity ^0.8.4;\r\n\r\nimport \"@openzeppelin/contracts/utils/math/SafeMath.sol\";\r\n\r\ninterface IERC165 {\r\n    /**\r\n     * @dev Returns true if this contract implements the interface defined by\r\n     * `interfaceId`. See the corresponding\r\n     * https://eips.ethereum.org/EIPS/eip-165#how-interfaces-are-identified[EIP section]\r\n     * to learn more about how these ids are created.\r\n     *\r\n     * This function call must use less than 30 000 gas.\r\n     */\r\n    function supportsInterface(bytes4 interfaceId) external view returns (bool);\r\n}\r\n\r\n\r\ninterface IERC721 is IERC165 {\r\n    /**\r\n     * @dev Emitted when `tokenId` token is transferred from `from` to `to`.\r\n     */\r\n    event Transfer(address indexed from, address indexed to, uint256 indexed tokenId);\r\n\r\n    /**\r\n     * @dev Emitted when `owner` enables `approved` to manage the `tokenId` token.\r\n     */\r\n    event Approval(address indexed owner, address indexed approved, uint256 indexed tokenId);\r\n\r\n    /**\r\n     * @dev Emitted when `owner` enables or disables (`approved`) `operator` to manage all of its assets.\r\n     */\r\n    event ApprovalForAll(address indexed owner, address indexed operator, bool approved);\r\n\r\n    /**\r\n     * @dev Returns the number of tokens in ``owner``'s account.\r\n     */\r\n    function balanceOf(address owner) external view returns (uint256 balance);\r\n\r\n    /**\r\n     * @dev Returns the owner of the `tokenId` token.\r\n     *\r\n     * Requirements:\r\n     *\r\n     * - `tokenId` must exist.\r\n     */\r\n    function ownerOf(uint256 tokenId) external view returns (address owner);\r\n\r\n    /**\r\n     * @dev Safely transfers `tokenId` token from `from` to `to`, checking first that contract recipients\r\n     * are aware of the ERC721 protocol to prevent tokens from being forever locked.\r\n     *\r\n     * Requirements:\r\n     *\r\n     * - `from` cannot be the zero address.\r\n     * - `to` cannot be the zero address.\r\n     * - `tokenId` token must exist and be owned by `from`.\r\n     * - If the caller is not `from`, it must be have been allowed to move this token by either {approve} or {setApprovalForAll}.\r\n     * - If `to` refers to a smart contract, it must implement {IERC721Receiver-onERC721Received}, which is called upon a safe transfer.\r\n     *\r\n     * Emits a {Transfer} event.\r\n     */\r\n    function safeTransferFrom(\r\n        address from,\r\n        address to,\r\n        uint256 tokenId\r\n    ) external;\r\n\r\n    /**\r\n     * @dev Transfers `tokenId` token from `from` to `to`.\r\n     *\r\n     * WARNING: Usage of this method is discouraged, use {safeTransferFrom} whenever possible.\r\n     *\r\n     * Requirements:\r\n     *\r\n     * - `from` cannot be the zero address.\r\n     * - `to` cannot be the zero address.\r\n     * - `tokenId` token must be owned by `from`.\r\n     * - If the caller is not `from`, it must be approved to move this token by either {approve} or {setApprovalForAll}.\r\n     *\r\n     * Emits a {Transfer} event.\r\n     */\r\n    function transferFrom(\r\n        address from,\r\n        address to,\r\n        uint256 tokenId\r\n    ) external;\r\n\r\n    /**\r\n     * @dev Gives permission to `to` to transfer `tokenId` token to another account.\r\n     * The approval is cleared when the token is transferred.\r\n     *\r\n     * Only a single account can be approved at a time, so approving the zero address clears previous approvals.\r\n     *\r\n     * Requirements:\r\n     *\r\n     * - The caller must own the token or be an approved operator.\r\n     * - `tokenId` must exist.\r\n     *\r\n     * Emits an {Approval} event.\r\n     */\r\n    function approve(address to, uint256 tokenId) external;\r\n\r\n    /**\r\n     * @dev Returns the account approved for `tokenId` token.\r\n     *\r\n     * Requirements:\r\n     *\r\n     * - `tokenId` must exist.\r\n     */\r\n    function getApproved(uint256 tokenId) external view returns (address operator);\r\n\r\n    /**\r\n     * @dev Approve or remove `operator` as an operator for the caller.\r\n     * Operators can call {transferFrom} or {safeTransferFrom} for any token owned by the caller.\r\n     *\r\n     * Requirements:\r\n     *\r\n     * - The `operator` cannot be the caller.\r\n     *\r\n     * Emits an {ApprovalForAll} event.\r\n     */\r\n    function setApprovalForAll(address operator, bool _approved) external;\r\n\r\n    /**\r\n     * @dev Returns if the `operator` is allowed to manage all of the assets of `owner`.\r\n     *\r\n     * See {setApprovalForAll}\r\n     */\r\n    function isApprovedForAll(address owner, address operator) external view returns (bool);\r\n\r\n    /**\r\n     * @dev Safely transfers `tokenId` token from `from` to `to`.\r\n     *\r\n     * Requirements:\r\n     *\r\n     * - `from` cannot be the zero address.\r\n     * - `to` cannot be the zero address.\r\n     * - `tokenId` token must exist and be owned by `from`.\r\n     * - If the caller is not `from`, it must be approved to move this token by either {approve} or {setApprovalForAll}.\r\n     * - If `to` refers to a smart contract, it must implement {IERC721Receiver-onERC721Received}, which is called upon a safe transfer.\r\n     *\r\n     * Emits a {Transfer} event.\r\n     */\r\n    function safeTransferFrom(\r\n        address from,\r\n        address to,\r\n        uint256 tokenId,\r\n        bytes calldata data\r\n    ) external;\r\n}\r\n\r\ncontract PawningShop {\r\n\r\n    using SafeMath for uint256;\r\n    using SafeMath for uint8;\r\n\r\n    enum PawnStatus {\r\n        CREATED,\r\n        CANCELLED,\r\n        DEAL,\r\n        LIQUIDATED,\r\n        REPAID\r\n    }\r\n    struct Pawn {\r\n        // who borrows money\r\n        address creator;\r\n        address contractAddress;\r\n        uint256 tokenId;\r\n        PawnStatus status;\r\n    }\r\n    struct Bid {\r\n        address creator;\r\n        uint256 loanAmount;\r\n        // the amount of wei borrower have to pay more\r\n        uint256 interest;\r\n        uint256 loanStartTime;\r\n        uint256 loanDuration;\r\n        bool isInterestProRated;\r\n    }\r\n    address public owner;\r\n    address[] public _whiteListNFT;\r\n    uint256 public _feeRate;\r\n    uint256 public _totalNumberOfPawn = 0;\r\n    uint256 public _totalNumberOfBid = 0;\r\n    // mapping nft address -> token id -> pawn\r\n    mapping(uint256 => Pawn) _pawns;\r\n    // mapping bid id => bid\r\n    mapping(uint256 => Bid) _bids;\r\n    // mapping bid id to pawn id\r\n    mapping(uint256 => uint256) public _bidToPawn;\r\n    mapping(uint256 => uint256) public _pawnToBid;\r\n\r\n    constructor() {\r\n        owner = msg.sender;\r\n        Pawn memory newPawn = Pawn({\r\n            creator: address(0),\r\n            contractAddress: address(0),\r\n            tokenId: 0,\r\n            status: PawnStatus.CANCELLED\r\n        });\r\n        _pawns[0] = newPawn;\r\n        Bid memory newBid = Bid({\r\n            creator: address(0),\r\n            loanAmount: 0,\r\n            interest: 0,\r\n            loanStartTime: 0,\r\n            loanDuration: 0,\r\n            isInterestProRated: false\r\n        });\r\n        _bids[0] = newBid;\r\n    }\r\n\r\n    event PawnCreated(address pawner, uint256 pawnId);\r\n    event PawnCancelled(address pawner, uint256 pawnId);\r\n    event PawnDeal(address pawner, address lender, uint256 id);\r\n    event PawnRepaid(address pawner, address lender, uint256 id);\r\n    event PawnLiquidated(address pawner, address lender, uint256 id);\r\n    event BidCreated(address creator, uint256 pawnId);\r\n    event BidCancelled(address creator, uint256 pawnId);\r\n\r\n    function createPawn(address tokenAddress, uint256 tokenId) public {\r\n        _totalNumberOfPawn += 1;\r\n        bool isInWhiteList = false;\r\n        for (uint256 i = 0; i < _whiteListNFT.length; i++) {\r\n            if (tokenAddress == _whiteListNFT[i]) {\r\n                isInWhiteList = true;\r\n            }\r\n        }\r\n        address sender = msg.sender;\r\n        require(\r\n            isInWhiteList == true,\r\n            \"PawningShop: smart contract is not in white list\"\r\n        );\r\n        bool isApproved = IERC721(tokenAddress).getApproved(tokenId) ==\r\n            address(this);\r\n        bool isApprovedForAll = IERC721(tokenAddress).isApprovedForAll(\r\n            sender,\r\n            address(this)\r\n        );\r\n        require(\r\n            isApproved || isApprovedForAll,\r\n            \"PawningShop: haven't got permission to transfer\"\r\n        );\r\n        Pawn memory pawn = Pawn({\r\n            creator: sender,\r\n            contractAddress: tokenAddress,\r\n            tokenId: tokenId,\r\n            status: PawnStatus.CREATED\r\n        });\r\n\r\n        _pawns[_totalNumberOfPawn] = pawn;\r\n        emit PawnCreated(sender, _totalNumberOfPawn);\r\n    }\r\n\r\n    function cancelPawn(uint256 pawnId) public {\r\n        Pawn storage pawn = _pawns[pawnId];\r\n        address creator = pawn.creator;\r\n        require(\r\n            pawn.status == PawnStatus.CREATED,\r\n            \"PawningShop: Only can cancel when it has status of CREATED\"\r\n        );\r\n        require(\r\n            msg.sender == creator,\r\n            \"PawningShop: Only owner of the pawn can cancel it\"\r\n        );\r\n        require(\r\n            _pawnToBid[pawnId] == 0,\r\n            \"PawningShop: Only can cancel when no bid is accepted\"\r\n        );\r\n        pawn.status = PawnStatus.CANCELLED;\r\n\r\n        emit PawnCancelled(owner, pawnId);\r\n    }\r\n\r\n    function bid(\r\n        uint8 rate,\r\n        uint256 duration,\r\n        bool isInterestProRated,\r\n        uint256 loanStartTime,\r\n        uint256 pawnId\r\n    ) public payable {\r\n        _totalNumberOfBid += 1;\r\n        address creator = msg.sender;\r\n        uint256 amount = msg.value;\r\n        Pawn storage pawn = _pawns[pawnId];\r\n        require(pawnId > 0, \"PawningShop: pawn id is not valid\");\r\n        require(\r\n            pawn.status == PawnStatus.CREATED,\r\n            \"PawningShop: cannot bid this pawn\"\r\n        );\r\n        require(\r\n            amount > 0,\r\n            \"PawningShop: amount of money must be bigger than 0\"\r\n        );\r\n        Bid memory newBid = Bid({\r\n            creator: creator,\r\n            loanAmount: amount,\r\n            interest: rate,\r\n            loanDuration: duration,\r\n            isInterestProRated: isInterestProRated,\r\n            loanStartTime: loanStartTime\r\n        });\r\n        _bids[_totalNumberOfBid] = newBid;\r\n        _bidToPawn[_totalNumberOfBid] = pawnId;\r\n        emit BidCreated(creator, pawnId);\r\n    }\r\n\r\n    function cancelBid(uint256 bidId) public {\r\n        Bid memory currBid = _bids[bidId];\r\n        address sender = msg.sender;\r\n        require(\r\n            sender == currBid.creator,\r\n            \"PawningShop: only creator can cancel the bid\"\r\n        );\r\n        uint256 pawnId = _bidToPawn[bidId];\r\n        require(_pawnToBid[pawnId] != bidId, \"PawningShop: your bid is accepted, cannot cancel\");\r\n        address payable lender = payable(currBid.creator);\r\n        lender.transfer(currBid.loanAmount);\r\n        delete _bids[bidId];\r\n        delete _bidToPawn[bidId];\r\n    }\r\n\r\n    function acceptBid(uint256 bidId) public {\r\n        Bid storage currBid = _bids[bidId];\r\n        uint256 pawnId = _bidToPawn[bidId];\r\n        require(pawnId > 0, \"PawningShop: The pawn is not existed\");\r\n        Pawn storage pawn = _pawns[pawnId];\r\n        require(pawn.creator == msg.sender, \"PawningShop: only creator of pawn can accept bid\");\r\n        IERC721(pawn.contractAddress).transferFrom(pawn.creator, address(this), pawn.tokenId);\r\n        address payable borrower = payable(pawn.creator);\r\n        borrower.transfer(currBid.loanAmount);\r\n        pawn.status = PawnStatus.DEAL;\r\n        _pawnToBid[pawnId] = bidId;\r\n        pawn.status = PawnStatus.DEAL;\r\n        currBid.loanStartTime = block.timestamp;\r\n    }\r\n\r\n    function repaid(uint256 pawnId) public payable {\r\n        Pawn storage currPawn = _pawns[pawnId];\r\n        require(\r\n            currPawn.creator == msg.sender,\r\n            \"PawningShop: Only creator of pawn can repay\"\r\n        );\r\n        uint256 bidId = _pawnToBid[pawnId];\r\n        require(\r\n            bidId != 0,\r\n            \"PawningShop: This pawn doen't have any accepted bid\"\r\n        );\r\n        Bid storage currBid = _bids[bidId];\r\n        require(block.timestamp <= currBid.loanStartTime + currBid.loanDuration, \"PawningShop: to late to repaid\");\r\n        uint256 value = msg.value;\r\n        uint256 elapsedDuration = block.timestamp - currBid.loanStartTime;\r\n        uint256 repaidAmount = _calculateRepaidAmount(currBid.loanAmount, currBid.interest, currBid.loanDuration, elapsedDuration, currBid.isInterestProRated);\r\n        require(value == repaidAmount, \"PawningShop: pay exactly repaid amount\");\r\n        // transfer token back to borrower\r\n        IERC721(currPawn.contractAddress).transferFrom(address(this), currPawn.creator, currPawn.tokenId);\r\n        // transfer money to lender\r\n        address payable lender = payable(currBid.creator);\r\n        lender.transfer(value);\r\n        delete _pawnToBid[pawnId];\r\n        delete _bidToPawn[bidId];\r\n    }\r\n\r\n    function _calculateRepaidAmount(uint256 original, uint256 interest, uint256 totalDuration, uint256 elapsedDuration, bool isInterestProRated) internal pure returns (uint256) {\r\n        uint256 interestDue = interest;\r\n        if (isInterestProRated) {\r\n            interestDue = (interest.div(totalDuration)).mul(elapsedDuration);\r\n        }\r\n        return original.add(interest);\r\n    }\r\n\r\n    function liquidate(uint256 bidId) public {\r\n        Bid storage currBid = _bids[bidId];\r\n        require(currBid.creator == msg.sender, \"PawningShop: only creator of bid can liquidate token\");\r\n        require(block.timestamp > currBid.loanStartTime + currBid.loanAmount, \"PawningShop: Not valid time to liquidate\");\r\n        uint256 pawnId = _bidToPawn[bidId];\r\n        require(_pawnToBid[pawnId] == bidId, \"PawningShop: this bid is not accepted by borrower\");\r\n        Pawn storage currPawn = _pawns[pawnId];\r\n        IERC721(currPawn.contractAddress).transferFrom(address(this), currBid.creator, currPawn.tokenId);\r\n    }\r\n\r\n    function addToWhiteList(address smartContract) public {\r\n        require(msg.sender == owner, \"PawningShop: Only owner can add address to white list\");\r\n        uint256 i = 0;\r\n        for (i = 0; i < _whiteListNFT.length; i++) {\r\n            if (_whiteListNFT[i] == smartContract) {\r\n                return;\r\n            }\r\n        }\r\n        _whiteListNFT.push(smartContract);\r\n    }\r\n\r\n    function removeFromWhiteList(address smartContract) public {\r\n        require(msg.sender == owner, \"PawningShop: Only owner can remove address from white list\");\r\n        uint256 i;\r\n        for (i = 0; i < _whiteListNFT.length; i++) {\r\n            if (_whiteListNFT[i] == smartContract) {\r\n                break;\r\n            }\r\n        }\r\n        delete _whiteListNFT[i];\r\n    }\r\n\r\n    function getWhiteList() public view returns(address[] memory) {\r\n        return _whiteListNFT;\r\n    }\r\n}\r\n",
  "sourcePath": "E:/Documents/OneDrive/Documents/solidity/nft-pawning-shop/contracts/PawningShop.sol",
  "compiler": {
    "name": "solc",
    "version": "0.8.4+commit.c7e474f2.Emscripten.clang"
  },
  "schemaVersion": "3.4.1",
  "updatedAt": "2021-08-18T07:31:34.994Z",
  "networkType": "ethereum",
  "devdoc": {
    "kind": "dev",
    "methods": {},
    "version": 1
  },
  "userdoc": {
    "kind": "user",
    "methods": {},
    "version": 1
  }
}