{
  "contractName": "PawningShop",
  "abi": [
    {
      "inputs": [],
      "stateMutability": "nonpayable",
      "type": "constructor"
    },
    {
      "anonymous": false,
      "inputs": [
        {
          "indexed": false,
          "internalType": "address",
          "name": "creator",
          "type": "address"
        },
        {
          "indexed": false,
          "internalType": "uint256",
          "name": "pawnId",
          "type": "uint256"
        },
        {
          "indexed": false,
          "internalType": "uint256",
          "name": "bidId",
          "type": "uint256"
        }
      ],
      "name": "BidCancelled",
      "type": "event"
    },
    {
      "anonymous": false,
      "inputs": [
        {
          "indexed": false,
          "internalType": "address",
          "name": "creator",
          "type": "address"
        },
        {
          "indexed": false,
          "internalType": "uint256",
          "name": "pawnId",
          "type": "uint256"
        },
        {
          "indexed": false,
          "internalType": "uint256",
          "name": "bidId",
          "type": "uint256"
        }
      ],
      "name": "BidCreated",
      "type": "event"
    },
    {
      "anonymous": false,
      "inputs": [
        {
          "indexed": false,
          "internalType": "address",
          "name": "pawner",
          "type": "address"
        },
        {
          "indexed": false,
          "internalType": "uint256",
          "name": "pawnId",
          "type": "uint256"
        }
      ],
      "name": "PawnCancelled",
      "type": "event"
    },
    {
      "anonymous": false,
      "inputs": [
        {
          "indexed": false,
          "internalType": "address",
          "name": "pawner",
          "type": "address"
        },
        {
          "indexed": false,
          "internalType": "uint256",
          "name": "pawnId",
          "type": "uint256"
        }
      ],
      "name": "PawnCreated",
      "type": "event"
    },
    {
      "anonymous": false,
      "inputs": [
        {
          "indexed": false,
          "internalType": "address",
          "name": "pawner",
          "type": "address"
        },
        {
          "indexed": false,
          "internalType": "address",
          "name": "lender",
          "type": "address"
        },
        {
          "indexed": false,
          "internalType": "uint256",
          "name": "pawnId",
          "type": "uint256"
        }
      ],
      "name": "PawnDeal",
      "type": "event"
    },
    {
      "anonymous": false,
      "inputs": [
        {
          "indexed": false,
          "internalType": "address",
          "name": "pawner",
          "type": "address"
        },
        {
          "indexed": false,
          "internalType": "address",
          "name": "lender",
          "type": "address"
        },
        {
          "indexed": false,
          "internalType": "uint256",
          "name": "pawnId",
          "type": "uint256"
        }
      ],
      "name": "PawnLiquidated",
      "type": "event"
    },
    {
      "anonymous": false,
      "inputs": [
        {
          "indexed": false,
          "internalType": "address",
          "name": "pawner",
          "type": "address"
        },
        {
          "indexed": false,
          "internalType": "address",
          "name": "lender",
          "type": "address"
        },
        {
          "indexed": false,
          "internalType": "uint256",
          "name": "pawnId",
          "type": "uint256"
        }
      ],
      "name": "PawnRepaid",
      "type": "event"
    },
    {
      "anonymous": false,
      "inputs": [
        {
          "indexed": false,
          "internalType": "address",
          "name": "smartContract",
          "type": "address"
        }
      ],
      "name": "WhiteListAdded",
      "type": "event"
    },
    {
      "anonymous": false,
      "inputs": [
        {
          "indexed": false,
          "internalType": "address",
          "name": "smartContract",
          "type": "address"
        }
      ],
      "name": "WhiteListRemoved",
      "type": "event"
    },
    {
      "inputs": [
        {
          "internalType": "uint256",
          "name": "",
          "type": "uint256"
        }
      ],
      "name": "_bidToPawn",
      "outputs": [
        {
          "internalType": "uint256",
          "name": "",
          "type": "uint256"
        }
      ],
      "stateMutability": "view",
      "type": "function",
      "constant": true
    },
    {
      "inputs": [
        {
          "internalType": "uint256",
          "name": "",
          "type": "uint256"
        }
      ],
      "name": "_bids",
      "outputs": [
        {
          "internalType": "address",
          "name": "creator",
          "type": "address"
        },
        {
          "internalType": "uint256",
          "name": "loanAmount",
          "type": "uint256"
        },
        {
          "internalType": "uint256",
          "name": "interest",
          "type": "uint256"
        },
        {
          "internalType": "uint256",
          "name": "loanStartTime",
          "type": "uint256"
        },
        {
          "internalType": "uint256",
          "name": "loanDuration",
          "type": "uint256"
        },
        {
          "internalType": "bool",
          "name": "isInterestProRated",
          "type": "bool"
        }
      ],
      "stateMutability": "view",
      "type": "function",
      "constant": true
    },
    {
      "inputs": [],
      "name": "_feeRate",
      "outputs": [
        {
          "internalType": "uint256",
          "name": "",
          "type": "uint256"
        }
      ],
      "stateMutability": "view",
      "type": "function",
      "constant": true
    },
    {
      "inputs": [
        {
          "internalType": "uint256",
          "name": "",
          "type": "uint256"
        }
      ],
      "name": "_pawnToBid",
      "outputs": [
        {
          "internalType": "uint256",
          "name": "",
          "type": "uint256"
        }
      ],
      "stateMutability": "view",
      "type": "function",
      "constant": true
    },
    {
      "inputs": [
        {
          "internalType": "uint256",
          "name": "",
          "type": "uint256"
        }
      ],
      "name": "_pawns",
      "outputs": [
        {
          "internalType": "address",
          "name": "creator",
          "type": "address"
        },
        {
          "internalType": "address",
          "name": "contractAddress",
          "type": "address"
        },
        {
          "internalType": "uint256",
          "name": "tokenId",
          "type": "uint256"
        },
        {
          "internalType": "enum PawningShop.PawnStatus",
          "name": "status",
          "type": "uint8"
        }
      ],
      "stateMutability": "view",
      "type": "function",
      "constant": true
    },
    {
      "inputs": [],
      "name": "_totalNumberOfBid",
      "outputs": [
        {
          "internalType": "uint256",
          "name": "",
          "type": "uint256"
        }
      ],
      "stateMutability": "view",
      "type": "function",
      "constant": true
    },
    {
      "inputs": [],
      "name": "_totalNumberOfPawn",
      "outputs": [
        {
          "internalType": "uint256",
          "name": "",
          "type": "uint256"
        }
      ],
      "stateMutability": "view",
      "type": "function",
      "constant": true
    },
    {
      "inputs": [
        {
          "internalType": "uint256",
          "name": "",
          "type": "uint256"
        }
      ],
      "name": "_whiteListNFT",
      "outputs": [
        {
          "internalType": "address",
          "name": "",
          "type": "address"
        }
      ],
      "stateMutability": "view",
      "type": "function",
      "constant": true
    },
    {
      "inputs": [],
      "name": "owner",
      "outputs": [
        {
          "internalType": "address",
          "name": "",
          "type": "address"
        }
      ],
      "stateMutability": "view",
      "type": "function",
      "constant": true
    },
    {
      "inputs": [
        {
          "internalType": "uint256",
          "name": "id",
          "type": "uint256"
        }
      ],
      "name": "getPawnById",
      "outputs": [
        {
          "components": [
            {
              "internalType": "address",
              "name": "creator",
              "type": "address"
            },
            {
              "internalType": "address",
              "name": "contractAddress",
              "type": "address"
            },
            {
              "internalType": "uint256",
              "name": "tokenId",
              "type": "uint256"
            },
            {
              "internalType": "enum PawningShop.PawnStatus",
              "name": "status",
              "type": "uint8"
            }
          ],
          "internalType": "struct PawningShop.Pawn",
          "name": "",
          "type": "tuple"
        }
      ],
      "stateMutability": "view",
      "type": "function",
      "constant": true
    },
    {
      "inputs": [
        {
          "internalType": "address",
          "name": "tokenAddress",
          "type": "address"
        },
        {
          "internalType": "uint256",
          "name": "tokenId",
          "type": "uint256"
        }
      ],
      "name": "createPawn",
      "outputs": [],
      "stateMutability": "nonpayable",
      "type": "function"
    },
    {
      "inputs": [
        {
          "internalType": "uint256",
          "name": "pawnId",
          "type": "uint256"
        }
      ],
      "name": "cancelPawn",
      "outputs": [],
      "stateMutability": "nonpayable",
      "type": "function"
    },
    {
      "inputs": [
        {
          "internalType": "uint8",
          "name": "rate",
          "type": "uint8"
        },
        {
          "internalType": "uint256",
          "name": "duration",
          "type": "uint256"
        },
        {
          "internalType": "bool",
          "name": "isInterestProRated",
          "type": "bool"
        },
        {
          "internalType": "uint256",
          "name": "loanStartTime",
          "type": "uint256"
        },
        {
          "internalType": "uint256",
          "name": "pawnId",
          "type": "uint256"
        }
      ],
      "name": "createBid",
      "outputs": [],
      "stateMutability": "payable",
      "type": "function",
      "payable": true
    },
    {
      "inputs": [
        {
          "internalType": "uint256",
          "name": "bidId",
          "type": "uint256"
        }
      ],
      "name": "cancelBid",
      "outputs": [],
      "stateMutability": "nonpayable",
      "type": "function"
    },
    {
      "inputs": [
        {
          "internalType": "uint256",
          "name": "bidId",
          "type": "uint256"
        }
      ],
      "name": "acceptBid",
      "outputs": [],
      "stateMutability": "nonpayable",
      "type": "function"
    },
    {
      "inputs": [
        {
          "internalType": "uint256",
          "name": "pawnId",
          "type": "uint256"
        }
      ],
      "name": "repaid",
      "outputs": [],
      "stateMutability": "payable",
      "type": "function",
      "payable": true
    },
    {
      "inputs": [
        {
          "internalType": "uint256",
          "name": "bidId",
          "type": "uint256"
        }
      ],
      "name": "liquidate",
      "outputs": [],
      "stateMutability": "nonpayable",
      "type": "function"
    },
    {
      "inputs": [
        {
          "internalType": "address",
          "name": "smartContract",
          "type": "address"
        }
      ],
      "name": "addToWhiteList",
      "outputs": [],
      "stateMutability": "nonpayable",
      "type": "function"
    },
    {
      "inputs": [
        {
          "internalType": "address",
          "name": "smartContract",
          "type": "address"
        }
      ],
      "name": "removeFromWhiteList",
      "outputs": [],
      "stateMutability": "nonpayable",
      "type": "function"
    },
    {
      "inputs": [],
      "name": "getWhiteList",
      "outputs": [
        {
          "internalType": "address[]",
          "name": "",
          "type": "address[]"
        }
      ],
      "stateMutability": "view",
      "type": "function",
      "constant": true
    }
  ],
  "bytecode": "0x60806040526000600355600060045534801561001a57600080fd5b50336000806101000a81548173ffffffffffffffffffffffffffffffffffffffff021916908373ffffffffffffffffffffffffffffffffffffffff1602179055506138608061006a6000396000f3fe60806040526004361061011f5760003560e01c80638228c579116100a0578063b2131f7d11610064578063b2131f7d14610402578063b53c37011461042d578063c398f41f14610456578063d98dbf2114610481578063df986ccc146104ac5761011f565b80638228c579146102f457806386271db4146103315780638bfaf6841461036e5780638da5cb5b146103ae5780639703ef35146103d95761011f565b80633ce11def116100e75780633ce11def14610220578063415f12401461024957806347ee0394146102725780635f93893b1461029b5780636707927d146102b75761011f565b806301bf66481461012457806309a9d76c1461014d57806326d8600b146101785780632712b2e5146101b55780632b1fd58a146101f7575b600080fd5b34801561013057600080fd5b5061014b60048036038101906101469190612441565b6104c8565b005b34801561015957600080fd5b506101626106b8565b60405161016f9190612b4f565b60405180910390f35b34801561018457600080fd5b5061019f600480360381019061019a91906124f8565b610746565b6040516101ac91906129ce565b60405180910390f35b3480156101c157600080fd5b506101dc60048036038101906101d791906124f8565b610785565b6040516101ee96959493929190612aee565b60405180910390f35b34801561020357600080fd5b5061021e600480360381019061021991906124f8565b6107ee565b005b34801561022c57600080fd5b50610247600480360381019061024291906124f8565b610b06565b005b34801561025557600080fd5b50610270600480360381019061026b91906124f8565b610e16565b005b34801561027e57600080fd5b5061029960048036038101906102949190612441565b611059565b005b6102b560048036038101906102b091906124f8565b6112b7565b005b3480156102c357600080fd5b506102de60048036038101906102d991906124f8565b611615565b6040516102eb9190612e31565b60405180910390f35b34801561030057600080fd5b5061031b600480360381019061031691906124f8565b61177f565b6040516103289190612e4c565b60405180910390f35b34801561033d57600080fd5b50610358600480360381019061035391906124f8565b611797565b6040516103659190612e4c565b60405180910390f35b34801561037a57600080fd5b50610395600480360381019061039091906124f8565b6117af565b6040516103a59493929190612a49565b60405180910390f35b3480156103ba57600080fd5b506103c361182c565b6040516103d091906129ce565b60405180910390f35b3480156103e557600080fd5b5061040060048036038101906103fb91906124f8565b611850565b005b34801561040e57600080fd5b50610417611b0e565b6040516104249190612e4c565b60405180910390f35b34801561043957600080fd5b50610454600480360381019061044f9190612493565b611b14565b005b34801561046257600080fd5b5061046b611fb2565b6040516104789190612e4c565b60405180910390f35b34801561048d57600080fd5b50610496611fb8565b6040516104a39190612e4c565b60405180910390f35b6104c660048036038101906104c19190612521565b611fbe565b005b60008054906101000a900473ffffffffffffffffffffffffffffffffffffffff1673ffffffffffffffffffffffffffffffffffffffff163373ffffffffffffffffffffffffffffffffffffffff1614610556576040517f08c379a000000000000000000000000000000000000000000000000000000000815260040161054d90612dd1565b60405180910390fd5b60005b600180549050811015610616578173ffffffffffffffffffffffffffffffffffffffff16600182815481106105b7577f4e487b7100000000000000000000000000000000000000000000000000000000600052603260045260246000fd5b9060005260206000200160009054906101000a900473ffffffffffffffffffffffffffffffffffffffff1673ffffffffffffffffffffffffffffffffffffffff16141561060357610616565b808061060e90613040565b915050610559565b60018181548110610650577f4e487b7100000000000000000000000000000000000000000000000000000000600052603260045260246000fd5b9060005260206000200160006101000a81549073ffffffffffffffffffffffffffffffffffffffff02191690557fdb0d54f6e7ff4a52bdc49b4c8d9ff245f409fee25c2c0a0a72ece14e2ddf4cfc826040516106ac91906129ce565b60405180910390a15050565b6060600180548060200260200160405190810160405280929190818152602001828054801561073c57602002820191906000526020600020905b8160009054906101000a900473ffffffffffffffffffffffffffffffffffffffff1673ffffffffffffffffffffffffffffffffffffffff16815260200190600101908083116106f2575b5050505050905090565b6001818154811061075657600080fd5b906000526020600020016000915054906101000a900473ffffffffffffffffffffffffffffffffffffffff1681565b60066020528060005260406000206000915090508060000160009054906101000a900473ffffffffffffffffffffffffffffffffffffffff16908060010154908060020154908060030154908060040154908060050160009054906101000a900460ff16905086565b600060066000838152602001908152602001600020905060006007600084815260200190815260200160002054905060008111610860576040517f08c379a000000000000000000000000000000000000000000000000000000000815260040161085790612c91565b60405180910390fd5b60006005600083815260200190815260200160002090503373ffffffffffffffffffffffffffffffffffffffff168160000160009054906101000a900473ffffffffffffffffffffffffffffffffffffffff1673ffffffffffffffffffffffffffffffffffffffff1614610909576040517f08c379a000000000000000000000000000000000000000000000000000000000815260040161090090612cb1565b60405180910390fd5b8060010160009054906101000a900473ffffffffffffffffffffffffffffffffffffffff1673ffffffffffffffffffffffffffffffffffffffff166323b872dd8260000160009054906101000a900473ffffffffffffffffffffffffffffffffffffffff163084600201546040518463ffffffff1660e01b815260040161099293929190612a12565b600060405180830381600087803b1580156109ac57600080fd5b505af11580156109c0573d6000803e3d6000fd5b5050505060008160000160009054906101000a900473ffffffffffffffffffffffffffffffffffffffff1690508073ffffffffffffffffffffffffffffffffffffffff166108fc85600101549081150290604051600060405180830381858888f19350505050158015610a37573d6000803e3d6000fd5b5060028260030160006101000a81548160ff02191690836004811115610a86577f4e487b7100000000000000000000000000000000000000000000000000000000600052602160045260246000fd5b021790555084600860008581526020019081526020016000208190555060028260030160006101000a81548160ff02191690836004811115610af1577f4e487b7100000000000000000000000000000000000000000000000000000000600052602160045260246000fd5b02179055504284600301819055505050505050565b600060056000838152602001908152602001600020905060008160000160009054906101000a900473ffffffffffffffffffffffffffffffffffffffff16905060006004811115610b80577f4e487b7100000000000000000000000000000000000000000000000000000000600052602160045260246000fd5b8260030160009054906101000a900460ff166004811115610bca577f4e487b7100000000000000000000000000000000000000000000000000000000600052602160045260246000fd5b14610c0a576040517f08c379a0000000000000000000000000000000000000000000000000000000008152600401610c0190612d71565b60405180910390fd5b8073ffffffffffffffffffffffffffffffffffffffff163373ffffffffffffffffffffffffffffffffffffffff1614610c78576040517f08c379a0000000000000000000000000000000000000000000000000000000008152600401610c6f90612bb1565b60405180910390fd5b6000600860008581526020019081526020016000205414610cce576040517f08c379a0000000000000000000000000000000000000000000000000000000008152600401610cc590612cd1565b60405180910390fd5b60018260030160006101000a81548160ff02191690836004811115610d1c577f4e487b7100000000000000000000000000000000000000000000000000000000600052602160045260246000fd5b02179055508160010160009054906101000a900473ffffffffffffffffffffffffffffffffffffffff1673ffffffffffffffffffffffffffffffffffffffff166323b872dd308385600201546040518463ffffffff1660e01b8152600401610d8693929190612a12565b600060405180830381600087803b158015610da057600080fd5b505af1158015610db4573d6000803e3d6000fd5b505050507f6d2c0a066258c4b768dc98e6e9ce603e177a49c3b5ed4521b992fcddd16ccec460008054906101000a900473ffffffffffffffffffffffffffffffffffffffff1684604051610e09929190612a8e565b60405180910390a1505050565b60006006600083815260200190815260200160002090503373ffffffffffffffffffffffffffffffffffffffff168160000160009054906101000a900473ffffffffffffffffffffffffffffffffffffffff1673ffffffffffffffffffffffffffffffffffffffff1614610ebf576040517f08c379a0000000000000000000000000000000000000000000000000000000008152600401610eb690612d51565b60405180910390fd5b80600101548160030154610ed39190612eb1565b4211610f14576040517f08c379a0000000000000000000000000000000000000000000000000000000008152600401610f0b90612db1565b60405180910390fd5b60006007600084815260200190815260200160002054905082600860008381526020019081526020016000205414610f81576040517f08c379a0000000000000000000000000000000000000000000000000000000008152600401610f7890612c51565b60405180910390fd5b60006005600083815260200190815260200160002090508060010160009054906101000a900473ffffffffffffffffffffffffffffffffffffffff1673ffffffffffffffffffffffffffffffffffffffff166323b872dd308560000160009054906101000a900473ffffffffffffffffffffffffffffffffffffffff1684600201546040518463ffffffff1660e01b815260040161102193929190612a12565b600060405180830381600087803b15801561103b57600080fd5b505af115801561104f573d6000803e3d6000fd5b5050505050505050565b60008054906101000a900473ffffffffffffffffffffffffffffffffffffffff1673ffffffffffffffffffffffffffffffffffffffff163373ffffffffffffffffffffffffffffffffffffffff16146110e7576040517f08c379a00000000000000000000000000000000000000000000000000000000081526004016110de90612d31565b60405180910390fd5b600073ffffffffffffffffffffffffffffffffffffffff168173ffffffffffffffffffffffffffffffffffffffff161415611157576040517f08c379a000000000000000000000000000000000000000000000000000000000815260040161114e90612bf1565b60405180910390fd5b60005b600180549050811015611218578173ffffffffffffffffffffffffffffffffffffffff16600182815481106111b8577f4e487b7100000000000000000000000000000000000000000000000000000000600052603260045260246000fd5b9060005260206000200160009054906101000a900473ffffffffffffffffffffffffffffffffffffffff1673ffffffffffffffffffffffffffffffffffffffff16141561120557506112b4565b808061121090613040565b91505061115a565b6001829080600181540180825580915050600190039060005260206000200160009091909190916101000a81548173ffffffffffffffffffffffffffffffffffffffff021916908373ffffffffffffffffffffffffffffffffffffffff1602179055507fbf309892cce19064e6d63ba3339f893b199c8cb5041fc6731702cb18e805d291826040516112aa91906129ce565b60405180910390a1505b50565b60006005600083815260200190815260200160002090503373ffffffffffffffffffffffffffffffffffffffff168160000160009054906101000a900473ffffffffffffffffffffffffffffffffffffffff1673ffffffffffffffffffffffffffffffffffffffff1614611360576040517f08c379a000000000000000000000000000000000000000000000000000000000815260040161135790612e11565b60405180910390fd5b60006008600084815260200190815260200160002054905060008114156113bc576040517f08c379a00000000000000000000000000000000000000000000000000000000081526004016113b390612cf1565b60405180910390fd5b6000600660008381526020019081526020016000209050806004015481600301546113e79190612eb1565b421115611429576040517f08c379a000000000000000000000000000000000000000000000000000000000815260040161142090612c11565b60405180910390fd5b600034905060008260030154426114409190612f92565b9050600061146e846001015485600201548660040154858860050160009054906101000a900460ff166122a2565b90508083146114b2576040517f08c379a00000000000000000000000000000000000000000000000000000000081526004016114a990612c71565b60405180910390fd5b8560010160009054906101000a900473ffffffffffffffffffffffffffffffffffffffff1673ffffffffffffffffffffffffffffffffffffffff166323b872dd308860000160009054906101000a900473ffffffffffffffffffffffffffffffffffffffff1689600201546040518463ffffffff1660e01b815260040161153b93929190612a12565b600060405180830381600087803b15801561155557600080fd5b505af1158015611569573d6000803e3d6000fd5b5050505060008460000160009054906101000a900473ffffffffffffffffffffffffffffffffffffffff1690508073ffffffffffffffffffffffffffffffffffffffff166108fc859081150290604051600060405180830381858888f193505050501580156115dc573d6000803e3d6000fd5b50600860008981526020019081526020016000206000905560076000878152602001908152602001600020600090555050505050505050565b61161d612337565b600560008381526020019081526020016000206040518060800160405290816000820160009054906101000a900473ffffffffffffffffffffffffffffffffffffffff1673ffffffffffffffffffffffffffffffffffffffff1673ffffffffffffffffffffffffffffffffffffffff1681526020016001820160009054906101000a900473ffffffffffffffffffffffffffffffffffffffff1673ffffffffffffffffffffffffffffffffffffffff1673ffffffffffffffffffffffffffffffffffffffff168152602001600282015481526020016003820160009054906101000a900460ff16600481111561173c577f4e487b7100000000000000000000000000000000000000000000000000000000600052602160045260246000fd5b6004811115611774577f4e487b7100000000000000000000000000000000000000000000000000000000600052602160045260246000fd5b815250509050919050565b60076020528060005260406000206000915090505481565b60086020528060005260406000206000915090505481565b60056020528060005260406000206000915090508060000160009054906101000a900473ffffffffffffffffffffffffffffffffffffffff16908060010160009054906101000a900473ffffffffffffffffffffffffffffffffffffffff16908060020154908060030160009054906101000a900460ff16905084565b60008054906101000a900473ffffffffffffffffffffffffffffffffffffffff1681565b6000600660008381526020019081526020016000206040518060c00160405290816000820160009054906101000a900473ffffffffffffffffffffffffffffffffffffffff1673ffffffffffffffffffffffffffffffffffffffff1673ffffffffffffffffffffffffffffffffffffffff168152602001600182015481526020016002820154815260200160038201548152602001600482015481526020016005820160009054906101000a900460ff16151515158152505090506000339050816000015173ffffffffffffffffffffffffffffffffffffffff168173ffffffffffffffffffffffffffffffffffffffff1614611982576040517f08c379a000000000000000000000000000000000000000000000000000000000815260040161197990612b91565b60405180910390fd5b60006007600085815260200190815260200160002054905083600860008381526020019081526020016000205414156119f0576040517f08c379a00000000000000000000000000000000000000000000000000000000081526004016119e790612d11565b60405180910390fd5b6000836000015190508073ffffffffffffffffffffffffffffffffffffffff166108fc85602001519081150290604051600060405180830381858888f19350505050158015611a43573d6000803e3d6000fd5b5060066000868152602001908152602001600020600080820160006101000a81549073ffffffffffffffffffffffffffffffffffffffff021916905560018201600090556002820160009055600382016000905560048201600090556005820160006101000a81549060ff0219169055505060076000868152602001908152602001600020600090557f6ee61d45e149503ae29ac61f0d99b805266360d3b28490f047c7cc7b7ce9edcb838387604051611aff93929190612ab7565b60405180910390a15050505050565b60025481565b600160036000828254611b279190612eb1565b925050819055506000805b600180549050811015611bef5760018181548110611b79577f4e487b7100000000000000000000000000000000000000000000000000000000600052603260045260246000fd5b9060005260206000200160009054906101000a900473ffffffffffffffffffffffffffffffffffffffff1673ffffffffffffffffffffffffffffffffffffffff168473ffffffffffffffffffffffffffffffffffffffff161415611bdc57600191505b8080611be790613040565b915050611b32565b5060003390506001151582151514611c3c576040517f08c379a0000000000000000000000000000000000000000000000000000000008152600401611c3390612c31565b60405180910390fd5b60003073ffffffffffffffffffffffffffffffffffffffff168573ffffffffffffffffffffffffffffffffffffffff1663081812fc866040518263ffffffff1660e01b8152600401611c8e9190612e4c565b60206040518083038186803b158015611ca657600080fd5b505afa158015611cba573d6000803e3d6000fd5b505050506040513d601f19601f82011682018060405250810190611cde919061246a565b73ffffffffffffffffffffffffffffffffffffffff1614905060008573ffffffffffffffffffffffffffffffffffffffff1663e985e9c584306040518363ffffffff1660e01b8152600401611d349291906129e9565b60206040518083038186803b158015611d4c57600080fd5b505afa158015611d60573d6000803e3d6000fd5b505050506040513d601f19601f82011682018060405250810190611d8491906124cf565b90508180611d8f5750805b611dce576040517f08c379a0000000000000000000000000000000000000000000000000000000008152600401611dc590612b71565b60405180910390fd5b8573ffffffffffffffffffffffffffffffffffffffff166323b872dd3330886040518463ffffffff1660e01b8152600401611e0b93929190612a12565b600060405180830381600087803b158015611e2557600080fd5b505af1158015611e39573d6000803e3d6000fd5b505050508260056000600354815260200190815260200160002060000160006101000a81548173ffffffffffffffffffffffffffffffffffffffff021916908373ffffffffffffffffffffffffffffffffffffffff1602179055508560056000600354815260200190815260200160002060010160006101000a81548173ffffffffffffffffffffffffffffffffffffffff021916908373ffffffffffffffffffffffffffffffffffffffff1602179055508460056000600354815260200190815260200160002060020181905550600060056000600354815260200190815260200160002060030160006101000a81548160ff02191690836004811115611f6a577f4e487b7100000000000000000000000000000000000000000000000000000000600052602160045260246000fd5b02179055507fd10594784457563b8564c078bb5c8bcc5e6b8e1b08b2d7ef7af261e84e366c1f83600354604051611fa2929190612a8e565b60405180910390a1505050505050565b60045481565b60035481565b600160046000828254611fd19190612eb1565b925050819055506000339050600034905060006005600085815260200190815260200160002090506000841161203c576040517f08c379a000000000000000000000000000000000000000000000000000000000815260040161203390612d91565b60405180910390fd5b60006004811115612076577f4e487b7100000000000000000000000000000000000000000000000000000000600052602160045260246000fd5b8160030160009054906101000a900460ff1660048111156120c0577f4e487b7100000000000000000000000000000000000000000000000000000000600052602160045260246000fd5b14612100576040517f08c379a00000000000000000000000000000000000000000000000000000000081526004016120f790612bd1565b60405180910390fd5b60008211612143576040517f08c379a000000000000000000000000000000000000000000000000000000000815260040161213a90612df1565b60405180910390fd5b8260066000600454815260200190815260200160002060000160006101000a81548173ffffffffffffffffffffffffffffffffffffffff021916908373ffffffffffffffffffffffffffffffffffffffff16021790555081600660006004548152602001908152602001600020600101819055508760ff166006600060045481526020019081526020016000206002018190555086600660006004548152602001908152602001600020600401819055508560066000600454815260200190815260200160002060050160006101000a81548160ff021916908315150217905550846006600060045481526020019081526020016000206003018190555083600760006004548152602001908152602001600020819055507fbc13236afe4f10fc8d44c86b16e9e6695b2758938a2bedf6ceef72157259447b838560045460405161229093929190612ab7565b60405180910390a15050505050505050565b60008085905082156122d6576122d3846122c587896122f590919063ffffffff16565b61230b90919063ffffffff16565b90505b6122e9868861232190919063ffffffff16565b91505095945050505050565b600081836123039190612f07565b905092915050565b600081836123199190612f38565b905092915050565b6000818361232f9190612eb1565b905092915050565b6040518060800160405280600073ffffffffffffffffffffffffffffffffffffffff168152602001600073ffffffffffffffffffffffffffffffffffffffff16815260200160008152602001600060048111156123bd577f4e487b7100000000000000000000000000000000000000000000000000000000600052602160045260246000fd5b81525090565b6000813590506123d2816137ce565b92915050565b6000815190506123e7816137ce565b92915050565b6000813590506123fc816137e5565b92915050565b600081519050612411816137e5565b92915050565b600081359050612426816137fc565b92915050565b60008135905061243b81613813565b92915050565b60006020828403121561245357600080fd5b6000612461848285016123c3565b91505092915050565b60006020828403121561247c57600080fd5b600061248a848285016123d8565b91505092915050565b600080604083850312156124a657600080fd5b60006124b4858286016123c3565b92505060206124c585828601612417565b9150509250929050565b6000602082840312156124e157600080fd5b60006124ef84828501612402565b91505092915050565b60006020828403121561250a57600080fd5b600061251884828501612417565b91505092915050565b600080600080600060a0868803121561253957600080fd5b60006125478882890161242c565b955050602061255888828901612417565b9450506040612569888289016123ed565b935050606061257a88828901612417565b925050608061258b88828901612417565b9150509295509295909350565b60006125a483836125b0565b60208301905092915050565b6125b981612fc6565b82525050565b6125c881612fc6565b82525050565b60006125d982612e77565b6125e38185612e8f565b93506125ee83612e67565b8060005b8381101561261f5781516126068882612598565b975061261183612e82565b9250506001810190506125f2565b5085935050505092915050565b61263581612fd8565b82525050565b6126448161302e565b82525050565b6126538161302e565b82525050565b6000612666602f83612ea0565b915061267182613116565b604082019050919050565b6000612689602c83612ea0565b915061269482613165565b604082019050919050565b60006126ac603183612ea0565b91506126b7826131b4565b604082019050919050565b60006126cf602183612ea0565b91506126da82613203565b604082019050919050565b60006126f2603c83612ea0565b91506126fd82613252565b604082019050919050565b6000612715601e83612ea0565b9150612720826132a1565b602082019050919050565b6000612738603083612ea0565b9150612743826132ca565b604082019050919050565b600061275b603183612ea0565b915061276682613319565b604082019050919050565b600061277e602683612ea0565b915061278982613368565b604082019050919050565b60006127a1602483612ea0565b91506127ac826133b7565b604082019050919050565b60006127c4603083612ea0565b91506127cf82613406565b604082019050919050565b60006127e7603483612ea0565b91506127f282613455565b604082019050919050565b600061280a603383612ea0565b9150612815826134a4565b604082019050919050565b600061282d603083612ea0565b9150612838826134f3565b604082019050919050565b6000612850603583612ea0565b915061285b82613542565b604082019050919050565b6000612873603483612ea0565b915061287e82613591565b604082019050919050565b6000612896603a83612ea0565b91506128a1826135e0565b604082019050919050565b60006128b9602183612ea0565b91506128c48261362f565b604082019050919050565b60006128dc602883612ea0565b91506128e78261367e565b604082019050919050565b60006128ff603a83612ea0565b915061290a826136cd565b604082019050919050565b6000612922603283612ea0565b915061292d8261371c565b604082019050919050565b6000612945602b83612ea0565b91506129508261376b565b604082019050919050565b60808201600082015161297160008501826125b0565b50602082015161298460208501826125b0565b50604082015161299760408501826129b0565b5060608201516129aa606085018261263b565b50505050565b6129b981613017565b82525050565b6129c881613017565b82525050565b60006020820190506129e360008301846125bf565b92915050565b60006040820190506129fe60008301856125bf565b612a0b60208301846125bf565b9392505050565b6000606082019050612a2760008301866125bf565b612a3460208301856125bf565b612a4160408301846129bf565b949350505050565b6000608082019050612a5e60008301876125bf565b612a6b60208301866125bf565b612a7860408301856129bf565b612a85606083018461264a565b95945050505050565b6000604082019050612aa360008301856125bf565b612ab060208301846129bf565b9392505050565b6000606082019050612acc60008301866125bf565b612ad960208301856129bf565b612ae660408301846129bf565b949350505050565b600060c082019050612b0360008301896125bf565b612b1060208301886129bf565b612b1d60408301876129bf565b612b2a60608301866129bf565b612b3760808301856129bf565b612b4460a083018461262c565b979650505050505050565b60006020820190508181036000830152612b6981846125ce565b905092915050565b60006020820190508181036000830152612b8a81612659565b9050919050565b60006020820190508181036000830152612baa8161267c565b9050919050565b60006020820190508181036000830152612bca8161269f565b9050919050565b60006020820190508181036000830152612bea816126c2565b9050919050565b60006020820190508181036000830152612c0a816126e5565b9050919050565b60006020820190508181036000830152612c2a81612708565b9050919050565b60006020820190508181036000830152612c4a8161272b565b9050919050565b60006020820190508181036000830152612c6a8161274e565b9050919050565b60006020820190508181036000830152612c8a81612771565b9050919050565b60006020820190508181036000830152612caa81612794565b9050919050565b60006020820190508181036000830152612cca816127b7565b9050919050565b60006020820190508181036000830152612cea816127da565b9050919050565b60006020820190508181036000830152612d0a816127fd565b9050919050565b60006020820190508181036000830152612d2a81612820565b9050919050565b60006020820190508181036000830152612d4a81612843565b9050919050565b60006020820190508181036000830152612d6a81612866565b9050919050565b60006020820190508181036000830152612d8a81612889565b9050919050565b60006020820190508181036000830152612daa816128ac565b9050919050565b60006020820190508181036000830152612dca816128cf565b9050919050565b60006020820190508181036000830152612dea816128f2565b9050919050565b60006020820190508181036000830152612e0a81612915565b9050919050565b60006020820190508181036000830152612e2a81612938565b9050919050565b6000608082019050612e46600083018461295b565b92915050565b6000602082019050612e6160008301846129bf565b92915050565b6000819050602082019050919050565b600081519050919050565b6000602082019050919050565b600082825260208201905092915050565b600082825260208201905092915050565b6000612ebc82613017565b9150612ec783613017565b9250827fffffffffffffffffffffffffffffffffffffffffffffffffffffffffffffffff03821115612efc57612efb613089565b5b828201905092915050565b6000612f1282613017565b9150612f1d83613017565b925082612f2d57612f2c6130b8565b5b828204905092915050565b6000612f4382613017565b9150612f4e83613017565b9250817fffffffffffffffffffffffffffffffffffffffffffffffffffffffffffffffff0483118215151615612f8757612f86613089565b5b828202905092915050565b6000612f9d82613017565b9150612fa883613017565b925082821015612fbb57612fba613089565b5b828203905092915050565b6000612fd182612ff7565b9050919050565b60008115159050919050565b6000819050612ff2826137ba565b919050565b600073ffffffffffffffffffffffffffffffffffffffff82169050919050565b6000819050919050565b600060ff82169050919050565b600061303982612fe4565b9050919050565b600061304b82613017565b91507fffffffffffffffffffffffffffffffffffffffffffffffffffffffffffffffff82141561307e5761307d613089565b5b600182019050919050565b7f4e487b7100000000000000000000000000000000000000000000000000000000600052601160045260246000fd5b7f4e487b7100000000000000000000000000000000000000000000000000000000600052601260045260246000fd5b7f4e487b7100000000000000000000000000000000000000000000000000000000600052602160045260246000fd5b7f5061776e696e6753686f703a20686176656e277420676f74207065726d69737360008201527f696f6e20746f207472616e736665720000000000000000000000000000000000602082015250565b7f5061776e696e6753686f703a206f6e6c792063726561746f722063616e20636160008201527f6e63656c20746865206269640000000000000000000000000000000000000000602082015250565b7f5061776e696e6753686f703a204f6e6c79206f776e6572206f6620746865207060008201527f61776e2063616e2063616e63656c206974000000000000000000000000000000602082015250565b7f5061776e696e6753686f703a2063616e6e6f742062696420746869732070617760008201527f6e00000000000000000000000000000000000000000000000000000000000000602082015250565b7f5061776e696e6753686f703a20736d61727420636f6e7472616374206164647260008201527f657373206d75737420626520646966666572656e742077697468203000000000602082015250565b7f5061776e696e6753686f703a20746f206c61746520746f207265706169640000600082015250565b7f5061776e696e6753686f703a20736d61727420636f6e7472616374206973206e60008201527f6f7420696e207768697465206c69737400000000000000000000000000000000602082015250565b7f5061776e696e6753686f703a207468697320626964206973206e6f742061636360008201527f657074656420627920626f72726f776572000000000000000000000000000000602082015250565b7f5061776e696e6753686f703a207061792065786163746c79207265706169642060008201527f616d6f756e740000000000000000000000000000000000000000000000000000602082015250565b7f5061776e696e6753686f703a20546865207061776e206973206e6f742065786960008201527f7374656400000000000000000000000000000000000000000000000000000000602082015250565b7f5061776e696e6753686f703a206f6e6c792063726561746f72206f662070617760008201527f6e2063616e206163636570742062696400000000000000000000000000000000602082015250565b7f5061776e696e6753686f703a204f6e6c792063616e2063616e63656c2077686560008201527f6e206e6f20626964206973206163636570746564000000000000000000000000602082015250565b7f5061776e696e6753686f703a2054686973207061776e20646f656e277420686160008201527f766520616e792061636365707465642062696400000000000000000000000000602082015250565b7f5061776e696e6753686f703a20796f757220626964206973206163636570746560008201527f642c2063616e6e6f742063616e63656c00000000000000000000000000000000602082015250565b7f5061776e696e6753686f703a204f6e6c79206f776e65722063616e206164642060008201527f6164647265737320746f207768697465206c6973740000000000000000000000602082015250565b7f5061776e696e6753686f703a206f6e6c792063726561746f72206f662062696460008201527f2063616e206c697175696461746520746f6b656e000000000000000000000000602082015250565b7f5061776e696e6753686f703a204f6e6c792063616e2063616e63656c2077686560008201527f6e2069742068617320737461747573206f662043524541544544000000000000602082015250565b7f5061776e696e6753686f703a207061776e206964206973206e6f742076616c6960008201527f6400000000000000000000000000000000000000000000000000000000000000602082015250565b7f5061776e696e6753686f703a204e6f742076616c69642074696d6520746f206c60008201527f6971756964617465000000000000000000000000000000000000000000000000602082015250565b7f5061776e696e6753686f703a204f6e6c79206f776e65722063616e2072656d6f60008201527f766520616464726573732066726f6d207768697465206c697374000000000000602082015250565b7f5061776e696e6753686f703a20616d6f756e74206f66206d6f6e6579206d757360008201527f7420626520626967676572207468616e20300000000000000000000000000000602082015250565b7f5061776e696e6753686f703a204f6e6c792063726561746f72206f662070617760008201527f6e2063616e207265706179000000000000000000000000000000000000000000602082015250565b600581106137cb576137ca6130e7565b5b50565b6137d781612fc6565b81146137e257600080fd5b50565b6137ee81612fd8565b81146137f957600080fd5b50565b61380581613017565b811461381057600080fd5b50565b61381c81613021565b811461382757600080fd5b5056fea2646970667358221220e64be00d3ecd15ee2cd2dcd27f4dedc38e00ba8efe4a64c64a85361b30ef683d64736f6c63430008040033",
  "immutableReferences": {},
  "source": "pragma solidity ^0.8.4;\r\n\r\n// import \"@openzeppelin/contracts/utils/math/SafeMath.sol\";\r\nlibrary SafeMath {\r\n    /**\r\n     * @dev Returns the addition of two unsigned integers, with an overflow flag.\r\n     *\r\n     * _Available since v3.4._\r\n     */\r\n    function tryAdd(uint256 a, uint256 b) internal pure returns (bool, uint256) {\r\n        unchecked {\r\n            uint256 c = a + b;\r\n            if (c < a) return (false, 0);\r\n            return (true, c);\r\n        }\r\n    }\r\n\r\n    /**\r\n     * @dev Returns the substraction of two unsigned integers, with an overflow flag.\r\n     *\r\n     * _Available since v3.4._\r\n     */\r\n    function trySub(uint256 a, uint256 b) internal pure returns (bool, uint256) {\r\n        unchecked {\r\n            if (b > a) return (false, 0);\r\n            return (true, a - b);\r\n        }\r\n    }\r\n\r\n    /**\r\n     * @dev Returns the multiplication of two unsigned integers, with an overflow flag.\r\n     *\r\n     * _Available since v3.4._\r\n     */\r\n    function tryMul(uint256 a, uint256 b) internal pure returns (bool, uint256) {\r\n        unchecked {\r\n            // Gas optimization: this is cheaper than requiring 'a' not being zero, but the\r\n            // benefit is lost if 'b' is also tested.\r\n            // See: https://github.com/OpenZeppelin/openzeppelin-contracts/pull/522\r\n            if (a == 0) return (true, 0);\r\n            uint256 c = a * b;\r\n            if (c / a != b) return (false, 0);\r\n            return (true, c);\r\n        }\r\n    }\r\n\r\n    /**\r\n     * @dev Returns the division of two unsigned integers, with a division by zero flag.\r\n     *\r\n     * _Available since v3.4._\r\n     */\r\n    function tryDiv(uint256 a, uint256 b) internal pure returns (bool, uint256) {\r\n        unchecked {\r\n            if (b == 0) return (false, 0);\r\n            return (true, a / b);\r\n        }\r\n    }\r\n\r\n    /**\r\n     * @dev Returns the remainder of dividing two unsigned integers, with a division by zero flag.\r\n     *\r\n     * _Available since v3.4._\r\n     */\r\n    function tryMod(uint256 a, uint256 b) internal pure returns (bool, uint256) {\r\n        unchecked {\r\n            if (b == 0) return (false, 0);\r\n            return (true, a % b);\r\n        }\r\n    }\r\n\r\n    /**\r\n     * @dev Returns the addition of two unsigned integers, reverting on\r\n     * overflow.\r\n     *\r\n     * Counterpart to Solidity's `+` operator.\r\n     *\r\n     * Requirements:\r\n     *\r\n     * - Addition cannot overflow.\r\n     */\r\n    function add(uint256 a, uint256 b) internal pure returns (uint256) {\r\n        return a + b;\r\n    }\r\n\r\n    /**\r\n     * @dev Returns the subtraction of two unsigned integers, reverting on\r\n     * overflow (when the result is negative).\r\n     *\r\n     * Counterpart to Solidity's `-` operator.\r\n     *\r\n     * Requirements:\r\n     *\r\n     * - Subtraction cannot overflow.\r\n     */\r\n    function sub(uint256 a, uint256 b) internal pure returns (uint256) {\r\n        return a - b;\r\n    }\r\n\r\n    /**\r\n     * @dev Returns the multiplication of two unsigned integers, reverting on\r\n     * overflow.\r\n     *\r\n     * Counterpart to Solidity's `*` operator.\r\n     *\r\n     * Requirements:\r\n     *\r\n     * - Multiplication cannot overflow.\r\n     */\r\n    function mul(uint256 a, uint256 b) internal pure returns (uint256) {\r\n        return a * b;\r\n    }\r\n\r\n    /**\r\n     * @dev Returns the integer division of two unsigned integers, reverting on\r\n     * division by zero. The result is rounded towards zero.\r\n     *\r\n     * Counterpart to Solidity's `/` operator.\r\n     *\r\n     * Requirements:\r\n     *\r\n     * - The divisor cannot be zero.\r\n     */\r\n    function div(uint256 a, uint256 b) internal pure returns (uint256) {\r\n        return a / b;\r\n    }\r\n\r\n    /**\r\n     * @dev Returns the remainder of dividing two unsigned integers. (unsigned integer modulo),\r\n     * reverting when dividing by zero.\r\n     *\r\n     * Counterpart to Solidity's `%` operator. This function uses a `revert`\r\n     * opcode (which leaves remaining gas untouched) while Solidity uses an\r\n     * invalid opcode to revert (consuming all remaining gas).\r\n     *\r\n     * Requirements:\r\n     *\r\n     * - The divisor cannot be zero.\r\n     */\r\n    function mod(uint256 a, uint256 b) internal pure returns (uint256) {\r\n        return a % b;\r\n    }\r\n\r\n    /**\r\n     * @dev Returns the subtraction of two unsigned integers, reverting with custom message on\r\n     * overflow (when the result is negative).\r\n     *\r\n     * CAUTION: This function is deprecated because it requires allocating memory for the error\r\n     * message unnecessarily. For custom revert reasons use {trySub}.\r\n     *\r\n     * Counterpart to Solidity's `-` operator.\r\n     *\r\n     * Requirements:\r\n     *\r\n     * - Subtraction cannot overflow.\r\n     */\r\n    function sub(\r\n        uint256 a,\r\n        uint256 b,\r\n        string memory errorMessage\r\n    ) internal pure returns (uint256) {\r\n        unchecked {\r\n            require(b <= a, errorMessage);\r\n            return a - b;\r\n        }\r\n    }\r\n\r\n    /**\r\n     * @dev Returns the integer division of two unsigned integers, reverting with custom message on\r\n     * division by zero. The result is rounded towards zero.\r\n     *\r\n     * Counterpart to Solidity's `/` operator. Note: this function uses a\r\n     * `revert` opcode (which leaves remaining gas untouched) while Solidity\r\n     * uses an invalid opcode to revert (consuming all remaining gas).\r\n     *\r\n     * Requirements:\r\n     *\r\n     * - The divisor cannot be zero.\r\n     */\r\n    function div(\r\n        uint256 a,\r\n        uint256 b,\r\n        string memory errorMessage\r\n    ) internal pure returns (uint256) {\r\n        unchecked {\r\n            require(b > 0, errorMessage);\r\n            return a / b;\r\n        }\r\n    }\r\n\r\n    /**\r\n     * @dev Returns the remainder of dividing two unsigned integers. (unsigned integer modulo),\r\n     * reverting with custom message when dividing by zero.\r\n     *\r\n     * CAUTION: This function is deprecated because it requires allocating memory for the error\r\n     * message unnecessarily. For custom revert reasons use {tryMod}.\r\n     *\r\n     * Counterpart to Solidity's `%` operator. This function uses a `revert`\r\n     * opcode (which leaves remaining gas untouched) while Solidity uses an\r\n     * invalid opcode to revert (consuming all remaining gas).\r\n     *\r\n     * Requirements:\r\n     *\r\n     * - The divisor cannot be zero.\r\n     */\r\n    function mod(\r\n        uint256 a,\r\n        uint256 b,\r\n        string memory errorMessage\r\n    ) internal pure returns (uint256) {\r\n        unchecked {\r\n            require(b > 0, errorMessage);\r\n            return a % b;\r\n        }\r\n    }\r\n}\r\n\r\n\r\ninterface IERC165 {\r\n    /**\r\n     * @dev Returns true if this contract implements the interface defined by\r\n     * `interfaceId`. See the corresponding\r\n     * https://eips.ethereum.org/EIPS/eip-165#how-interfaces-are-identified[EIP section]\r\n     * to learn more about how these ids are created.\r\n     *\r\n     * This function call must use less than 30 000 gas.\r\n     */\r\n    function supportsInterface(bytes4 interfaceId) external view returns (bool);\r\n}\r\n\r\n\r\ninterface IERC721 is IERC165 {\r\n    /**\r\n     * @dev Emitted when `tokenId` token is transferred from `from` to `to`.\r\n     */\r\n    event Transfer(address indexed from, address indexed to, uint256 indexed tokenId);\r\n\r\n    /**\r\n     * @dev Emitted when `owner` enables `approved` to manage the `tokenId` token.\r\n     */\r\n    event Approval(address indexed owner, address indexed approved, uint256 indexed tokenId);\r\n\r\n    /**\r\n     * @dev Emitted when `owner` enables or disables (`approved`) `operator` to manage all of its assets.\r\n     */\r\n    event ApprovalForAll(address indexed owner, address indexed operator, bool approved);\r\n\r\n    /**\r\n     * @dev Returns the number of tokens in ``owner``'s account.\r\n     */\r\n    function balanceOf(address owner) external view returns (uint256 balance);\r\n\r\n    /**\r\n     * @dev Returns the owner of the `tokenId` token.\r\n     *\r\n     * Requirements:\r\n     *\r\n     * - `tokenId` must exist.\r\n     */\r\n    function ownerOf(uint256 tokenId) external view returns (address owner);\r\n\r\n    /**\r\n     * @dev Safely transfers `tokenId` token from `from` to `to`, checking first that contract recipients\r\n     * are aware of the ERC721 protocol to prevent tokens from being forever locked.\r\n     *\r\n     * Requirements:\r\n     *\r\n     * - `from` cannot be the zero address.\r\n     * - `to` cannot be the zero address.\r\n     * - `tokenId` token must exist and be owned by `from`.\r\n     * - If the caller is not `from`, it must be have been allowed to move this token by either {approve} or {setApprovalForAll}.\r\n     * - If `to` refers to a smart contract, it must implement {IERC721Receiver-onERC721Received}, which is called upon a safe transfer.\r\n     *\r\n     * Emits a {Transfer} event.\r\n     */\r\n    function safeTransferFrom(\r\n        address from,\r\n        address to,\r\n        uint256 tokenId\r\n    ) external;\r\n\r\n    /**\r\n     * @dev Transfers `tokenId` token from `from` to `to`.\r\n     *\r\n     * WARNING: Usage of this method is discouraged, use {safeTransferFrom} whenever possible.\r\n     *\r\n     * Requirements:\r\n     *\r\n     * - `from` cannot be the zero address.\r\n     * - `to` cannot be the zero address.\r\n     * - `tokenId` token must be owned by `from`.\r\n     * - If the caller is not `from`, it must be approved to move this token by either {approve} or {setApprovalForAll}.\r\n     *\r\n     * Emits a {Transfer} event.\r\n     */\r\n    function transferFrom(\r\n        address from,\r\n        address to,\r\n        uint256 tokenId\r\n    ) external;\r\n\r\n    /**\r\n     * @dev Gives permission to `to` to transfer `tokenId` token to another account.\r\n     * The approval is cleared when the token is transferred.\r\n     *\r\n     * Only a single account can be approved at a time, so approving the zero address clears previous approvals.\r\n     *\r\n     * Requirements:\r\n     *\r\n     * - The caller must own the token or be an approved operator.\r\n     * - `tokenId` must exist.\r\n     *\r\n     * Emits an {Approval} event.\r\n     */\r\n    function approve(address to, uint256 tokenId) external;\r\n\r\n    /**\r\n     * @dev Returns the account approved for `tokenId` token.\r\n     *\r\n     * Requirements:\r\n     *\r\n     * - `tokenId` must exist.\r\n     */\r\n    function getApproved(uint256 tokenId) external view returns (address operator);\r\n\r\n    /**\r\n     * @dev Approve or remove `operator` as an operator for the caller.\r\n     * Operators can call {transferFrom} or {safeTransferFrom} for any token owned by the caller.\r\n     *\r\n     * Requirements:\r\n     *\r\n     * - The `operator` cannot be the caller.\r\n     *\r\n     * Emits an {ApprovalForAll} event.\r\n     */\r\n    function setApprovalForAll(address operator, bool _approved) external;\r\n\r\n    /**\r\n     * @dev Returns if the `operator` is allowed to manage all of the assets of `owner`.\r\n     *\r\n     * See {setApprovalForAll}\r\n     */\r\n    function isApprovedForAll(address owner, address operator) external view returns (bool);\r\n\r\n    /**\r\n     * @dev Safely transfers `tokenId` token from `from` to `to`.\r\n     *\r\n     * Requirements:\r\n     *\r\n     * - `from` cannot be the zero address.\r\n     * - `to` cannot be the zero address.\r\n     * - `tokenId` token must exist and be owned by `from`.\r\n     * - If the caller is not `from`, it must be approved to move this token by either {approve} or {setApprovalForAll}.\r\n     * - If `to` refers to a smart contract, it must implement {IERC721Receiver-onERC721Received}, which is called upon a safe transfer.\r\n     *\r\n     * Emits a {Transfer} event.\r\n     */\r\n    function safeTransferFrom(\r\n        address from,\r\n        address to,\r\n        uint256 tokenId,\r\n        bytes calldata data\r\n    ) external;\r\n}\r\n\r\ncontract PawningShop {\r\n\r\n    using SafeMath for uint256;\r\n    using SafeMath for uint8;\r\n\r\n    enum PawnStatus {\r\n        CREATED,\r\n        CANCELLED,\r\n        DEAL,\r\n        LIQUIDATED,\r\n        REPAID\r\n    }\r\n    struct Pawn {\r\n        // who borrows money\r\n        address creator;\r\n        address contractAddress;\r\n        uint256 tokenId;\r\n        PawnStatus status;\r\n    }\r\n    struct Bid {\r\n        address creator;\r\n        uint256 loanAmount;\r\n        // the amount of wei borrower have to pay more\r\n        uint256 interest;\r\n        uint256 loanStartTime;\r\n        uint256 loanDuration;\r\n        bool isInterestProRated;\r\n    }\r\n    address public owner;\r\n    address[] public _whiteListNFT;\r\n    uint256 public _feeRate;\r\n    uint256 public _totalNumberOfPawn = 0;\r\n    uint256 public _totalNumberOfBid = 0;\r\n    // mapping nft address -> token id -> pawn\r\n    mapping(uint256 => Pawn) public _pawns;\r\n    // mapping bid id => bid\r\n    mapping(uint256 => Bid) public _bids;\r\n    // mapping bid id to pawn id\r\n    mapping(uint256 => uint256) public _bidToPawn;\r\n    mapping(uint256 => uint256) public _pawnToBid;\r\n\r\n    constructor() {\r\n        owner = msg.sender;\r\n    }\r\n\r\n    event PawnCreated(address pawner, uint256 pawnId);\r\n    event PawnCancelled(address pawner, uint256 pawnId);\r\n    event PawnDeal(address pawner, address lender, uint256 pawnId);\r\n    event PawnRepaid(address pawner, address lender, uint256 pawnId);\r\n    event PawnLiquidated(address pawner, address lender, uint256 pawnId);\r\n    event BidCreated(address creator, uint256 pawnId, uint256 bidId);\r\n    event BidCancelled(address creator, uint256 pawnId, uint256 bidId);\r\n    event WhiteListAdded(address smartContract);\r\n    event WhiteListRemoved(address smartContract);\r\n\r\n    function getPawnById(uint256 id) public view returns(Pawn memory) {\r\n        return _pawns[id];\r\n    }\r\n\r\n    function createPawn(address tokenAddress, uint256 tokenId) public {\r\n        _totalNumberOfPawn += 1;\r\n        bool isInWhiteList = false;\r\n        for (uint256 i = 0; i < _whiteListNFT.length; i++) {\r\n            if (tokenAddress == _whiteListNFT[i]) {\r\n                isInWhiteList = true;\r\n            }\r\n        }\r\n        address sender = msg.sender;\r\n        require(\r\n            isInWhiteList == true,\r\n            \"PawningShop: smart contract is not in white list\"\r\n        );\r\n        bool isApproved = IERC721(tokenAddress).getApproved(tokenId) ==\r\n            address(this);\r\n        bool isApprovedForAll = IERC721(tokenAddress).isApprovedForAll(\r\n            sender,\r\n            address(this)\r\n        );\r\n        require(\r\n            isApproved || isApprovedForAll,\r\n            \"PawningShop: haven't got permission to transfer\"\r\n        );\r\n\r\n        IERC721(tokenAddress).transferFrom(msg.sender, address(this), tokenId);\r\n\r\n        _pawns[_totalNumberOfPawn].creator = sender;\r\n        _pawns[_totalNumberOfPawn].contractAddress = tokenAddress;\r\n        _pawns[_totalNumberOfPawn].tokenId = tokenId;\r\n        _pawns[_totalNumberOfPawn].status = PawnStatus.CREATED;\r\n        emit PawnCreated(sender, _totalNumberOfPawn);\r\n    }\r\n\r\n    function cancelPawn(uint256 pawnId) public {\r\n        Pawn storage pawn = _pawns[pawnId];\r\n        address creator = pawn.creator;\r\n        require(\r\n            pawn.status == PawnStatus.CREATED,\r\n            \"PawningShop: Only can cancel when it has status of CREATED\"\r\n        );\r\n        require(\r\n            msg.sender == creator,\r\n            \"PawningShop: Only owner of the pawn can cancel it\"\r\n        );\r\n        require(\r\n            _pawnToBid[pawnId] == 0,\r\n            \"PawningShop: Only can cancel when no bid is accepted\"\r\n        );\r\n        pawn.status = PawnStatus.CANCELLED;\r\n        IERC721(pawn.contractAddress).transferFrom(address(this), creator, pawn.tokenId);\r\n        emit PawnCancelled(owner, pawnId);\r\n    }\r\n\r\n    function createBid(\r\n        uint8 rate,\r\n        uint256 duration,\r\n        bool isInterestProRated,\r\n        uint256 loanStartTime,\r\n        uint256 pawnId\r\n    ) public payable {\r\n        _totalNumberOfBid += 1;\r\n        address creator = msg.sender;\r\n        uint256 amount = msg.value;\r\n        Pawn storage pawn = _pawns[pawnId];\r\n        require(pawnId > 0, \"PawningShop: pawn id is not valid\");\r\n        require(\r\n            pawn.status == PawnStatus.CREATED,\r\n            \"PawningShop: cannot bid this pawn\"\r\n        );\r\n        require(\r\n            amount > 0,\r\n            \"PawningShop: amount of money must be bigger than 0\"\r\n        );\r\n\r\n        _bids[_totalNumberOfBid].creator = creator;\r\n        _bids[_totalNumberOfBid].loanAmount = amount;\r\n        _bids[_totalNumberOfBid].interest = rate;\r\n        _bids[_totalNumberOfBid].loanDuration = duration;\r\n        _bids[_totalNumberOfBid].isInterestProRated = isInterestProRated;\r\n        _bids[_totalNumberOfBid].loanStartTime = loanStartTime;\r\n\r\n        _bidToPawn[_totalNumberOfBid] = pawnId;\r\n        emit BidCreated(creator, pawnId, _totalNumberOfBid);\r\n    }\r\n\r\n    function cancelBid(uint256 bidId) public {\r\n        Bid memory currBid = _bids[bidId];\r\n        address sender = msg.sender;\r\n        require(\r\n            sender == currBid.creator,\r\n            \"PawningShop: only creator can cancel the bid\"\r\n        );\r\n        uint256 pawnId = _bidToPawn[bidId];\r\n        require(_pawnToBid[pawnId] != bidId, \"PawningShop: your bid is accepted, cannot cancel\");\r\n        address payable lender = payable(currBid.creator);\r\n        lender.transfer(currBid.loanAmount);\r\n        delete _bids[bidId];\r\n        delete _bidToPawn[bidId];\r\n        emit BidCancelled(sender, pawnId, bidId);\r\n    }\r\n\r\n    function acceptBid(uint256 bidId) public {\r\n        Bid storage currBid = _bids[bidId];\r\n        uint256 pawnId = _bidToPawn[bidId];\r\n        require(pawnId > 0, \"PawningShop: The pawn is not existed\");\r\n        Pawn storage pawn = _pawns[pawnId];\r\n        require(pawn.creator == msg.sender, \"PawningShop: only creator of pawn can accept bid\");\r\n        IERC721(pawn.contractAddress).transferFrom(pawn.creator, address(this), pawn.tokenId);\r\n        address payable borrower = payable(pawn.creator);\r\n        borrower.transfer(currBid.loanAmount);\r\n        pawn.status = PawnStatus.DEAL;\r\n        _pawnToBid[pawnId] = bidId;\r\n        pawn.status = PawnStatus.DEAL;\r\n        currBid.loanStartTime = block.timestamp;\r\n    }\r\n\r\n    function repaid(uint256 pawnId) public payable {\r\n        Pawn storage currPawn = _pawns[pawnId];\r\n        require(\r\n            currPawn.creator == msg.sender,\r\n            \"PawningShop: Only creator of pawn can repay\"\r\n        );\r\n        uint256 bidId = _pawnToBid[pawnId];\r\n        require(\r\n            bidId != 0,\r\n            \"PawningShop: This pawn doen't have any accepted bid\"\r\n        );\r\n        Bid storage currBid = _bids[bidId];\r\n        require(block.timestamp <= currBid.loanStartTime + currBid.loanDuration, \"PawningShop: to late to repaid\");\r\n        uint256 value = msg.value;\r\n        uint256 elapsedDuration = block.timestamp - currBid.loanStartTime;\r\n        uint256 repaidAmount = _calculateRepaidAmount(currBid.loanAmount, currBid.interest, currBid.loanDuration, elapsedDuration, currBid.isInterestProRated);\r\n        require(value == repaidAmount, \"PawningShop: pay exactly repaid amount\");\r\n        // transfer token back to borrower\r\n        IERC721(currPawn.contractAddress).transferFrom(address(this), currPawn.creator, currPawn.tokenId);\r\n        // transfer money to lender\r\n        address payable lender = payable(currBid.creator);\r\n        lender.transfer(value);\r\n        delete _pawnToBid[pawnId];\r\n        delete _bidToPawn[bidId];\r\n    }\r\n\r\n    function _calculateRepaidAmount(uint256 original, uint256 interest, uint256 totalDuration, uint256 elapsedDuration, bool isInterestProRated) internal pure returns (uint256) {\r\n        uint256 interestDue = interest;\r\n        if (isInterestProRated) {\r\n            interestDue = (interest.div(totalDuration)).mul(elapsedDuration);\r\n        }\r\n        return original.add(interest);\r\n    }\r\n\r\n    function liquidate(uint256 bidId) public {\r\n        Bid storage currBid = _bids[bidId];\r\n        require(currBid.creator == msg.sender, \"PawningShop: only creator of bid can liquidate token\");\r\n        require(block.timestamp > currBid.loanStartTime + currBid.loanAmount, \"PawningShop: Not valid time to liquidate\");\r\n        uint256 pawnId = _bidToPawn[bidId];\r\n        require(_pawnToBid[pawnId] == bidId, \"PawningShop: this bid is not accepted by borrower\");\r\n        Pawn storage currPawn = _pawns[pawnId];\r\n        IERC721(currPawn.contractAddress).transferFrom(address(this), currBid.creator, currPawn.tokenId);\r\n    }\r\n\r\n    function addToWhiteList(address smartContract) public {\r\n        require(msg.sender == owner, \"PawningShop: Only owner can add address to white list\");\r\n        require(smartContract != address(0), \"PawningShop: smart contract address must be different with 0\");\r\n        uint256 i = 0;\r\n        for (i = 0; i < _whiteListNFT.length; i++) {\r\n            if (_whiteListNFT[i] == smartContract) {\r\n                return;\r\n            }\r\n        }\r\n        _whiteListNFT.push(smartContract);\r\n        emit WhiteListAdded(smartContract);\r\n    }\r\n\r\n    function removeFromWhiteList(address smartContract) public {\r\n        require(msg.sender == owner, \"PawningShop: Only owner can remove address from white list\");\r\n        uint256 i;\r\n        for (i = 0; i < _whiteListNFT.length; i++) {\r\n            if (_whiteListNFT[i] == smartContract) {\r\n                break;\r\n            }\r\n        }\r\n        delete _whiteListNFT[i];\r\n        emit WhiteListRemoved(smartContract);\r\n    }\r\n\r\n    function getWhiteList() public view returns(address[] memory) {\r\n        return _whiteListNFT;\r\n    }\r\n}\r\n",
  "sourcePath": "E:/Documents/OneDrive/Documents/solidity/nft-pawning-shop/solidity/contracts/PawningShop.sol",
  "compiler": {
    "name": "solc",
    "version": "0.8.4+commit.c7e474f2.Emscripten.clang"
  },
  "schemaVersion": "3.4.1",
  "updatedAt": "2021-08-29T02:57:16.906Z",
  "networkType": "ethereum",
  "devdoc": {
    "kind": "dev",
    "methods": {},
    "version": 1
  },
  "userdoc": {
    "kind": "user",
    "methods": {},
    "version": 1
  }
}