{
  "contractName": "PawningShop",
  "abi": [
    {
      "inputs": [],
      "stateMutability": "nonpayable",
      "type": "constructor"
    },
    {
      "anonymous": false,
      "inputs": [
        {
          "indexed": false,
          "internalType": "address",
          "name": "creator",
          "type": "address"
        },
        {
          "indexed": false,
          "internalType": "uint256",
          "name": "pawnId",
          "type": "uint256"
        }
      ],
      "name": "BidCancelled",
      "type": "event"
    },
    {
      "anonymous": false,
      "inputs": [
        {
          "indexed": false,
          "internalType": "address",
          "name": "creator",
          "type": "address"
        },
        {
          "indexed": false,
          "internalType": "uint256",
          "name": "pawnId",
          "type": "uint256"
        }
      ],
      "name": "BidCreated",
      "type": "event"
    },
    {
      "anonymous": false,
      "inputs": [
        {
          "indexed": false,
          "internalType": "address",
          "name": "pawner",
          "type": "address"
        },
        {
          "indexed": false,
          "internalType": "uint256",
          "name": "pawnId",
          "type": "uint256"
        }
      ],
      "name": "PawnCancelled",
      "type": "event"
    },
    {
      "anonymous": false,
      "inputs": [
        {
          "indexed": false,
          "internalType": "address",
          "name": "pawner",
          "type": "address"
        },
        {
          "indexed": false,
          "internalType": "uint256",
          "name": "pawnId",
          "type": "uint256"
        }
      ],
      "name": "PawnCreated",
      "type": "event"
    },
    {
      "anonymous": false,
      "inputs": [
        {
          "indexed": false,
          "internalType": "address",
          "name": "pawner",
          "type": "address"
        },
        {
          "indexed": false,
          "internalType": "address",
          "name": "lender",
          "type": "address"
        },
        {
          "indexed": false,
          "internalType": "uint256",
          "name": "id",
          "type": "uint256"
        }
      ],
      "name": "PawnDeal",
      "type": "event"
    },
    {
      "anonymous": false,
      "inputs": [
        {
          "indexed": false,
          "internalType": "address",
          "name": "pawner",
          "type": "address"
        },
        {
          "indexed": false,
          "internalType": "address",
          "name": "lender",
          "type": "address"
        },
        {
          "indexed": false,
          "internalType": "uint256",
          "name": "id",
          "type": "uint256"
        }
      ],
      "name": "PawnLiquidated",
      "type": "event"
    },
    {
      "anonymous": false,
      "inputs": [
        {
          "indexed": false,
          "internalType": "address",
          "name": "pawner",
          "type": "address"
        },
        {
          "indexed": false,
          "internalType": "address",
          "name": "lender",
          "type": "address"
        },
        {
          "indexed": false,
          "internalType": "uint256",
          "name": "id",
          "type": "uint256"
        }
      ],
      "name": "PawnRepaid",
      "type": "event"
    },
    {
      "inputs": [
        {
          "internalType": "uint256",
          "name": "",
          "type": "uint256"
        }
      ],
      "name": "_bidToPawn",
      "outputs": [
        {
          "internalType": "uint256",
          "name": "",
          "type": "uint256"
        }
      ],
      "stateMutability": "view",
      "type": "function",
      "constant": true
    },
    {
      "inputs": [],
      "name": "_feeRate",
      "outputs": [
        {
          "internalType": "uint256",
          "name": "",
          "type": "uint256"
        }
      ],
      "stateMutability": "view",
      "type": "function",
      "constant": true
    },
    {
      "inputs": [
        {
          "internalType": "uint256",
          "name": "",
          "type": "uint256"
        }
      ],
      "name": "_pawnToBid",
      "outputs": [
        {
          "internalType": "uint256",
          "name": "",
          "type": "uint256"
        }
      ],
      "stateMutability": "view",
      "type": "function",
      "constant": true
    },
    {
      "inputs": [],
      "name": "_totalNumberOfBid",
      "outputs": [
        {
          "internalType": "uint256",
          "name": "",
          "type": "uint256"
        }
      ],
      "stateMutability": "view",
      "type": "function",
      "constant": true
    },
    {
      "inputs": [],
      "name": "_totalNumberOfPawn",
      "outputs": [
        {
          "internalType": "uint256",
          "name": "",
          "type": "uint256"
        }
      ],
      "stateMutability": "view",
      "type": "function",
      "constant": true
    },
    {
      "inputs": [
        {
          "internalType": "uint256",
          "name": "",
          "type": "uint256"
        }
      ],
      "name": "_whiteListNFT",
      "outputs": [
        {
          "internalType": "address",
          "name": "",
          "type": "address"
        }
      ],
      "stateMutability": "view",
      "type": "function",
      "constant": true
    },
    {
      "inputs": [],
      "name": "owner",
      "outputs": [
        {
          "internalType": "address",
          "name": "",
          "type": "address"
        }
      ],
      "stateMutability": "view",
      "type": "function",
      "constant": true
    },
    {
      "inputs": [
        {
          "internalType": "uint256",
          "name": "id",
          "type": "uint256"
        }
      ],
      "name": "getPawnById",
      "outputs": [
        {
          "components": [
            {
              "internalType": "address",
              "name": "creator",
              "type": "address"
            },
            {
              "internalType": "address",
              "name": "contractAddress",
              "type": "address"
            },
            {
              "internalType": "uint256",
              "name": "tokenId",
              "type": "uint256"
            },
            {
              "internalType": "enum PawningShop.PawnStatus",
              "name": "status",
              "type": "uint8"
            }
          ],
          "internalType": "struct PawningShop.Pawn",
          "name": "",
          "type": "tuple"
        }
      ],
      "stateMutability": "view",
      "type": "function",
      "constant": true
    },
    {
      "inputs": [
        {
          "internalType": "address",
          "name": "tokenAddress",
          "type": "address"
        },
        {
          "internalType": "uint256",
          "name": "tokenId",
          "type": "uint256"
        }
      ],
      "name": "createPawn",
      "outputs": [],
      "stateMutability": "nonpayable",
      "type": "function"
    },
    {
      "inputs": [
        {
          "internalType": "uint256",
          "name": "pawnId",
          "type": "uint256"
        }
      ],
      "name": "cancelPawn",
      "outputs": [],
      "stateMutability": "nonpayable",
      "type": "function"
    },
    {
      "inputs": [
        {
          "internalType": "uint8",
          "name": "rate",
          "type": "uint8"
        },
        {
          "internalType": "uint256",
          "name": "duration",
          "type": "uint256"
        },
        {
          "internalType": "bool",
          "name": "isInterestProRated",
          "type": "bool"
        },
        {
          "internalType": "uint256",
          "name": "loanStartTime",
          "type": "uint256"
        },
        {
          "internalType": "uint256",
          "name": "pawnId",
          "type": "uint256"
        }
      ],
      "name": "bid",
      "outputs": [],
      "stateMutability": "payable",
      "type": "function",
      "payable": true
    },
    {
      "inputs": [
        {
          "internalType": "uint256",
          "name": "bidId",
          "type": "uint256"
        }
      ],
      "name": "cancelBid",
      "outputs": [],
      "stateMutability": "nonpayable",
      "type": "function"
    },
    {
      "inputs": [
        {
          "internalType": "uint256",
          "name": "bidId",
          "type": "uint256"
        }
      ],
      "name": "acceptBid",
      "outputs": [],
      "stateMutability": "nonpayable",
      "type": "function"
    },
    {
      "inputs": [
        {
          "internalType": "uint256",
          "name": "pawnId",
          "type": "uint256"
        }
      ],
      "name": "repaid",
      "outputs": [],
      "stateMutability": "payable",
      "type": "function",
      "payable": true
    },
    {
      "inputs": [
        {
          "internalType": "uint256",
          "name": "bidId",
          "type": "uint256"
        }
      ],
      "name": "liquidate",
      "outputs": [],
      "stateMutability": "nonpayable",
      "type": "function"
    },
    {
      "inputs": [
        {
          "internalType": "address",
          "name": "smartContract",
          "type": "address"
        }
      ],
      "name": "addToWhiteList",
      "outputs": [],
      "stateMutability": "nonpayable",
      "type": "function"
    },
    {
      "inputs": [
        {
          "internalType": "address",
          "name": "smartContract",
          "type": "address"
        }
      ],
      "name": "removeFromWhiteList",
      "outputs": [],
      "stateMutability": "nonpayable",
      "type": "function"
    },
    {
      "inputs": [],
      "name": "getWhiteList",
      "outputs": [
        {
          "internalType": "address[]",
          "name": "",
          "type": "address[]"
        }
      ],
      "stateMutability": "view",
      "type": "function",
      "constant": true
    }
  ],
  "bytecode": "0x60806040526000600355600060045534801561001a57600080fd5b50336000806101000a81548173ffffffffffffffffffffffffffffffffffffffff021916908373ffffffffffffffffffffffffffffffffffffffff16021790555060006040518060800160405280600073ffffffffffffffffffffffffffffffffffffffff168152602001600073ffffffffffffffffffffffffffffffffffffffff16815260200160008152602001600160048111156100e3577f4e487b7100000000000000000000000000000000000000000000000000000000600052602160045260246000fd5b8152509050806005600080815260200190815260200160002060008201518160000160006101000a81548173ffffffffffffffffffffffffffffffffffffffff021916908373ffffffffffffffffffffffffffffffffffffffff16021790555060208201518160010160006101000a81548173ffffffffffffffffffffffffffffffffffffffff021916908373ffffffffffffffffffffffffffffffffffffffff1602179055506040820151816002015560608201518160030160006101000a81548160ff021916908360048111156101e5577f4e487b7100000000000000000000000000000000000000000000000000000000600052602160045260246000fd5b021790555090505060006040518060c00160405280600073ffffffffffffffffffffffffffffffffffffffff16815260200160008152602001600081526020016000815260200160008152602001600015158152509050806006600080815260200190815260200160002060008201518160000160006101000a81548173ffffffffffffffffffffffffffffffffffffffff021916908373ffffffffffffffffffffffffffffffffffffffff1602179055506020820151816001015560408201518160020155606082015181600301556080820151816004015560a08201518160050160006101000a81548160ff021916908315150217905550905050505061348b80620002f46000396000f3fe6080604052600436106101095760003560e01c80638228c579116100955780639703ef35116100645780639703ef351461035d578063b2131f7d14610386578063b53c3701146103b1578063c398f41f146103da578063d98dbf211461040557610109565b80638228c5791461029c57806386271db4146102d95780638da5cb5b146103165780638e47fe511461034157610109565b80633ce11def116100dc5780633ce11def146101c8578063415f1240146101f157806347ee03941461021a5780635f93893b146102435780636707927d1461025f57610109565b806301bf66481461010e57806309a9d76c1461013757806326d8600b146101625780632b1fd58a1461019f575b600080fd5b34801561011a57600080fd5b5061013560048036038101906101309190612167565b610430565b005b34801561014357600080fd5b5061014c6105e9565b604051610159919061277a565b60405180910390f35b34801561016e57600080fd5b506101896004803603810190610184919061221e565b610677565b60405161019691906126d6565b60405180910390f35b3480156101ab57600080fd5b506101c660048036038101906101c1919061221e565b6106b6565b005b3480156101d457600080fd5b506101ef60048036038101906101ea919061221e565b6109ce565b005b3480156101fd57600080fd5b506102186004803603810190610213919061221e565b610c47565b005b34801561022657600080fd5b50610241600480360381019061023c9190612167565b610e8a565b005b61025d6004803603810190610258919061221e565b6110b1565b005b34801561026b57600080fd5b506102866004803603810190610281919061221e565b61140f565b6040516102939190612a5c565b60405180910390f35b3480156102a857600080fd5b506102c360048036038101906102be919061221e565b611579565b6040516102d09190612a77565b60405180910390f35b3480156102e557600080fd5b5061030060048036038101906102fb919061221e565b611591565b60405161030d9190612a77565b60405180910390f35b34801561032257600080fd5b5061032b6115a9565b60405161033891906126d6565b60405180910390f35b61035b60048036038101906103569190612247565b6115cd565b005b34801561036957600080fd5b50610384600480360381019061037f919061221e565b6118a4565b005b34801561039257600080fd5b5061039b611b27565b6040516103a89190612a77565b60405180910390f35b3480156103bd57600080fd5b506103d860048036038101906103d391906121b9565b611b2d565b005b3480156103e657600080fd5b506103ef611fbc565b6040516103fc9190612a77565b60405180910390f35b34801561041157600080fd5b5061041a611fc2565b6040516104279190612a77565b60405180910390f35b60008054906101000a900473ffffffffffffffffffffffffffffffffffffffff1673ffffffffffffffffffffffffffffffffffffffff163373ffffffffffffffffffffffffffffffffffffffff16146104be576040517f08c379a00000000000000000000000000000000000000000000000000000000081526004016104b5906129fc565b60405180910390fd5b60005b60018054905081101561057e578173ffffffffffffffffffffffffffffffffffffffff166001828154811061051f577f4e487b7100000000000000000000000000000000000000000000000000000000600052603260045260246000fd5b9060005260206000200160009054906101000a900473ffffffffffffffffffffffffffffffffffffffff1673ffffffffffffffffffffffffffffffffffffffff16141561056b5761057e565b808061057690612c6b565b9150506104c1565b600181815481106105b8577f4e487b7100000000000000000000000000000000000000000000000000000000600052603260045260246000fd5b9060005260206000200160006101000a81549073ffffffffffffffffffffffffffffffffffffffff02191690555050565b6060600180548060200260200160405190810160405280929190818152602001828054801561066d57602002820191906000526020600020905b8160009054906101000a900473ffffffffffffffffffffffffffffffffffffffff1673ffffffffffffffffffffffffffffffffffffffff1681526020019060010190808311610623575b5050505050905090565b6001818154811061068757600080fd5b906000526020600020016000915054906101000a900473ffffffffffffffffffffffffffffffffffffffff1681565b600060066000838152602001908152602001600020905060006007600084815260200190815260200160002054905060008111610728576040517f08c379a000000000000000000000000000000000000000000000000000000000815260040161071f906128bc565b60405180910390fd5b60006005600083815260200190815260200160002090503373ffffffffffffffffffffffffffffffffffffffff168160000160009054906101000a900473ffffffffffffffffffffffffffffffffffffffff1673ffffffffffffffffffffffffffffffffffffffff16146107d1576040517f08c379a00000000000000000000000000000000000000000000000000000000081526004016107c8906128dc565b60405180910390fd5b8060010160009054906101000a900473ffffffffffffffffffffffffffffffffffffffff1673ffffffffffffffffffffffffffffffffffffffff166323b872dd8260000160009054906101000a900473ffffffffffffffffffffffffffffffffffffffff163084600201546040518463ffffffff1660e01b815260040161085a9392919061271a565b600060405180830381600087803b15801561087457600080fd5b505af1158015610888573d6000803e3d6000fd5b5050505060008160000160009054906101000a900473ffffffffffffffffffffffffffffffffffffffff1690508073ffffffffffffffffffffffffffffffffffffffff166108fc85600101549081150290604051600060405180830381858888f193505050501580156108ff573d6000803e3d6000fd5b5060028260030160006101000a81548160ff0219169083600481111561094e577f4e487b7100000000000000000000000000000000000000000000000000000000600052602160045260246000fd5b021790555084600860008581526020019081526020016000208190555060028260030160006101000a81548160ff021916908360048111156109b9577f4e487b7100000000000000000000000000000000000000000000000000000000600052602160045260246000fd5b02179055504284600301819055505050505050565b600060056000838152602001908152602001600020905060008160000160009054906101000a900473ffffffffffffffffffffffffffffffffffffffff16905060006004811115610a48577f4e487b7100000000000000000000000000000000000000000000000000000000600052602160045260246000fd5b8260030160009054906101000a900460ff166004811115610a92577f4e487b7100000000000000000000000000000000000000000000000000000000600052602160045260246000fd5b14610ad2576040517f08c379a0000000000000000000000000000000000000000000000000000000008152600401610ac99061299c565b60405180910390fd5b8073ffffffffffffffffffffffffffffffffffffffff163373ffffffffffffffffffffffffffffffffffffffff1614610b40576040517f08c379a0000000000000000000000000000000000000000000000000000000008152600401610b37906127dc565b60405180910390fd5b6000600860008581526020019081526020016000205414610b96576040517f08c379a0000000000000000000000000000000000000000000000000000000008152600401610b8d906128fc565b60405180910390fd5b60018260030160006101000a81548160ff02191690836004811115610be4577f4e487b7100000000000000000000000000000000000000000000000000000000600052602160045260246000fd5b02179055507f6d2c0a066258c4b768dc98e6e9ce603e177a49c3b5ed4521b992fcddd16ccec460008054906101000a900473ffffffffffffffffffffffffffffffffffffffff1684604051610c3a929190612751565b60405180910390a1505050565b60006006600083815260200190815260200160002090503373ffffffffffffffffffffffffffffffffffffffff168160000160009054906101000a900473ffffffffffffffffffffffffffffffffffffffff1673ffffffffffffffffffffffffffffffffffffffff1614610cf0576040517f08c379a0000000000000000000000000000000000000000000000000000000008152600401610ce79061297c565b60405180910390fd5b80600101548160030154610d049190612adc565b4211610d45576040517f08c379a0000000000000000000000000000000000000000000000000000000008152600401610d3c906129dc565b60405180910390fd5b60006007600084815260200190815260200160002054905082600860008381526020019081526020016000205414610db2576040517f08c379a0000000000000000000000000000000000000000000000000000000008152600401610da99061287c565b60405180910390fd5b60006005600083815260200190815260200160002090508060010160009054906101000a900473ffffffffffffffffffffffffffffffffffffffff1673ffffffffffffffffffffffffffffffffffffffff166323b872dd308560000160009054906101000a900473ffffffffffffffffffffffffffffffffffffffff1684600201546040518463ffffffff1660e01b8152600401610e529392919061271a565b600060405180830381600087803b158015610e6c57600080fd5b505af1158015610e80573d6000803e3d6000fd5b5050505050505050565b60008054906101000a900473ffffffffffffffffffffffffffffffffffffffff1673ffffffffffffffffffffffffffffffffffffffff163373ffffffffffffffffffffffffffffffffffffffff1614610f18576040517f08c379a0000000000000000000000000000000000000000000000000000000008152600401610f0f9061295c565b60405180910390fd5b600073ffffffffffffffffffffffffffffffffffffffff168173ffffffffffffffffffffffffffffffffffffffff161415610f88576040517f08c379a0000000000000000000000000000000000000000000000000000000008152600401610f7f9061281c565b60405180910390fd5b60005b600180549050811015611049578173ffffffffffffffffffffffffffffffffffffffff1660018281548110610fe9577f4e487b7100000000000000000000000000000000000000000000000000000000600052603260045260246000fd5b9060005260206000200160009054906101000a900473ffffffffffffffffffffffffffffffffffffffff1673ffffffffffffffffffffffffffffffffffffffff16141561103657506110ae565b808061104190612c6b565b915050610f8b565b6001829080600181540180825580915050600190039060005260206000200160009091909190916101000a81548173ffffffffffffffffffffffffffffffffffffffff021916908373ffffffffffffffffffffffffffffffffffffffff160217905550505b50565b60006005600083815260200190815260200160002090503373ffffffffffffffffffffffffffffffffffffffff168160000160009054906101000a900473ffffffffffffffffffffffffffffffffffffffff1673ffffffffffffffffffffffffffffffffffffffff161461115a576040517f08c379a000000000000000000000000000000000000000000000000000000000815260040161115190612a3c565b60405180910390fd5b60006008600084815260200190815260200160002054905060008114156111b6576040517f08c379a00000000000000000000000000000000000000000000000000000000081526004016111ad9061291c565b60405180910390fd5b6000600660008381526020019081526020016000209050806004015481600301546111e19190612adc565b421115611223576040517f08c379a000000000000000000000000000000000000000000000000000000000815260040161121a9061283c565b60405180910390fd5b6000349050600082600301544261123a9190612bbd565b90506000611268846001015485600201548660040154858860050160009054906101000a900460ff16611fc8565b90508083146112ac576040517f08c379a00000000000000000000000000000000000000000000000000000000081526004016112a39061289c565b60405180910390fd5b8560010160009054906101000a900473ffffffffffffffffffffffffffffffffffffffff1673ffffffffffffffffffffffffffffffffffffffff166323b872dd308860000160009054906101000a900473ffffffffffffffffffffffffffffffffffffffff1689600201546040518463ffffffff1660e01b81526004016113359392919061271a565b600060405180830381600087803b15801561134f57600080fd5b505af1158015611363573d6000803e3d6000fd5b5050505060008460000160009054906101000a900473ffffffffffffffffffffffffffffffffffffffff1690508073ffffffffffffffffffffffffffffffffffffffff166108fc859081150290604051600060405180830381858888f193505050501580156113d6573d6000803e3d6000fd5b50600860008981526020019081526020016000206000905560076000878152602001908152602001600020600090555050505050505050565b61141761205d565b600560008381526020019081526020016000206040518060800160405290816000820160009054906101000a900473ffffffffffffffffffffffffffffffffffffffff1673ffffffffffffffffffffffffffffffffffffffff1673ffffffffffffffffffffffffffffffffffffffff1681526020016001820160009054906101000a900473ffffffffffffffffffffffffffffffffffffffff1673ffffffffffffffffffffffffffffffffffffffff1673ffffffffffffffffffffffffffffffffffffffff168152602001600282015481526020016003820160009054906101000a900460ff166004811115611536577f4e487b7100000000000000000000000000000000000000000000000000000000600052602160045260246000fd5b600481111561156e577f4e487b7100000000000000000000000000000000000000000000000000000000600052602160045260246000fd5b815250509050919050565b60076020528060005260406000206000915090505481565b60086020528060005260406000206000915090505481565b60008054906101000a900473ffffffffffffffffffffffffffffffffffffffff1681565b6001600460008282546115e09190612adc565b925050819055506000339050600034905060006005600085815260200190815260200160002090506000841161164b576040517f08c379a0000000000000000000000000000000000000000000000000000000008152600401611642906129bc565b60405180910390fd5b60006004811115611685577f4e487b7100000000000000000000000000000000000000000000000000000000600052602160045260246000fd5b8160030160009054906101000a900460ff1660048111156116cf577f4e487b7100000000000000000000000000000000000000000000000000000000600052602160045260246000fd5b1461170f576040517f08c379a0000000000000000000000000000000000000000000000000000000008152600401611706906127fc565b60405180910390fd5b60008211611752576040517f08c379a000000000000000000000000000000000000000000000000000000000815260040161174990612a1c565b60405180910390fd5b60006040518060c001604052808573ffffffffffffffffffffffffffffffffffffffff1681526020018481526020018a60ff16815260200187815260200189815260200188151581525090508060066000600454815260200190815260200160002060008201518160000160006101000a81548173ffffffffffffffffffffffffffffffffffffffff021916908373ffffffffffffffffffffffffffffffffffffffff1602179055506020820151816001015560408201518160020155606082015181600301556080820151816004015560a08201518160050160006101000a81548160ff02191690831515021790555090505084600760006004548152602001908152602001600020819055507fff2d32ce56b0b5d23a2d2e0fa74261ef152c762e716daa7e6eb1cc0fafa0a4e88486604051611891929190612751565b60405180910390a1505050505050505050565b6000600660008381526020019081526020016000206040518060c00160405290816000820160009054906101000a900473ffffffffffffffffffffffffffffffffffffffff1673ffffffffffffffffffffffffffffffffffffffff1673ffffffffffffffffffffffffffffffffffffffff168152602001600182015481526020016002820154815260200160038201548152602001600482015481526020016005820160009054906101000a900460ff16151515158152505090506000339050816000015173ffffffffffffffffffffffffffffffffffffffff168173ffffffffffffffffffffffffffffffffffffffff16146119d6576040517f08c379a00000000000000000000000000000000000000000000000000000000081526004016119cd906127bc565b60405180910390fd5b6000600760008581526020019081526020016000205490508360086000838152602001908152602001600020541415611a44576040517f08c379a0000000000000000000000000000000000000000000000000000000008152600401611a3b9061293c565b60405180910390fd5b6000836000015190508073ffffffffffffffffffffffffffffffffffffffff166108fc85602001519081150290604051600060405180830381858888f19350505050158015611a97573d6000803e3d6000fd5b5060066000868152602001908152602001600020600080820160006101000a81549073ffffffffffffffffffffffffffffffffffffffff021916905560018201600090556002820160009055600382016000905560048201600090556005820160006101000a81549060ff0219169055505060076000868152602001908152602001600020600090555050505050565b60025481565b600160036000828254611b409190612adc565b925050819055506000805b600180549050811015611c085760018181548110611b92577f4e487b7100000000000000000000000000000000000000000000000000000000600052603260045260246000fd5b9060005260206000200160009054906101000a900473ffffffffffffffffffffffffffffffffffffffff1673ffffffffffffffffffffffffffffffffffffffff168473ffffffffffffffffffffffffffffffffffffffff161415611bf557600191505b8080611c0090612c6b565b915050611b4b565b5060003390506001151582151514611c55576040517f08c379a0000000000000000000000000000000000000000000000000000000008152600401611c4c9061285c565b60405180910390fd5b60003073ffffffffffffffffffffffffffffffffffffffff168573ffffffffffffffffffffffffffffffffffffffff1663081812fc866040518263ffffffff1660e01b8152600401611ca79190612a77565b60206040518083038186803b158015611cbf57600080fd5b505afa158015611cd3573d6000803e3d6000fd5b505050506040513d601f19601f82011682018060405250810190611cf79190612190565b73ffffffffffffffffffffffffffffffffffffffff1614905060008573ffffffffffffffffffffffffffffffffffffffff1663e985e9c584306040518363ffffffff1660e01b8152600401611d4d9291906126f1565b60206040518083038186803b158015611d6557600080fd5b505afa158015611d79573d6000803e3d6000fd5b505050506040513d601f19601f82011682018060405250810190611d9d91906121f5565b90508180611da85750805b611de7576040517f08c379a0000000000000000000000000000000000000000000000000000000008152600401611dde9061279c565b60405180910390fd5b600060405180608001604052808573ffffffffffffffffffffffffffffffffffffffff1681526020018873ffffffffffffffffffffffffffffffffffffffff16815260200187815260200160006004811115611e6c577f4e487b7100000000000000000000000000000000000000000000000000000000600052602160045260246000fd5b81525090508060056000600354815260200190815260200160002060008201518160000160006101000a81548173ffffffffffffffffffffffffffffffffffffffff021916908373ffffffffffffffffffffffffffffffffffffffff16021790555060208201518160010160006101000a81548173ffffffffffffffffffffffffffffffffffffffff021916908373ffffffffffffffffffffffffffffffffffffffff1602179055506040820151816002015560608201518160030160006101000a81548160ff02191690836004811115611f70577f4e487b7100000000000000000000000000000000000000000000000000000000600052602160045260246000fd5b02179055509050507fd10594784457563b8564c078bb5c8bcc5e6b8e1b08b2d7ef7af261e84e366c1f84600354604051611fab929190612751565b60405180910390a150505050505050565b60045481565b60035481565b6000808590508215611ffc57611ff984611feb878961201b90919063ffffffff16565b61203190919063ffffffff16565b90505b61200f868861204790919063ffffffff16565b91505095945050505050565b600081836120299190612b32565b905092915050565b6000818361203f9190612b63565b905092915050565b600081836120559190612adc565b905092915050565b6040518060800160405280600073ffffffffffffffffffffffffffffffffffffffff168152602001600073ffffffffffffffffffffffffffffffffffffffff16815260200160008152602001600060048111156120e3577f4e487b7100000000000000000000000000000000000000000000000000000000600052602160045260246000fd5b81525090565b6000813590506120f8816133f9565b92915050565b60008151905061210d816133f9565b92915050565b60008135905061212281613410565b92915050565b60008151905061213781613410565b92915050565b60008135905061214c81613427565b92915050565b6000813590506121618161343e565b92915050565b60006020828403121561217957600080fd5b6000612187848285016120e9565b91505092915050565b6000602082840312156121a257600080fd5b60006121b0848285016120fe565b91505092915050565b600080604083850312156121cc57600080fd5b60006121da858286016120e9565b92505060206121eb8582860161213d565b9150509250929050565b60006020828403121561220757600080fd5b600061221584828501612128565b91505092915050565b60006020828403121561223057600080fd5b600061223e8482850161213d565b91505092915050565b600080600080600060a0868803121561225f57600080fd5b600061226d88828901612152565b955050602061227e8882890161213d565b945050604061228f88828901612113565b93505060606122a08882890161213d565b92505060806122b18882890161213d565b9150509295509295909350565b60006122ca83836122d6565b60208301905092915050565b6122df81612bf1565b82525050565b6122ee81612bf1565b82525050565b60006122ff82612aa2565b6123098185612aba565b935061231483612a92565b8060005b8381101561234557815161232c88826122be565b975061233783612aad565b925050600181019050612318565b5085935050505092915050565b61235b81612c59565b82525050565b600061236e602f83612acb565b915061237982612d41565b604082019050919050565b6000612391602c83612acb565b915061239c82612d90565b604082019050919050565b60006123b4603183612acb565b91506123bf82612ddf565b604082019050919050565b60006123d7602183612acb565b91506123e282612e2e565b604082019050919050565b60006123fa603c83612acb565b915061240582612e7d565b604082019050919050565b600061241d601e83612acb565b915061242882612ecc565b602082019050919050565b6000612440603083612acb565b915061244b82612ef5565b604082019050919050565b6000612463603183612acb565b915061246e82612f44565b604082019050919050565b6000612486602683612acb565b915061249182612f93565b604082019050919050565b60006124a9602483612acb565b91506124b482612fe2565b604082019050919050565b60006124cc603083612acb565b91506124d782613031565b604082019050919050565b60006124ef603483612acb565b91506124fa82613080565b604082019050919050565b6000612512603383612acb565b915061251d826130cf565b604082019050919050565b6000612535603083612acb565b91506125408261311e565b604082019050919050565b6000612558603583612acb565b91506125638261316d565b604082019050919050565b600061257b603483612acb565b9150612586826131bc565b604082019050919050565b600061259e603a83612acb565b91506125a98261320b565b604082019050919050565b60006125c1602183612acb565b91506125cc8261325a565b604082019050919050565b60006125e4602883612acb565b91506125ef826132a9565b604082019050919050565b6000612607603a83612acb565b9150612612826132f8565b604082019050919050565b600061262a603283612acb565b915061263582613347565b604082019050919050565b600061264d602b83612acb565b915061265882613396565b604082019050919050565b60808201600082015161267960008501826122d6565b50602082015161268c60208501826122d6565b50604082015161269f60408501826126b8565b5060608201516126b26060850182612352565b50505050565b6126c181612c42565b82525050565b6126d081612c42565b82525050565b60006020820190506126eb60008301846122e5565b92915050565b600060408201905061270660008301856122e5565b61271360208301846122e5565b9392505050565b600060608201905061272f60008301866122e5565b61273c60208301856122e5565b61274960408301846126c7565b949350505050565b600060408201905061276660008301856122e5565b61277360208301846126c7565b9392505050565b6000602082019050818103600083015261279481846122f4565b905092915050565b600060208201905081810360008301526127b581612361565b9050919050565b600060208201905081810360008301526127d581612384565b9050919050565b600060208201905081810360008301526127f5816123a7565b9050919050565b60006020820190508181036000830152612815816123ca565b9050919050565b60006020820190508181036000830152612835816123ed565b9050919050565b6000602082019050818103600083015261285581612410565b9050919050565b6000602082019050818103600083015261287581612433565b9050919050565b6000602082019050818103600083015261289581612456565b9050919050565b600060208201905081810360008301526128b581612479565b9050919050565b600060208201905081810360008301526128d58161249c565b9050919050565b600060208201905081810360008301526128f5816124bf565b9050919050565b60006020820190508181036000830152612915816124e2565b9050919050565b6000602082019050818103600083015261293581612505565b9050919050565b6000602082019050818103600083015261295581612528565b9050919050565b600060208201905081810360008301526129758161254b565b9050919050565b600060208201905081810360008301526129958161256e565b9050919050565b600060208201905081810360008301526129b581612591565b9050919050565b600060208201905081810360008301526129d5816125b4565b9050919050565b600060208201905081810360008301526129f5816125d7565b9050919050565b60006020820190508181036000830152612a15816125fa565b9050919050565b60006020820190508181036000830152612a358161261d565b9050919050565b60006020820190508181036000830152612a5581612640565b9050919050565b6000608082019050612a716000830184612663565b92915050565b6000602082019050612a8c60008301846126c7565b92915050565b6000819050602082019050919050565b600081519050919050565b6000602082019050919050565b600082825260208201905092915050565b600082825260208201905092915050565b6000612ae782612c42565b9150612af283612c42565b9250827fffffffffffffffffffffffffffffffffffffffffffffffffffffffffffffffff03821115612b2757612b26612cb4565b5b828201905092915050565b6000612b3d82612c42565b9150612b4883612c42565b925082612b5857612b57612ce3565b5b828204905092915050565b6000612b6e82612c42565b9150612b7983612c42565b9250817fffffffffffffffffffffffffffffffffffffffffffffffffffffffffffffffff0483118215151615612bb257612bb1612cb4565b5b828202905092915050565b6000612bc882612c42565b9150612bd383612c42565b925082821015612be657612be5612cb4565b5b828203905092915050565b6000612bfc82612c22565b9050919050565b60008115159050919050565b6000819050612c1d826133e5565b919050565b600073ffffffffffffffffffffffffffffffffffffffff82169050919050565b6000819050919050565b600060ff82169050919050565b6000612c6482612c0f565b9050919050565b6000612c7682612c42565b91507fffffffffffffffffffffffffffffffffffffffffffffffffffffffffffffffff821415612ca957612ca8612cb4565b5b600182019050919050565b7f4e487b7100000000000000000000000000000000000000000000000000000000600052601160045260246000fd5b7f4e487b7100000000000000000000000000000000000000000000000000000000600052601260045260246000fd5b7f4e487b7100000000000000000000000000000000000000000000000000000000600052602160045260246000fd5b7f5061776e696e6753686f703a20686176656e277420676f74207065726d69737360008201527f696f6e20746f207472616e736665720000000000000000000000000000000000602082015250565b7f5061776e696e6753686f703a206f6e6c792063726561746f722063616e20636160008201527f6e63656c20746865206269640000000000000000000000000000000000000000602082015250565b7f5061776e696e6753686f703a204f6e6c79206f776e6572206f6620746865207060008201527f61776e2063616e2063616e63656c206974000000000000000000000000000000602082015250565b7f5061776e696e6753686f703a2063616e6e6f742062696420746869732070617760008201527f6e00000000000000000000000000000000000000000000000000000000000000602082015250565b7f5061776e696e6753686f703a20736d61727420636f6e7472616374206164647260008201527f657373206d75737420626520646966666572656e742077697468203000000000602082015250565b7f5061776e696e6753686f703a20746f206c61746520746f207265706169640000600082015250565b7f5061776e696e6753686f703a20736d61727420636f6e7472616374206973206e60008201527f6f7420696e207768697465206c69737400000000000000000000000000000000602082015250565b7f5061776e696e6753686f703a207468697320626964206973206e6f742061636360008201527f657074656420627920626f72726f776572000000000000000000000000000000602082015250565b7f5061776e696e6753686f703a207061792065786163746c79207265706169642060008201527f616d6f756e740000000000000000000000000000000000000000000000000000602082015250565b7f5061776e696e6753686f703a20546865207061776e206973206e6f742065786960008201527f7374656400000000000000000000000000000000000000000000000000000000602082015250565b7f5061776e696e6753686f703a206f6e6c792063726561746f72206f662070617760008201527f6e2063616e206163636570742062696400000000000000000000000000000000602082015250565b7f5061776e696e6753686f703a204f6e6c792063616e2063616e63656c2077686560008201527f6e206e6f20626964206973206163636570746564000000000000000000000000602082015250565b7f5061776e696e6753686f703a2054686973207061776e20646f656e277420686160008201527f766520616e792061636365707465642062696400000000000000000000000000602082015250565b7f5061776e696e6753686f703a20796f757220626964206973206163636570746560008201527f642c2063616e6e6f742063616e63656c00000000000000000000000000000000602082015250565b7f5061776e696e6753686f703a204f6e6c79206f776e65722063616e206164642060008201527f6164647265737320746f207768697465206c6973740000000000000000000000602082015250565b7f5061776e696e6753686f703a206f6e6c792063726561746f72206f662062696460008201527f2063616e206c697175696461746520746f6b656e000000000000000000000000602082015250565b7f5061776e696e6753686f703a204f6e6c792063616e2063616e63656c2077686560008201527f6e2069742068617320737461747573206f662043524541544544000000000000602082015250565b7f5061776e696e6753686f703a207061776e206964206973206e6f742076616c6960008201527f6400000000000000000000000000000000000000000000000000000000000000602082015250565b7f5061776e696e6753686f703a204e6f742076616c69642074696d6520746f206c60008201527f6971756964617465000000000000000000000000000000000000000000000000602082015250565b7f5061776e696e6753686f703a204f6e6c79206f776e65722063616e2072656d6f60008201527f766520616464726573732066726f6d207768697465206c697374000000000000602082015250565b7f5061776e696e6753686f703a20616d6f756e74206f66206d6f6e6579206d757360008201527f7420626520626967676572207468616e20300000000000000000000000000000602082015250565b7f5061776e696e6753686f703a204f6e6c792063726561746f72206f662070617760008201527f6e2063616e207265706179000000000000000000000000000000000000000000602082015250565b600581106133f6576133f5612d12565b5b50565b61340281612bf1565b811461340d57600080fd5b50565b61341981612c03565b811461342457600080fd5b50565b61343081612c42565b811461343b57600080fd5b50565b61344781612c4c565b811461345257600080fd5b5056fea264697066735822122050b71f989a1f4d6c8f06b15a9a7bc529a00a82a4e98a64b30897b0ef632284e764736f6c63430008040033",
  "immutableReferences": {},
  "source": "pragma solidity ^0.8.4;\r\n\r\nimport \"@openzeppelin/contracts/utils/math/SafeMath.sol\";\r\n\r\ninterface IERC165 {\r\n    /**\r\n     * @dev Returns true if this contract implements the interface defined by\r\n     * `interfaceId`. See the corresponding\r\n     * https://eips.ethereum.org/EIPS/eip-165#how-interfaces-are-identified[EIP section]\r\n     * to learn more about how these ids are created.\r\n     *\r\n     * This function call must use less than 30 000 gas.\r\n     */\r\n    function supportsInterface(bytes4 interfaceId) external view returns (bool);\r\n}\r\n\r\n\r\ninterface IERC721 is IERC165 {\r\n    /**\r\n     * @dev Emitted when `tokenId` token is transferred from `from` to `to`.\r\n     */\r\n    event Transfer(address indexed from, address indexed to, uint256 indexed tokenId);\r\n\r\n    /**\r\n     * @dev Emitted when `owner` enables `approved` to manage the `tokenId` token.\r\n     */\r\n    event Approval(address indexed owner, address indexed approved, uint256 indexed tokenId);\r\n\r\n    /**\r\n     * @dev Emitted when `owner` enables or disables (`approved`) `operator` to manage all of its assets.\r\n     */\r\n    event ApprovalForAll(address indexed owner, address indexed operator, bool approved);\r\n\r\n    /**\r\n     * @dev Returns the number of tokens in ``owner``'s account.\r\n     */\r\n    function balanceOf(address owner) external view returns (uint256 balance);\r\n\r\n    /**\r\n     * @dev Returns the owner of the `tokenId` token.\r\n     *\r\n     * Requirements:\r\n     *\r\n     * - `tokenId` must exist.\r\n     */\r\n    function ownerOf(uint256 tokenId) external view returns (address owner);\r\n\r\n    /**\r\n     * @dev Safely transfers `tokenId` token from `from` to `to`, checking first that contract recipients\r\n     * are aware of the ERC721 protocol to prevent tokens from being forever locked.\r\n     *\r\n     * Requirements:\r\n     *\r\n     * - `from` cannot be the zero address.\r\n     * - `to` cannot be the zero address.\r\n     * - `tokenId` token must exist and be owned by `from`.\r\n     * - If the caller is not `from`, it must be have been allowed to move this token by either {approve} or {setApprovalForAll}.\r\n     * - If `to` refers to a smart contract, it must implement {IERC721Receiver-onERC721Received}, which is called upon a safe transfer.\r\n     *\r\n     * Emits a {Transfer} event.\r\n     */\r\n    function safeTransferFrom(\r\n        address from,\r\n        address to,\r\n        uint256 tokenId\r\n    ) external;\r\n\r\n    /**\r\n     * @dev Transfers `tokenId` token from `from` to `to`.\r\n     *\r\n     * WARNING: Usage of this method is discouraged, use {safeTransferFrom} whenever possible.\r\n     *\r\n     * Requirements:\r\n     *\r\n     * - `from` cannot be the zero address.\r\n     * - `to` cannot be the zero address.\r\n     * - `tokenId` token must be owned by `from`.\r\n     * - If the caller is not `from`, it must be approved to move this token by either {approve} or {setApprovalForAll}.\r\n     *\r\n     * Emits a {Transfer} event.\r\n     */\r\n    function transferFrom(\r\n        address from,\r\n        address to,\r\n        uint256 tokenId\r\n    ) external;\r\n\r\n    /**\r\n     * @dev Gives permission to `to` to transfer `tokenId` token to another account.\r\n     * The approval is cleared when the token is transferred.\r\n     *\r\n     * Only a single account can be approved at a time, so approving the zero address clears previous approvals.\r\n     *\r\n     * Requirements:\r\n     *\r\n     * - The caller must own the token or be an approved operator.\r\n     * - `tokenId` must exist.\r\n     *\r\n     * Emits an {Approval} event.\r\n     */\r\n    function approve(address to, uint256 tokenId) external;\r\n\r\n    /**\r\n     * @dev Returns the account approved for `tokenId` token.\r\n     *\r\n     * Requirements:\r\n     *\r\n     * - `tokenId` must exist.\r\n     */\r\n    function getApproved(uint256 tokenId) external view returns (address operator);\r\n\r\n    /**\r\n     * @dev Approve or remove `operator` as an operator for the caller.\r\n     * Operators can call {transferFrom} or {safeTransferFrom} for any token owned by the caller.\r\n     *\r\n     * Requirements:\r\n     *\r\n     * - The `operator` cannot be the caller.\r\n     *\r\n     * Emits an {ApprovalForAll} event.\r\n     */\r\n    function setApprovalForAll(address operator, bool _approved) external;\r\n\r\n    /**\r\n     * @dev Returns if the `operator` is allowed to manage all of the assets of `owner`.\r\n     *\r\n     * See {setApprovalForAll}\r\n     */\r\n    function isApprovedForAll(address owner, address operator) external view returns (bool);\r\n\r\n    /**\r\n     * @dev Safely transfers `tokenId` token from `from` to `to`.\r\n     *\r\n     * Requirements:\r\n     *\r\n     * - `from` cannot be the zero address.\r\n     * - `to` cannot be the zero address.\r\n     * - `tokenId` token must exist and be owned by `from`.\r\n     * - If the caller is not `from`, it must be approved to move this token by either {approve} or {setApprovalForAll}.\r\n     * - If `to` refers to a smart contract, it must implement {IERC721Receiver-onERC721Received}, which is called upon a safe transfer.\r\n     *\r\n     * Emits a {Transfer} event.\r\n     */\r\n    function safeTransferFrom(\r\n        address from,\r\n        address to,\r\n        uint256 tokenId,\r\n        bytes calldata data\r\n    ) external;\r\n}\r\n\r\ncontract PawningShop {\r\n\r\n    using SafeMath for uint256;\r\n    using SafeMath for uint8;\r\n\r\n    enum PawnStatus {\r\n        CREATED,\r\n        CANCELLED,\r\n        DEAL,\r\n        LIQUIDATED,\r\n        REPAID\r\n    }\r\n    struct Pawn {\r\n        // who borrows money\r\n        address creator;\r\n        address contractAddress;\r\n        uint256 tokenId;\r\n        PawnStatus status;\r\n    }\r\n    struct Bid {\r\n        address creator;\r\n        uint256 loanAmount;\r\n        // the amount of wei borrower have to pay more\r\n        uint256 interest;\r\n        uint256 loanStartTime;\r\n        uint256 loanDuration;\r\n        bool isInterestProRated;\r\n    }\r\n    address public owner;\r\n    address[] public _whiteListNFT;\r\n    uint256 public _feeRate;\r\n    uint256 public _totalNumberOfPawn = 0;\r\n    uint256 public _totalNumberOfBid = 0;\r\n    // mapping nft address -> token id -> pawn\r\n    mapping(uint256 => Pawn) _pawns;\r\n    // mapping bid id => bid\r\n    mapping(uint256 => Bid) _bids;\r\n    // mapping bid id to pawn id\r\n    mapping(uint256 => uint256) public _bidToPawn;\r\n    mapping(uint256 => uint256) public _pawnToBid;\r\n\r\n    constructor() {\r\n        owner = msg.sender;\r\n        Pawn memory newPawn = Pawn({\r\n            creator: address(0),\r\n            contractAddress: address(0),\r\n            tokenId: 0,\r\n            status: PawnStatus.CANCELLED\r\n        });\r\n        _pawns[0] = newPawn;\r\n        Bid memory newBid = Bid({\r\n            creator: address(0),\r\n            loanAmount: 0,\r\n            interest: 0,\r\n            loanStartTime: 0,\r\n            loanDuration: 0,\r\n            isInterestProRated: false\r\n        });\r\n        _bids[0] = newBid;\r\n    }\r\n\r\n    event PawnCreated(address pawner, uint256 pawnId);\r\n    event PawnCancelled(address pawner, uint256 pawnId);\r\n    event PawnDeal(address pawner, address lender, uint256 id);\r\n    event PawnRepaid(address pawner, address lender, uint256 id);\r\n    event PawnLiquidated(address pawner, address lender, uint256 id);\r\n    event BidCreated(address creator, uint256 pawnId);\r\n    event BidCancelled(address creator, uint256 pawnId);\r\n\r\n    function getPawnById(uint256 id) public view returns(Pawn memory) {\r\n        return _pawns[id];\r\n    }\r\n\r\n    function createPawn(address tokenAddress, uint256 tokenId) public {\r\n        _totalNumberOfPawn += 1;\r\n        bool isInWhiteList = false;\r\n        for (uint256 i = 0; i < _whiteListNFT.length; i++) {\r\n            if (tokenAddress == _whiteListNFT[i]) {\r\n                isInWhiteList = true;\r\n            }\r\n        }\r\n        address sender = msg.sender;\r\n        require(\r\n            isInWhiteList == true,\r\n            \"PawningShop: smart contract is not in white list\"\r\n        );\r\n        bool isApproved = IERC721(tokenAddress).getApproved(tokenId) ==\r\n            address(this);\r\n        bool isApprovedForAll = IERC721(tokenAddress).isApprovedForAll(\r\n            sender,\r\n            address(this)\r\n        );\r\n        require(\r\n            isApproved || isApprovedForAll,\r\n            \"PawningShop: haven't got permission to transfer\"\r\n        );\r\n        Pawn memory pawn = Pawn({\r\n            creator: sender,\r\n            contractAddress: tokenAddress,\r\n            tokenId: tokenId,\r\n            status: PawnStatus.CREATED\r\n        });\r\n\r\n        _pawns[_totalNumberOfPawn] = pawn;\r\n        emit PawnCreated(sender, _totalNumberOfPawn);\r\n    }\r\n\r\n    function cancelPawn(uint256 pawnId) public {\r\n        Pawn storage pawn = _pawns[pawnId];\r\n        address creator = pawn.creator;\r\n        require(\r\n            pawn.status == PawnStatus.CREATED,\r\n            \"PawningShop: Only can cancel when it has status of CREATED\"\r\n        );\r\n        require(\r\n            msg.sender == creator,\r\n            \"PawningShop: Only owner of the pawn can cancel it\"\r\n        );\r\n        require(\r\n            _pawnToBid[pawnId] == 0,\r\n            \"PawningShop: Only can cancel when no bid is accepted\"\r\n        );\r\n        pawn.status = PawnStatus.CANCELLED;\r\n\r\n        emit PawnCancelled(owner, pawnId);\r\n    }\r\n\r\n    function bid(\r\n        uint8 rate,\r\n        uint256 duration,\r\n        bool isInterestProRated,\r\n        uint256 loanStartTime,\r\n        uint256 pawnId\r\n    ) public payable {\r\n        _totalNumberOfBid += 1;\r\n        address creator = msg.sender;\r\n        uint256 amount = msg.value;\r\n        Pawn storage pawn = _pawns[pawnId];\r\n        require(pawnId > 0, \"PawningShop: pawn id is not valid\");\r\n        require(\r\n            pawn.status == PawnStatus.CREATED,\r\n            \"PawningShop: cannot bid this pawn\"\r\n        );\r\n        require(\r\n            amount > 0,\r\n            \"PawningShop: amount of money must be bigger than 0\"\r\n        );\r\n        Bid memory newBid = Bid({\r\n            creator: creator,\r\n            loanAmount: amount,\r\n            interest: rate,\r\n            loanDuration: duration,\r\n            isInterestProRated: isInterestProRated,\r\n            loanStartTime: loanStartTime\r\n        });\r\n        _bids[_totalNumberOfBid] = newBid;\r\n        _bidToPawn[_totalNumberOfBid] = pawnId;\r\n        emit BidCreated(creator, pawnId);\r\n    }\r\n\r\n    function cancelBid(uint256 bidId) public {\r\n        Bid memory currBid = _bids[bidId];\r\n        address sender = msg.sender;\r\n        require(\r\n            sender == currBid.creator,\r\n            \"PawningShop: only creator can cancel the bid\"\r\n        );\r\n        uint256 pawnId = _bidToPawn[bidId];\r\n        require(_pawnToBid[pawnId] != bidId, \"PawningShop: your bid is accepted, cannot cancel\");\r\n        address payable lender = payable(currBid.creator);\r\n        lender.transfer(currBid.loanAmount);\r\n        delete _bids[bidId];\r\n        delete _bidToPawn[bidId];\r\n    }\r\n\r\n    function acceptBid(uint256 bidId) public {\r\n        Bid storage currBid = _bids[bidId];\r\n        uint256 pawnId = _bidToPawn[bidId];\r\n        require(pawnId > 0, \"PawningShop: The pawn is not existed\");\r\n        Pawn storage pawn = _pawns[pawnId];\r\n        require(pawn.creator == msg.sender, \"PawningShop: only creator of pawn can accept bid\");\r\n        IERC721(pawn.contractAddress).transferFrom(pawn.creator, address(this), pawn.tokenId);\r\n        address payable borrower = payable(pawn.creator);\r\n        borrower.transfer(currBid.loanAmount);\r\n        pawn.status = PawnStatus.DEAL;\r\n        _pawnToBid[pawnId] = bidId;\r\n        pawn.status = PawnStatus.DEAL;\r\n        currBid.loanStartTime = block.timestamp;\r\n    }\r\n\r\n    function repaid(uint256 pawnId) public payable {\r\n        Pawn storage currPawn = _pawns[pawnId];\r\n        require(\r\n            currPawn.creator == msg.sender,\r\n            \"PawningShop: Only creator of pawn can repay\"\r\n        );\r\n        uint256 bidId = _pawnToBid[pawnId];\r\n        require(\r\n            bidId != 0,\r\n            \"PawningShop: This pawn doen't have any accepted bid\"\r\n        );\r\n        Bid storage currBid = _bids[bidId];\r\n        require(block.timestamp <= currBid.loanStartTime + currBid.loanDuration, \"PawningShop: to late to repaid\");\r\n        uint256 value = msg.value;\r\n        uint256 elapsedDuration = block.timestamp - currBid.loanStartTime;\r\n        uint256 repaidAmount = _calculateRepaidAmount(currBid.loanAmount, currBid.interest, currBid.loanDuration, elapsedDuration, currBid.isInterestProRated);\r\n        require(value == repaidAmount, \"PawningShop: pay exactly repaid amount\");\r\n        // transfer token back to borrower\r\n        IERC721(currPawn.contractAddress).transferFrom(address(this), currPawn.creator, currPawn.tokenId);\r\n        // transfer money to lender\r\n        address payable lender = payable(currBid.creator);\r\n        lender.transfer(value);\r\n        delete _pawnToBid[pawnId];\r\n        delete _bidToPawn[bidId];\r\n    }\r\n\r\n    function _calculateRepaidAmount(uint256 original, uint256 interest, uint256 totalDuration, uint256 elapsedDuration, bool isInterestProRated) internal pure returns (uint256) {\r\n        uint256 interestDue = interest;\r\n        if (isInterestProRated) {\r\n            interestDue = (interest.div(totalDuration)).mul(elapsedDuration);\r\n        }\r\n        return original.add(interest);\r\n    }\r\n\r\n    function liquidate(uint256 bidId) public {\r\n        Bid storage currBid = _bids[bidId];\r\n        require(currBid.creator == msg.sender, \"PawningShop: only creator of bid can liquidate token\");\r\n        require(block.timestamp > currBid.loanStartTime + currBid.loanAmount, \"PawningShop: Not valid time to liquidate\");\r\n        uint256 pawnId = _bidToPawn[bidId];\r\n        require(_pawnToBid[pawnId] == bidId, \"PawningShop: this bid is not accepted by borrower\");\r\n        Pawn storage currPawn = _pawns[pawnId];\r\n        IERC721(currPawn.contractAddress).transferFrom(address(this), currBid.creator, currPawn.tokenId);\r\n    }\r\n\r\n    function addToWhiteList(address smartContract) public {\r\n        require(msg.sender == owner, \"PawningShop: Only owner can add address to white list\");\r\n        require(smartContract != address(0), \"PawningShop: smart contract address must be different with 0\");\r\n        uint256 i = 0;\r\n        for (i = 0; i < _whiteListNFT.length; i++) {\r\n            if (_whiteListNFT[i] == smartContract) {\r\n                return;\r\n            }\r\n        }\r\n        _whiteListNFT.push(smartContract);\r\n    }\r\n\r\n    function removeFromWhiteList(address smartContract) public {\r\n        require(msg.sender == owner, \"PawningShop: Only owner can remove address from white list\");\r\n        uint256 i;\r\n        for (i = 0; i < _whiteListNFT.length; i++) {\r\n            if (_whiteListNFT[i] == smartContract) {\r\n                break;\r\n            }\r\n        }\r\n        delete _whiteListNFT[i];\r\n    }\r\n\r\n    function getWhiteList() public view returns(address[] memory) {\r\n        return _whiteListNFT;\r\n    }\r\n}\r\n",
  "sourcePath": "E:/Documents/OneDrive/Documents/solidity/nft-pawning-shop/solidity/contracts/PawningShop.sol",
  "compiler": {
    "name": "solc",
    "version": "0.8.4+commit.c7e474f2.Emscripten.clang"
  },
  "schemaVersion": "3.4.1",
  "updatedAt": "2021-08-18T08:41:11.046Z",
  "networkType": "ethereum",
  "devdoc": {
    "kind": "dev",
    "methods": {},
    "version": 1
  },
  "userdoc": {
    "kind": "user",
    "methods": {},
    "version": 1
  }
}