{
  "contractName": "TestToken",
  "abi": [
    {
      "inputs": [],
      "stateMutability": "nonpayable",
      "type": "constructor"
    },
    {
      "anonymous": false,
      "inputs": [
        {
          "indexed": true,
          "internalType": "address",
          "name": "owner",
          "type": "address"
        },
        {
          "indexed": true,
          "internalType": "address",
          "name": "approved",
          "type": "address"
        },
        {
          "indexed": true,
          "internalType": "uint256",
          "name": "tokenId",
          "type": "uint256"
        }
      ],
      "name": "Approval",
      "type": "event"
    },
    {
      "anonymous": false,
      "inputs": [
        {
          "indexed": true,
          "internalType": "address",
          "name": "owner",
          "type": "address"
        },
        {
          "indexed": true,
          "internalType": "address",
          "name": "operator",
          "type": "address"
        },
        {
          "indexed": false,
          "internalType": "bool",
          "name": "approved",
          "type": "bool"
        }
      ],
      "name": "ApprovalForAll",
      "type": "event"
    },
    {
      "anonymous": false,
      "inputs": [
        {
          "indexed": false,
          "internalType": "address",
          "name": "account",
          "type": "address"
        }
      ],
      "name": "Paused",
      "type": "event"
    },
    {
      "anonymous": false,
      "inputs": [
        {
          "indexed": true,
          "internalType": "bytes32",
          "name": "role",
          "type": "bytes32"
        },
        {
          "indexed": true,
          "internalType": "bytes32",
          "name": "previousAdminRole",
          "type": "bytes32"
        },
        {
          "indexed": true,
          "internalType": "bytes32",
          "name": "newAdminRole",
          "type": "bytes32"
        }
      ],
      "name": "RoleAdminChanged",
      "type": "event"
    },
    {
      "anonymous": false,
      "inputs": [
        {
          "indexed": true,
          "internalType": "bytes32",
          "name": "role",
          "type": "bytes32"
        },
        {
          "indexed": true,
          "internalType": "address",
          "name": "account",
          "type": "address"
        },
        {
          "indexed": true,
          "internalType": "address",
          "name": "sender",
          "type": "address"
        }
      ],
      "name": "RoleGranted",
      "type": "event"
    },
    {
      "anonymous": false,
      "inputs": [
        {
          "indexed": true,
          "internalType": "bytes32",
          "name": "role",
          "type": "bytes32"
        },
        {
          "indexed": true,
          "internalType": "address",
          "name": "account",
          "type": "address"
        },
        {
          "indexed": true,
          "internalType": "address",
          "name": "sender",
          "type": "address"
        }
      ],
      "name": "RoleRevoked",
      "type": "event"
    },
    {
      "anonymous": false,
      "inputs": [
        {
          "indexed": true,
          "internalType": "address",
          "name": "from",
          "type": "address"
        },
        {
          "indexed": true,
          "internalType": "address",
          "name": "to",
          "type": "address"
        },
        {
          "indexed": true,
          "internalType": "uint256",
          "name": "tokenId",
          "type": "uint256"
        }
      ],
      "name": "Transfer",
      "type": "event"
    },
    {
      "anonymous": false,
      "inputs": [
        {
          "indexed": false,
          "internalType": "address",
          "name": "account",
          "type": "address"
        }
      ],
      "name": "Unpaused",
      "type": "event"
    },
    {
      "inputs": [],
      "name": "DEFAULT_ADMIN_ROLE",
      "outputs": [
        {
          "internalType": "bytes32",
          "name": "",
          "type": "bytes32"
        }
      ],
      "stateMutability": "view",
      "type": "function",
      "constant": true
    },
    {
      "inputs": [],
      "name": "MINTER_ROLE",
      "outputs": [
        {
          "internalType": "bytes32",
          "name": "",
          "type": "bytes32"
        }
      ],
      "stateMutability": "view",
      "type": "function",
      "constant": true
    },
    {
      "inputs": [],
      "name": "PAUSER_ROLE",
      "outputs": [
        {
          "internalType": "bytes32",
          "name": "",
          "type": "bytes32"
        }
      ],
      "stateMutability": "view",
      "type": "function",
      "constant": true
    },
    {
      "inputs": [
        {
          "internalType": "address",
          "name": "to",
          "type": "address"
        },
        {
          "internalType": "uint256",
          "name": "tokenId",
          "type": "uint256"
        }
      ],
      "name": "approve",
      "outputs": [],
      "stateMutability": "nonpayable",
      "type": "function"
    },
    {
      "inputs": [
        {
          "internalType": "address",
          "name": "owner",
          "type": "address"
        }
      ],
      "name": "balanceOf",
      "outputs": [
        {
          "internalType": "uint256",
          "name": "",
          "type": "uint256"
        }
      ],
      "stateMutability": "view",
      "type": "function",
      "constant": true
    },
    {
      "inputs": [
        {
          "internalType": "uint256",
          "name": "tokenId",
          "type": "uint256"
        }
      ],
      "name": "burn",
      "outputs": [],
      "stateMutability": "nonpayable",
      "type": "function"
    },
    {
      "inputs": [
        {
          "internalType": "uint256",
          "name": "tokenId",
          "type": "uint256"
        }
      ],
      "name": "getApproved",
      "outputs": [
        {
          "internalType": "address",
          "name": "",
          "type": "address"
        }
      ],
      "stateMutability": "view",
      "type": "function",
      "constant": true
    },
    {
      "inputs": [
        {
          "internalType": "bytes32",
          "name": "role",
          "type": "bytes32"
        }
      ],
      "name": "getRoleAdmin",
      "outputs": [
        {
          "internalType": "bytes32",
          "name": "",
          "type": "bytes32"
        }
      ],
      "stateMutability": "view",
      "type": "function",
      "constant": true
    },
    {
      "inputs": [
        {
          "internalType": "bytes32",
          "name": "role",
          "type": "bytes32"
        },
        {
          "internalType": "uint256",
          "name": "index",
          "type": "uint256"
        }
      ],
      "name": "getRoleMember",
      "outputs": [
        {
          "internalType": "address",
          "name": "",
          "type": "address"
        }
      ],
      "stateMutability": "view",
      "type": "function",
      "constant": true
    },
    {
      "inputs": [
        {
          "internalType": "bytes32",
          "name": "role",
          "type": "bytes32"
        }
      ],
      "name": "getRoleMemberCount",
      "outputs": [
        {
          "internalType": "uint256",
          "name": "",
          "type": "uint256"
        }
      ],
      "stateMutability": "view",
      "type": "function",
      "constant": true
    },
    {
      "inputs": [
        {
          "internalType": "bytes32",
          "name": "role",
          "type": "bytes32"
        },
        {
          "internalType": "address",
          "name": "account",
          "type": "address"
        }
      ],
      "name": "grantRole",
      "outputs": [],
      "stateMutability": "nonpayable",
      "type": "function"
    },
    {
      "inputs": [
        {
          "internalType": "bytes32",
          "name": "role",
          "type": "bytes32"
        },
        {
          "internalType": "address",
          "name": "account",
          "type": "address"
        }
      ],
      "name": "hasRole",
      "outputs": [
        {
          "internalType": "bool",
          "name": "",
          "type": "bool"
        }
      ],
      "stateMutability": "view",
      "type": "function",
      "constant": true
    },
    {
      "inputs": [
        {
          "internalType": "address",
          "name": "owner",
          "type": "address"
        },
        {
          "internalType": "address",
          "name": "operator",
          "type": "address"
        }
      ],
      "name": "isApprovedForAll",
      "outputs": [
        {
          "internalType": "bool",
          "name": "",
          "type": "bool"
        }
      ],
      "stateMutability": "view",
      "type": "function",
      "constant": true
    },
    {
      "inputs": [
        {
          "internalType": "address",
          "name": "to",
          "type": "address"
        }
      ],
      "name": "mint",
      "outputs": [],
      "stateMutability": "nonpayable",
      "type": "function"
    },
    {
      "inputs": [],
      "name": "name",
      "outputs": [
        {
          "internalType": "string",
          "name": "",
          "type": "string"
        }
      ],
      "stateMutability": "view",
      "type": "function",
      "constant": true
    },
    {
      "inputs": [
        {
          "internalType": "uint256",
          "name": "tokenId",
          "type": "uint256"
        }
      ],
      "name": "ownerOf",
      "outputs": [
        {
          "internalType": "address",
          "name": "",
          "type": "address"
        }
      ],
      "stateMutability": "view",
      "type": "function",
      "constant": true
    },
    {
      "inputs": [],
      "name": "pause",
      "outputs": [],
      "stateMutability": "nonpayable",
      "type": "function"
    },
    {
      "inputs": [],
      "name": "paused",
      "outputs": [
        {
          "internalType": "bool",
          "name": "",
          "type": "bool"
        }
      ],
      "stateMutability": "view",
      "type": "function",
      "constant": true
    },
    {
      "inputs": [
        {
          "internalType": "bytes32",
          "name": "role",
          "type": "bytes32"
        },
        {
          "internalType": "address",
          "name": "account",
          "type": "address"
        }
      ],
      "name": "renounceRole",
      "outputs": [],
      "stateMutability": "nonpayable",
      "type": "function"
    },
    {
      "inputs": [
        {
          "internalType": "bytes32",
          "name": "role",
          "type": "bytes32"
        },
        {
          "internalType": "address",
          "name": "account",
          "type": "address"
        }
      ],
      "name": "revokeRole",
      "outputs": [],
      "stateMutability": "nonpayable",
      "type": "function"
    },
    {
      "inputs": [
        {
          "internalType": "address",
          "name": "from",
          "type": "address"
        },
        {
          "internalType": "address",
          "name": "to",
          "type": "address"
        },
        {
          "internalType": "uint256",
          "name": "tokenId",
          "type": "uint256"
        }
      ],
      "name": "safeTransferFrom",
      "outputs": [],
      "stateMutability": "nonpayable",
      "type": "function"
    },
    {
      "inputs": [
        {
          "internalType": "address",
          "name": "from",
          "type": "address"
        },
        {
          "internalType": "address",
          "name": "to",
          "type": "address"
        },
        {
          "internalType": "uint256",
          "name": "tokenId",
          "type": "uint256"
        },
        {
          "internalType": "bytes",
          "name": "_data",
          "type": "bytes"
        }
      ],
      "name": "safeTransferFrom",
      "outputs": [],
      "stateMutability": "nonpayable",
      "type": "function"
    },
    {
      "inputs": [
        {
          "internalType": "address",
          "name": "operator",
          "type": "address"
        },
        {
          "internalType": "bool",
          "name": "approved",
          "type": "bool"
        }
      ],
      "name": "setApprovalForAll",
      "outputs": [],
      "stateMutability": "nonpayable",
      "type": "function"
    },
    {
      "inputs": [
        {
          "internalType": "bytes4",
          "name": "interfaceId",
          "type": "bytes4"
        }
      ],
      "name": "supportsInterface",
      "outputs": [
        {
          "internalType": "bool",
          "name": "",
          "type": "bool"
        }
      ],
      "stateMutability": "view",
      "type": "function",
      "constant": true
    },
    {
      "inputs": [],
      "name": "symbol",
      "outputs": [
        {
          "internalType": "string",
          "name": "",
          "type": "string"
        }
      ],
      "stateMutability": "view",
      "type": "function",
      "constant": true
    },
    {
      "inputs": [
        {
          "internalType": "uint256",
          "name": "index",
          "type": "uint256"
        }
      ],
      "name": "tokenByIndex",
      "outputs": [
        {
          "internalType": "uint256",
          "name": "",
          "type": "uint256"
        }
      ],
      "stateMutability": "view",
      "type": "function",
      "constant": true
    },
    {
      "inputs": [
        {
          "internalType": "address",
          "name": "owner",
          "type": "address"
        },
        {
          "internalType": "uint256",
          "name": "index",
          "type": "uint256"
        }
      ],
      "name": "tokenOfOwnerByIndex",
      "outputs": [
        {
          "internalType": "uint256",
          "name": "",
          "type": "uint256"
        }
      ],
      "stateMutability": "view",
      "type": "function",
      "constant": true
    },
    {
      "inputs": [
        {
          "internalType": "uint256",
          "name": "tokenId",
          "type": "uint256"
        }
      ],
      "name": "tokenURI",
      "outputs": [
        {
          "internalType": "string",
          "name": "",
          "type": "string"
        }
      ],
      "stateMutability": "view",
      "type": "function",
      "constant": true
    },
    {
      "inputs": [],
      "name": "totalSupply",
      "outputs": [
        {
          "internalType": "uint256",
          "name": "",
          "type": "uint256"
        }
      ],
      "stateMutability": "view",
      "type": "function",
      "constant": true
    },
    {
      "inputs": [
        {
          "internalType": "address",
          "name": "from",
          "type": "address"
        },
        {
          "internalType": "address",
          "name": "to",
          "type": "address"
        },
        {
          "internalType": "uint256",
          "name": "tokenId",
          "type": "uint256"
        }
      ],
      "name": "transferFrom",
      "outputs": [],
      "stateMutability": "nonpayable",
      "type": "function"
    },
    {
      "inputs": [],
      "name": "unpause",
      "outputs": [],
      "stateMutability": "nonpayable",
      "type": "function"
    }
  ],
  "bytecode": "0x60806040523480156200001157600080fd5b506040518060400160405280600981526020017f54657374546f6b656e00000000000000000000000000000000000000000000008152506040518060400160405280600281526020017f54540000000000000000000000000000000000000000000000000000000000008152506040518060400160405280600b81526020017f6578616d706c652e636f6d00000000000000000000000000000000000000000081525082828160029080519060200190620000ce92919062000463565b508060039080519060200190620000e792919062000463565b5050506000600c60006101000a81548160ff02191690831515021790555080600e90805190602001906200011d92919062000463565b50620001426000801b62000136620001cd60201b60201c565b620001d560201b60201c565b620001837f9f2df0fed2c77648de5860a4cc508cd0818c85b8b8a1ab4ceeef8d981c8956a662000177620001cd60201b60201c565b620001d560201b60201c565b620001c47f65d7a28e3265b37a6474929f336521b332c1681b933f6cb9f3376673440d862a620001b8620001cd60201b60201c565b620001d560201b60201c565b50505062000578565b600033905090565b620001ec82826200021d60201b6200130a1760201c565b6200021881600160008581526020019081526020016000206200023360201b620013181790919060201c565b505050565b6200022f82826200026b60201b60201c565b5050565b600062000263836000018373ffffffffffffffffffffffffffffffffffffffff1660001b6200035c60201b60201c565b905092915050565b6200027d8282620003d660201b60201c565b6200035857600160008084815260200190815260200160002060000160008373ffffffffffffffffffffffffffffffffffffffff1673ffffffffffffffffffffffffffffffffffffffff16815260200190815260200160002060006101000a81548160ff021916908315150217905550620002fd620001cd60201b60201c565b73ffffffffffffffffffffffffffffffffffffffff168173ffffffffffffffffffffffffffffffffffffffff16837f2f8788117e7eff1d82e926ec794901d17c78024a50270940304540a733656f0d60405160405180910390a45b5050565b60006200037083836200044060201b60201c565b620003cb578260000182908060018154018082558091505060019003906000526020600020016000909190919091505582600001805490508360010160008481526020019081526020016000208190555060019050620003d0565b600090505b92915050565b600080600084815260200190815260200160002060000160008373ffffffffffffffffffffffffffffffffffffffff1673ffffffffffffffffffffffffffffffffffffffff16815260200190815260200160002060009054906101000a900460ff16905092915050565b600080836001016000848152602001908152602001600020541415905092915050565b828054620004719062000513565b90600052602060002090601f016020900481019282620004955760008555620004e1565b82601f10620004b057805160ff1916838001178555620004e1565b82800160010185558215620004e1579182015b82811115620004e0578251825591602001919060010190620004c3565b5b509050620004f09190620004f4565b5090565b5b808211156200050f576000816000905550600101620004f5565b5090565b600060028204905060018216806200052c57607f821691505b6020821081141562000543576200054262000549565b5b50919050565b7f4e487b7100000000000000000000000000000000000000000000000000000000600052602260045260246000fd5b61499780620005886000396000f3fe608060405234801561001057600080fd5b50600436106101e55760003560e01c80636352211e1161010f578063a22cb465116100a2578063d539139311610071578063d5391393146105a0578063d547741f146105be578063e63ab1e9146105da578063e985e9c5146105f8576101e5565b8063a22cb46514610508578063b88d4fde14610524578063c87b56dd14610540578063ca15c87314610570576101e5565b80639010d07c116100de5780639010d07c1461046c57806391d148541461049c57806395d89b41146104cc578063a217fddf146104ea576101e5565b80636352211e146103e65780636a6278421461041657806370a08231146104325780638456cb5914610462576101e5565b80632f2ff15d1161018757806342842e0e1161015657806342842e0e1461036057806342966c681461037c5780634f6ccce7146103985780635c975abb146103c8576101e5565b80632f2ff15d146102ee5780632f745c591461030a57806336568abe1461033a5780633f4ba83a14610356576101e5565b8063095ea7b3116101c3578063095ea7b31461026857806318160ddd1461028457806323b872dd146102a2578063248a9ca3146102be576101e5565b806301ffc9a7146101ea57806306fdde031461021a578063081812fc14610238575b600080fd5b61020460048036038101906101ff9190613424565b610628565b60405161021191906139f4565b60405180910390f35b61022261063a565b60405161022f9190613a2a565b60405180910390f35b610252600480360381019061024d9190613476565b6106cc565b60405161025f919061398d565b60405180910390f35b610282600480360381019061027d9190613347565b610751565b005b61028c610869565b6040516102999190613d6c565b60405180910390f35b6102bc60048036038101906102b79190613241565b610876565b005b6102d860048036038101906102d39190613383565b6108d6565b6040516102e59190613a0f565b60405180910390f35b610308600480360381019061030391906133ac565b6108f5565b005b610324600480360381019061031f9190613347565b610929565b6040516103319190613d6c565b60405180910390f35b610354600480360381019061034f91906133ac565b6109ce565b005b61035e610a02565b005b61037a60048036038101906103759190613241565b610a7c565b005b61039660048036038101906103919190613476565b610a9c565b005b6103b260048036038101906103ad9190613476565b610af8565b6040516103bf9190613d6c565b60405180910390f35b6103d0610b8f565b6040516103dd91906139f4565b60405180910390f35b61040060048036038101906103fb9190613476565b610ba6565b60405161040d919061398d565b60405180910390f35b610430600480360381019061042b91906131dc565b610c58565b005b61044c600480360381019061044791906131dc565b610ce8565b6040516104599190613d6c565b60405180910390f35b61046a610da0565b005b610486600480360381019061048191906133e8565b610e1a565b604051610493919061398d565b60405180910390f35b6104b660048036038101906104b191906133ac565b610e49565b6040516104c391906139f4565b60405180910390f35b6104d4610eb3565b6040516104e19190613a2a565b60405180910390f35b6104f2610f45565b6040516104ff9190613a0f565b60405180910390f35b610522600480360381019061051d919061330b565b610f4c565b005b61053e60048036038101906105399190613290565b6110cd565b005b61055a60048036038101906105559190613476565b61112f565b6040516105679190613a2a565b60405180910390f35b61058a60048036038101906105859190613383565b6111d6565b6040516105979190613d6c565b60405180910390f35b6105a86111fa565b6040516105b59190613a0f565b60405180910390f35b6105d860048036038101906105d391906133ac565b61121e565b005b6105e2611252565b6040516105ef9190613a0f565b60405180910390f35b610612600480360381019061060d9190613205565b611276565b60405161061f91906139f4565b60405180910390f35b600061063382611348565b9050919050565b6060600280546106499061401f565b80601f01602080910402602001604051908101604052809291908181526020018280546106759061401f565b80156106c25780601f10610697576101008083540402835291602001916106c2565b820191906000526020600020905b8154815290600101906020018083116106a557829003601f168201915b5050505050905090565b60006106d7826113c2565b610716576040517f08c379a000000000000000000000000000000000000000000000000000000000815260040161070d90613c2c565b60405180910390fd5b6006600083815260200190815260200160002060009054906101000a900473ffffffffffffffffffffffffffffffffffffffff169050919050565b600061075c82610ba6565b90508073ffffffffffffffffffffffffffffffffffffffff168373ffffffffffffffffffffffffffffffffffffffff1614156107cd576040517f08c379a00000000000000000000000000000000000000000000000000000000081526004016107c490613c8c565b60405180910390fd5b8073ffffffffffffffffffffffffffffffffffffffff166107ec61142e565b73ffffffffffffffffffffffffffffffffffffffff16148061081b575061081a8161081561142e565b611276565b5b61085a576040517f08c379a000000000000000000000000000000000000000000000000000000000815260040161085190613bac565b60405180910390fd5b6108648383611436565b505050565b6000600a80549050905090565b61088761088161142e565b826114ef565b6108c6576040517f08c379a00000000000000000000000000000000000000000000000000000000081526004016108bd90613cac565b60405180910390fd5b6108d18383836115cd565b505050565b6000806000838152602001908152602001600020600101549050919050565b6108ff8282611829565b610924816001600085815260200190815260200160002061131890919063ffffffff16565b505050565b600061093483610ce8565b8210610975576040517f08c379a000000000000000000000000000000000000000000000000000000000815260040161096c90613aac565b60405180910390fd5b600860008473ffffffffffffffffffffffffffffffffffffffff1673ffffffffffffffffffffffffffffffffffffffff168152602001908152602001600020600083815260200190815260200160002054905092915050565b6109d88282611852565b6109fd81600160008581526020019081526020016000206118d590919063ffffffff16565b505050565b610a337f65d7a28e3265b37a6474929f336521b332c1681b933f6cb9f3376673440d862a610a2e61142e565b610e49565b610a72576040517f08c379a0000000000000000000000000000000000000000000000000000000008152600401610a6990613d2c565b60405180910390fd5b610a7a611905565b565b610a97838383604051806020016040528060008152506110cd565b505050565b610aad610aa761142e565b826114ef565b610aec576040517f08c379a0000000000000000000000000000000000000000000000000000000008152600401610ae390613d0c565b60405180910390fd5b610af5816119a7565b50565b6000610b02610869565b8210610b43576040517f08c379a0000000000000000000000000000000000000000000000000000000008152600401610b3a90613ccc565b60405180910390fd5b600a8281548110610b7d577f4e487b7100000000000000000000000000000000000000000000000000000000600052603260045260246000fd5b90600052602060002001549050919050565b6000600c60009054906101000a900460ff16905090565b6000806004600084815260200190815260200160002060009054906101000a900473ffffffffffffffffffffffffffffffffffffffff169050600073ffffffffffffffffffffffffffffffffffffffff168173ffffffffffffffffffffffffffffffffffffffff161415610c4f576040517f08c379a0000000000000000000000000000000000000000000000000000000008152600401610c4690613bec565b60405180910390fd5b80915050919050565b610c897f9f2df0fed2c77648de5860a4cc508cd0818c85b8b8a1ab4ceeef8d981c8956a6610c8461142e565b610e49565b610cc8576040517f08c379a0000000000000000000000000000000000000000000000000000000008152600401610cbf90613cec565b60405180910390fd5b610cdb81610cd6600d611ab8565b611ac6565b610ce5600d611c94565b50565b60008073ffffffffffffffffffffffffffffffffffffffff168273ffffffffffffffffffffffffffffffffffffffff161415610d59576040517f08c379a0000000000000000000000000000000000000000000000000000000008152600401610d5090613bcc565b60405180910390fd5b600560008373ffffffffffffffffffffffffffffffffffffffff1673ffffffffffffffffffffffffffffffffffffffff168152602001908152602001600020549050919050565b610dd17f65d7a28e3265b37a6474929f336521b332c1681b933f6cb9f3376673440d862a610dcc61142e565b610e49565b610e10576040517f08c379a0000000000000000000000000000000000000000000000000000000008152600401610e0790613b0c565b60405180910390fd5b610e18611caa565b565b6000610e418260016000868152602001908152602001600020611d4d90919063ffffffff16565b905092915050565b600080600084815260200190815260200160002060000160008373ffffffffffffffffffffffffffffffffffffffff1673ffffffffffffffffffffffffffffffffffffffff16815260200190815260200160002060009054906101000a900460ff16905092915050565b606060038054610ec29061401f565b80601f0160208091040260200160405190810160405280929190818152602001828054610eee9061401f565b8015610f3b5780601f10610f1057610100808354040283529160200191610f3b565b820191906000526020600020905b815481529060010190602001808311610f1e57829003601f168201915b5050505050905090565b6000801b81565b610f5461142e565b73ffffffffffffffffffffffffffffffffffffffff168273ffffffffffffffffffffffffffffffffffffffff161415610fc2576040517f08c379a0000000000000000000000000000000000000000000000000000000008152600401610fb990613b4c565b60405180910390fd5b8060076000610fcf61142e565b73ffffffffffffffffffffffffffffffffffffffff1673ffffffffffffffffffffffffffffffffffffffff16815260200190815260200160002060008473ffffffffffffffffffffffffffffffffffffffff1673ffffffffffffffffffffffffffffffffffffffff16815260200190815260200160002060006101000a81548160ff0219169083151502179055508173ffffffffffffffffffffffffffffffffffffffff1661107c61142e565b73ffffffffffffffffffffffffffffffffffffffff167f17307eab39ab6107e8899845ad3d59bd9653f200f220920489ca2b5937696c31836040516110c191906139f4565b60405180910390a35050565b6110de6110d861142e565b836114ef565b61111d576040517f08c379a000000000000000000000000000000000000000000000000000000000815260040161111490613cac565b60405180910390fd5b61112984848484611d67565b50505050565b606061113a826113c2565b611179576040517f08c379a000000000000000000000000000000000000000000000000000000000815260040161117090613c6c565b60405180910390fd5b6000611183611dc3565b905060008151116111a357604051806020016040528060008152506111ce565b806111ad84611e55565b6040516020016111be92919061392f565b6040516020818303038152906040525b915050919050565b60006111f360016000848152602001908152602001600020612002565b9050919050565b7f9f2df0fed2c77648de5860a4cc508cd0818c85b8b8a1ab4ceeef8d981c8956a681565b6112288282612017565b61124d81600160008581526020019081526020016000206118d590919063ffffffff16565b505050565b7f65d7a28e3265b37a6474929f336521b332c1681b933f6cb9f3376673440d862a81565b6000600760008473ffffffffffffffffffffffffffffffffffffffff1673ffffffffffffffffffffffffffffffffffffffff16815260200190815260200160002060008373ffffffffffffffffffffffffffffffffffffffff1673ffffffffffffffffffffffffffffffffffffffff16815260200190815260200160002060009054906101000a900460ff16905092915050565b6113148282612040565b5050565b6000611340836000018373ffffffffffffffffffffffffffffffffffffffff1660001b612120565b905092915050565b60007f780e9d63000000000000000000000000000000000000000000000000000000007bffffffffffffffffffffffffffffffffffffffffffffffffffffffff1916827bffffffffffffffffffffffffffffffffffffffffffffffffffffffff191614806113bb57506113ba82612190565b5b9050919050565b60008073ffffffffffffffffffffffffffffffffffffffff166004600084815260200190815260200160002060009054906101000a900473ffffffffffffffffffffffffffffffffffffffff1673ffffffffffffffffffffffffffffffffffffffff1614159050919050565b600033905090565b816006600083815260200190815260200160002060006101000a81548173ffffffffffffffffffffffffffffffffffffffff021916908373ffffffffffffffffffffffffffffffffffffffff160217905550808273ffffffffffffffffffffffffffffffffffffffff166114a983610ba6565b73ffffffffffffffffffffffffffffffffffffffff167f8c5be1e5ebec7d5bd14f71427d1e84f3dd0314c0f7b2291e5b200ac8c7c3b92560405160405180910390a45050565b60006114fa826113c2565b611539576040517f08c379a000000000000000000000000000000000000000000000000000000000815260040161153090613b6c565b60405180910390fd5b600061154483610ba6565b90508073ffffffffffffffffffffffffffffffffffffffff168473ffffffffffffffffffffffffffffffffffffffff1614806115b357508373ffffffffffffffffffffffffffffffffffffffff1661159b846106cc565b73ffffffffffffffffffffffffffffffffffffffff16145b806115c457506115c38185611276565b5b91505092915050565b8273ffffffffffffffffffffffffffffffffffffffff166115ed82610ba6565b73ffffffffffffffffffffffffffffffffffffffff1614611643576040517f08c379a000000000000000000000000000000000000000000000000000000000815260040161163a90613c4c565b60405180910390fd5b600073ffffffffffffffffffffffffffffffffffffffff168273ffffffffffffffffffffffffffffffffffffffff1614156116b3576040517f08c379a00000000000000000000000000000000000000000000000000000000081526004016116aa90613b2c565b60405180910390fd5b6116be838383612272565b6116c9600082611436565b6001600560008573ffffffffffffffffffffffffffffffffffffffff1673ffffffffffffffffffffffffffffffffffffffff16815260200190815260200160002060008282546117199190613f01565b925050819055506001600560008473ffffffffffffffffffffffffffffffffffffffff1673ffffffffffffffffffffffffffffffffffffffff16815260200190815260200160002060008282546117709190613e20565b92505081905550816004600083815260200190815260200160002060006101000a81548173ffffffffffffffffffffffffffffffffffffffff021916908373ffffffffffffffffffffffffffffffffffffffff160217905550808273ffffffffffffffffffffffffffffffffffffffff168473ffffffffffffffffffffffffffffffffffffffff167fddf252ad1be2c89b69c2b068fc378daa952ba7f163c4a11628f55a4df523b3ef60405160405180910390a4505050565b611832826108d6565b6118438161183e61142e565b612282565b61184d8383612040565b505050565b61185a61142e565b73ffffffffffffffffffffffffffffffffffffffff168173ffffffffffffffffffffffffffffffffffffffff16146118c7576040517f08c379a00000000000000000000000000000000000000000000000000000000081526004016118be90613d4c565b60405180910390fd5b6118d1828261231f565b5050565b60006118fd836000018373ffffffffffffffffffffffffffffffffffffffff1660001b612400565b905092915050565b61190d610b8f565b61194c576040517f08c379a000000000000000000000000000000000000000000000000000000000815260040161194390613a8c565b60405180910390fd5b6000600c60006101000a81548160ff0219169083151502179055507f5db9ee0a495bf2e6ff9c91a7834c1ba4fdd244a5e8aa4e537bd38aeae4b073aa61199061142e565b60405161199d919061398d565b60405180910390a1565b60006119b282610ba6565b90506119c081600084612272565b6119cb600083611436565b6001600560008373ffffffffffffffffffffffffffffffffffffffff1673ffffffffffffffffffffffffffffffffffffffff1681526020019081526020016000206000828254611a1b9190613f01565b925050819055506004600083815260200190815260200160002060006101000a81549073ffffffffffffffffffffffffffffffffffffffff021916905581600073ffffffffffffffffffffffffffffffffffffffff168273ffffffffffffffffffffffffffffffffffffffff167fddf252ad1be2c89b69c2b068fc378daa952ba7f163c4a11628f55a4df523b3ef60405160405180910390a45050565b600081600001549050919050565b600073ffffffffffffffffffffffffffffffffffffffff168273ffffffffffffffffffffffffffffffffffffffff161415611b36576040517f08c379a0000000000000000000000000000000000000000000000000000000008152600401611b2d90613c0c565b60405180910390fd5b611b3f816113c2565b15611b7f576040517f08c379a0000000000000000000000000000000000000000000000000000000008152600401611b7690613aec565b60405180910390fd5b611b8b60008383612272565b6001600560008473ffffffffffffffffffffffffffffffffffffffff1673ffffffffffffffffffffffffffffffffffffffff1681526020019081526020016000206000828254611bdb9190613e20565b92505081905550816004600083815260200190815260200160002060006101000a81548173ffffffffffffffffffffffffffffffffffffffff021916908373ffffffffffffffffffffffffffffffffffffffff160217905550808273ffffffffffffffffffffffffffffffffffffffff16600073ffffffffffffffffffffffffffffffffffffffff167fddf252ad1be2c89b69c2b068fc378daa952ba7f163c4a11628f55a4df523b3ef60405160405180910390a45050565b6001816000016000828254019250508190555050565b611cb2610b8f565b15611cf2576040517f08c379a0000000000000000000000000000000000000000000000000000000008152600401611ce990613b8c565b60405180910390fd5b6001600c60006101000a81548160ff0219169083151502179055507f62e78cea01bee320cd4e420270b5ea74000d11b0c9f74754ebdbfc544b05a258611d3661142e565b604051611d43919061398d565b60405180910390a1565b6000611d5c8360000183612586565b60001c905092915050565b611d728484846115cd565b611d7e848484846125d7565b611dbd576040517f08c379a0000000000000000000000000000000000000000000000000000000008152600401611db490613acc565b60405180910390fd5b50505050565b6060600e8054611dd29061401f565b80601f0160208091040260200160405190810160405280929190818152602001828054611dfe9061401f565b8015611e4b5780601f10611e2057610100808354040283529160200191611e4b565b820191906000526020600020905b815481529060010190602001808311611e2e57829003601f168201915b5050505050905090565b60606000821415611e9d576040518060400160405280600181526020017f30000000000000000000000000000000000000000000000000000000000000008152509050611ffd565b600082905060005b60008214611ecf578080611eb890614082565b915050600a82611ec89190613e76565b9150611ea5565b60008167ffffffffffffffff811115611f11577f4e487b7100000000000000000000000000000000000000000000000000000000600052604160045260246000fd5b6040519080825280601f01601f191660200182016040528015611f435781602001600182028036833780820191505090505b5090505b60008514611ff657600182611f5c9190613f01565b9150600a85611f6b91906140cb565b6030611f779190613e20565b60f81b818381518110611fb3577f4e487b7100000000000000000000000000000000000000000000000000000000600052603260045260246000fd5b60200101907effffffffffffffffffffffffffffffffffffffffffffffffffffffffffffff1916908160001a905350600a85611fef9190613e76565b9450611f47565b8093505050505b919050565b60006120108260000161276e565b9050919050565b612020826108d6565b6120318161202c61142e565b612282565b61203b838361231f565b505050565b61204a8282610e49565b61211c57600160008084815260200190815260200160002060000160008373ffffffffffffffffffffffffffffffffffffffff1673ffffffffffffffffffffffffffffffffffffffff16815260200190815260200160002060006101000a81548160ff0219169083151502179055506120c161142e565b73ffffffffffffffffffffffffffffffffffffffff168173ffffffffffffffffffffffffffffffffffffffff16837f2f8788117e7eff1d82e926ec794901d17c78024a50270940304540a733656f0d60405160405180910390a45b5050565b600061212c838361277f565b61218557826000018290806001815401808255809150506001900390600052602060002001600090919091909150558260000180549050836001016000848152602001908152602001600020819055506001905061218a565b600090505b92915050565b60007f80ac58cd000000000000000000000000000000000000000000000000000000007bffffffffffffffffffffffffffffffffffffffffffffffffffffffff1916827bffffffffffffffffffffffffffffffffffffffffffffffffffffffff1916148061225b57507f5b5e139f000000000000000000000000000000000000000000000000000000007bffffffffffffffffffffffffffffffffffffffffffffffffffffffff1916827bffffffffffffffffffffffffffffffffffffffffffffffffffffffff1916145b8061226b575061226a826127a2565b5b9050919050565b61227d83838361281c565b505050565b61228c8282610e49565b61231b576122b18173ffffffffffffffffffffffffffffffffffffffff166014612874565b6122bf8360001c6020612874565b6040516020016122d0929190613953565b6040516020818303038152906040526040517f08c379a00000000000000000000000000000000000000000000000000000000081526004016123129190613a2a565b60405180910390fd5b5050565b6123298282610e49565b156123fc57600080600084815260200190815260200160002060000160008373ffffffffffffffffffffffffffffffffffffffff1673ffffffffffffffffffffffffffffffffffffffff16815260200190815260200160002060006101000a81548160ff0219169083151502179055506123a161142e565b73ffffffffffffffffffffffffffffffffffffffff168173ffffffffffffffffffffffffffffffffffffffff16837ff6391f5c32d9c69d2a47ea670b442974b53935d1edc7fd64eb21e047a839171b60405160405180910390a45b5050565b6000808360010160008481526020019081526020016000205490506000811461257a5760006001826124329190613f01565b905060006001866000018054905061244a9190613f01565b9050818114612505576000866000018281548110612491577f4e487b7100000000000000000000000000000000000000000000000000000000600052603260045260246000fd5b90600052602060002001549050808760000184815481106124db577f4e487b7100000000000000000000000000000000000000000000000000000000600052603260045260246000fd5b90600052602060002001819055508387600101600083815260200190815260200160002081905550505b8560000180548061253f577f4e487b7100000000000000000000000000000000000000000000000000000000600052603160045260246000fd5b600190038181906000526020600020016000905590558560010160008681526020019081526020016000206000905560019350505050612580565b60009150505b92915050565b60008260000182815481106125c4577f4e487b7100000000000000000000000000000000000000000000000000000000600052603260045260246000fd5b9060005260206000200154905092915050565b60006125f88473ffffffffffffffffffffffffffffffffffffffff16612b6e565b15612761578373ffffffffffffffffffffffffffffffffffffffff1663150b7a0261262161142e565b8786866040518563ffffffff1660e01b815260040161264394939291906139a8565b602060405180830381600087803b15801561265d57600080fd5b505af192505050801561268e57506040513d601f19601f8201168201806040525081019061268b919061344d565b60015b612711573d80600081146126be576040519150601f19603f3d011682016040523d82523d6000602084013e6126c3565b606091505b50600081511415612709576040517f08c379a000000000000000000000000000000000000000000000000000000000815260040161270090613acc565b60405180910390fd5b805181602001fd5b63150b7a0260e01b7bffffffffffffffffffffffffffffffffffffffffffffffffffffffff1916817bffffffffffffffffffffffffffffffffffffffffffffffffffffffff191614915050612766565b600190505b949350505050565b600081600001805490509050919050565b600080836001016000848152602001908152602001600020541415905092915050565b60007f5a05180f000000000000000000000000000000000000000000000000000000007bffffffffffffffffffffffffffffffffffffffffffffffffffffffff1916827bffffffffffffffffffffffffffffffffffffffffffffffffffffffff19161480612815575061281482612b81565b5b9050919050565b612827838383612bfb565b61282f610b8f565b1561286f576040517f08c379a000000000000000000000000000000000000000000000000000000000815260040161286690613a6c565b60405180910390fd5b505050565b6060600060028360026128879190613ea7565b6128919190613e20565b67ffffffffffffffff8111156128d0577f4e487b7100000000000000000000000000000000000000000000000000000000600052604160045260246000fd5b6040519080825280601f01601f1916602001820160405280156129025781602001600182028036833780820191505090505b5090507f300000000000000000000000000000000000000000000000000000000000000081600081518110612960577f4e487b7100000000000000000000000000000000000000000000000000000000600052603260045260246000fd5b60200101907effffffffffffffffffffffffffffffffffffffffffffffffffffffffffffff1916908160001a9053507f7800000000000000000000000000000000000000000000000000000000000000816001815181106129ea577f4e487b7100000000000000000000000000000000000000000000000000000000600052603260045260246000fd5b60200101907effffffffffffffffffffffffffffffffffffffffffffffffffffffffffffff1916908160001a90535060006001846002612a2a9190613ea7565b612a349190613e20565b90505b6001811115612b20577f3031323334353637383961626364656600000000000000000000000000000000600f861660108110612a9c577f4e487b7100000000000000000000000000000000000000000000000000000000600052603260045260246000fd5b1a60f81b828281518110612ad9577f4e487b7100000000000000000000000000000000000000000000000000000000600052603260045260246000fd5b60200101907effffffffffffffffffffffffffffffffffffffffffffffffffffffffffffff1916908160001a905350600485901c945080612b1990613ff5565b9050612a37565b5060008414612b64576040517f08c379a0000000000000000000000000000000000000000000000000000000008152600401612b5b90613a4c565b60405180910390fd5b8091505092915050565b600080823b905060008111915050919050565b60007f7965db0b000000000000000000000000000000000000000000000000000000007bffffffffffffffffffffffffffffffffffffffffffffffffffffffff1916827bffffffffffffffffffffffffffffffffffffffffffffffffffffffff19161480612bf45750612bf382612d0f565b5b9050919050565b612c06838383612d79565b600073ffffffffffffffffffffffffffffffffffffffff168373ffffffffffffffffffffffffffffffffffffffff161415612c4957612c4481612d7e565b612c88565b8173ffffffffffffffffffffffffffffffffffffffff168373ffffffffffffffffffffffffffffffffffffffff1614612c8757612c868382612dc7565b5b5b600073ffffffffffffffffffffffffffffffffffffffff168273ffffffffffffffffffffffffffffffffffffffff161415612ccb57612cc681612f34565b612d0a565b8273ffffffffffffffffffffffffffffffffffffffff168273ffffffffffffffffffffffffffffffffffffffff1614612d0957612d088282613077565b5b5b505050565b60007f01ffc9a7000000000000000000000000000000000000000000000000000000007bffffffffffffffffffffffffffffffffffffffffffffffffffffffff1916827bffffffffffffffffffffffffffffffffffffffffffffffffffffffff1916149050919050565b505050565b600a80549050600b600083815260200190815260200160002081905550600a81908060018154018082558091505060019003906000526020600020016000909190919091505550565b60006001612dd484610ce8565b612dde9190613f01565b9050600060096000848152602001908152602001600020549050818114612ec3576000600860008673ffffffffffffffffffffffffffffffffffffffff1673ffffffffffffffffffffffffffffffffffffffff168152602001908152602001600020600084815260200190815260200160002054905080600860008773ffffffffffffffffffffffffffffffffffffffff1673ffffffffffffffffffffffffffffffffffffffff168152602001908152602001600020600084815260200190815260200160002081905550816009600083815260200190815260200160002081905550505b6009600084815260200190815260200160002060009055600860008573ffffffffffffffffffffffffffffffffffffffff1673ffffffffffffffffffffffffffffffffffffffff16815260200190815260200160002060008381526020019081526020016000206000905550505050565b60006001600a80549050612f489190613f01565b90506000600b60008481526020019081526020016000205490506000600a8381548110612f9e577f4e487b7100000000000000000000000000000000000000000000000000000000600052603260045260246000fd5b9060005260206000200154905080600a8381548110612fe6577f4e487b7100000000000000000000000000000000000000000000000000000000600052603260045260246000fd5b906000526020600020018190555081600b600083815260200190815260200160002081905550600b600085815260200190815260200160002060009055600a80548061305b577f4e487b7100000000000000000000000000000000000000000000000000000000600052603160045260246000fd5b6001900381819060005260206000200160009055905550505050565b600061308283610ce8565b905081600860008573ffffffffffffffffffffffffffffffffffffffff1673ffffffffffffffffffffffffffffffffffffffff168152602001908152602001600020600083815260200190815260200160002081905550806009600084815260200190815260200160002081905550505050565b600061310961310484613dac565b613d87565b90508281526020810184848401111561312157600080fd5b61312c848285613fb3565b509392505050565b600081359050613143816148ee565b92915050565b60008135905061315881614905565b92915050565b60008135905061316d8161491c565b92915050565b60008135905061318281614933565b92915050565b60008151905061319781614933565b92915050565b600082601f8301126131ae57600080fd5b81356131be8482602086016130f6565b91505092915050565b6000813590506131d68161494a565b92915050565b6000602082840312156131ee57600080fd5b60006131fc84828501613134565b91505092915050565b6000806040838503121561321857600080fd5b600061322685828601613134565b925050602061323785828601613134565b9150509250929050565b60008060006060848603121561325657600080fd5b600061326486828701613134565b935050602061327586828701613134565b9250506040613286868287016131c7565b9150509250925092565b600080600080608085870312156132a657600080fd5b60006132b487828801613134565b94505060206132c587828801613134565b93505060406132d6878288016131c7565b925050606085013567ffffffffffffffff8111156132f357600080fd5b6132ff8782880161319d565b91505092959194509250565b6000806040838503121561331e57600080fd5b600061332c85828601613134565b925050602061333d85828601613149565b9150509250929050565b6000806040838503121561335a57600080fd5b600061336885828601613134565b9250506020613379858286016131c7565b9150509250929050565b60006020828403121561339557600080fd5b60006133a38482850161315e565b91505092915050565b600080604083850312156133bf57600080fd5b60006133cd8582860161315e565b92505060206133de85828601613134565b9150509250929050565b600080604083850312156133fb57600080fd5b60006134098582860161315e565b925050602061341a858286016131c7565b9150509250929050565b60006020828403121561343657600080fd5b600061344484828501613173565b91505092915050565b60006020828403121561345f57600080fd5b600061346d84828501613188565b91505092915050565b60006020828403121561348857600080fd5b6000613496848285016131c7565b91505092915050565b6134a881613f35565b82525050565b6134b781613f47565b82525050565b6134c681613f53565b82525050565b60006134d782613ddd565b6134e18185613df3565b93506134f1818560208601613fc2565b6134fa816141b8565b840191505092915050565b600061351082613de8565b61351a8185613e04565b935061352a818560208601613fc2565b613533816141b8565b840191505092915050565b600061354982613de8565b6135538185613e15565b9350613563818560208601613fc2565b80840191505092915050565b600061357c602083613e04565b9150613587826141c9565b602082019050919050565b600061359f602b83613e04565b91506135aa826141f2565b604082019050919050565b60006135c2601483613e04565b91506135cd82614241565b602082019050919050565b60006135e5602b83613e04565b91506135f08261426a565b604082019050919050565b6000613608603283613e04565b9150613613826142b9565b604082019050919050565b600061362b601c83613e04565b915061363682614308565b602082019050919050565b600061364e603e83613e04565b915061365982614331565b604082019050919050565b6000613671602483613e04565b915061367c82614380565b604082019050919050565b6000613694601983613e04565b915061369f826143cf565b602082019050919050565b60006136b7602c83613e04565b91506136c2826143f8565b604082019050919050565b60006136da601083613e04565b91506136e582614447565b602082019050919050565b60006136fd603883613e04565b915061370882614470565b604082019050919050565b6000613720602a83613e04565b915061372b826144bf565b604082019050919050565b6000613743602983613e04565b915061374e8261450e565b604082019050919050565b6000613766602083613e04565b91506137718261455d565b602082019050919050565b6000613789602c83613e04565b915061379482614586565b604082019050919050565b60006137ac602983613e04565b91506137b7826145d5565b604082019050919050565b60006137cf602f83613e04565b91506137da82614624565b604082019050919050565b60006137f2602183613e04565b91506137fd82614673565b604082019050919050565b6000613815603183613e04565b9150613820826146c2565b604082019050919050565b6000613838602c83613e04565b915061384382614711565b604082019050919050565b600061385b601783613e15565b915061386682614760565b601782019050919050565b600061387e603d83613e04565b915061388982614789565b604082019050919050565b60006138a1603083613e04565b91506138ac826147d8565b604082019050919050565b60006138c4604083613e04565b91506138cf82614827565b604082019050919050565b60006138e7601183613e15565b91506138f282614876565b601182019050919050565b600061390a602f83613e04565b91506139158261489f565b604082019050919050565b61392981613fa9565b82525050565b600061393b828561353e565b9150613947828461353e565b91508190509392505050565b600061395e8261384e565b915061396a828561353e565b9150613975826138da565b9150613981828461353e565b91508190509392505050565b60006020820190506139a2600083018461349f565b92915050565b60006080820190506139bd600083018761349f565b6139ca602083018661349f565b6139d76040830185613920565b81810360608301526139e981846134cc565b905095945050505050565b6000602082019050613a0960008301846134ae565b92915050565b6000602082019050613a2460008301846134bd565b92915050565b60006020820190508181036000830152613a448184613505565b905092915050565b60006020820190508181036000830152613a658161356f565b9050919050565b60006020820190508181036000830152613a8581613592565b9050919050565b60006020820190508181036000830152613aa5816135b5565b9050919050565b60006020820190508181036000830152613ac5816135d8565b9050919050565b60006020820190508181036000830152613ae5816135fb565b9050919050565b60006020820190508181036000830152613b058161361e565b9050919050565b60006020820190508181036000830152613b2581613641565b9050919050565b60006020820190508181036000830152613b4581613664565b9050919050565b60006020820190508181036000830152613b6581613687565b9050919050565b60006020820190508181036000830152613b85816136aa565b9050919050565b60006020820190508181036000830152613ba5816136cd565b9050919050565b60006020820190508181036000830152613bc5816136f0565b9050919050565b60006020820190508181036000830152613be581613713565b9050919050565b60006020820190508181036000830152613c0581613736565b9050919050565b60006020820190508181036000830152613c2581613759565b9050919050565b60006020820190508181036000830152613c458161377c565b9050919050565b60006020820190508181036000830152613c658161379f565b9050919050565b60006020820190508181036000830152613c85816137c2565b9050919050565b60006020820190508181036000830152613ca5816137e5565b9050919050565b60006020820190508181036000830152613cc581613808565b9050919050565b60006020820190508181036000830152613ce58161382b565b9050919050565b60006020820190508181036000830152613d0581613871565b9050919050565b60006020820190508181036000830152613d2581613894565b9050919050565b60006020820190508181036000830152613d45816138b7565b9050919050565b60006020820190508181036000830152613d65816138fd565b9050919050565b6000602082019050613d816000830184613920565b92915050565b6000613d91613da2565b9050613d9d8282614051565b919050565b6000604051905090565b600067ffffffffffffffff821115613dc757613dc6614189565b5b613dd0826141b8565b9050602081019050919050565b600081519050919050565b600081519050919050565b600082825260208201905092915050565b600082825260208201905092915050565b600081905092915050565b6000613e2b82613fa9565b9150613e3683613fa9565b9250827fffffffffffffffffffffffffffffffffffffffffffffffffffffffffffffffff03821115613e6b57613e6a6140fc565b5b828201905092915050565b6000613e8182613fa9565b9150613e8c83613fa9565b925082613e9c57613e9b61412b565b5b828204905092915050565b6000613eb282613fa9565b9150613ebd83613fa9565b9250817fffffffffffffffffffffffffffffffffffffffffffffffffffffffffffffffff0483118215151615613ef657613ef56140fc565b5b828202905092915050565b6000613f0c82613fa9565b9150613f1783613fa9565b925082821015613f2a57613f296140fc565b5b828203905092915050565b6000613f4082613f89565b9050919050565b60008115159050919050565b6000819050919050565b60007fffffffff0000000000000000000000000000000000000000000000000000000082169050919050565b600073ffffffffffffffffffffffffffffffffffffffff82169050919050565b6000819050919050565b82818337600083830152505050565b60005b83811015613fe0578082015181840152602081019050613fc5565b83811115613fef576000848401525b50505050565b600061400082613fa9565b91506000821415614014576140136140fc565b5b600182039050919050565b6000600282049050600182168061403757607f821691505b6020821081141561404b5761404a61415a565b5b50919050565b61405a826141b8565b810181811067ffffffffffffffff8211171561407957614078614189565b5b80604052505050565b600061408d82613fa9565b91507fffffffffffffffffffffffffffffffffffffffffffffffffffffffffffffffff8214156140c0576140bf6140fc565b5b600182019050919050565b60006140d682613fa9565b91506140e183613fa9565b9250826140f1576140f061412b565b5b828206905092915050565b7f4e487b7100000000000000000000000000000000000000000000000000000000600052601160045260246000fd5b7f4e487b7100000000000000000000000000000000000000000000000000000000600052601260045260246000fd5b7f4e487b7100000000000000000000000000000000000000000000000000000000600052602260045260246000fd5b7f4e487b7100000000000000000000000000000000000000000000000000000000600052604160045260246000fd5b6000601f19601f8301169050919050565b7f537472696e67733a20686578206c656e67746820696e73756666696369656e74600082015250565b7f4552433732315061757361626c653a20746f6b656e207472616e73666572207760008201527f68696c6520706175736564000000000000000000000000000000000000000000602082015250565b7f5061757361626c653a206e6f7420706175736564000000000000000000000000600082015250565b7f455243373231456e756d657261626c653a206f776e657220696e646578206f7560008201527f74206f6620626f756e6473000000000000000000000000000000000000000000602082015250565b7f4552433732313a207472616e7366657220746f206e6f6e20455243373231526560008201527f63656976657220696d706c656d656e7465720000000000000000000000000000602082015250565b7f4552433732313a20746f6b656e20616c7265616479206d696e74656400000000600082015250565b7f4552433732315072657365744d696e7465725061757365724175746f49643a2060008201527f6d75737420686176652070617573657220726f6c6520746f2070617573650000602082015250565b7f4552433732313a207472616e7366657220746f20746865207a65726f2061646460008201527f7265737300000000000000000000000000000000000000000000000000000000602082015250565b7f4552433732313a20617070726f766520746f2063616c6c657200000000000000600082015250565b7f4552433732313a206f70657261746f7220717565727920666f72206e6f6e657860008201527f697374656e7420746f6b656e0000000000000000000000000000000000000000602082015250565b7f5061757361626c653a2070617573656400000000000000000000000000000000600082015250565b7f4552433732313a20617070726f76652063616c6c6572206973206e6f74206f7760008201527f6e6572206e6f7220617070726f76656420666f7220616c6c0000000000000000602082015250565b7f4552433732313a2062616c616e636520717565727920666f7220746865207a6560008201527f726f206164647265737300000000000000000000000000000000000000000000602082015250565b7f4552433732313a206f776e657220717565727920666f72206e6f6e657869737460008201527f656e7420746f6b656e0000000000000000000000000000000000000000000000602082015250565b7f4552433732313a206d696e7420746f20746865207a65726f2061646472657373600082015250565b7f4552433732313a20617070726f76656420717565727920666f72206e6f6e657860008201527f697374656e7420746f6b656e0000000000000000000000000000000000000000602082015250565b7f4552433732313a207472616e73666572206f6620746f6b656e2074686174206960008201527f73206e6f74206f776e0000000000000000000000000000000000000000000000602082015250565b7f4552433732314d657461646174613a2055524920717565727920666f72206e6f60008201527f6e6578697374656e7420746f6b656e0000000000000000000000000000000000602082015250565b7f4552433732313a20617070726f76616c20746f2063757272656e74206f776e6560008201527f7200000000000000000000000000000000000000000000000000000000000000602082015250565b7f4552433732313a207472616e736665722063616c6c6572206973206e6f74206f60008201527f776e6572206e6f7220617070726f766564000000000000000000000000000000602082015250565b7f455243373231456e756d657261626c653a20676c6f62616c20696e646578206f60008201527f7574206f6620626f756e64730000000000000000000000000000000000000000602082015250565b7f416363657373436f6e74726f6c3a206163636f756e7420000000000000000000600082015250565b7f4552433732315072657365744d696e7465725061757365724175746f49643a2060008201527f6d7573742068617665206d696e74657220726f6c6520746f206d696e74000000602082015250565b7f4552433732314275726e61626c653a2063616c6c6572206973206e6f74206f7760008201527f6e6572206e6f7220617070726f76656400000000000000000000000000000000602082015250565b7f4552433732315072657365744d696e7465725061757365724175746f49643a2060008201527f6d75737420686176652070617573657220726f6c6520746f20756e7061757365602082015250565b7f206973206d697373696e6720726f6c6520000000000000000000000000000000600082015250565b7f416363657373436f6e74726f6c3a2063616e206f6e6c792072656e6f756e636560008201527f20726f6c657320666f722073656c660000000000000000000000000000000000602082015250565b6148f781613f35565b811461490257600080fd5b50565b61490e81613f47565b811461491957600080fd5b50565b61492581613f53565b811461493057600080fd5b50565b61493c81613f5d565b811461494757600080fd5b50565b61495381613fa9565b811461495e57600080fd5b5056fea2646970667358221220ccc3599d126b9faec2401e245d36b17aa214841c805b14cf3e61ca01a75c101a64736f6c63430008040033",
  "immutableReferences": {},
  "source": "pragma solidity ^0.8.4;\r\n\r\nimport \"@openzeppelin/contracts/token/ERC721/presets/ERC721PresetMinterPauserAutoId.sol\";\r\nimport \"@openzeppelin/contracts/utils/Counters.sol\";\r\n\r\ncontract TestToken is ERC721PresetMinterPauserAutoId {\r\n    constructor() ERC721PresetMinterPauserAutoId(\"TestToken\", \"TT\", \"example.com\") {}\r\n}\r\n",
  "sourcePath": "E:/Documents/OneDrive/Documents/solidity/nft-pawning-shop/solidity/contracts/TestToken.sol",
  "compiler": {
    "name": "solc",
    "version": "0.8.4+commit.c7e474f2.Emscripten.clang"
  },
  "schemaVersion": "3.4.1",
  "updatedAt": "2021-08-22T04:53:33.544Z",
  "networkType": "ethereum",
  "devdoc": {
    "kind": "dev",
    "methods": {
      "approve(address,uint256)": {
        "details": "See {IERC721-approve}."
      },
      "balanceOf(address)": {
        "details": "See {IERC721-balanceOf}."
      },
      "burn(uint256)": {
        "details": "Burns `tokenId`. See {ERC721-_burn}. Requirements: - The caller must own `tokenId` or be an approved operator."
      },
      "getApproved(uint256)": {
        "details": "See {IERC721-getApproved}."
      },
      "getRoleAdmin(bytes32)": {
        "details": "Returns the admin role that controls `role`. See {grantRole} and {revokeRole}. To change a role's admin, use {_setRoleAdmin}."
      },
      "getRoleMember(bytes32,uint256)": {
        "details": "Returns one of the accounts that have `role`. `index` must be a value between 0 and {getRoleMemberCount}, non-inclusive. Role bearers are not sorted in any particular way, and their ordering may change at any point. WARNING: When using {getRoleMember} and {getRoleMemberCount}, make sure you perform all queries on the same block. See the following https://forum.openzeppelin.com/t/iterating-over-elements-on-enumerableset-in-openzeppelin-contracts/2296[forum post] for more information."
      },
      "getRoleMemberCount(bytes32)": {
        "details": "Returns the number of accounts that have `role`. Can be used together with {getRoleMember} to enumerate all bearers of a role."
      },
      "grantRole(bytes32,address)": {
        "details": "Overload {grantRole} to track enumerable memberships"
      },
      "hasRole(bytes32,address)": {
        "details": "Returns `true` if `account` has been granted `role`."
      },
      "isApprovedForAll(address,address)": {
        "details": "See {IERC721-isApprovedForAll}."
      },
      "mint(address)": {
        "details": "Creates a new token for `to`. Its token ID will be automatically assigned (and available on the emitted {IERC721-Transfer} event), and the token URI autogenerated based on the base URI passed at construction. See {ERC721-_mint}. Requirements: - the caller must have the `MINTER_ROLE`."
      },
      "name()": {
        "details": "See {IERC721Metadata-name}."
      },
      "ownerOf(uint256)": {
        "details": "See {IERC721-ownerOf}."
      },
      "pause()": {
        "details": "Pauses all token transfers. See {ERC721Pausable} and {Pausable-_pause}. Requirements: - the caller must have the `PAUSER_ROLE`."
      },
      "paused()": {
        "details": "Returns true if the contract is paused, and false otherwise."
      },
      "renounceRole(bytes32,address)": {
        "details": "Overload {renounceRole} to track enumerable memberships"
      },
      "revokeRole(bytes32,address)": {
        "details": "Overload {revokeRole} to track enumerable memberships"
      },
      "safeTransferFrom(address,address,uint256)": {
        "details": "See {IERC721-safeTransferFrom}."
      },
      "safeTransferFrom(address,address,uint256,bytes)": {
        "details": "See {IERC721-safeTransferFrom}."
      },
      "setApprovalForAll(address,bool)": {
        "details": "See {IERC721-setApprovalForAll}."
      },
      "supportsInterface(bytes4)": {
        "details": "See {IERC165-supportsInterface}."
      },
      "symbol()": {
        "details": "See {IERC721Metadata-symbol}."
      },
      "tokenByIndex(uint256)": {
        "details": "See {IERC721Enumerable-tokenByIndex}."
      },
      "tokenOfOwnerByIndex(address,uint256)": {
        "details": "See {IERC721Enumerable-tokenOfOwnerByIndex}."
      },
      "tokenURI(uint256)": {
        "details": "See {IERC721Metadata-tokenURI}."
      },
      "totalSupply()": {
        "details": "See {IERC721Enumerable-totalSupply}."
      },
      "transferFrom(address,address,uint256)": {
        "details": "See {IERC721-transferFrom}."
      },
      "unpause()": {
        "details": "Unpauses all token transfers. See {ERC721Pausable} and {Pausable-_unpause}. Requirements: - the caller must have the `PAUSER_ROLE`."
      }
    },
    "version": 1
  },
  "userdoc": {
    "kind": "user",
    "methods": {},
    "version": 1
  }
}